{
  "abi": [
    {
      "inputs": [
        {
          "internalType": "address",
          "name": "_factory",
          "type": "address"
        },
        {
          "internalType": "address",
          "name": "_uniFactory",
          "type": "address"
        }
      ],
      "stateMutability": "nonpayable",
      "type": "constructor"
    },
    {
      "inputs": [],
      "name": "FailedTransfer",
      "type": "error"
    },
    {
      "inputs": [
        {
          "internalType": "uint256",
          "name": "prod1",
          "type": "uint256"
        }
      ],
      "name": "PRBMath__MulDivFixedPointOverflow",
      "type": "error"
    },
    {
      "inputs": [
        {
          "internalType": "uint256",
          "name": "prod1",
          "type": "uint256"
        },
        {
          "internalType": "uint256",
          "name": "denominator",
          "type": "uint256"
        }
      ],
      "name": "PRBMath__MulDivOverflow",
      "type": "error"
    },
    {
      "inputs": [
        {
          "components": [
            {
              "internalType": "address",
              "name": "base",
              "type": "address"
            },
            {
              "internalType": "address",
              "name": "speculative",
              "type": "address"
            },
            {
              "internalType": "uint256",
              "name": "baseScaleFactor",
              "type": "uint256"
            },
            {
              "internalType": "uint256",
              "name": "speculativeScaleFactor",
              "type": "uint256"
            },
            {
              "internalType": "uint256",
              "name": "upperBound",
              "type": "uint256"
            },
            {
              "internalType": "uint256",
              "name": "arbAmount",
              "type": "uint256"
            },
            {
              "internalType": "address",
              "name": "recipient",
              "type": "address"
            }
          ],
          "internalType": "struct Arbitrage.ArbParams",
          "name": "params",
          "type": "tuple"
        }
      ],
      "name": "arb0",
      "outputs": [],
      "stateMutability": "nonpayable",
      "type": "function"
    },
    {
      "inputs": [
        {
          "components": [
            {
              "internalType": "address",
              "name": "base",
              "type": "address"
            },
            {
              "internalType": "address",
              "name": "speculative",
              "type": "address"
            },
            {
              "internalType": "uint256",
              "name": "baseScaleFactor",
              "type": "uint256"
            },
            {
              "internalType": "uint256",
              "name": "speculativeScaleFactor",
              "type": "uint256"
            },
            {
              "internalType": "uint256",
              "name": "upperBound",
              "type": "uint256"
            },
            {
              "internalType": "uint256",
              "name": "arbAmount",
              "type": "uint256"
            },
            {
              "internalType": "address",
              "name": "recipient",
              "type": "address"
            }
          ],
          "internalType": "struct Arbitrage.ArbParams",
          "name": "params",
          "type": "tuple"
        }
      ],
      "name": "arb1",
      "outputs": [],
      "stateMutability": "nonpayable",
      "type": "function"
    },
    {
      "inputs": [
        {
          "internalType": "address",
          "name": "",
          "type": "address"
        },
        {
          "internalType": "uint256",
          "name": "amount0",
          "type": "uint256"
        },
        {
          "internalType": "uint256",
          "name": "amount1",
          "type": "uint256"
        },
        {
          "internalType": "bytes",
          "name": "data",
          "type": "bytes"
        }
      ],
      "name": "uniswapV2Call",
      "outputs": [],
      "stateMutability": "nonpayable",
      "type": "function"
    }
  ],
  "bytecode": {
    "object": "0x60c06040523480156200001157600080fd5b5060405162001b9538038062001b95833981016040819052620000349162000069565b6001600160a01b039182166080521660a052620000a1565b80516001600160a01b03811681146200006457600080fd5b919050565b600080604083850312156200007d57600080fd5b62000088836200004c565b915062000098602084016200004c565b90509250929050565b60805160a051611ac0620000d5600039600081816106af0152610a1a01526000818161078e0152610af90152611ac06000f3fe608060405234801561001057600080fd5b50600436106100415760003560e01c806310d1e85c146100465780632d27bc621461005b578063b65659921461006e575b600080fd5b6100596100543660046114d2565b610081565b005b610059610069366004611568565b610696565b61005961007c366004611568565b610a01565b600061008f828401846115db565b90508060e001511561042f57602081015160a08201516040517f70a0823100000000000000000000000000000000000000000000000000000000815273ffffffffffffffffffffffffffffffffffffffff918216600482015260009291909116906370a0823190602401602060405180830381865afa158015610116573d6000803e3d6000fd5b505050506040513d601f19601f8201168201806040525081019061013a9190611675565b905060008260a0015173ffffffffffffffffffffffffffffffffffffffff166318160ddd6040518163ffffffff1660e01b8152600401602060405180830381865afa15801561018d573d6000803e3d6000fd5b505050506040513d601f19601f820116820180604052508101906101b19190611675565b905060008088116101c257866101c4565b875b905060006101e2828585886040015189606001518a60800151610e81565b90506000803373ffffffffffffffffffffffffffffffffffffffff16630902f1ac6040518163ffffffff1660e01b8152600401606060405180830381865afa158015610232573d6000803e3d6000fd5b505050506040513d601f19601f8201168201806040525081019061025691906116ac565b506dffffffffffffffffffffffffffff1691506dffffffffffffffffffffffffffff169150600084886020015173ffffffffffffffffffffffffffffffffffffffff16896000015173ffffffffffffffffffffffffffffffffffffffff16106102bf57826102c1565b835b6102cb919061172b565b6102d7906103e861172b565b9050600085896020015173ffffffffffffffffffffffffffffffffffffffff168a6000015173ffffffffffffffffffffffffffffffffffffffff161061031d578461031f565b835b6103299190611742565b610335906103e561172b565b905060006103438284611784565b61034e9060016117bf565b90506103638a602001518b60a0015189610f43565b60a08a01516040517f9f1d0f59000000000000000000000000000000000000000000000000000000008152306004820152602481018890526000604482015273ffffffffffffffffffffffffffffffffffffffff90911690639f1d0f5990606401600060405180830381600087803b1580156103de57600080fd5b505af11580156103f2573d6000803e3d6000fd5b505050506104058a600001513383610f43565b89516101008b0151610421919061041c848a611742565b610f43565b50505050505050505061068e565b600080861161043e5784610440565b855b90506000803373ffffffffffffffffffffffffffffffffffffffff16630902f1ac6040518163ffffffff1660e01b8152600401606060405180830381865afa158015610490573d6000803e3d6000fd5b505050506040513d601f19601f820116820180604052508101906104b491906116ac565b506dffffffffffffffffffffffffffff1691506dffffffffffffffffffffffffffff169150600083856020015173ffffffffffffffffffffffffffffffffffffffff16866000015173ffffffffffffffffffffffffffffffffffffffff161061051d578361051f565b825b610529919061172b565b610535906103e861172b565b9050600084866020015173ffffffffffffffffffffffffffffffffffffffff16876000015173ffffffffffffffffffffffffffffffffffffffff161061057b578361057d565b845b6105879190611742565b610593906103e561172b565b905060006105a18284611784565b6105ac9060016117bf565b90506105c187600001518860a0015188610f43565b60a087015160c08801516040517f9f1d0f5900000000000000000000000000000000000000000000000000000000815230600482015260006024820152604481019190915273ffffffffffffffffffffffffffffffffffffffff90911690639f1d0f5990606401600060405180830381600087803b15801561064257600080fd5b505af1158015610656573d6000803e3d6000fd5b5050505061066987602001513383610f43565b6106878760200151886101000151838a60c0015161041c9190611742565b5050505050505b505050505050565b600073ffffffffffffffffffffffffffffffffffffffff7f00000000000000000000000000000000000000000000000000000000000000001663e6a439056106e160208501856117d2565b6106f160408601602087016117d2565b6040517fffffffff0000000000000000000000000000000000000000000000000000000060e085901b16815273ffffffffffffffffffffffffffffffffffffffff928316600482015291166024820152604401602060405180830381865afa158015610761573d6000803e3d6000fd5b505050506040513d601f19601f8201168201806040525081019061078591906117ef565b905060006107de7f00000000000000000000000000000000000000000000000000000000000000006107ba60208601866117d2565b6107ca60408701602088016117d2565b866040013587606001358860800135610fe0565b905073ffffffffffffffffffffffffffffffffffffffff821663022c0d9f61080c60408601602087016117d2565b73ffffffffffffffffffffffffffffffffffffffff1661082f60208701876117d2565b73ffffffffffffffffffffffffffffffffffffffff1610610854578460a00135610857565b60005b61086760408701602088016117d2565b73ffffffffffffffffffffffffffffffffffffffff1661088a60208801886117d2565b73ffffffffffffffffffffffffffffffffffffffff16106108ac5760006108b2565b8560a001355b6040805161012081019091523090806108ce60208b018b6117d2565b73ffffffffffffffffffffffffffffffffffffffff1681526020018960200160208101906108fc91906117d2565b73ffffffffffffffffffffffffffffffffffffffff1681526020018960800135815260200189604001358152602001896060013581526020018773ffffffffffffffffffffffffffffffffffffffff168152602001600081526020016001151581526020018960c001602081019061097491906117d2565b73ffffffffffffffffffffffffffffffffffffffff16905260405161099c919060200161180c565b6040516020818303038152906040526040518563ffffffff1660e01b81526004016109ca94939291906118c6565b600060405180830381600087803b1580156109e457600080fd5b505af11580156109f8573d6000803e3d6000fd5b50505050505050565b600073ffffffffffffffffffffffffffffffffffffffff7f00000000000000000000000000000000000000000000000000000000000000001663e6a43905610a4c60208501856117d2565b610a5c60408601602087016117d2565b6040517fffffffff0000000000000000000000000000000000000000000000000000000060e085901b16815273ffffffffffffffffffffffffffffffffffffffff928316600482015291166024820152604401602060405180830381865afa158015610acc573d6000803e3d6000fd5b505050506040513d601f19601f82011682018060405250810190610af091906117ef565b90506000610b257f00000000000000000000000000000000000000000000000000000000000000006107ba60208601866117d2565b90506000610b3960408501602086016117d2565b6040517f70a0823100000000000000000000000000000000000000000000000000000000815273ffffffffffffffffffffffffffffffffffffffff848116600483015291909116906370a0823190602401602060405180830381865afa158015610ba7573d6000803e3d6000fd5b505050506040513d601f19601f82011682018060405250810190610bcb9190611675565b905060008273ffffffffffffffffffffffffffffffffffffffff166318160ddd6040518163ffffffff1660e01b8152600401602060405180830381865afa158015610c1a573d6000803e3d6000fd5b505050506040513d601f19601f82011682018060405250810190610c3e9190611675565b90506000610c608660a00135848489608001358a604001358b6060013561112f565b905073ffffffffffffffffffffffffffffffffffffffff851663022c0d9f610c8e6040890160208a016117d2565b73ffffffffffffffffffffffffffffffffffffffff16610cb160208a018a6117d2565b73ffffffffffffffffffffffffffffffffffffffff1610610cd3576000610cd5565b825b610ce560408a0160208b016117d2565b73ffffffffffffffffffffffffffffffffffffffff16610d0860208b018b6117d2565b73ffffffffffffffffffffffffffffffffffffffff1610610d295783610d2c565b60005b604080516101208101909152309080610d4860208e018e6117d2565b73ffffffffffffffffffffffffffffffffffffffff1681526020018c6020016020810190610d7691906117d2565b73ffffffffffffffffffffffffffffffffffffffff1681526020018c6080013581526020018c6040013581526020018c6060013581526020018a73ffffffffffffffffffffffffffffffffffffffff1681526020018c60a0013581526020016000151581526020018c60c0016020810190610df191906117d2565b73ffffffffffffffffffffffffffffffffffffffff169052604051610e19919060200161180c565b6040516020818303038152906040526040518563ffffffff1660e01b8152600401610e4794939291906118c6565b600060405180830381600087803b158015610e6157600080fd5b505af1158015610e75573d6000803e3d6000fd5b50505050505050505050565b600080610ea1610e9189886111b1565b610e9c85600a611a7e565b6111b1565b90506000610ebd610eb289896111b1565b610e9c86600a611a7e565b90506000610ecb83886111cd565b905060006004610edc8560026111d9565b610ee69190611784565b905060006002610ef686866111cd565b610f009190611784565b9050610f33610f2382610f138587611742565b610f1d9190611742565b8c6111cd565b610f2e8a600a611a7e565b6111cd565b9c9b505050505050505050505050565b60006040517fa9059cbb00000000000000000000000000000000000000000000000000000000815273ffffffffffffffffffffffffffffffffffffffff841660048201528260248201526000806044836000895af1915050610fa481611239565b610fda576040517fbfa871c500000000000000000000000000000000000000000000000000000000815260040160405180910390fd5b50505050565b6040805173ffffffffffffffffffffffffffffffffffffffff8088166020830152861691810191909152606081018490526080810183905260a081018290526000908190889060c001604080517fffffffffffffffffffffffffffffffffffffffffffffffffffffffffffffffe08184030181529082905280516020918201206110ed939290917f540dbc5265a46985a192ce701e6ceb46ad6944994803a036288976c72c25260391017fff00000000000000000000000000000000000000000000000000000000000000815260609390931b7fffffffffffffffffffffffffffffffffffffffff0000000000000000000000001660018401526015830191909152603582015260550190565b604080518083037fffffffffffffffffffffffffffffffffffffffffffffffffffffffffffffffe0018152919052805160209091012098975050505050505050565b60008061113f610e9189886111b1565b90506000611150610eb289896111b1565b9050600061115e83886111cd565b90506000600461116f8560026111d9565b6111799190611784565b90506000600261118986866111cd565b6111939190611784565b9050610f336111a682610f1385876117bf565b610f239060016117bf565b60006111c683670de0b6b3a76400008461127e565b9392505050565b60006111c68383611386565b60008082600116116111f357670de0b6b3a76400006111f5565b825b9050600182901c91505b81156112335761120f8384611386565b92506001821615611227576112248184611386565b90505b600182901c91506111ff565b92915050565b60008161124a573d6000803e3d6000fd5b3d602081146112625780156112735760009150611278565b3d6000803e60005115159150611278565b600191505b50919050565b600080807fffffffffffffffffffffffffffffffffffffffffffffffffffffffffffffffff858709858702925082811083820303915050806000036112d6578382816112cc576112cc611755565b04925050506111c6565b83811061131e576040517f773cc18c00000000000000000000000000000000000000000000000000000000815260048101829052602481018590526044015b60405180910390fd5b600084868809600260036001881981018916988990049182028318808302840302808302840302808302840302808302840302808302840302918202909203026000889003889004909101858311909403939093029303949094049190911702949350505050565b600080807fffffffffffffffffffffffffffffffffffffffffffffffffffffffffffffffff848609848602925082811083820303915050670de0b6b3a76400008110611401576040517fd31b340200000000000000000000000000000000000000000000000000000000815260048101829052602401611315565b600080670de0b6b3a764000086880991506706f05b59d3b1ffff821190508260000361143f5780670de0b6b3a7640000850401945050505050611233565b6204000082850304939091119091037d40000000000000000000000000000000000000000000000000000000000002919091177faccb18165bd6fe31ae1cf318dc5b51eee0e1ba569b88cd74c1773b91fac106690201905092915050565b73ffffffffffffffffffffffffffffffffffffffff811681146114bf57600080fd5b50565b80356114cd8161149d565b919050565b6000806000806000608086880312156114ea57600080fd5b85356114f58161149d565b94506020860135935060408601359250606086013567ffffffffffffffff8082111561152057600080fd5b818801915088601f83011261153457600080fd5b81358181111561154357600080fd5b89602082850101111561155557600080fd5b9699959850939650602001949392505050565b600060e0828403121561127857600080fd5b604051610120810167ffffffffffffffff811182821017156115c5577f4e487b7100000000000000000000000000000000000000000000000000000000600052604160045260246000fd5b60405290565b803580151581146114cd57600080fd5b600061012082840312156115ee57600080fd5b6115f661157a565b6115ff836114c2565b815261160d602084016114c2565b602082015260408301356040820152606083013560608201526080830135608082015261163c60a084016114c2565b60a082015260c083013560c082015261165760e084016115cb565b60e082015261010061166a8185016114c2565b908201529392505050565b60006020828403121561168757600080fd5b5051919050565b80516dffffffffffffffffffffffffffff811681146114cd57600080fd5b6000806000606084860312156116c157600080fd5b6116ca8461168e565b92506116d86020850161168e565b9150604084015163ffffffff811681146116f157600080fd5b809150509250925092565b7f4e487b7100000000000000000000000000000000000000000000000000000000600052601160045260246000fd5b8082028115828204841417611233576112336116fc565b81810381811115611233576112336116fc565b7f4e487b7100000000000000000000000000000000000000000000000000000000600052601260045260246000fd5b6000826117ba577f4e487b7100000000000000000000000000000000000000000000000000000000600052601260045260246000fd5b500490565b80820180821115611233576112336116fc565b6000602082840312156117e457600080fd5b81356111c68161149d565b60006020828403121561180157600080fd5b81516111c68161149d565b60006101208201905073ffffffffffffffffffffffffffffffffffffffff8084511683528060208501511660208401525060408301516040830152606083015160608301526080830151608083015260a083015161188260a084018273ffffffffffffffffffffffffffffffffffffffff169052565b5060c083015160c083015260e08301516118a060e084018215159052565b506101009283015173ffffffffffffffffffffffffffffffffffffffff16919092015290565b84815260006020858184015273ffffffffffffffffffffffffffffffffffffffff8516604084015260806060840152835180608085015260005b8181101561191c5785810183015185820160a001528201611900565b50600060a0828601015260a07fffffffffffffffffffffffffffffffffffffffffffffffffffffffffffffffe0601f8301168501019250505095945050505050565b600181815b808511156119b757817fffffffffffffffffffffffffffffffffffffffffffffffffffffffffffffffff0482111561199d5761199d6116fc565b808516156119aa57918102915b93841c9390800290611963565b509250929050565b6000826119ce57506001611233565b816119db57506000611233565b81600181146119f157600281146119fb57611a17565b6001915050611233565b60ff841115611a0c57611a0c6116fc565b50506001821b611233565b5060208310610133831016604e8410600b8410161715611a3a575081810a611233565b611a44838361195e565b807fffffffffffffffffffffffffffffffffffffffffffffffffffffffffffffffff04821115611a7657611a766116fc565b029392505050565b60006111c683836119bf56fea2646970667358221220686b2d4af8cea09cc2adb28438f57be1ee22f7f287b523791f8a4b776012ae6064736f6c63430008110033",
    "linkReferences": {}
  },
  "methodIdentifiers": {
    "arb0((address,address,uint256,uint256,uint256,uint256,address))": "2d27bc62",
    "arb1((address,address,uint256,uint256,uint256,uint256,address))": "b6565992",
    "uniswapV2Call(address,uint256,uint256,bytes)": "10d1e85c"
  },
  "id": 22
}