{
  "abi": [
    {
      "inputs": [],
      "name": "AddressError",
      "type": "error"
    },
    {
      "inputs": [],
      "name": "DeployedError",
      "type": "error"
    },
    {
      "inputs": [],
      "name": "SameTokenError",
      "type": "error"
    },
    {
      "inputs": [],
      "name": "ZeroAddressError",
      "type": "error"
    },
    {
      "anonymous": false,
      "inputs": [
        {
          "indexed": true,
          "internalType": "address",
          "name": "base",
          "type": "address"
        },
        {
          "indexed": true,
          "internalType": "address",
          "name": "speculative",
          "type": "address"
        },
        {
          "indexed": false,
          "internalType": "uint256",
          "name": "baseScaleFactor",
          "type": "uint256"
        },
        {
          "indexed": false,
          "internalType": "uint256",
          "name": "speculativeScaleFactor",
          "type": "uint256"
        },
        {
          "indexed": true,
          "internalType": "uint256",
          "name": "upperBound",
          "type": "uint256"
        },
        {
          "indexed": false,
          "internalType": "address",
          "name": "lendgine",
          "type": "address"
        },
        {
          "indexed": false,
          "internalType": "address",
          "name": "pair",
          "type": "address"
        }
      ],
      "name": "LendgineCreated",
      "type": "event"
    },
    {
      "inputs": [
        {
          "internalType": "address",
          "name": "base",
          "type": "address"
        },
        {
          "internalType": "address",
          "name": "speculative",
          "type": "address"
        },
        {
          "internalType": "uint256",
          "name": "baseScaleFactor",
          "type": "uint256"
        },
        {
          "internalType": "uint256",
          "name": "speculativeScaleFactor",
          "type": "uint256"
        },
        {
          "internalType": "uint256",
          "name": "upperBound",
          "type": "uint256"
        }
      ],
      "name": "createLendgine",
      "outputs": [
        {
          "internalType": "address",
          "name": "",
          "type": "address"
        },
        {
          "internalType": "address",
          "name": "",
          "type": "address"
        }
      ],
      "stateMutability": "nonpayable",
      "type": "function"
    },
    {
      "inputs": [
        {
          "internalType": "address",
          "name": "",
          "type": "address"
        },
        {
          "internalType": "address",
          "name": "",
          "type": "address"
        },
        {
          "internalType": "uint256",
          "name": "",
          "type": "uint256"
        },
        {
          "internalType": "uint256",
          "name": "",
          "type": "uint256"
        },
        {
          "internalType": "uint256",
          "name": "",
          "type": "uint256"
        }
      ],
      "name": "getLendgine",
      "outputs": [
        {
          "internalType": "address",
          "name": "",
          "type": "address"
        }
      ],
      "stateMutability": "view",
      "type": "function"
    },
    {
      "inputs": [],
      "name": "pair",
      "outputs": [
        {
          "internalType": "address",
          "name": "",
          "type": "address"
        }
      ],
      "stateMutability": "view",
      "type": "function"
    },
    {
      "inputs": [],
      "name": "pairParameters",
      "outputs": [
        {
          "internalType": "address",
          "name": "lendgine",
          "type": "address"
        },
        {
          "internalType": "address",
          "name": "base",
          "type": "address"
        },
        {
          "internalType": "address",
          "name": "speculative",
          "type": "address"
        },
        {
          "internalType": "uint256",
          "name": "baseScaleFactor",
          "type": "uint256"
        },
        {
          "internalType": "uint256",
          "name": "speculativeScaleFactor",
          "type": "uint256"
        },
        {
          "internalType": "uint256",
          "name": "upperBound",
          "type": "uint256"
        }
      ],
      "stateMutability": "view",
      "type": "function"
    }
  ],
  "bytecode": {
    "object": "0x608060405234801561001057600080fd5b50614f8f806100206000396000f3fe608060405234801561001057600080fd5b506004361061004c5760003560e01c80636d9877ab146100515780638e53b690146100da578063a8aa1b3114610156578063c27518f314610176575b600080fd5b60015460025460035460045460055460065461008a9573ffffffffffffffffffffffffffffffffffffffff908116958116941692919086565b6040805173ffffffffffffffffffffffffffffffffffffffff9788168152958716602087015293909516928401929092526060830152608082015260a081019190915260c0015b60405180910390f35b6101316100e83660046107dd565b60006020818152958152604080822087529481528481208652928352838320855290825282822090935291825290205473ffffffffffffffffffffffffffffffffffffffff1681565b60405173ffffffffffffffffffffffffffffffffffffffff90911681526020016100d1565b6007546101319073ffffffffffffffffffffffffffffffffffffffff1681565b6101896101843660046107dd565b6101b6565b6040805173ffffffffffffffffffffffffffffffffffffffff9384168152929091166020830152016100d1565b6000808673ffffffffffffffffffffffffffffffffffffffff168673ffffffffffffffffffffffffffffffffffffffff160361021e576040517fec38b79400000000000000000000000000000000000000000000000000000000815260040160405180910390fd5b73ffffffffffffffffffffffffffffffffffffffff86161580610255575073ffffffffffffffffffffffffffffffffffffffff8716155b1561028c576040517f3efa09af00000000000000000000000000000000000000000000000000000000815260040160405180910390fd5b73ffffffffffffffffffffffffffffffffffffffff8781166000908152602081815260408083208a85168452825280832089845282528083208884528252808320878452909152902054161561030e576040517f4e53fce700000000000000000000000000000000000000000000000000000000815260040160405180910390fd5b600061031e30898989898961065e565b6040805160c0808201835273ffffffffffffffffffffffffffffffffffffffff8481168084528d82166020808601829052928e1685870181905260608087018f905260808088018f905260a09788018e9052600180547fffffffffffffffffffffffff000000000000000000000000000000000000000090811690961790556002805486168517905560038054909516831790945560048f905560058e905560068d9055875194850192909252958301959095529381018b9052928301899052908201879052919250600091016040516020818303038152906040528051906020012060405161040d9061079a565b8190604051809103906000f590508015801561042d573d6000803e3d6000fd5b50600780547fffffffffffffffffffffffff00000000000000000000000000000000000000001673ffffffffffffffffffffffffffffffffffffffff83811691909117909155604080518c83166020820152918b1690820152606081018990526080810188905260a0810187905290915060009060c001604051602081830303815290604052805190602001206040516104c6906107a7565b8190604051809103906000f59050801580156104e6573d6000803e3d6000fd5b50600780547fffffffffffffffffffffffff000000000000000000000000000000000000000090811690915560018054821690556002805482169055600380549091169055600060048190556005819055600655905073ffffffffffffffffffffffffffffffffffffffff8381169082161461058e576040517f62cb2cb800000000000000000000000000000000000000000000000000000000815260040160405180910390fd5b73ffffffffffffffffffffffffffffffffffffffff8a81166000818152602081815260408083208e86168085529083528184208e855283528184208d855283528184208c855283529281902080547fffffffffffffffffffffffff00000000000000000000000000000000000000001687871690811790915581518e81529283018d905290820152928516606084015288929091907f1c8c5ae778c5728afc9c5b6cd391acf7cb01a6c6d4988fb2de551001ec7dc6449060800160405180910390a4999098509650505050505050565b6040805173ffffffffffffffffffffffffffffffffffffffff8088166020830152861691810191909152606081018490526080810183905260a081018290526000908190889060c00160405160208183030381529060405280519060200120604051806020016106cd906107a7565b6020820181038252601f19601f8201166040525080519060200120604051602001610758939291907fff00000000000000000000000000000000000000000000000000000000000000815260609390931b7fffffffffffffffffffffffffffffffffffffffff0000000000000000000000001660018401526015830191909152603582015260550190565b604080518083037fffffffffffffffffffffffffffffffffffffffffffffffffffffffffffffffe0018152919052805160209091012098975050505050505050565b6117268061082b83390190565b61300980611f5183390190565b803573ffffffffffffffffffffffffffffffffffffffff811681146107d857600080fd5b919050565b600080600080600060a086880312156107f557600080fd5b6107fe866107b4565b945061080c602087016107b4565b9497949650505050604083013592606081013592608090910135915056fe6101606040526002805460ff191660011790553480156200001f57600080fd5b50336001600160a01b03166080816001600160a01b031681525050600080336001600160a01b0316636d9877ab6040518163ffffffff1660e01b815260040160c060405180830381865afa1580156200007c573d6000803e3d6000fd5b505050506040513d601f19601f82011682018060405250810190620000a2919062000150565b610100526001600160a01b0392831660e05292821660c052921660a05290925090506012821180620000d45750600682105b15620000f357604051636819ba0560e01b815260040160405180910390fd5b6012811180620001035750600681105b156200012257604051636819ba0560e01b815260040160405180910390fd5b6101209190915261014052620001b6565b80516001600160a01b03811681146200014b57600080fd5b919050565b60008060008060008060c087890312156200016a57600080fd5b620001758762000133565b9550620001856020880162000133565b9450620001956040880162000133565b9350606087015192506080870151915060a087015190509295509295509295565b60805160a05160c05160e0516101005161012051610140516114ba6200026c600039600081816101cb015261073801526000818161013b01526106f701526000818161027501528181610769015281816107b101526107de0152600081816102df015281816105f7015281816109b40152610b1a0152600081816101620152818161048d015281816109890152610ae901526000818161024e015281816103190152610d3f015260006102af01526114ba6000f3fe608060405234801561001057600080fd5b50600436106101005760003560e01c80639f1d0f5911610097578063bb9a590811610066578063bb9a590814610297578063c45a0155146102aa578063edaafe20146102d1578063ee1f21d8146102da57600080fd5b80639f1d0f5914610223578063a0712d6814610236578063a39bfd1314610249578063b09ad8a01461027057600080fd5b80637bb98a68116100d35780637bb98a68146101a957806387557ff7146101c65780639a4d5e21146101ed5780639dc29fac1461021057600080fd5b806318160ddd1461010557806322cf1989146101215780632faf67d6146101365780635001f3b51461015d575b600080fd5b61010e60005481565b6040519081526020015b60405180910390f35b61013461012f36600461116f565b610301565b005b61010e7f000000000000000000000000000000000000000000000000000000000000000081565b6101847f000000000000000000000000000000000000000000000000000000000000000081565b60405173ffffffffffffffffffffffffffffffffffffffff9091168152602001610118565b6101b16103d2565b60408051928352602083019190915201610118565b61010e7f000000000000000000000000000000000000000000000000000000000000000081565b6102006101fb366004611188565b6106e2565b6040519015158152602001610118565b6101b161021e3660046111dd565b610862565b610134610231366004611207565b610a50565b61013461024436600461116f565b610bf9565b6101847f000000000000000000000000000000000000000000000000000000000000000081565b61010e7f000000000000000000000000000000000000000000000000000000000000000081565b6101346102a536600461116f565b610d27565b6101847f000000000000000000000000000000000000000000000000000000000000000081565b61010e60015481565b6101847f000000000000000000000000000000000000000000000000000000000000000081565b3373ffffffffffffffffffffffffffffffffffffffff7f00000000000000000000000000000000000000000000000000000000000000001614610370576040517fb3491a6e00000000000000000000000000000000000000000000000000000000815260040160405180910390fd5b6000546001546103809083611269565b11156103b8576040517feecc2bbd00000000000000000000000000000000000000000000000000000000815260040160405180910390fd5b80600160008282546103ca9190611269565b909155505050565b604080518082018252601281527f62616c616e63654f662861646472657373290000000000000000000000000000602091820152815130602480830191909152835180830390910181526044909101835290810180517bffffffffffffffffffffffffffffffffffffffffffffffffffffffff167f70a082310000000000000000000000000000000000000000000000000000000017905290516000918291829160609173ffffffffffffffffffffffffffffffffffffffff7f000000000000000000000000000000000000000000000000000000000000000016916104b79161127c565b600060405180830381855afa9150503d80600081146104f2576040519150601f19603f3d011682016040523d82523d6000602084013e6104f7565b606091505b50909250905081158061050b575060208151105b15610542576040517f7613bc8900000000000000000000000000000000000000000000000000000000815260040160405180910390fd5b60008180602001905181019061055891906112ab565b604080518082018252601281527f62616c616e63654f662861646472657373290000000000000000000000000000602091820152815130602480830191909152835180830390910181526044909101835290810180517bffffffffffffffffffffffffffffffffffffffffffffffffffffffff167f70a082310000000000000000000000000000000000000000000000000000000017905290519192507f000000000000000000000000000000000000000000000000000000000000000073ffffffffffffffffffffffffffffffffffffffff1691610637919061127c565b600060405180830381855afa9150503d8060008114610672576040519150601f19603f3d011682016040523d82523d6000602084013e610677565b606091505b50909350915082158061068b575060208251105b156106c2576040517f7613bc8900000000000000000000000000000000000000000000000000000000815260040160405180910390fd5b80828060200190518101906106d791906112ab565b945094505050509091565b6000806107226106f28685610da8565b61071d7f0000000000000000000000000000000000000000000000000000000000000000600a6113e4565b610da8565b9050600061075e6107338686610da8565b61071d7f0000000000000000000000000000000000000000000000000000000000000000600a6113e4565b905081600061078d837f0000000000000000000000000000000000000000000000000000000000000000610dbd565b90506000600461079e856002610dc9565b6107a8919061141f565b905060006107d77f00000000000000000000000000000000000000000000000000000000000000006002610dc9565b90506108047f0000000000000000000000000000000000000000000000000000000000000000600261145a565b85111561083d576040517ff80926d800000000000000000000000000000000000000000000000000000000815260040160405180910390fd5b6108478183611269565b6108518486611269565b1496505050505050505b9392505050565b600254600090819060ff166001146108a6576040517f29f745a700000000000000000000000000000000000000000000000000000000815260040160405180910390fd5b6002805460ff1916811790556000806108bd6103d2565b60005491935091506108d08383836106e2565b610906576040517f6819ba0500000000000000000000000000000000000000000000000000000000815260040160405180910390fd5b600081610913888661145a565b61091d919061141f565b905060008261092c898661145a565b610936919061141f565b905081158015610944575080155b1561097b576040517fd5ab59fe00000000000000000000000000000000000000000000000000000000815260040160405180910390fd5b61098488610e29565b6109af7f00000000000000000000000000000000000000000000000000000000000000008a84610e4c565b6109da7f00000000000000000000000000000000000000000000000000000000000000008a83610e4c565b604080518381526020810183905290810189905273ffffffffffffffffffffffffffffffffffffffff8a169033907fd175a80c109434bb89948928ab2475a6647c94244cb70002197896423c8833639060600160405180910390a36002805460ff19166001179055909890975095505050505050565b60025460ff16600114610a8f576040517f29f745a700000000000000000000000000000000000000000000000000000000815260040160405180910390fd5b6002805460ff19168117905581158015610aa7575080155b15610ade576040517fd5ab59fe00000000000000000000000000000000000000000000000000000000815260040160405180910390fd5b8115610b0f57610b0f7f00000000000000000000000000000000000000000000000000000000000000008484610e4c565b8015610b4057610b407f00000000000000000000000000000000000000000000000000000000000000008483610e4c565b600080610b4b6103d2565b91509150610b5c82826000546106e2565b610b92576040517f6819ba0500000000000000000000000000000000000000000000000000000000815260040160405180910390fd5b604080518581526020810185905273ffffffffffffffffffffffffffffffffffffffff87169133917f2a9237ff5aa599ef4c5ee4b1142b53429d5755e2685fe6288b2e3320202115f5910160405180910390a350506002805460ff19166001179055505050565b60025460ff16600114610c38576040517f29f745a700000000000000000000000000000000000000000000000000000000815260040160405180910390fd5b6002805460ff1916811790556000819003610c7f576040517fd5ab59fe00000000000000000000000000000000000000000000000000000000815260040160405180910390fd5b600080610c8a6103d2565b91509150610ca18282600054866101fb9190611269565b610cd7576040517f6819ba0500000000000000000000000000000000000000000000000000000000815260040160405180910390fd5b610ce083610ee9565b60405183815233907f0f6798a560793a54c3bcfe86a93cde1e73087d944c0ea20544137d41213968859060200160405180910390a250506002805460ff1916600117905550565b3373ffffffffffffffffffffffffffffffffffffffff7f00000000000000000000000000000000000000000000000000000000000000001614610d96576040517fb3491a6e00000000000000000000000000000000000000000000000000000000815260040160405180910390fd5b80600160008282546103ca9190611471565b600061085b83670de0b6b3a764000084610f0a565b600061085b8383611013565b6000808260011611610de357670de0b6b3a7640000610de5565b825b9050600182901c91505b8115610e2357610dff8384611013565b92506001821615610e1757610e148184611013565b90505b600182901c9150610def565b92915050565b8060016000828254610e3b9190611471565b909155505060008054919091039055565b60006040517fa9059cbb00000000000000000000000000000000000000000000000000000000815273ffffffffffffffffffffffffffffffffffffffff841660048201528260248201526000806044836000895af1915050610ead8161112a565b610ee3576040517fbfa871c500000000000000000000000000000000000000000000000000000000815260040160405180910390fd5b50505050565b80600080828254610efa9190611269565b9091555050600180549091019055565b600080807fffffffffffffffffffffffffffffffffffffffffffffffffffffffffffffffff85870985870292508281108382030391505080600003610f6257838281610f5857610f586113f0565b049250505061085b565b838110610faa576040517f773cc18c00000000000000000000000000000000000000000000000000000000815260048101829052602481018590526044015b60405180910390fd5b60008486880960026001871981018816978890046003810283188082028403028082028403028082028403028082028403028082028403029081029092039091026000889003889004909101858311909403939093029303949094049190911702949350505050565b600080807fffffffffffffffffffffffffffffffffffffffffffffffffffffffffffffffff848609848602925082811083820303915050670de0b6b3a7640000811061108e576040517fd31b340200000000000000000000000000000000000000000000000000000000815260048101829052602401610fa1565b600080670de0b6b3a764000086880991506706f05b59d3b1ffff82119050826000036110cc5780670de0b6b3a7640000850401945050505050610e23565b6204000082850304939091119091037d40000000000000000000000000000000000000000000000000000000000002919091177faccb18165bd6fe31ae1cf318dc5b51eee0e1ba569b88cd74c1773b91fac106690201905092915050565b60008161113b573d6000803e3d6000fd5b3d602081146111535780156111645760009150611169565b3d6000803e60005115159150611169565b600191505b50919050565b60006020828403121561118157600080fd5b5035919050565b60008060006060848603121561119d57600080fd5b505081359360208301359350604090920135919050565b803573ffffffffffffffffffffffffffffffffffffffff811681146111d857600080fd5b919050565b600080604083850312156111f057600080fd5b6111f9836111b4565b946020939093013593505050565b60008060006060848603121561121c57600080fd5b611225846111b4565b95602085013595506040909401359392505050565b7f4e487b7100000000000000000000000000000000000000000000000000000000600052601160045260246000fd5b80820180821115610e2357610e2361123a565b6000825160005b8181101561129d5760208186018101518583015201611283565b506000920191825250919050565b6000602082840312156112bd57600080fd5b5051919050565b600181815b8085111561131d57817fffffffffffffffffffffffffffffffffffffffffffffffffffffffffffffffff048211156113035761130361123a565b8085161561131057918102915b93841c93908002906112c9565b509250929050565b60008261133457506001610e23565b8161134157506000610e23565b816001811461135757600281146113615761137d565b6001915050610e23565b60ff8411156113725761137261123a565b50506001821b610e23565b5060208310610133831016604e8410600b84101617156113a0575081810a610e23565b6113aa83836112c4565b807fffffffffffffffffffffffffffffffffffffffffffffffffffffffffffffffff048211156113dc576113dc61123a565b029392505050565b600061085b8383611325565b7f4e487b7100000000000000000000000000000000000000000000000000000000600052601260045260246000fd5b600082611455577f4e487b7100000000000000000000000000000000000000000000000000000000600052601260045260246000fd5b500490565b8082028115828204841417610e2357610e2361123a565b81810381811115610e2357610e2361123a56fea264697066735822122088a53a2d8cbf64cb89d0f345efbf89024665c6b0e2fac111d6181973515098c364736f6c634300081100336101006040526008805460ff60401b1916680100000000000000001790553480156200002a57600080fd5b504660805262000103604080518082018252601d81527f4e756d6f656e205265706c69636174696e67204465726976617469766500000060209182015281517f8b73c3c69bb8fe3d512ecc4cf759cc79239f7b179b0ffacaa9a75d522b39400f818301527fe0aacc3a18ef84f81cc6ccd9ffda212f4a39a80cf42fda9f7c775397b63887b6818401527fc89efdaa54c0f20c7adf612882df0950f5a951637e0307cdcb4c672f298b8bc660608201524660808201523060a0808301919091528351808303909101815260c0909101909252815191012090565b60a0523360c08190526040805163a8aa1b3160e01b8152905163a8aa1b31916004808201926020929091908290030181865afa15801562000148573d6000803e3d6000fd5b505050506040513d601f19601f820116820180604052508101906200016e919062000180565b6001600160a01b031660e052620001b2565b6000602082840312156200019357600080fd5b81516001600160a01b0381168114620001ab57600080fd5b9392505050565b60805160a05160c05160e051612dd762000232600039600081816104ed015281816106d701528181610b3001528181610e9d01528181610fa9015281816112bd01528181611333015281816115ea015281816117b401528181611e660152611f880152600061057901526000610d1901526000610c200152612dd76000f3fe608060405234801561001057600080fd5b506004361061025c5760003560e01c80637a52b93711610145578063a9059cbb116100bd578063d98026f11161008c578063dd62ed3e11610071578063dd62ed3e146105c0578063f340fa01146105eb578063fd2da339146105fe57600080fd5b8063d98026f1146105ae578063d9832154146105b757600080fd5b8063a9059cbb14610534578063c046371114610547578063c45a015514610574578063d505accf1461059b57600080fd5b806395d89b4111610114578063a5cdfa94116100f9578063a5cdfa94146104cd578063a6afed95146104e0578063a8aa1b31146104e857600080fd5b806395d89b411461047e5780639ff47dc3146104ba57600080fd5b80637a52b937146104305780637ecebe001461043857806389afcb441461045857806394d008ef1461046b57600080fd5b80632e5e549e116101d85780633b7cf699116101a757806355f575101161018c57806355f57510146103b35780636b8357ac146103fd57806370a082311461041057600080fd5b80633b7cf699146103985780634fd9b90a146103ab57600080fd5b80632e5e549e14610353578063313ce567146103665780633644e51514610380578063375259281461038857600080fd5b806318160ddd1161022f57806323b872dd1161021457806323b872dd146103185780632a11a8a01461032b5780632e1a7d4d1461033e57600080fd5b806318160ddd146103005780631b3ed7221461030957600080fd5b806306fdde0314610261578063095ea7b3146102b357806312fb162d146102d657806315770f92146102f7575b600080fd5b61029d6040518060400160405280601d81526020017f4e756d6f656e205265706c69636174696e67204465726976617469766500000081525081565b6040516102aa9190612979565b60405180910390f35b6102c66102c13660046129ef565b61060d565b60405190151581526020016102aa565b6102e96102e4366004612a1b565b6106cf565b6040519081526020016102aa565b6102e960055481565b6102e960005481565b6102e9671314fb370629800081565b6102c6610326366004612a34565b610774565b6102e9610339366004612a75565b61092a565b61035161034c366004612a1b565b61096d565b005b6102e9610361366004612a1b565b610bf7565b61036e601281565b60405160ff90911681526020016102aa565b6102e9610c1c565b6102e96802698fc23a98e2000081565b6102e96103a6366004612a1b565b610d3b565b610351610d4c565b6103e26103c1366004612a97565b60046020526000908152604090208054600182015460029092015490919083565b604080519384526020840192909252908201526060016102aa565b6102e961040b3660046129ef565b610de4565b6102e961041e366004612a97565b60016020526000908152604090205481565b6102e9610fa2565b6102e9610446366004612a97565b60036020526000908152604090205481565b6102e9610466366004612a97565b61119a565b6102e9610479366004612ab4565b611446565b61029d6040518060400160405280600381526020017f4e5244000000000000000000000000000000000000000000000000000000000081525081565b6102e96104c8366004612a1b565b6117ac565b6102e96104db366004612a75565b611851565b61035161191e565b61050f7f000000000000000000000000000000000000000000000000000000000000000081565b60405173ffffffffffffffffffffffffffffffffffffffff90911681526020016102aa565b6102c66105423660046129ef565b61198e565b60085461055b9067ffffffffffffffff1681565b60405167ffffffffffffffff90911681526020016102aa565b61050f7f000000000000000000000000000000000000000000000000000000000000000081565b6103516105a9366004612b3d565b611a60565b6102e960075481565b6102e960065481565b6102e96105ce366004612bb4565b600260209081526000928352604080842090915290825290205481565b6103516105f9366004612a97565b611df2565b6102e9670b1a2bc2ec50000081565b600073ffffffffffffffffffffffffffffffffffffffff831661065c576040517f3efa09af00000000000000000000000000000000000000000000000000000000815260040160405180910390fd5b33600081815260026020908152604080832073ffffffffffffffffffffffffffffffffffffffff881680855290835292819020869055518581529192917f8c5be1e5ebec7d5bd14f71427d1e84f3dd0314c0f7b2291e5b200ac8c7c3b92591015b60405180910390a35060015b92915050565b60006106c9827f000000000000000000000000000000000000000000000000000000000000000073ffffffffffffffffffffffffffffffffffffffff1663b09ad8a06040518163ffffffff1660e01b8152600401602060405180830381865afa158015610740573d6000803e3d6000fd5b505050506040513d601f19601f820116820180604052508101906107649190612bed565b61076f906002612c35565b612067565b600073ffffffffffffffffffffffffffffffffffffffff841615806107ad575073ffffffffffffffffffffffffffffffffffffffff8316155b156107e4576040517f3efa09af00000000000000000000000000000000000000000000000000000000815260040160405180910390fd5b73ffffffffffffffffffffffffffffffffffffffff841660009081526002602090815260408083203384529091529020547fffffffffffffffffffffffffffffffffffffffffffffffffffffffffffffffff8114610878576108468382612c4c565b73ffffffffffffffffffffffffffffffffffffffff861660009081526002602090815260408083203384529091529020555b73ffffffffffffffffffffffffffffffffffffffff8516600090815260016020526040812080548592906108ad908490612c4c565b909155505073ffffffffffffffffffffffffffffffffffffffff808516600081815260016020526040908190208054870190555190918716907fddf252ad1be2c89b69c2b068fc378daa952ba7f163c4a11628f55a4df523b3ef906109159087815260200190565b60405180910390a360019150505b9392505050565b6000806109378484612073565b905060006109458585611851565b9050670de0b6b3a764000061095a8383612c35565b6109649190612c8e565b95945050505050565b60085468010000000000000000900460ff166001146109b8576040517f29f745a700000000000000000000000000000000000000000000000000000000815260040160405180910390fd5b6008805468ff00000000000000001916680200000000000000001790556109dd6120a2565b80600003610a17576040517fd5ab59fe00000000000000000000000000000000000000000000000000000000815260040160405180910390fd5b33600090815260046020526040812060408051606081018252825480825260018401546020830152600290930154918101919091529150821115610a87576040517fe8ffb44c00000000000000000000000000000000000000000000000000000000815260040160405180910390fd5b81600554610a959190612c4c565b6006541115610ad0576040517f088c327000000000000000000000000000000000000000000000000000000000815260040160405180910390fd5b610aea33610add84612cc9565b6007546004929190612228565b8160056000828254610afc9190612c4c565b90915550506040517f22cf1989000000000000000000000000000000000000000000000000000000008152600481018390527f000000000000000000000000000000000000000000000000000000000000000073ffffffffffffffffffffffffffffffffffffffff16906322cf198990602401600060405180830381600087803b158015610b8957600080fd5b505af1158015610b9d573d6000803e3d6000fd5b50506040518481523392507f884edad9ce6fa2440d8a54cc123490eb96d2768479d49ff9c7366125a9424364915060200160405180910390a250506008805468ff0000000000000000191668010000000000000000179055565b6006546000908015610c1557610c10836000548361231b565b610923565b5090919050565b60007f00000000000000000000000000000000000000000000000000000000000000004614610d165750604080518082018252601d81527f4e756d6f656e205265706c69636174696e67204465726976617469766500000060209182015281517f8b73c3c69bb8fe3d512ecc4cf759cc79239f7b179b0ffacaa9a75d522b39400f818301527fe0aacc3a18ef84f81cc6ccd9ffda212f4a39a80cf42fda9f7c775397b63887b6818401527fc89efdaa54c0f20c7adf612882df0950f5a951637e0307cdcb4c672f298b8bc660608201524660808201523060a0808301919091528351808303909101815260c0909101909252815191012090565b507f000000000000000000000000000000000000000000000000000000000000000090565b60006106c96006548360005461231b565b60085468010000000000000000900460ff16600114610d97576040517f29f745a700000000000000000000000000000000000000000000000000000000815260040160405180910390fd5b6008805468ff0000000000000000191668020000000000000000179055610dbc6120a2565b610dc53361241f565b6008805468ff0000000000000000191668010000000000000000179055565b600060088054906101000a900460ff1660ff16600114610e30576040517f29f745a700000000000000000000000000000000000000000000000000000000815260040160405180910390fd5b6008805468ff0000000000000000191668020000000000000000179055336000908152600460205260408120905080600201548311610e6f5782610e75565b80600201545b91508115610f315781816002016000828254610e919190612c4c565b92505081905550610f317f000000000000000000000000000000000000000000000000000000000000000073ffffffffffffffffffffffffffffffffffffffff1663ee1f21d86040518163ffffffff1660e01b8152600401602060405180830381865afa158015610f06573d6000803e3d6000fd5b505050506040513d601f19601f82011682018060405250810190610f2a9190612d01565b8584612484565b60405182815273ffffffffffffffffffffffffffffffffffffffff85169033907f1314fd112a381beea61539dbd21ec04afcff2662ac7d1b83273aade1f53d1b979060200160405180910390a3506008805468ff000000000000000019166801000000000000000017905592915050565b60008060607f000000000000000000000000000000000000000000000000000000000000000073ffffffffffffffffffffffffffffffffffffffff1663ee1f21d86040518163ffffffff1660e01b8152600401602060405180830381865afa158015611012573d6000803e3d6000fd5b505050506040513d601f19601f820116820180604052508101906110369190612d01565b604080518082018252601281527f62616c616e63654f662861646472657373290000000000000000000000000000602091820152815130602480830191909152835180830390910181526044909101835290810180517bffffffffffffffffffffffffffffffffffffffffffffffffffffffff167f70a0823100000000000000000000000000000000000000000000000000000000179052905173ffffffffffffffffffffffffffffffffffffffff92909216916110f49190612d1e565b600060405180830381855afa9150503d806000811461112f576040519150601f19603f3d011682016040523d82523d6000602084013e611134565b606091505b509092509050811580611148575060208151105b1561117f576040517f7613bc8900000000000000000000000000000000000000000000000000000000815260040160405180910390fd5b808060200190518101906111939190612bed565b9250505090565b600060088054906101000a900460ff1660ff166001146111e6576040517f29f745a700000000000000000000000000000000000000000000000000000000815260040160405180910390fd5b6008805468ff000000000000000019166802000000000000000017905561120b6120a2565b306000908152600160205260408120549061122582610d3b565b9050611230816106cf565b92508060000361126c576040517fd5ab59fe00000000000000000000000000000000000000000000000000000000815260040160405180910390fd5b806006600082825461127e9190612c4c565b9091555061128e90503083612521565b6040517fbb9a5908000000000000000000000000000000000000000000000000000000008152600481018290527f000000000000000000000000000000000000000000000000000000000000000073ffffffffffffffffffffffffffffffffffffffff169063bb9a590890602401600060405180830381600087803b15801561131657600080fd5b505af115801561132a573d6000803e3d6000fd5b505050506113c77f000000000000000000000000000000000000000000000000000000000000000073ffffffffffffffffffffffffffffffffffffffff1663ee1f21d86040518163ffffffff1660e01b8152600401602060405180830381865afa15801561139c573d6000803e3d6000fd5b505050506040513d601f19601f820116820180604052508101906113c09190612d01565b8585612484565b604080518481526020810184905290810182905273ffffffffffffffffffffffffffffffffffffffff85169033907fd175a80c109434bb89948928ab2475a6647c94244cb70002197896423c8833639060600160405180910390a350506008805468ff0000000000000000191668010000000000000000179055919050565b600060088054906101000a900460ff1660ff16600114611492576040517f29f745a700000000000000000000000000000000000000000000000000000000815260040160405180910390fd5b6008805468ff00000000000000001916680200000000000000001790556114b76120a2565b60006114c2856117ac565b90506114cd81610bf7565b915081600003611509576040517fd5ab59fe00000000000000000000000000000000000000000000000000000000815260040160405180910390fd5b6005546006546115199083612d3a565b1115611551576040517f088c327000000000000000000000000000000000000000000000000000000000815260040160405180910390fd5b600080541180156115625750600654155b15611599576040517f088c327000000000000000000000000000000000000000000000000000000000815260040160405180910390fd5b80600660008282546115ab9190612d3a565b909155506115bb90508683612601565b6040517f22cf1989000000000000000000000000000000000000000000000000000000008152600481018290527f000000000000000000000000000000000000000000000000000000000000000073ffffffffffffffffffffffffffffffffffffffff16906322cf198990602401600060405180830381600087803b15801561164357600080fd5b505af1158015611657573d6000803e3d6000fd5b505050506000611665610fa2565b6040517f019e868b000000000000000000000000000000000000000000000000000000008152909150339063019e868b906116a890899089908990600401612d4d565b600060405180830381600087803b1580156116c257600080fd5b505af11580156116d6573d6000803e3d6000fd5b5050505060006116e4610fa2565b90506116f08783612d3a565b811015611729576040517fee30a99300000000000000000000000000000000000000000000000000000000815260040160405180910390fd5b604080518881526020810186905290810184905273ffffffffffffffffffffffffffffffffffffffff89169033907fa8137fff86647d8a402117b9c5dbda627f721d3773338fb9678c83e54ed390809060600160405180910390a350506008805468ff000000000000000019166801000000000000000017905550949350505050565b60006106c9827f000000000000000000000000000000000000000000000000000000000000000073ffffffffffffffffffffffffffffffffffffffff1663b09ad8a06040518163ffffffff1660e01b8152600401602060405180830381865afa15801561181d573d6000803e3d6000fd5b505050506040513d601f19601f820116820180604052508101906118419190612bed565b61184c906002612c35565b6126be565b60008061185e8484612073565b9050670b1a2bc2ec500000811161189c57670de0b6b3a764000061188a671314fb370629800083612c35565b6118949190612c8e565b9150506106c9565b6000670de0b6b3a76400006118c1671314fb3706298000670b1a2bc2ec500000612c35565b6118cb9190612c8e565b905060006118e1670b1a2bc2ec50000084612c4c565b905081670de0b6b3a76400006119006802698fc23a98e2000084612c35565b61190a9190612c8e565b6119149190612d3a565b93505050506106c9565b60085468010000000000000000900460ff16600114611969576040517f29f745a700000000000000000000000000000000000000000000000000000000815260040160405180910390fd5b6008805468ff0000000000000000191668020000000000000000179055610dc56120a2565b600073ffffffffffffffffffffffffffffffffffffffff83166119dd576040517f3efa09af00000000000000000000000000000000000000000000000000000000815260040160405180910390fd5b33600090815260016020526040812080548492906119fc908490612c4c565b909155505073ffffffffffffffffffffffffffffffffffffffff8316600081815260016020526040908190208054850190555133907fddf252ad1be2c89b69c2b068fc378daa952ba7f163c4a11628f55a4df523b3ef906106bd9086815260200190565b73ffffffffffffffffffffffffffffffffffffffff87161580611a97575073ffffffffffffffffffffffffffffffffffffffff8616155b15611ace576040517f3efa09af00000000000000000000000000000000000000000000000000000000815260040160405180910390fd5b42841015611b3d576040517f08c379a000000000000000000000000000000000000000000000000000000000815260206004820152601760248201527f5045524d49545f444541444c494e455f4558504952454400000000000000000060448201526064015b60405180910390fd5b60006001611b49610c1c565b73ffffffffffffffffffffffffffffffffffffffff8a811660008181526003602090815260409182902080546001810190915582517f6e71edae12b1b97f4d1f60370fef10105fa2faae0126114a169c64845d6126c98184015280840194909452938d166060840152608083018c905260a083019390935260c08083018b90528151808403909101815260e0830190915280519201919091207f190100000000000000000000000000000000000000000000000000000000000061010083015261010282019290925261012281019190915261014201604080517fffffffffffffffffffffffffffffffffffffffffffffffffffffffffffffffe08184030181528282528051602091820120600084529083018083525260ff871690820152606081018590526080810184905260a0016020604051602081039080840390855afa158015611c9b573d6000803e3d6000fd5b50506040517fffffffffffffffffffffffffffffffffffffffffffffffffffffffffffffffe0015191505073ffffffffffffffffffffffffffffffffffffffff811615801590611d1657508773ffffffffffffffffffffffffffffffffffffffff168173ffffffffffffffffffffffffffffffffffffffff16145b611d7c576040517f08c379a000000000000000000000000000000000000000000000000000000000815260206004820152600e60248201527f494e56414c49445f5349474e45520000000000000000000000000000000000006044820152606401611b34565b73ffffffffffffffffffffffffffffffffffffffff90811660009081526002602090815260408083208a8516808552908352928190208990555188815291928a16917f8c5be1e5ebec7d5bd14f71427d1e84f3dd0314c0f7b2291e5b200ac8c7c3b925910160405180910390a350505050505050565b60085468010000000000000000900460ff16600114611e3d576040517f29f745a700000000000000000000000000000000000000000000000000000000815260040160405180910390fd5b6008805468ff0000000000000000191668020000000000000000179055611e626120a2565b60007f000000000000000000000000000000000000000000000000000000000000000073ffffffffffffffffffffffffffffffffffffffff1663edaafe206040518163ffffffff1660e01b8152600401602060405180830381865afa158015611ecf573d6000803e3d6000fd5b505050506040513d601f19601f82011682018060405250810190611ef39190612bed565b905080600003611f2f576040517fd5ab59fe00000000000000000000000000000000000000000000000000000000815260040160405180910390fd5b600754611f429060049084908490612228565b8060056000828254611f549190612d3a565b90915550506040517fbb9a5908000000000000000000000000000000000000000000000000000000008152600481018290527f000000000000000000000000000000000000000000000000000000000000000073ffffffffffffffffffffffffffffffffffffffff169063bb9a590890602401600060405180830381600087803b158015611fe157600080fd5b505af1158015611ff5573d6000803e3d6000fd5b505060405183815273ffffffffffffffffffffffffffffffffffffffff851692503391507fe31c7b8d08ee7db0afa68782e1028ef92305caeea8626633ad44d413e30f6b2f9060200160405180910390a350506008805468ff0000000000000000191668010000000000000000179055565b600061092383836126d3565b600081600003612085575060006106c9565b8161209884670de0b6b3a7640000612c35565b6109239190612c8e565b60005415806120b15750600654155b156120ec57600880547fffffffffffffffffffffffffffffffffffffffffffffffff0000000000000000164267ffffffffffffffff16179055565b60065460055460085460009061210c9067ffffffffffffffff1642612c4c565b90508060000361211b57505050565b60006121278484611851565b905060006301e133808361213b8488612067565b6121459190612c35565b61214f9190612c8e565b905060008582116121605781612162565b855b9050600061216f826106cf565b905061217b81876126be565b6007600082825461218c9190612d3a565b9091555061219c90508288612c4c565b600655600880547fffffffffffffffffffffffffffffffffffffffffffffffff0000000000000000164267ffffffffffffffff16179055600754604080518781526020810184905290810184905260608101919091527f4dec04e750ca11537cabcd8a9eab06494de08da3735bc8871cd41250e190bc049060800160405180910390a150505050505050565b73ffffffffffffffffffffffffffffffffffffffff831660009081526020858152604080832081516060810183528154808252600183015494820194909452600282015492810192909252929091156122885761228582856127ea565b90505b6000856000036122d55782516000036122cd576040517f351c1cda00000000000000000000000000000000000000000000000000000000815260040160405180910390fd5b5081516122e4565b82516122e1908761280d565b90505b85156122ee578084555b6001840185905581156123115781836040015161230b9190612d3a565b60028501555b5050505050505050565b600080807fffffffffffffffffffffffffffffffffffffffffffffffffffffffffffffffff858709858702925082811083820303915050806000036123735783828161236957612369612c5f565b0492505050610923565b8381106123b6576040517f773cc18c0000000000000000000000000000000000000000000000000000000081526004810182905260248101859052604401611b34565b60008486880960026001871981018816978890046003810283188082028403028082028403028082028403028082028403028082028403029081029092039091026000889003889004909101858311909403939093029303949094049190911702949350505050565b600754612430600483600084612228565b8173ffffffffffffffffffffffffffffffffffffffff167f79f93060adb031972743fb83706d3b89328ac521188de43641a8709999fef7ff8260405161247891815260200190565b60405180910390a25050565b60006040517fa9059cbb00000000000000000000000000000000000000000000000000000000815273ffffffffffffffffffffffffffffffffffffffff841660048201528260248201526000806044836000895af19150506124e581612910565b61251b576040517fbfa871c500000000000000000000000000000000000000000000000000000000815260040160405180910390fd5b50505050565b73ffffffffffffffffffffffffffffffffffffffff821661256e576040517f3efa09af00000000000000000000000000000000000000000000000000000000815260040160405180910390fd5b73ffffffffffffffffffffffffffffffffffffffff8216600090815260016020526040812080548392906125a3908490612c4c565b909155505060008054829003815560405182815273ffffffffffffffffffffffffffffffffffffffff8416907fddf252ad1be2c89b69c2b068fc378daa952ba7f163c4a11628f55a4df523b3ef906020015b60405180910390a35050565b73ffffffffffffffffffffffffffffffffffffffff821661264e576040517f3efa09af00000000000000000000000000000000000000000000000000000000815260040160405180910390fd5b8060008082825461265f9190612d3a565b909155505073ffffffffffffffffffffffffffffffffffffffff82166000818152600160209081526040808320805486019055518481527fddf252ad1be2c89b69c2b068fc378daa952ba7f163c4a11628f55a4df523b3ef91016125f5565b600061092383670de0b6b3a76400008461231b565b600080807fffffffffffffffffffffffffffffffffffffffffffffffffffffffffffffffff848609848602925082811083820303915050670de0b6b3a7640000811061274e576040517fd31b340200000000000000000000000000000000000000000000000000000000815260048101829052602401611b34565b600080670de0b6b3a764000086880991506706f05b59d3b1ffff821190508260000361278c5780670de0b6b3a76400008504019450505050506106c9565b6204000082850304939091119091037d40000000000000000000000000000000000000000000000000000000000002919091177faccb18165bd6fe31ae1cf318dc5b51eee0e1ba569b88cd74c1773b91fac106690201905092915050565b815160208301516000919061280590829061076f9086612c4c565b949350505050565b60008082121561289a578261282183612cc9565b61282b9085612c4c565b91508110612895576040517f08c379a000000000000000000000000000000000000000000000000000000000815260206004820152600260248201527f4c530000000000000000000000000000000000000000000000000000000000006044820152606401611b34565b6106c9565b826128a58382612d3a565b91508110156106c9576040517f08c379a000000000000000000000000000000000000000000000000000000000815260206004820152600260248201527f4c410000000000000000000000000000000000000000000000000000000000006044820152606401611b34565b600081612921573d6000803e3d6000fd5b3d6020811461293957801561294a576000915061294f565b3d6000803e6000511515915061294f565b600191505b50919050565b60005b83811015612970578181015183820152602001612958565b50506000910152565b6020815260008251806020840152612998816040850160208701612955565b601f017fffffffffffffffffffffffffffffffffffffffffffffffffffffffffffffffe0169190910160400192915050565b73ffffffffffffffffffffffffffffffffffffffff811681146129ec57600080fd5b50565b60008060408385031215612a0257600080fd5b8235612a0d816129ca565b946020939093013593505050565b600060208284031215612a2d57600080fd5b5035919050565b600080600060608486031215612a4957600080fd5b8335612a54816129ca565b92506020840135612a64816129ca565b929592945050506040919091013590565b60008060408385031215612a8857600080fd5b50508035926020909101359150565b600060208284031215612aa957600080fd5b8135610923816129ca565b60008060008060608587031215612aca57600080fd5b8435612ad5816129ca565b935060208501359250604085013567ffffffffffffffff80821115612af957600080fd5b818701915087601f830112612b0d57600080fd5b813581811115612b1c57600080fd5b886020828501011115612b2e57600080fd5b95989497505060200194505050565b600080600080600080600060e0888a031215612b5857600080fd5b8735612b63816129ca565b96506020880135612b73816129ca565b95506040880135945060608801359350608088013560ff81168114612b9757600080fd5b9699959850939692959460a0840135945060c09093013592915050565b60008060408385031215612bc757600080fd5b8235612bd2816129ca565b91506020830135612be2816129ca565b809150509250929050565b600060208284031215612bff57600080fd5b5051919050565b7f4e487b7100000000000000000000000000000000000000000000000000000000600052601160045260246000fd5b80820281158282048414176106c9576106c9612c06565b818103818111156106c9576106c9612c06565b7f4e487b7100000000000000000000000000000000000000000000000000000000600052601260045260246000fd5b600082612cc4577f4e487b7100000000000000000000000000000000000000000000000000000000600052601260045260246000fd5b500490565b60007f80000000000000000000000000000000000000000000000000000000000000008203612cfa57612cfa612c06565b5060000390565b600060208284031215612d1357600080fd5b8151610923816129ca565b60008251612d30818460208701612955565b9190910192915050565b808201808211156106c9576106c9612c06565b83815260406020820152816040820152818360608301376000818301606090810191909152601f9092017fffffffffffffffffffffffffffffffffffffffffffffffffffffffffffffffe01601019291505056fea2646970667358221220b4d9a9b8b161a1a7934e407fbcc3631348f4e2487c48ccff32a50a65cdc5b42464736f6c63430008110033a264697066735822122009a235b1f5f4d88474f5404fd31ed9412dbc87e13abe17f5cc81880479db802d64736f6c63430008110033",
    "linkReferences": {}
  },
  "methodIdentifiers": {
    "createLendgine(address,address,uint256,uint256,uint256)": "c27518f3",
    "getLendgine(address,address,uint256,uint256,uint256)": "8e53b690",
    "pair()": "a8aa1b31",
    "pairParameters()": "6d9877ab"
  },
  "id": 12
}