{
  "abi": [
    {
      "inputs": [],
      "name": "DeployedError",
      "type": "error"
    },
    {
      "inputs": [],
      "name": "SameTokenError",
      "type": "error"
    },
    {
      "inputs": [],
      "name": "ScaleError",
      "type": "error"
    },
    {
      "inputs": [],
      "name": "ZeroAddressError",
      "type": "error"
    },
    {
      "anonymous": false,
      "inputs": [
        {
          "indexed": true,
          "internalType": "address",
          "name": "token0",
          "type": "address"
        },
        {
          "indexed": true,
          "internalType": "address",
          "name": "token1",
          "type": "address"
        },
        {
          "indexed": false,
          "internalType": "uint256",
          "name": "token0Exp",
          "type": "uint256"
        },
        {
          "indexed": false,
          "internalType": "uint256",
          "name": "token1Exp",
          "type": "uint256"
        },
        {
          "indexed": true,
          "internalType": "uint256",
          "name": "upperBound",
          "type": "uint256"
        },
        {
          "indexed": false,
          "internalType": "address",
          "name": "lendgine",
          "type": "address"
        }
      ],
      "name": "LendgineCreated",
      "type": "event"
    },
    {
      "inputs": [
        {
          "internalType": "address",
          "name": "token0",
          "type": "address"
        },
        {
          "internalType": "address",
          "name": "token1",
          "type": "address"
        },
        {
          "internalType": "uint8",
          "name": "token0Exp",
          "type": "uint8"
        },
        {
          "internalType": "uint8",
          "name": "token1Exp",
          "type": "uint8"
        },
        {
          "internalType": "uint256",
          "name": "upperBound",
          "type": "uint256"
        }
      ],
      "name": "createLendgine",
      "outputs": [
        {
          "internalType": "address",
          "name": "lendgine",
          "type": "address"
        }
      ],
      "stateMutability": "nonpayable",
      "type": "function"
    },
    {
      "inputs": [
        {
          "internalType": "address",
          "name": "",
          "type": "address"
        },
        {
          "internalType": "address",
          "name": "",
          "type": "address"
        },
        {
          "internalType": "uint256",
          "name": "",
          "type": "uint256"
        },
        {
          "internalType": "uint256",
          "name": "",
          "type": "uint256"
        },
        {
          "internalType": "uint256",
          "name": "",
          "type": "uint256"
        }
      ],
      "name": "getLendgine",
      "outputs": [
        {
          "internalType": "address",
          "name": "",
          "type": "address"
        }
      ],
      "stateMutability": "view",
      "type": "function"
    },
    {
      "inputs": [],
      "name": "parameters",
      "outputs": [
        {
          "internalType": "address",
          "name": "token0",
          "type": "address"
        },
        {
          "internalType": "address",
          "name": "token1",
          "type": "address"
        },
        {
          "internalType": "uint128",
          "name": "token0Exp",
          "type": "uint128"
        },
        {
          "internalType": "uint128",
          "name": "token1Exp",
          "type": "uint128"
        },
        {
          "internalType": "uint256",
          "name": "upperBound",
          "type": "uint256"
        }
      ],
      "stateMutability": "view",
      "type": "function"
    }
  ],
  "bytecode": {
    "object": "0x608060405234801561001057600080fd5b50613fc3806100206000396000f3fe608060405234801561001057600080fd5b50600436106100415760003560e01c80634538d6cb1461004657806389035730146100835780638e53b69014610132575b600080fd5b61005961005436600461058b565b610189565b60405173ffffffffffffffffffffffffffffffffffffffff90911681526020015b60405180910390f35b6001546002546003546004546100dd9373ffffffffffffffffffffffffffffffffffffffff9081169316916fffffffffffffffffffffffffffffffff80821692700100000000000000000000000000000000909204169085565b6040805173ffffffffffffffffffffffffffffffffffffffff96871681529590941660208601526fffffffffffffffffffffffffffffffff92831693850193909352166060830152608082015260a00161007a565b6100596101403660046105e7565b60006020818152958152604080822087529481528481208652928352838320855290825282822090935291825290205473ffffffffffffffffffffffffffffffffffffffff1681565b60008473ffffffffffffffffffffffffffffffffffffffff168673ffffffffffffffffffffffffffffffffffffffff16036101f0576040517fec38b79400000000000000000000000000000000000000000000000000000000815260040160405180910390fd5b73ffffffffffffffffffffffffffffffffffffffff86161580610227575073ffffffffffffffffffffffffffffffffffffffff8516155b1561025e576040517f3efa09af00000000000000000000000000000000000000000000000000000000815260040160405180910390fd5b73ffffffffffffffffffffffffffffffffffffffff8681166000908152602081815260408083208985168452825280832060ff808a1685529083528184209088168452825280832086845290915290205416156102e7576040517f4e53fce700000000000000000000000000000000000000000000000000000000815260040160405180910390fd5b60128460ff1611806102fc575060068460ff16105b8061030a575060128360ff16115b80610318575060068360ff16105b1561034f576040517f7aca3bf200000000000000000000000000000000000000000000000000000000815260040160405180910390fd5b6040805160a0808201835273ffffffffffffffffffffffffffffffffffffffff898116808452908916602080850182905260ff8a8116868801819052908a16606080880182905260809788018b9052600180547fffffffffffffffffffffffff0000000000000000000000000000000000000000908116881790915560028054909116861790557001000000000000000000000000000000008202831760035560048b90558851808501969096528589019490945292840152938201528082018690528351808203909201825260c0019283905280519101209061043290610544565b8190604051809103906000f5905080158015610452573d6000803e3d6000fd5b50600180547fffffffffffffffffffffffff0000000000000000000000000000000000000000908116909155600280548216905560006003819055600481905573ffffffffffffffffffffffffffffffffffffffff898116808352602083815260408085208c851680875290835281862060ff8d8116808952918552838820908d168089529085528388208c8952855296839020805490981695891695861790975581519687529186019490945292840191909152929350849290917f581e7fde17a1f90a422f4ef8f75f22c3437a96787d3bf54aa93c838b740183c39060600160405180910390a495945050505050565b6139828061063583390190565b803573ffffffffffffffffffffffffffffffffffffffff8116811461057557600080fd5b919050565b803560ff8116811461057557600080fd5b600080600080600060a086880312156105a357600080fd5b6105ac86610551565b94506105ba60208701610551565b93506105c86040870161057a565b92506105d66060870161057a565b949793965091946080013592915050565b600080600080600060a086880312156105ff57600080fd5b61060886610551565b945061061660208701610551565b9497949650505050604083013592606081013592608090910135915056fe6101806040526004805461ffff191660011790553480156200002057600080fd5b5046608052620000f9604080518082018252601d81527f4e756d6f656e205265706c69636174696e67204465726976617469766500000060209182015281517f8b73c3c69bb8fe3d512ecc4cf759cc79239f7b179b0ffacaa9a75d522b39400f818301527fe0aacc3a18ef84f81cc6ccd9ffda212f4a39a80cf42fda9f7c775397b63887b6818401527fc89efdaa54c0f20c7adf612882df0950f5a951637e0307cdcb4c672f298b8bc660608201524660808201523060a0808301919091528351808303909101815260c0909101909252815191012090565b60a09081523360c081905260408051630890357360e41b81529051600093849392638903573092600480830193928290030181865afa15801562000141573d6000803e3d6000fd5b505050506040513d601f19601f82011682018060405250810190620001679190620001ff565b610160526001600160a01b03928316610100529290911660e05292509050620001928260126200027c565b6200019f90600a620003a5565b61012052620001b08160126200027c565b620001bd90600a620003a5565b6101405250620003c39050565b80516001600160a01b0381168114620001e257600080fd5b919050565b80516001600160801b0381168114620001e257600080fd5b600080600080600060a086880312156200021857600080fd5b6200022386620001ca565b94506200023360208701620001ca565b93506200024360408701620001e7565b92506200025360608701620001e7565b9150608086015190509295509295909350565b634e487b7160e01b600052601160045260246000fd5b6001600160801b038281168282160390808211156200029f576200029f62000266565b5092915050565b600181815b80851115620002e7578160001904821115620002cb57620002cb62000266565b80851615620002d957918102915b93841c9390800290620002ab565b509250929050565b60008262000300575060016200039f565b816200030f575060006200039f565b8160018114620003285760028114620003335762000353565b60019150506200039f565b60ff84111562000347576200034762000266565b50506001821b6200039f565b5060208310610133831016604e8410600b841016171562000378575081810a6200039f565b620003848383620002a6565b80600019048211156200039b576200039b62000266565b0290505b92915050565b6000620003bc6001600160801b03841683620002ef565b9392505050565b60805160a05160c05160e051610100516101205161014051610160516134aa620004d8600039600081816106b801528181610a4c01528181610e160152818161102b015281816110a701526110ef0152600081816105d801528181610a1901528181610dee0152610fe80152600081816106f20152610fa601526000818161074901528181610efc015281816112ca015281816113700152818161172a015281816117840152818161185f01528181611e6001528181612517015281816125f0015261297d01526000818161037e015281816116f90152818161175701528181611827015281816124ea015281816125b8015261294c0152600061072201526000610b7401526000610a7b01526134aa6000f3fe608060405234801561001057600080fd5b50600436106102ff5760003560e01c80636b8357ac1161019c578063b09ad8a0116100ee578063d505accf11610097578063dd62ed3e11610071578063dd62ed3e1461079a578063f3fef3a3146107c5578063fd2da339146107d857600080fd5b8063d505accf1461076b578063d62412181461077e578063d98321541461079157600080fd5b8063c0463711116100c8578063c046371114610714578063c45a01551461071d578063d21220a71461074457600080fd5b8063b09ad8a0146106b3578063b691d78c146106da578063b8c1a35f146106ed57600080fd5b80637ecebe0011610150578063a5cdfa941161012a578063a5cdfa9414610685578063a6afed9514610698578063a9059cbb146106a057600080fd5b80637ecebe001461061657806394d008ef1461063657806395d89b411461064957600080fd5b806370f98d841161018157806370f98d84146105d357806378da2cfd146105fa5780637c3d69671461060357600080fd5b80636b8357ac146105a057806370a08231146105b357600080fd5b806335da11541161025557806349bdc2b8116102095780635138caa1116101e35780635138caa11461051357806355f57510146105265780635a76f25e1461057057600080fd5b806349bdc2b8146104ed5780634cb876f2146105005780634fd9b90a1461050957600080fd5b8063375259281161023a57806337525928146104895780633b7cf69914610499578063443cb4bc146104ac57600080fd5b806335da11541461046e5780633644e5151461048157600080fd5b80631b3ed722116102b75780632e5e549e116102915780632e5e549e1461041a57806330adf81f1461042d578063313ce5671461045457600080fd5b80631b3ed722146103e557806323b872dd146103f45780632a11a8a01461040757600080fd5b80630dfe1681116102e85780630dfe16811461037957806315770f92146103c557806318160ddd146103dc57600080fd5b806306fdde0314610304578063095ea7b314610356575b600080fd5b6103406040518060400160405280601d81526020017f4e756d6f656e205265706c69636174696e67204465726976617469766500000081525081565b60405161034d9190612f13565b60405180910390f35b610369610364366004612f88565b6107e7565b604051901515815260200161034d565b6103a07f000000000000000000000000000000000000000000000000000000000000000081565b60405173ffffffffffffffffffffffffffffffffffffffff909116815260200161034d565b6103ce60055481565b60405190815260200161034d565b6103ce60005481565b6103ce671314fb370629800081565b610369610402366004612fb2565b610861565b6103ce610415366004612fee565b6109a7565b6103ce610428366004613010565b6109ea565b6103ce7f6e71edae12b1b97f4d1f60370fef10105fa2faae0126114a169c64845d6126c981565b61045c601281565b60405160ff909116815260200161034d565b6103ce61047c366004613010565b610a0f565b6103ce610a77565b6103ce6802698fc23a98e2000081565b6103ce6104a7366004613010565b610b96565b6004546104cd906201000090046effffffffffffffffffffffffffffff1681565b6040516effffffffffffffffffffffffffffff909116815260200161034d565b6103ce6104fb366004613072565b610ba7565b6103ce60075481565b610511610d65565b005b6103ce610521366004613010565b610dea565b6105556105343660046130cc565b60066020526000908152604090208054600182015460029092015490919083565b6040805193845260208401929092529082015260600161034d565b6004546104cd907101000000000000000000000000000000000090046effffffffffffffffffffffffffffff1681565b6103ce6105ae366004612f88565b610e54565b6103ce6105c13660046130cc565b60016020526000908152604090205481565b6103ce7f000000000000000000000000000000000000000000000000000000000000000081565b6103ce60095481565b6103696106113660046130e7565b610f85565b6103ce6106243660046130cc565b60036020526000908152604090205481565b6103ce610644366004613072565b61113a565b6103406040518060400160405280600381526020017f4e5244000000000000000000000000000000000000000000000000000000000081525081565b6103ce610693366004612fee565b611450565b610511611524565b6103696106ae366004612f88565b611590565b6103ce7f000000000000000000000000000000000000000000000000000000000000000081565b6105116106e8366004613113565b611615565b6103ce7f000000000000000000000000000000000000000000000000000000000000000081565b6103ce600a5481565b6103a07f000000000000000000000000000000000000000000000000000000000000000081565b6103a07f000000000000000000000000000000000000000000000000000000000000000081565b61051161077936600461317b565b611a60565b6103ce61078c3660046131ee565b611d58565b6103ce60085481565b6103ce6107a8366004613241565b600260209081526000928352604080842090915290825290205481565b6105556107d3366004612f88565b611f03565b6103ce670b1a2bc2ec50000081565b33600081815260026020908152604080832073ffffffffffffffffffffffffffffffffffffffff8716808552925280832085905551919290917f8c5be1e5ebec7d5bd14f71427d1e84f3dd0314c0f7b2291e5b200ac8c7c3b9259061084f9086815260200190565b60405180910390a35060015b92915050565b73ffffffffffffffffffffffffffffffffffffffff831660009081526002602090815260408083203384529091528120547fffffffffffffffffffffffffffffffffffffffffffffffffffffffffffffffff81146108f5576108c383826132a3565b73ffffffffffffffffffffffffffffffffffffffff861660009081526002602090815260408083203384529091529020555b73ffffffffffffffffffffffffffffffffffffffff85166000908152600160205260408120805485929061092a9084906132a3565b909155505073ffffffffffffffffffffffffffffffffffffffff808516600081815260016020526040908190208054870190555190918716907fddf252ad1be2c89b69c2b068fc378daa952ba7f163c4a11628f55a4df523b3ef906109929087815260200190565b60405180910390a360019150505b9392505050565b6000806109b48484612136565b905060006109c28585611450565b9050670de0b6b3a76400006109d783836132b6565b6109e191906132cd565b95945050505050565b6008546000908015610a0857610a038360005483612165565b6109a0565b5090919050565b600061085b610a3e7f0000000000000000000000000000000000000000000000000000000000000000846132b6565b670de0b6b3a7640000610a727f000000000000000000000000000000000000000000000000000000000000000060026132b6565b612165565b60007f00000000000000000000000000000000000000000000000000000000000000004614610b715750604080518082018252601d81527f4e756d6f656e205265706c69636174696e67204465726976617469766500000060209182015281517f8b73c3c69bb8fe3d512ecc4cf759cc79239f7b179b0ffacaa9a75d522b39400f818301527fe0aacc3a18ef84f81cc6ccd9ffda212f4a39a80cf42fda9f7c775397b63887b6818401527fc89efdaa54c0f20c7adf612882df0950f5a951637e0307cdcb4c672f298b8bc660608201524660808201523060a0808301919091528351808303909101815260c0909101909252815191012090565b507f000000000000000000000000000000000000000000000000000000000000000090565b600061085b60085483600054612165565b60045460009061ffff16600114610c055760405162461bcd60e51b815260206004820152600a60248201527f5245454e5452414e43590000000000000000000000000000000000000000000060448201526064015b60405180910390fd5b6004805461ffff19166002179055610c1b612231565b600754600854600554600091610c3091613308565b9050610c3d868284612366565b9250851580610c4a575082155b15610c81576040517fb092b44200000000000000000000000000000000000000000000000000000000815260040160405180910390fd5b80158015610c9157506000600754115b15610cc8576040517f088c327000000000000000000000000000000000000000000000000000000000815260040160405180910390fd5b610ce287610cd585612388565b60095460069291906123ba565b610cec8383613308565b600755610cfa8686866124ad565b604080518481526020810188905273ffffffffffffffffffffffffffffffffffffffff89169133917f02d7e648dd130fc184d383e55bb126ac4c9c60e8f94bf05acdf557ba2d540b47910160405180910390a350506004805461ffff19166001179055949350505050565b60045461ffff16600114610dbb5760405162461bcd60e51b815260206004820152600a60248201527f5245454e5452414e4359000000000000000000000000000000000000000000006044820152606401610bfc565b6004805461ffff19166002179055610dd1612231565b610dda33612796565b6004805461ffff19166001179055565b60007f0000000000000000000000000000000000000000000000000000000000000000610e4a83610e3c7f000000000000000000000000000000000000000000000000000000000000000060026132b6565b670de0b6b3a7640000612165565b61085b91906132cd565b60045460009061ffff16600114610ead5760405162461bcd60e51b815260206004820152600a60248201527f5245454e5452414e4359000000000000000000000000000000000000000000006044820152606401610bfc565b6004805461ffff1916600290811790915533600090815260066020526040902090810154808411610ede5783610ee0565b805b92508215610f2257610ef283826132a3565b6002830155610f227f000000000000000000000000000000000000000000000000000000000000000086856127fb565b60405183815273ffffffffffffffffffffffffffffffffffffffff86169033907f1314fd112a381beea61539dbd21ec04afcff2662ac7d1b83273aade1f53d1b979060200160405180910390a350506004805461ffff1916600117905592915050565b600081600003610fa25783158015610f9b575082155b90506109a0565b60007f0000000000000000000000000000000000000000000000000000000000000000610fd886670de0b6b3a764000086612165565b610fe291906132b6565b905060007f000000000000000000000000000000000000000000000000000000000000000061101a86670de0b6b3a764000087612165565b61102491906132b6565b90506110517f000000000000000000000000000000000000000000000000000000000000000060026132b6565b81111561108a576040517f6819ba0500000000000000000000000000000000000000000000000000000000815260040160405180910390fd5b600061109e83670de0b6b3a76400006132b6565b905060006110cc7f0000000000000000000000000000000000000000000000000000000000000000846132b6565b9050600060046110dc85806132b6565b6110e691906132cd565b905060006111147f0000000000000000000000000000000000000000000000000000000000000000806132b6565b90506111208183613308565b61112a8486613308565b10159a9950505050505050505050565b60045460009061ffff166001146111935760405162461bcd60e51b815260206004820152600a60248201527f5245454e5452414e4359000000000000000000000000000000000000000000006044820152606401610bfc565b6004805461ffff191660021790556111a9612231565b60006111b485610a0f565b90506111bf816109ea565b91508415806111cc575080155b806111d5575081155b1561120c576040517fb092b44200000000000000000000000000000000000000000000000000000000815260040160405180910390fd5b600554811115611248576040517f088c327000000000000000000000000000000000000000000000000000000000815260040160405180910390fd5b600080541180156112595750600854155b15611290576040517f088c327000000000000000000000000000000000000000000000000000000000815260040160405180910390fd5b80600860008282546112a29190613308565b9091555060009050806112b58884612898565b915091506112c38885612b2f565b60006112ee7f0000000000000000000000000000000000000000000000000000000000000000612ba7565b6040517f2dde7c240000000000000000000000000000000000000000000000000000000081529091503390632dde7c2490611337908b90879087908a908e908e90600401613364565b600060405180830381600087803b15801561135157600080fd5b505af1158015611365573d6000803e3d6000fd5b5050505060006113947f0000000000000000000000000000000000000000000000000000000000000000612ba7565b90506113a08983613308565b8110156113d9576040517fee30a99300000000000000000000000000000000000000000000000000000000815260040160405180910390fd5b604080518a81526020810188905290810186905273ffffffffffffffffffffffffffffffffffffffff8b169033907fa8137fff86647d8a402117b9c5dbda627f721d3773338fb9678c83e54ed390809060600160405180910390a350506004805461ffff1916600117905550919695505050505050565b60008061145d8484612136565b9050670b1a2bc2ec500000811161149b57670de0b6b3a7640000611489671314fb3706298000836132b6565b61149391906132cd565b91505061085b565b6000670de0b6b3a76400006114c0671314fb3706298000670b1a2bc2ec5000006132b6565b6114ca91906132cd565b905060006114e0670b1a2bc2ec500000846132a3565b905081670de0b6b3a76400006114ff6802698fc23a98e20000846132b6565b61150991906132cd565b6115139190613308565b935050505061085b565b5092915050565b60045461ffff1660011461157a5760405162461bcd60e51b815260206004820152600a60248201527f5245454e5452414e4359000000000000000000000000000000000000000000006044820152606401610bfc565b6004805461ffff19166002179055610dda612231565b336000908152600160205260408120805483919083906115b19084906132a3565b909155505073ffffffffffffffffffffffffffffffffffffffff8316600081815260016020526040908190208054850190555133907fddf252ad1be2c89b69c2b068fc378daa952ba7f163c4a11628f55a4df523b3ef9061084f9086815260200190565b60045461ffff1660011461166b5760405162461bcd60e51b815260206004820152600a60248201527f5245454e5452414e4359000000000000000000000000000000000000000000006044820152606401610bfc565b6004805461ffff1916600217905583158015611685575082155b156116bc576040517fd5ab59fe00000000000000000000000000000000000000000000000000000000815260040160405180910390fd5b6004546effffffffffffffffffffffffffffff62010000820481169171010000000000000000000000000000000000900416851561171f5761171f7f000000000000000000000000000000000000000000000000000000000000000088886127fb565b8415611750576117507f000000000000000000000000000000000000000000000000000000000000000088876127fb565b600061177b7f0000000000000000000000000000000000000000000000000000000000000000612ba7565b905060006117a87f0000000000000000000000000000000000000000000000000000000000000000612ba7565b6040517f923b8a2a000000000000000000000000000000000000000000000000000000008152909150339063923b8a2a906117ed908b908b908b908b9060040161339c565b600060405180830381600087803b15801561180757600080fd5b505af115801561181b573d6000803e3d6000fd5b5050505060008261184b7f0000000000000000000000000000000000000000000000000000000000000000612ba7565b61185591906132a3565b90506000826118837f0000000000000000000000000000000000000000000000000000000000000000612ba7565b61188d91906132a3565b90506118e68a6118ae846effffffffffffffffffffffffffffff8a16613308565b6118b891906132a3565b8a6118d4846effffffffffffffffffffffffffffff8a16613308565b6118de91906132a3565b600554610f85565b61191c576040517f6819ba0500000000000000000000000000000000000000000000000000000000815260040160405180910390fd5b6119258a612d08565b61192e83612d08565b61193890886133c6565b61194291906133ee565b600460026101000a8154816effffffffffffffffffffffffffffff02191690836effffffffffffffffffffffffffffff16021790555061198189612d08565b61198a82612d08565b61199490876133c6565b61199e91906133ee565b600480546effffffffffffffffffffffffffffff92909216710100000000000000000000000000000000000270ffffffffffffffffffffffffffffffffff909216919091179055604080518b8152602081018b90529081018390526060810182905273ffffffffffffffffffffffffffffffffffffffff8c16907f92d40bf89cbac1105e421d5da2c354b166a0fafa055af62a8809a0610c6adc449060800160405180910390a250506004805461ffff19166001179055505050505050505050565b42841015611ab05760405162461bcd60e51b815260206004820152601760248201527f5045524d49545f444541444c494e455f455850495245440000000000000000006044820152606401610bfc565b6000611aba610a77565b73ffffffffffffffffffffffffffffffffffffffff89811660008181526003602090815260409182902080546001810190915582517f6e71edae12b1b97f4d1f60370fef10105fa2faae0126114a169c64845d6126c98184015280840194909452938c166060840152608083018b905260a083019390935260c08083018a90528151808403909101815260e0830190915280519201919091207f190100000000000000000000000000000000000000000000000000000000000061010083015261010282019290925261012281019190915261014201604080517fffffffffffffffffffffffffffffffffffffffffffffffffffffffffffffffe08184030181528282528051602091820120600080855291840180845281905260ff88169284019290925260608301869052608083018590529092509060019060a0016020604051602081039080840390855afa158015611c19573d6000803e3d6000fd5b50506040517fffffffffffffffffffffffffffffffffffffffffffffffffffffffffffffffe0015191505073ffffffffffffffffffffffffffffffffffffffff811615801590611c9457508873ffffffffffffffffffffffffffffffffffffffff168173ffffffffffffffffffffffffffffffffffffffff16145b611ce05760405162461bcd60e51b815260206004820152600e60248201527f494e56414c49445f5349474e45520000000000000000000000000000000000006044820152606401610bfc565b73ffffffffffffffffffffffffffffffffffffffff90811660009081526002602090815260408083208b8516808552908352928190208a905551898152919350918a16917f8c5be1e5ebec7d5bd14f71427d1e84f3dd0314c0f7b2291e5b200ac8c7c3b925910160405180910390a350505050505050565b60045460009061ffff16600114611db15760405162461bcd60e51b815260206004820152600a60248201527f5245454e5452414e4359000000000000000000000000000000000000000000006044820152606401610bfc565b6004805461ffff19166002179055611dc7612231565b3060009081526001602052604081205490611de182610b96565b9050611dec81610dea565b9250821580611df9575080155b80611e02575081155b15611e39576040517fb092b44200000000000000000000000000000000000000000000000000000000815260040160405180910390fd5b8060086000828254611e4b91906132a3565b90915550611e5b90503083612d2b565b611e867f000000000000000000000000000000000000000000000000000000000000000087856127fb565b611e918186866124ad565b604080518481526020810184905290810182905273ffffffffffffffffffffffffffffffffffffffff87169033907fd175a80c109434bb89948928ab2475a6647c94244cb70002197896423c8833639060600160405180910390a350506004805461ffff191660011790559392505050565b6004546000908190819061ffff16600114611f605760405162461bcd60e51b815260206004820152600a60248201527f5245454e5452414e4359000000000000000000000000000000000000000000006044820152606401610bfc565b6004805461ffff19166002179055611f76612231565b600754600554600854600090611f8c9083613308565b336000908152600660209081526040918290208251606081018452815481526001820154928101929092526002015491810191909152909150611fd0888386612db6565b9450841580611fdd575087155b15612014576040517fb092b44200000000000000000000000000000000000000000000000000000000815260040160405180910390fd5b805188111561204f576040517fe8ffb44c00000000000000000000000000000000000000000000000000000000815260040160405180910390fd5b82851115612089576040517f088c327000000000000000000000000000000000000000000000000000000000815260040160405180910390fd5b61209f336120968a612388565b610cd590613416565b87600760008282546120b191906132a3565b909155506120c190508986612898565b604080518b81526020810189905292995090975073ffffffffffffffffffffffffffffffffffffffff8b169133917f8166bf25f8a2b7ed3c85049207da4358d16edbed977d23fa2ee6f0dde3ec2132910160405180910390a350506004805461ffff1916600117905550929591945092509050565b6000816000036121485750600061085b565b8161215b84670de0b6b3a76400006132b6565b6109a091906132cd565b600080807fffffffffffffffffffffffffffffffffffffffffffffffffffffffffffffffff858709858702925082811083820303915050806000036121bc57600084116121b157600080fd5b5082900490506109a0565b8084116121c857600080fd5b60008486880960026001871981018816978890046003810283188082028403028082028403028082028403028082028403028082028403029081029092039091026000889003889004909101858311909403939093029303949094049190911702949350505050565b60005415806122405750600854155b1561224b5742600a55565b6000600a544261225b91906132a3565b9050806000036122685750565b60085460055460009061227c908390613308565b9050600061228a8383611450565b905060006301e13380856122a78487670de0b6b3a7640000612165565b6122b191906132b6565b6122bb91906132cd565b905060008482116122cc57816122ce565b845b905060006122db82610dea565b90506122e782876132a3565b60088190555061230281670de0b6b3a7640000600754612165565b600960008282546123139190613308565b909155505042600a5560408051888152602081018390529081018390527f875352fb3fadeb8c0be7cbbe8ff761b308fa7033470cd0287f02f3436fd76cb99060600160405180910390a150505050505050565b6000821561237e57612379848385612165565b612380565b835b949350505050565b60007f800000000000000000000000000000000000000000000000000000000000000082106123b657600080fd5b5090565b73ffffffffffffffffffffffffffffffffffffffff8316600090815260208581526040808320815160608101835281548082526001830154948201949094526002820154928101929092529290911561241a576124178285612dc3565b90505b60008560000361246757825160000361245f576040517fe5a70d1b00000000000000000000000000000000000000000000000000000000815260040160405180910390fd5b508151612476565b82516124739087612ddb565b90505b8515612480578084555b6001840185905581156124a35781836040015161249d9190613308565b60028501555b5050505050505050565b6004546005546effffffffffffffffffffffffffffff6201000083048116927101000000000000000000000000000000000090041690600061250e7f0000000000000000000000000000000000000000000000000000000000000000612ba7565b9050600061253b7f0000000000000000000000000000000000000000000000000000000000000000612ba7565b6040517fef4ae61c000000000000000000000000000000000000000000000000000000008152909150339063ef4ae61c9061257e908b908b908b9060040161344e565b600060405180830381600087803b15801561259857600080fd5b505af11580156125ac573d6000803e3d6000fd5b505050506000826125dc7f0000000000000000000000000000000000000000000000000000000000000000612ba7565b6125e691906132a3565b90506000826126147f0000000000000000000000000000000000000000000000000000000000000000612ba7565b61261e91906132a3565b905061266361263e836effffffffffffffffffffffffffffff8a16613308565b612659836effffffffffffffffffffffffffffff8a16613308565b6106118d89613308565b612699576040517f6819ba0500000000000000000000000000000000000000000000000000000000815260040160405180910390fd5b6126a282612d08565b6126ac90886133c6565b600460026101000a8154816effffffffffffffffffffffffffffff02191690836effffffffffffffffffffffffffffff1602179055506126eb81612d08565b6126f590876133c6565b600480546effffffffffffffffffffffffffffff92909216710100000000000000000000000000000000000270ffffffffffffffffffffffffffffffffff9092169190911790556127468a86613308565b60055560408051838152602081018390529081018b90527f070aa035fe0a09f0d9305bdc2d7a5d93cd4733db3b1ff869b4a7033c9501909a9060600160405180910390a150505050505050505050565b6009546127a76006836000846123ba565b8173ffffffffffffffffffffffffffffffffffffffff167f79f93060adb031972743fb83706d3b89328ac521188de43641a8709999fef7ff826040516127ef91815260200190565b60405180910390a25050565b60006040517fa9059cbb00000000000000000000000000000000000000000000000000000000815273ffffffffffffffffffffffffffffffffffffffff841660048201528260248201526000806044836000895af191505061285c81612eaa565b612892576040517fbfa871c500000000000000000000000000000000000000000000000000000000815260040160405180910390fd5b50505050565b60045460055460009182916effffffffffffffffffffffffffffff62010000830481169271010000000000000000000000000000000000900416906128de838783612165565b94506128fc826effffffffffffffffffffffffffffff168783612165565b93508415801561290a575083155b15612941576040517fd5ab59fe00000000000000000000000000000000000000000000000000000000815260040160405180910390fd5b8415612972576129727f000000000000000000000000000000000000000000000000000000000000000088876127fb565b83156129a3576129a37f000000000000000000000000000000000000000000000000000000000000000088866127fb565b6129e66129c1866effffffffffffffffffffffffffffff86166132a3565b6129dc866effffffffffffffffffffffffffffff86166132a3565b61061189856132a3565b612a1c576040517f6819ba0500000000000000000000000000000000000000000000000000000000815260040160405180910390fd5b612a2585612d08565b612a2f90846133ee565b600460026101000a8154816effffffffffffffffffffffffffffff02191690836effffffffffffffffffffffffffffff160217905550612a6e84612d08565b612a7890836133ee565b600480546effffffffffffffffffffffffffffff92909216710100000000000000000000000000000000000270ffffffffffffffffffffffffffffffffff909216919091179055612ac986826132a3565b600555604080518681526020810186905290810187905273ffffffffffffffffffffffffffffffffffffffff8816907f73760eee5ff124f9739d9b4dfb17308d3ed44568c218a83270b270742e3709ba9060600160405180910390a25050509250929050565b80600080828254612b409190613308565b909155505073ffffffffffffffffffffffffffffffffffffffff82166000818152600160209081526040808320805486019055518481527fddf252ad1be2c89b69c2b068fc378daa952ba7f163c4a11628f55a4df523b3ef91015b60405180910390a35050565b604080518082018252601281527f62616c616e63654f662861646472657373290000000000000000000000000000602091820152815130602480830191909152835180830390910181526044909101835290810180517bffffffffffffffffffffffffffffffffffffffffffffffffffffffff167f70a082310000000000000000000000000000000000000000000000000000000017905290516000918291829173ffffffffffffffffffffffffffffffffffffffff861691612c6a9190613468565b600060405180830381855afa9150503d8060008114612ca5576040519150601f19603f3d011682016040523d82523d6000602084013e612caa565b606091505b5091509150811580612cbd575060208151105b15612cf4576040517f7613bc8900000000000000000000000000000000000000000000000000000000815260040160405180910390fd5b808060200190518101906123809190613484565b806effffffffffffffffffffffffffffff81168114612d2657600080fd5b919050565b73ffffffffffffffffffffffffffffffffffffffff821660009081526001602052604081208054839290612d609084906132a3565b909155505060008054829003815560405182815273ffffffffffffffffffffffffffffffffffffffff8416907fddf252ad1be2c89b69c2b068fc378daa952ba7f163c4a11628f55a4df523b3ef90602001612b9b565b6000612380848484612165565b815160208301516000916109a091610e3c90856132a3565b600080821215612e4e5782612def83613416565b612df990856132a3565b91508110612e495760405162461bcd60e51b815260206004820152600260248201527f4c530000000000000000000000000000000000000000000000000000000000006044820152606401610bfc565b61085b565b82612e598382613308565b915081101561085b5760405162461bcd60e51b815260206004820152600260248201527f4c410000000000000000000000000000000000000000000000000000000000006044820152606401610bfc565b600081612ebb573d6000803e3d6000fd5b3d60208114612ed3578015612ee45760009150612ee9565b3d6000803e60005115159150612ee9565b600191505b50919050565b60005b83811015612f0a578181015183820152602001612ef2565b50506000910152565b6020815260008251806020840152612f32816040850160208701612eef565b601f017fffffffffffffffffffffffffffffffffffffffffffffffffffffffffffffffe0169190910160400192915050565b803573ffffffffffffffffffffffffffffffffffffffff81168114612d2657600080fd5b60008060408385031215612f9b57600080fd5b612fa483612f64565b946020939093013593505050565b600080600060608486031215612fc757600080fd5b612fd084612f64565b9250612fde60208501612f64565b9150604084013590509250925092565b6000806040838503121561300157600080fd5b50508035926020909101359150565b60006020828403121561302257600080fd5b5035919050565b60008083601f84011261303b57600080fd5b50813567ffffffffffffffff81111561305357600080fd5b60208301915083602082850101111561306b57600080fd5b9250929050565b6000806000806060858703121561308857600080fd5b61309185612f64565b935060208501359250604085013567ffffffffffffffff8111156130b457600080fd5b6130c087828801613029565b95989497509550505050565b6000602082840312156130de57600080fd5b6109a082612f64565b6000806000606084860312156130fc57600080fd5b505081359360208301359350604090920135919050565b60008060008060006080868803121561312b57600080fd5b61313486612f64565b94506020860135935060408601359250606086013567ffffffffffffffff81111561315e57600080fd5b61316a88828901613029565b969995985093965092949392505050565b600080600080600080600060e0888a03121561319657600080fd5b61319f88612f64565b96506131ad60208901612f64565b95506040880135945060608801359350608088013560ff811681146131d157600080fd5b9699959850939692959460a0840135945060c09093013592915050565b60008060006040848603121561320357600080fd5b61320c84612f64565b9250602084013567ffffffffffffffff81111561322857600080fd5b61323486828701613029565b9497909650939450505050565b6000806040838503121561325457600080fd5b61325d83612f64565b915061326b60208401612f64565b90509250929050565b7f4e487b7100000000000000000000000000000000000000000000000000000000600052601160045260246000fd5b8181038181111561085b5761085b613274565b808202811582820484141761085b5761085b613274565b600082613303577f4e487b7100000000000000000000000000000000000000000000000000000000600052601260045260246000fd5b500490565b8082018082111561085b5761085b613274565b8183528181602085013750600060208284010152600060207fffffffffffffffffffffffffffffffffffffffffffffffffffffffffffffffe0601f840116840101905092915050565b86815285602082015284604082015283606082015260a06080820152600061339060a08301848661331b565b98975050505050505050565b8481528360208201526060604082015260006133bc60608301848661331b565b9695505050505050565b6effffffffffffffffffffffffffffff81811683821601908082111561151d5761151d613274565b6effffffffffffffffffffffffffffff82811682821603908082111561151d5761151d613274565b60007f8000000000000000000000000000000000000000000000000000000000000000820361344757613447613274565b5060000390565b8381526040602082015260006109e160408301848661331b565b6000825161347a818460208701612eef565b9190910192915050565b60006020828403121561349657600080fd5b505191905056fea164736f6c6343000811000aa164736f6c6343000811000a",
    "linkReferences": {}
  },
  "methodIdentifiers": {
    "createLendgine(address,address,uint8,uint8,uint256)": "4538d6cb",
    "getLendgine(address,address,uint256,uint256,uint256)": "8e53b690",
    "parameters()": "89035730"
  },
  "id": 17
}