{
  "abi": [
    {
      "inputs": [
        {
          "internalType": "address",
          "name": "_factory",
          "type": "address"
        },
        {
          "internalType": "address",
          "name": "_uniFactory",
          "type": "address"
        }
      ],
      "stateMutability": "nonpayable",
      "type": "constructor"
    },
    {
      "inputs": [],
      "name": "FailedTransfer",
      "type": "error"
    },
    {
      "inputs": [],
      "name": "FailedTransferFrom",
      "type": "error"
    },
    {
      "inputs": [],
      "name": "LivelinessError",
      "type": "error"
    },
    {
      "inputs": [
        {
          "internalType": "uint256",
          "name": "prod1",
          "type": "uint256"
        }
      ],
      "name": "PRBMath__MulDivFixedPointOverflow",
      "type": "error"
    },
    {
      "inputs": [
        {
          "internalType": "uint256",
          "name": "prod1",
          "type": "uint256"
        },
        {
          "internalType": "uint256",
          "name": "denominator",
          "type": "uint256"
        }
      ],
      "name": "PRBMath__MulDivOverflow",
      "type": "error"
    },
    {
      "inputs": [],
      "name": "SlippageError",
      "type": "error"
    },
    {
      "inputs": [],
      "name": "UnauthorizedError",
      "type": "error"
    },
    {
      "inputs": [],
      "name": "VerifyError",
      "type": "error"
    },
    {
      "anonymous": false,
      "inputs": [
        {
          "indexed": true,
          "internalType": "address",
          "name": "payer",
          "type": "address"
        },
        {
          "indexed": true,
          "internalType": "address",
          "name": "lendgine",
          "type": "address"
        },
        {
          "indexed": false,
          "internalType": "uint256",
          "name": "shares",
          "type": "uint256"
        },
        {
          "indexed": false,
          "internalType": "uint256",
          "name": "liquidity",
          "type": "uint256"
        }
      ],
      "name": "Burn",
      "type": "event"
    },
    {
      "anonymous": false,
      "inputs": [
        {
          "indexed": true,
          "internalType": "address",
          "name": "recipient",
          "type": "address"
        },
        {
          "indexed": true,
          "internalType": "address",
          "name": "lendgine",
          "type": "address"
        },
        {
          "indexed": false,
          "internalType": "uint256",
          "name": "shares",
          "type": "uint256"
        },
        {
          "indexed": false,
          "internalType": "uint256",
          "name": "liquidity",
          "type": "uint256"
        }
      ],
      "name": "Mint",
      "type": "event"
    },
    {
      "inputs": [
        {
          "internalType": "uint256",
          "name": "amountS",
          "type": "uint256"
        },
        {
          "internalType": "bytes",
          "name": "data",
          "type": "bytes"
        }
      ],
      "name": "MintCallback",
      "outputs": [],
      "stateMutability": "nonpayable",
      "type": "function"
    },
    {
      "inputs": [
        {
          "components": [
            {
              "internalType": "address",
              "name": "base",
              "type": "address"
            },
            {
              "internalType": "address",
              "name": "speculative",
              "type": "address"
            },
            {
              "internalType": "uint256",
              "name": "baseScaleFactor",
              "type": "uint256"
            },
            {
              "internalType": "uint256",
              "name": "speculativeScaleFactor",
              "type": "uint256"
            },
            {
              "internalType": "uint256",
              "name": "upperBound",
              "type": "uint256"
            },
            {
              "internalType": "uint256",
              "name": "liquidity",
              "type": "uint256"
            },
            {
              "internalType": "address",
              "name": "recipient",
              "type": "address"
            },
            {
              "internalType": "uint256",
              "name": "deadline",
              "type": "uint256"
            }
          ],
          "internalType": "struct LendgineRouter.BurnParams",
          "name": "params",
          "type": "tuple"
        }
      ],
      "name": "burn",
      "outputs": [
        {
          "internalType": "address",
          "name": "lendgine",
          "type": "address"
        }
      ],
      "stateMutability": "nonpayable",
      "type": "function"
    },
    {
      "inputs": [],
      "name": "factory",
      "outputs": [
        {
          "internalType": "address",
          "name": "",
          "type": "address"
        }
      ],
      "stateMutability": "view",
      "type": "function"
    },
    {
      "inputs": [
        {
          "components": [
            {
              "internalType": "address",
              "name": "base",
              "type": "address"
            },
            {
              "internalType": "address",
              "name": "speculative",
              "type": "address"
            },
            {
              "internalType": "uint256",
              "name": "baseScaleFactor",
              "type": "uint256"
            },
            {
              "internalType": "uint256",
              "name": "speculativeScaleFactor",
              "type": "uint256"
            },
            {
              "internalType": "uint256",
              "name": "upperBound",
              "type": "uint256"
            },
            {
              "internalType": "uint256",
              "name": "liquidity",
              "type": "uint256"
            },
            {
              "internalType": "uint256",
              "name": "borrowAmount",
              "type": "uint256"
            },
            {
              "internalType": "uint256",
              "name": "sharesMin",
              "type": "uint256"
            },
            {
              "internalType": "address",
              "name": "recipient",
              "type": "address"
            },
            {
              "internalType": "uint256",
              "name": "deadline",
              "type": "uint256"
            }
          ],
          "internalType": "struct LendgineRouter.MintParams",
          "name": "params",
          "type": "tuple"
        }
      ],
      "name": "mint",
      "outputs": [
        {
          "internalType": "address",
          "name": "lendgine",
          "type": "address"
        },
        {
          "internalType": "uint256",
          "name": "shares",
          "type": "uint256"
        }
      ],
      "stateMutability": "nonpayable",
      "type": "function"
    },
    {
      "inputs": [],
      "name": "uniFactory",
      "outputs": [
        {
          "internalType": "address",
          "name": "",
          "type": "address"
        }
      ],
      "stateMutability": "view",
      "type": "function"
    },
    {
      "inputs": [
        {
          "internalType": "address",
          "name": "",
          "type": "address"
        },
        {
          "internalType": "uint256",
          "name": "amount0",
          "type": "uint256"
        },
        {
          "internalType": "uint256",
          "name": "amount1",
          "type": "uint256"
        },
        {
          "internalType": "bytes",
          "name": "data",
          "type": "bytes"
        }
      ],
      "name": "uniswapV2Call",
      "outputs": [],
      "stateMutability": "nonpayable",
      "type": "function"
    }
  ],
  "bytecode": {
    "object": "0x60c06040523480156200001157600080fd5b50604051620021d1380380620021d1833981016040819052620000349162000069565b6001600160a01b039182166080521660a052620000a1565b80516001600160a01b03811681146200006457600080fd5b919050565b600080604083850312156200007d57600080fd5b62000088836200004c565b915062000098602084016200004c565b90509250929050565b60805160a0516120e0620000f160003960008181610105015281816102630152610ce701526000818161012c015281816101ff0152818161058f01528181610b260152610b7f01526120e06000f3fe608060405234801561001057600080fd5b50600436106100715760003560e01c80635f1e9ba6116100505780635f1e9ba6146100d557806376771d4b14610100578063c45a01551461012757600080fd5b8062ee087a14610076578063019e868b146100ad57806310d1e85c146100c2575b600080fd5b610089610084366004611aa6565b61014e565b604080516001600160a01b0390931683526020830191909152015b60405180910390f35b6100c06100bb366004611b02565b61057a565b005b6100c06100d0366004611b76565b6108a2565b6100e86100e3366004611be0565b610ae0565b6040516001600160a01b0390911681526020016100a4565b6100e87f000000000000000000000000000000000000000000000000000000000000000081565b6100e87f000000000000000000000000000000000000000000000000000000000000000081565b60008082610120013542811015610191576040517f0756982f00000000000000000000000000000000000000000000000000000000815260040160405180910390fd5b6040805160a08101909152600090806101ad6020880188611bf3565b6001600160a01b031681526020018660200160208101906101ce9190611bf3565b6001600160a01b031681526020018660400135815260200186606001358152602001866080013581525090506102557f00000000000000000000000000000000000000000000000000000000000000008660000160208101906102319190611bf3565b6102416040890160208a01611bf3565b886040013589606001358a608001356112ad565b935060006001600160a01b037f00000000000000000000000000000000000000000000000000000000000000001663e6a439056102956020890189611bf3565b6102a560408a0160208b01611bf3565b6040517fffffffff0000000000000000000000000000000000000000000000000000000060e085901b1681526001600160a01b03928316600482015291166024820152604401602060405180830381865afa158015610308573d6000803e3d6000fd5b505050506040513d601f19601f8201168201806040525081019061032c9190611c10565b6040517f12fb162d00000000000000000000000000000000000000000000000000000000815260a088013560048201529091506000906001600160a01b038716906312fb162d90602401602060405180830381865afa158015610393573d6000803e3d6000fd5b505050506040513d601f19601f820116820180604052508101906103b79190611c2d565b90506001600160a01b0386166394d008ef6103da6101208a016101008b01611bf3565b6103e860c08b013585611c75565b60408051606080820183528982526001600160a01b0389811660208085019182523394860194855285518d51841681830152908d0151831681870152948c015185840152918b01516080808601919091528b015160a08501529051811660c084015290511660e0820152610100016040516020818303038152906040526040518463ffffffff1660e01b815260040161048393929190611cec565b6020604051808303816000875af11580156104a2573d6000803e3d6000fd5b505050506040513d601f19601f820116820180604052508101906104c69190611c2d565b94508660e00135851015610506576040517f1a840b4200000000000000000000000000000000000000000000000000000000815260040160405180910390fd5b6001600160a01b03861661052261012089016101008a01611bf3565b6001600160a01b03167f2f00e3cdd69a77be7ed215ec7b2a36784dd158f921fca79ac29deffa353fe6ee878a60a00135604051610569929190918252602082015260400190565b60405180910390a350505050915091565b600061058882840184611db7565b90506105b87f000000000000000000000000000000000000000000000000000000000000000082600001516113ef565b506040517f9ff47dc3000000000000000000000000000000000000000000000000000000008152600481018590526000903390639ff47dc390602401602060405180830381865afa158015610611573d6000803e3d6000fd5b505050506040513d601f19601f820116820180604052508101906106359190611c2d565b9050600080336001600160a01b031663a8aa1b316040518163ffffffff1660e01b8152600401602060405180830381865afa158015610678573d6000803e3d6000fd5b505050506040513d601f19601f8201168201806040525081019061069c9190611c10565b6040517f9dc29fac000000000000000000000000000000000000000000000000000000008152306004820152602481018590526001600160a01b039190911690639dc29fac9060440160408051808303816000875af1158015610703573d6000803e3d6000fd5b505050506040513d601f19601f820116820180604052508101906107279190611e57565b855151602087015192945090925061073f918461145d565b60006107748386602001518760000151602001516001600160a01b03168860000151600001516001600160a01b0316106114ed565b905084602001516001600160a01b031663022c0d9f8660000151602001516001600160a01b03168760000151600001516001600160a01b0316106107b857826107bb565b60005b8751602081015190516001600160a01b039182169116106107dd5760006107df565b835b604080516020810182526000815290517fffffffff0000000000000000000000000000000000000000000000000000000060e086901b1681526108289392913391600401611e7b565b600060405180830381600087803b15801561084257600080fd5b505af1158015610856573d6000803e3d6000fd5b5050505061086d856000015160200151338461145d565b845160200151604086015161089891903385610889868e611eb3565b6108939190611eb3565b6115ef565b5050505050505050565b60006108b082840184611ec6565b90506108ed8160600151826020015183604001516001600160a01b031684606001516001600160a01b0316106108e6578661145d565b875b61145d565b6109278160400151826020015183604001516001600160a01b031684606001516001600160a01b031610610921578761145d565b8661145d565b602081015160808201516040517fa0712d680000000000000000000000000000000000000000000000000000000081526001600160a01b039092169163a0712d68916109799160040190815260200190565b600060405180830381600087803b15801561099357600080fd5b505af11580156109a7573d6000803e3d6000fd5b505082516040517f89afcb440000000000000000000000000000000000000000000000000000000081523060048201526001600160a01b0390911692506389afcb4491506024016020604051808303816000875af1158015610a0d573d6000803e3d6000fd5b505050506040513d601f19601f82011682018060405250810190610a319190611c2d565b50610a458160400151338360a0015161145d565b610ad881604001518260c001518360a0015184600001516001600160a01b03166312fb162d86608001516040518263ffffffff1660e01b8152600401610a8d91815260200190565b602060405180830381865afa158015610aaa573d6000803e3d6000fd5b505050506040513d601f19601f82011682018060405250810190610ace9190611c2d565b6108e89190611eb3565b505050505050565b60008160e0013542811015610b21576040517f0756982f00000000000000000000000000000000000000000000000000000000815260040160405180910390fd5b610b767f0000000000000000000000000000000000000000000000000000000000000000610b526020860186611bf3565b610b626040870160208801611bf3565b8660400135876060013588608001356112ad565b91506000610bcf7f0000000000000000000000000000000000000000000000000000000000000000610bab6020870187611bf3565b610bbb6040880160208901611bf3565b87604001358860600135896080013561168f565b9050600080600080846001600160a01b0316637bb98a686040518163ffffffff1660e01b81526004016040805180830381865afa158015610c14573d6000803e3d6000fd5b505050506040513d601f19601f82011682018060405250810190610c389190611e57565b915091506000856001600160a01b03166318160ddd6040518163ffffffff1660e01b8152600401602060405180830381865afa158015610c7c573d6000803e3d6000fd5b505050506040513d601f19601f82011682018060405250810190610ca09190611c2d565b905080610cb160a08b013585611f99565b610cbb9190611fdf565b945080610ccc60a08b013584611f99565b610cd69190611fdf565b935060009250506001600160a01b037f000000000000000000000000000000000000000000000000000000000000000016905063e6a43905610d1b60208a018a611bf3565b610d2b60408b0160208c01611bf3565b6040517fffffffff0000000000000000000000000000000000000000000000000000000060e085901b1681526001600160a01b03928316600482015291166024820152604401602060405180830381865afa158015610d8e573d6000803e3d6000fd5b505050506040513d601f19601f82011682018060405250810190610db29190611c10565b90506000806000836001600160a01b0316630902f1ac6040518163ffffffff1660e01b8152600401606060405180830381865afa158015610df7573d6000803e3d6000fd5b505050506040513d601f19601f82011682018060405250810190610e1b9190612038565b506dffffffffffffffffffffffffffff1691506dffffffffffffffffffffffffffff169150610ef86040518060c001604052808c60a0013581526020018c6080013581526020018881526020018781526020018c6020016020810190610e819190611bf3565b6001600160a01b0316610e9760208f018f611bf3565b6001600160a01b031610610eab5783610ead565b845b81526020018c6020016020810190610ec59190611bf3565b6001600160a01b0316610edb60208f018f611bf3565b6001600160a01b031610610eef5784610ef1565b835b905261178f565b92505050866001600160a01b031663a6afed956040518163ffffffff1660e01b8152600401600060405180830381600087803b158015610f3757600080fd5b505af1158015610f4b573d6000803e3d6000fd5b50506040517f2e5e549e00000000000000000000000000000000000000000000000000000000815260a08b01356004820152600092506001600160a01b038a169150632e5e549e90602401602060405180830381865afa158015610fb3573d6000803e3d6000fd5b505050506040513d601f19601f82011682018060405250810190610fd79190611c2d565b6040517f23b872dd0000000000000000000000000000000000000000000000000000000081523360048201526001600160a01b038a1660248201819052604482018390529192506323b872dd906064016020604051808303816000875af1158015611046573d6000803e3d6000fd5b505050506040513d601f19601f8201168201806040525081019061106a9190612088565b506001600160a01b03831663022c0d9f61108a60408c0160208d01611bf3565b6001600160a01b03166110a060208d018d611bf3565b6001600160a01b0316106110b457856110b6565b865b6110c660408d0160208e01611bf3565b6001600160a01b03166110dc60208e018e611bf3565b6001600160a01b0316106110f057876110f2565b865b306040518060e001604052808e6001600160a01b031681526020018c6001600160a01b031681526020018f602001602081019061112f9190611bf3565b6001600160a01b031681526020018f60000160208101906111509190611bf3565b6001600160a01b031681526020018f60a0013581526020018881526020018f60c00160208101906111819190611bf3565b6001600160a01b031690526040516111f89190602001600060e0820190506001600160a01b038084511683528060208501511660208401528060408501511660408401528060608501511660608401526080840151608084015260a084015160a08401528060c08501511660c08401525092915050565b6040516020818303038152906040526040518563ffffffff1660e01b81526004016112269493929190611e7b565b600060405180830381600087803b15801561124057600080fd5b505af1158015611254573d6000803e3d6000fd5b50506040805184815260a08d013560208201526001600160a01b038c1693503392507f5d624aa9c148153ab3446c1b154f660ee7701e549fe9b62dab7171b1c80e6fa2910160405180910390a350505050505050919050565b604080516001600160a01b038088166020830152861691810191909152606081018490526080810183905260a081018290526000908190889060c001604080517fffffffffffffffffffffffffffffffffffffffffffffffffffffffffffffffe08184030181529082905280516020918201206113ad939290917f20482d30d0481ce8a2db125dd546dd094e31af1d4dceaeb9ccb058a5a0f45d0891017fff00000000000000000000000000000000000000000000000000000000000000815260609390931b7fffffffffffffffffffffffffffffffffffffffff0000000000000000000000001660018401526015830191909152603582015260550190565b604080518083037fffffffffffffffffffffffffffffffffffffffffffffffffffffffffffffffe0018152919052805160209091012098975050505050505050565b600061141383836000015184602001518560400151866060015187608001516112ad565b9050336001600160a01b03821614611457576040517f4fbee53800000000000000000000000000000000000000000000000000000000815260040160405180910390fd5b92915050565b60006040517fa9059cbb0000000000000000000000000000000000000000000000000000000081526001600160a01b03841660048201528260248201526000806044836000895af19150506114b181611820565b6114e7576040517fbfa871c500000000000000000000000000000000000000000000000000000000815260040160405180910390fd5b50505050565b6000806000846001600160a01b0316630902f1ac6040518163ffffffff1660e01b8152600401606060405180830381865afa158015611530573d6000803e3d6000fd5b505050506040513d601f19601f820116820180604052508101906115549190612038565b506dffffffffffffffffffffffffffff1691506dffffffffffffffffffffffffffff1691506000846115865781611588565b825b90506000856115975783611599565b825b905060006115a9896103e5611f99565b905060006115b78383611f99565b90506000826115c8866103e8611f99565b6115d29190611c75565b90506115de8183611fdf565b9750505050505050505b9392505050565b60006040517f23b872dd0000000000000000000000000000000000000000000000000000000081526001600160a01b03851660048201526001600160a01b038416602482015282604482015260008060648360008a5af191505061165281611820565b611688576040517fa83c475400000000000000000000000000000000000000000000000000000000815260040160405180910390fd5b5050505050565b604080516001600160a01b038088166020830152861691810191909152606081018490526080810183905260a081018290526000908190889060c001604080517fffffffffffffffffffffffffffffffffffffffffffffffffffffffffffffffe08184030181529082905280516020918201206113ad939290917fb68193047bce8acf96fafc85916e609af4f0c5fba41c0f1bdcaff0d3ec8eb4fe91017fff00000000000000000000000000000000000000000000000000000000000000815260609390931b7fffffffffffffffffffffffffffffffffffffffff0000000000000000000000001660018401526015830191909152603582015260550190565b6000806117a483604001518460600151611865565b6117b68460a001518560400151611865565b6117c885608001518660600151611865565b6117d29190611c75565b6117dc9190611c75565b6117e8906103e8611f99565b90506000836040015184608001516118009190611eb3565b61180c906103e5611f99565b90506118188282611871565b949350505050565b600081611831573d6000803e3d6000fd5b3d6020811461184957801561185a576000915061185f565b3d6000803e6000511515915061185f565b600191505b50919050565b60006115e88383611886565b60006115e883670de0b6b3a7640000846119a2565b600080807fffffffffffffffffffffffffffffffffffffffffffffffffffffffffffffffff848609848602925082811083820303915050670de0b6b3a76400008110611906576040517fd31b3402000000000000000000000000000000000000000000000000000000008152600481018290526024015b60405180910390fd5b600080670de0b6b3a764000086880991506706f05b59d3b1ffff82119050826000036119445780670de0b6b3a7640000850401945050505050611457565b6204000082850304939091119091037d40000000000000000000000000000000000000000000000000000000000002919091177faccb18165bd6fe31ae1cf318dc5b51eee0e1ba569b88cd74c1773b91fac106690201905092915050565b600080807fffffffffffffffffffffffffffffffffffffffffffffffffffffffffffffffff858709858702925082811083820303915050806000036119fa578382816119f0576119f0611fb0565b04925050506115e8565b838110611a3d576040517f773cc18c00000000000000000000000000000000000000000000000000000000815260048101829052602481018590526044016118fd565b60008486880960026001871981018816978890046003810283188082028403028082028403028082028403028082028403028082028403029081029092039091026000889003889004909101858311909403939093029303949094049190911702949350505050565b6000610140828403121561185f57600080fd5b60008083601f840112611acb57600080fd5b50813567ffffffffffffffff811115611ae357600080fd5b602083019150836020828501011115611afb57600080fd5b9250929050565b600080600060408486031215611b1757600080fd5b83359250602084013567ffffffffffffffff811115611b3557600080fd5b611b4186828701611ab9565b9497909650939450505050565b6001600160a01b0381168114611b6357600080fd5b50565b8035611b7181611b4e565b919050565b600080600080600060808688031215611b8e57600080fd5b8535611b9981611b4e565b94506020860135935060408601359250606086013567ffffffffffffffff811115611bc357600080fd5b611bcf88828901611ab9565b969995985093965092949392505050565b6000610100828403121561185f57600080fd5b600060208284031215611c0557600080fd5b81356115e881611b4e565b600060208284031215611c2257600080fd5b81516115e881611b4e565b600060208284031215611c3f57600080fd5b5051919050565b7f4e487b7100000000000000000000000000000000000000000000000000000000600052601160045260246000fd5b8082018082111561145757611457611c46565b6000815180845260005b81811015611cae57602081850181015186830182015201611c92565b5060006020828601015260207fffffffffffffffffffffffffffffffffffffffffffffffffffffffffffffffe0601f83011685010191505092915050565b6001600160a01b0384168152826020820152606060408201526000611d146060830184611c88565b95945050505050565b6040516060810167ffffffffffffffff81118282101715611d67577f4e487b7100000000000000000000000000000000000000000000000000000000600052604160045260246000fd5b60405290565b60405160a0810167ffffffffffffffff81118282101715611d67577f4e487b7100000000000000000000000000000000000000000000000000000000600052604160045260246000fd5b600081830360e0811215611dca57600080fd5b611dd2611d1d565b60a0821215611de057600080fd5b611de8611d6d565b91508335611df581611b4e565b82526020840135611e0581611b4e565b80602084015250604084013560408301526060840135606083015260808401356080830152818152611e3960a08501611b66565b6020820152611e4a60c08501611b66565b6040820152949350505050565b60008060408385031215611e6a57600080fd5b505080516020909101519092909150565b8481528360208201526001600160a01b0383166040820152608060608201526000611ea96080830184611c88565b9695505050505050565b8181038181111561145757611457611c46565b600060e08284031215611ed857600080fd5b60405160e0810181811067ffffffffffffffff82111715611f22577f4e487b7100000000000000000000000000000000000000000000000000000000600052604160045260246000fd5b6040528235611f3081611b4e565b81526020830135611f4081611b4e565b60208201526040830135611f5381611b4e565b60408201526060830135611f6681611b4e565b806060830152506080830135608082015260a083013560a0820152611f8d60c08401611b66565b60c08201529392505050565b808202811582820484141761145757611457611c46565b7f4e487b7100000000000000000000000000000000000000000000000000000000600052601260045260246000fd5b600082612015577f4e487b7100000000000000000000000000000000000000000000000000000000600052601260045260246000fd5b500490565b80516dffffffffffffffffffffffffffff81168114611b7157600080fd5b60008060006060848603121561204d57600080fd5b6120568461201a565b92506120646020850161201a565b9150604084015163ffffffff8116811461207d57600080fd5b809150509250925092565b60006020828403121561209a57600080fd5b815180151581146115e857600080fdfea264697066735822122014a1507a34c9a2f57b87e0abdb59cfe314a775792fca2292dfe08b2d87dd953064736f6c63430008110033",
    "linkReferences": {}
  },
  "methodIdentifiers": {
    "MintCallback(uint256,bytes)": "019e868b",
    "burn((address,address,uint256,uint256,uint256,uint256,address,uint256))": "5f1e9ba6",
    "factory()": "c45a0155",
    "mint((address,address,uint256,uint256,uint256,uint256,uint256,uint256,address,uint256))": "00ee087a",
    "uniFactory()": "76771d4b",
    "uniswapV2Call(address,uint256,uint256,bytes)": "10d1e85c"
  },
  "id": 38
}