{
  "abi": [
    {
      "inputs": [
        {
          "internalType": "address",
          "name": "_factory",
          "type": "address"
        },
        {
          "internalType": "address",
          "name": "_uniFactory",
          "type": "address"
        }
      ],
      "stateMutability": "nonpayable",
      "type": "constructor"
    },
    {
      "inputs": [],
      "name": "FailedTransfer",
      "type": "error"
    },
    {
      "inputs": [],
      "name": "FailedTransferFrom",
      "type": "error"
    },
    {
      "inputs": [],
      "name": "LivelinessError",
      "type": "error"
    },
    {
      "inputs": [
        {
          "internalType": "uint256",
          "name": "prod1",
          "type": "uint256"
        }
      ],
      "name": "PRBMath__MulDivFixedPointOverflow",
      "type": "error"
    },
    {
      "inputs": [
        {
          "internalType": "uint256",
          "name": "prod1",
          "type": "uint256"
        },
        {
          "internalType": "uint256",
          "name": "denominator",
          "type": "uint256"
        }
      ],
      "name": "PRBMath__MulDivOverflow",
      "type": "error"
    },
    {
      "inputs": [],
      "name": "SlippageError",
      "type": "error"
    },
    {
      "inputs": [],
      "name": "UnauthorizedError",
      "type": "error"
    },
    {
      "inputs": [],
      "name": "VerifyError",
      "type": "error"
    },
    {
      "anonymous": false,
      "inputs": [
        {
          "indexed": true,
          "internalType": "address",
          "name": "payer",
          "type": "address"
        },
        {
          "indexed": true,
          "internalType": "address",
          "name": "lendgine",
          "type": "address"
        },
        {
          "indexed": false,
          "internalType": "uint256",
          "name": "shares",
          "type": "uint256"
        },
        {
          "indexed": false,
          "internalType": "uint256",
          "name": "liquidity",
          "type": "uint256"
        }
      ],
      "name": "Burn",
      "type": "event"
    },
    {
      "anonymous": false,
      "inputs": [
        {
          "indexed": true,
          "internalType": "address",
          "name": "recipient",
          "type": "address"
        },
        {
          "indexed": true,
          "internalType": "address",
          "name": "lendgine",
          "type": "address"
        },
        {
          "indexed": false,
          "internalType": "uint256",
          "name": "shares",
          "type": "uint256"
        },
        {
          "indexed": false,
          "internalType": "uint256",
          "name": "liquidity",
          "type": "uint256"
        }
      ],
      "name": "Mint",
      "type": "event"
    },
    {
      "inputs": [
        {
          "internalType": "uint256",
          "name": "amountS",
          "type": "uint256"
        },
        {
          "internalType": "bytes",
          "name": "data",
          "type": "bytes"
        }
      ],
      "name": "MintCallback",
      "outputs": [],
      "stateMutability": "nonpayable",
      "type": "function"
    },
    {
      "inputs": [
        {
          "components": [
            {
              "internalType": "address",
              "name": "base",
              "type": "address"
            },
            {
              "internalType": "address",
              "name": "speculative",
              "type": "address"
            },
            {
              "internalType": "uint256",
              "name": "baseScaleFactor",
              "type": "uint256"
            },
            {
              "internalType": "uint256",
              "name": "speculativeScaleFactor",
              "type": "uint256"
            },
            {
              "internalType": "uint256",
              "name": "upperBound",
              "type": "uint256"
            },
            {
              "internalType": "uint256",
              "name": "shares",
              "type": "uint256"
            },
            {
              "internalType": "uint256",
              "name": "liquidityMax",
              "type": "uint256"
            },
            {
              "internalType": "uint256",
              "name": "price",
              "type": "uint256"
            },
            {
              "internalType": "address",
              "name": "recipient",
              "type": "address"
            },
            {
              "internalType": "uint256",
              "name": "deadline",
              "type": "uint256"
            }
          ],
          "internalType": "struct LendgineRouter.BurnParams",
          "name": "params",
          "type": "tuple"
        }
      ],
      "name": "burn",
      "outputs": [
        {
          "internalType": "address",
          "name": "lendgine",
          "type": "address"
        }
      ],
      "stateMutability": "nonpayable",
      "type": "function"
    },
    {
      "inputs": [],
      "name": "factory",
      "outputs": [
        {
          "internalType": "address",
          "name": "",
          "type": "address"
        }
      ],
      "stateMutability": "view",
      "type": "function"
    },
    {
      "inputs": [
        {
          "components": [
            {
              "internalType": "address",
              "name": "base",
              "type": "address"
            },
            {
              "internalType": "address",
              "name": "speculative",
              "type": "address"
            },
            {
              "internalType": "uint256",
              "name": "baseScaleFactor",
              "type": "uint256"
            },
            {
              "internalType": "uint256",
              "name": "speculativeScaleFactor",
              "type": "uint256"
            },
            {
              "internalType": "uint256",
              "name": "upperBound",
              "type": "uint256"
            },
            {
              "internalType": "uint256",
              "name": "liquidity",
              "type": "uint256"
            },
            {
              "internalType": "uint256",
              "name": "price",
              "type": "uint256"
            },
            {
              "internalType": "uint256",
              "name": "slippageBps",
              "type": "uint256"
            },
            {
              "internalType": "uint256",
              "name": "sharesMin",
              "type": "uint256"
            },
            {
              "internalType": "address",
              "name": "recipient",
              "type": "address"
            },
            {
              "internalType": "uint256",
              "name": "deadline",
              "type": "uint256"
            }
          ],
          "internalType": "struct LendgineRouter.MintParams",
          "name": "params",
          "type": "tuple"
        }
      ],
      "name": "mint",
      "outputs": [
        {
          "internalType": "address",
          "name": "lendgine",
          "type": "address"
        },
        {
          "internalType": "uint256",
          "name": "shares",
          "type": "uint256"
        }
      ],
      "stateMutability": "nonpayable",
      "type": "function"
    },
    {
      "inputs": [],
      "name": "uniFactory",
      "outputs": [
        {
          "internalType": "address",
          "name": "",
          "type": "address"
        }
      ],
      "stateMutability": "view",
      "type": "function"
    },
    {
      "inputs": [
        {
          "internalType": "address",
          "name": "",
          "type": "address"
        },
        {
          "internalType": "uint256",
          "name": "amount0",
          "type": "uint256"
        },
        {
          "internalType": "uint256",
          "name": "amount1",
          "type": "uint256"
        },
        {
          "internalType": "bytes",
          "name": "data",
          "type": "bytes"
        }
      ],
      "name": "uniswapV2Call",
      "outputs": [],
      "stateMutability": "nonpayable",
      "type": "function"
    }
  ],
  "bytecode": {
    "object": "0x60c06040523480156200001157600080fd5b506040516200232f3803806200232f833981016040819052620000349162000069565b6001600160a01b039182166080521660a052620000a1565b80516001600160a01b03811681146200006457600080fd5b919050565b600080604083850312156200007d57600080fd5b62000088836200004c565b915062000098602084016200004c565b90509250929050565b60805160a05161223f620000f06000396000818160d40152818161058a0152610f0d01526000818161012d01528181610164015281816104d30152818161052c0152610ea9015261223f6000f3fe608060405234801561001057600080fd5b50600436106100725760003560e01c806376771d4b1161005057806376771d4b146100cf578063b3140bdc146100f6578063c45a01551461012857600080fd5b8063019e868b1461007757806310aa69821461008c57806310d1e85c146100bc575b600080fd5b61008a610085366004611c23565b61014f565b005b61009f61009a366004611c6f565b61048c565b6040516001600160a01b0390911681526020015b60405180910390f35b61008a6100ca366004611caa565b610bba565b61009f7f000000000000000000000000000000000000000000000000000000000000000081565b610109610104366004611d14565b610df8565b604080516001600160a01b0390931683526020830191909152016100b3565b61009f7f000000000000000000000000000000000000000000000000000000000000000081565b600061015d82840184611d77565b905061018d7f0000000000000000000000000000000000000000000000000000000000000000826000015161123a565b506040517f9ff47dc3000000000000000000000000000000000000000000000000000000008152600481018590526000903390639ff47dc390602401602060405180830381865afa1580156101e6573d6000803e3d6000fd5b505050506040513d601f19601f8201168201806040525081019061020a9190611e2d565b90506000806102268460600151848660000151608001516112a8565b91509150336001600160a01b031663a8aa1b316040518163ffffffff1660e01b8152600401602060405180830381865afa158015610268573d6000803e3d6000fd5b505050506040513d601f19601f8201168201806040525081019061028c9190611e46565b6040517fde7bf0a20000000000000000000000000000000000000000000000000000000081523060048201526024810184905260448101839052606481018590526001600160a01b03919091169063de7bf0a290608401600060405180830381600087803b1580156102fd57600080fd5b505af1158015610311573d6000803e3d6000fd5b505085515160208701516103299350909150846112f5565b600061035e8386602001518760000151602001516001600160a01b03168860000151600001516001600160a01b031610611385565b905084602001516001600160a01b031663022c0d9f8660000151602001516001600160a01b03168760000151600001516001600160a01b0316106103a257826103a5565b60005b8751602081015190516001600160a01b039182169116106103c75760006103c9565b835b604080516020810182526000815290517fffffffff0000000000000000000000000000000000000000000000000000000060e086901b1681526104129392913391600401611ec7565b600060405180830381600087803b15801561042c57600080fd5b505af1158015610440573d6000803e3d6000fd5b5050505061045785600001516020015133846112f5565b845160200151608086015161048291903385610473868e611f24565b61047d9190611f24565b611487565b5050505050505050565b6000816101200135428110156104ce576040517f0756982f00000000000000000000000000000000000000000000000000000000815260040160405180910390fd5b6105237f00000000000000000000000000000000000000000000000000000000000000006104ff6020860186611f37565b61050f6040870160208801611f37565b866040013587606001358860800135611527565b9150600061057c7f00000000000000000000000000000000000000000000000000000000000000006105586020870187611f37565b6105686040880160208901611f37565b876040013588606001358960800135611669565b905060006001600160a01b037f00000000000000000000000000000000000000000000000000000000000000001663e6a439056105bc6020880188611f37565b6105cc6040890160208a01611f37565b6040517fffffffff0000000000000000000000000000000000000000000000000000000060e085901b1681526001600160a01b03928316600482015291166024820152604401602060405180830381865afa15801561062f573d6000803e3d6000fd5b505050506040513d601f19601f820116820180604052508101906106539190611e46565b6040517f3b7cf69900000000000000000000000000000000000000000000000000000000815260a087013560048201529091506000906001600160a01b03861690633b7cf69990602401602060405180830381865afa1580156106ba573d6000803e3d6000fd5b505050506040513d601f19601f820116820180604052508101906106de9190611e2d565b90506000806107538860e0013584876001600160a01b031663b09ad8a06040518163ffffffff1660e01b8152600401602060405180830381865afa15801561072a573d6000803e3d6000fd5b505050506040513d601f19601f8201168201806040525081019061074e9190611e2d565b6112a8565b915091508760c00135831115610795576040517f1a840b4200000000000000000000000000000000000000000000000000000000815260040160405180910390fd5b6000806000866001600160a01b0316630902f1ac6040518163ffffffff1660e01b8152600401606060405180830381865afa1580156107d8573d6000803e3d6000fd5b505050506040513d601f19601f820116820180604052508101906107fc9190611f72565b506dffffffffffffffffffffffffffff1691506dffffffffffffffffffffffffffff1691506108df6040518060a001604052808881526020018d6080013581526020018d60e0013581526020018d602001602081019061085c9190611f37565b6001600160a01b03168e60000160208101906108789190611f37565b6001600160a01b03161061088c578361088e565b845b81526020018d60200160208101906108a69190611f37565b6001600160a01b03168e60000160208101906108c29190611f37565b6001600160a01b0316106108d657846108d8565b835b9052611769565b6040517f23b872dd0000000000000000000000000000000000000000000000000000000081523360048201526001600160a01b038c166024820181905260a08e013560448301529194509092506323b872dd91506064016020604051808303816000875af1158015610955573d6000803e3d6000fd5b505050506040513d601f19601f820116820180604052508101906109799190611fc2565b506001600160a01b03851663022c0d9f61099960408c0160208d01611f37565b6001600160a01b03166109af60208d018d611f37565b6001600160a01b0316106109c357836109c5565b845b6109d560408d0160208e01611f37565b6001600160a01b03166109eb60208e018e611f37565b6001600160a01b0316106109ff5785610a01565b845b306040518060e001604052808e6001600160a01b031681526020018c6001600160a01b031681526020018f6020016020810190610a3e9190611f37565b6001600160a01b031681526020018f6000016020810190610a5f9190611f37565b6001600160a01b031681526020018a81526020018781526020018f610100016020810190610a8d9190611f37565b6001600160a01b03169052604051610b049190602001600060e0820190506001600160a01b038084511683528060208501511660208401528060408501511660408401528060608501511660608401526080840151608084015260a084015160a08401528060c08501511660c08401525092915050565b6040516020818303038152906040526040518563ffffffff1660e01b8152600401610b329493929190611ec7565b600060405180830381600087803b158015610b4c57600080fd5b505af1158015610b60573d6000803e3d6000fd5b50506040805160a08d01358152602081018890526001600160a01b038c1693503392507f5d624aa9c148153ab3446c1b154f660ee7701e549fe9b62dab7171b1c80e6fa2910160405180910390a350505050505050919050565b6000610bc882840184611fe4565b9050610c058160600151826020015183604001516001600160a01b031684606001516001600160a01b031610610bfe57866112f5565b875b6112f5565b610c3f8160400151826020015183604001516001600160a01b031684606001516001600160a01b031610610c3957876112f5565b866112f5565b602081015160808201516040517fa0712d680000000000000000000000000000000000000000000000000000000081526001600160a01b039092169163a0712d6891610c919160040190815260200190565b600060405180830381600087803b158015610cab57600080fd5b505af1158015610cbf573d6000803e3d6000fd5b505082516040517f89afcb440000000000000000000000000000000000000000000000000000000081523060048201526001600160a01b0390911692506389afcb4491506024016020604051808303816000875af1158015610d25573d6000803e3d6000fd5b505050506040513d601f19601f82011682018060405250810190610d499190611e2d565b50610d5d8160400151338360a001516112f5565b610df081604001518260c001518360a0015184600001516001600160a01b03166312fb162d86608001516040518263ffffffff1660e01b8152600401610da591815260200190565b602060405180830381865afa158015610dc2573d6000803e3d6000fd5b505050506040513d601f19601f82011682018060405250810190610de69190611e2d565b610c009190611f24565b505050505050565b60008082610140013542811015610e3b576040517f0756982f00000000000000000000000000000000000000000000000000000000815260040160405180910390fd5b6040805160a0810190915260009080610e576020880188611f37565b6001600160a01b03168152602001866020016020810190610e789190611f37565b6001600160a01b03168152602001866040013581526020018660600135815260200186608001358152509050610eff7f0000000000000000000000000000000000000000000000000000000000000000866000016020810190610edb9190611f37565b610eeb6040890160208a01611f37565b886040013589606001358a60800135611527565b935060006001600160a01b037f00000000000000000000000000000000000000000000000000000000000000001663e6a43905610f3f6020890189611f37565b610f4f60408a0160208b01611f37565b6040517fffffffff0000000000000000000000000000000000000000000000000000000060e085901b1681526001600160a01b03928316600482015291166024820152604401602060405180830381865afa158015610fb2573d6000803e3d6000fd5b505050506040513d601f19601f82011682018060405250810190610fd69190611e46565b6040517f12fb162d00000000000000000000000000000000000000000000000000000000815260a088013560048201529091506000906001600160a01b038716906312fb162d90602401602060405180830381865afa15801561103d573d6000803e3d6000fd5b505050506040513d601f19601f820116820180604052508101906110619190611e2d565b9050600061109a60405180608001604052808481526020018a6080013581526020018a60c0013581526020018a60e00135815250611807565b90506001600160a01b0387166394d008ef6110bd6101408b016101208c01611f37565b6110c784866120b7565b6040518060a00160405280898152602001886001600160a01b031681526020018681526020018d60c001358152602001336001600160a01b031681525060405160200161111491906120ca565b6040516020818303038152906040526040518463ffffffff1660e01b815260040161114193929190612157565b6020604051808303816000875af1158015611160573d6000803e3d6000fd5b505050506040513d601f19601f820116820180604052508101906111849190611e2d565b95508761010001358610156111c5576040517f1a840b4200000000000000000000000000000000000000000000000000000000815260040160405180910390fd5b6001600160a01b0387166111e16101408a016101208b01611f37565b6001600160a01b03167f2f00e3cdd69a77be7ed215ec7b2a36784dd158f921fca79ac29deffa353fe6ee888b60a00135604051611228929190918252602082015260400190565b60405180910390a35050505050915091565b600061125e8383600001518460200151856040015186606001518760800151611527565b9050336001600160a01b038216146112a2576040517f4fbee53800000000000000000000000000000000000000000000000000000000815260040160405180910390fd5b92915050565b60008060006112b88660026118fa565b905060006112c68786611f24565b6112d1906002612188565b90506112dd8287611954565b6112e78288611954565b935093505050935093915050565b60006040517fa9059cbb0000000000000000000000000000000000000000000000000000000081526001600160a01b03841660048201528260248201526000806044836000895af191505061134981611960565b61137f576040517fbfa871c500000000000000000000000000000000000000000000000000000000815260040160405180910390fd5b50505050565b6000806000846001600160a01b0316630902f1ac6040518163ffffffff1660e01b8152600401606060405180830381865afa1580156113c8573d6000803e3d6000fd5b505050506040513d601f19601f820116820180604052508101906113ec9190611f72565b506dffffffffffffffffffffffffffff1691506dffffffffffffffffffffffffffff16915060008461141e5781611420565b825b905060008561142f5783611431565b825b90506000611441896103e5612188565b9050600061144f8383612188565b9050600082611460866103e8612188565b61146a91906120b7565b905061147681836121ce565b9750505050505050505b9392505050565b60006040517f23b872dd0000000000000000000000000000000000000000000000000000000081526001600160a01b03851660048201526001600160a01b038416602482015282604482015260008060648360008a5af19150506114ea81611960565b611520576040517fa83c475400000000000000000000000000000000000000000000000000000000815260040160405180910390fd5b5050505050565b604080516001600160a01b038088166020830152861691810191909152606081018490526080810183905260a081018290526000908190889060c001604080517fffffffffffffffffffffffffffffffffffffffffffffffffffffffffffffffe0818403018152908290528051602091820120611627939290917fa532b0f14791699bf97ebe15d445aff2b1793689486fe8ed9e4532991cb543cd91017fff00000000000000000000000000000000000000000000000000000000000000815260609390931b7fffffffffffffffffffffffffffffffffffffffff0000000000000000000000001660018401526015830191909152603582015260550190565b604080518083037fffffffffffffffffffffffffffffffffffffffffffffffffffffffffffffffe0018152919052805160209091012098975050505050505050565b604080516001600160a01b038088166020830152861691810191909152606081018490526080810183905260a081018290526000908190889060c001604080517fffffffffffffffffffffffffffffffffffffffffffffffffffffffffffffffe0818403018152908290528051602091820120611627939290917fbc720a328756224ccb8fe0fc12a950bfccd74feecf80442bf9dae03352c84dcb91017fff00000000000000000000000000000000000000000000000000000000000000815260609390931b7fffffffffffffffffffffffffffffffffffffffff0000000000000000000000001660018401526015830191909152603582015260550190565b60008060006117858460400151856000015186602001516112a8565b9150915060006117958383611954565b6117a3866080015185611954565b6117b1876060015185611954565b6117bb91906120b7565b6117c591906120b7565b6117d1906103e8612188565b905060008386606001516117e59190611f24565b6117f1906103e5612188565b90506117fd82826119a5565b9695505050505050565b600080611819836040015160026118fa565b90506000836040015184602001516118319190611f24565b61183c906002612188565b9050600061271061185e611854858860000151611954565b87604001516119a5565b606087015161186f90612710611f24565b6118799190612188565b61188391906121ce565b611891838760000151611954565b61189b91906120b7565b90506000826127106118b18689604001516119a5565b60608901516118c290612710611f24565b6118cc9190612188565b6118d691906121ce565b60208801516118e6906002612188565b6118f09190611f24565b6117f19190611f24565b600080826001161161191457670de0b6b3a7640000611916565b825b9050600182901c91505b81156112a25761193083846119ba565b925060018216156119485761194581846119ba565b90505b600182901c9150611920565b600061148083836119ba565b600081611971573d6000803e3d6000fd5b3d6020811461198957801561199a576000915061199f565b3d6000803e6000511515915061199f565b600191505b50919050565b600061148083670de0b6b3a764000084611ad6565b600080807fffffffffffffffffffffffffffffffffffffffffffffffffffffffffffffffff848609848602925082811083820303915050670de0b6b3a76400008110611a3a576040517fd31b3402000000000000000000000000000000000000000000000000000000008152600481018290526024015b60405180910390fd5b600080670de0b6b3a764000086880991506706f05b59d3b1ffff8211905082600003611a785780670de0b6b3a76400008504019450505050506112a2565b6204000082850304939091119091037d40000000000000000000000000000000000000000000000000000000000002919091177faccb18165bd6fe31ae1cf318dc5b51eee0e1ba569b88cd74c1773b91fac106690201905092915050565b600080807fffffffffffffffffffffffffffffffffffffffffffffffffffffffffffffffff85870985870292508281108382030391505080600003611b2e57838281611b2457611b2461219f565b0492505050611480565b838110611b71576040517f773cc18c0000000000000000000000000000000000000000000000000000000081526004810182905260248101859052604401611a31565b60008486880960026001871981018816978890046003810283188082028403028082028403028082028403028082028403028082028403029081029092039091026000889003889004909101858311909403939093029303949094049190911702949350505050565b60008083601f840112611bec57600080fd5b50813567ffffffffffffffff811115611c0457600080fd5b602083019150836020828501011115611c1c57600080fd5b9250929050565b600080600060408486031215611c3857600080fd5b83359250602084013567ffffffffffffffff811115611c5657600080fd5b611c6286828701611bda565b9497909650939450505050565b6000610140828403121561199f57600080fd5b6001600160a01b0381168114611c9757600080fd5b50565b8035611ca581611c82565b919050565b600080600080600060808688031215611cc257600080fd5b8535611ccd81611c82565b94506020860135935060408601359250606086013567ffffffffffffffff811115611cf757600080fd5b611d0388828901611bda565b969995985093965092949392505050565b6000610160828403121561199f57600080fd5b60405160a0810167ffffffffffffffff81118282101715611d71577f4e487b7100000000000000000000000000000000000000000000000000000000600052604160045260246000fd5b60405290565b6000818303610120811215611d8b57600080fd5b611d93611d27565b60a0821215611da157600080fd5b611da9611d27565b91508335611db681611c82565b82526020840135611dc681611c82565b80602084015250604084013560408301526060840135606083015260808401356080830152818152611dfa60a08501611c9a565b602082015260c0840135604082015260e08401356060820152611e206101008501611c9a565b6080820152949350505050565b600060208284031215611e3f57600080fd5b5051919050565b600060208284031215611e5857600080fd5b815161148081611c82565b6000815180845260005b81811015611e8957602081850181015186830182015201611e6d565b5060006020828601015260207fffffffffffffffffffffffffffffffffffffffffffffffffffffffffffffffe0601f83011685010191505092915050565b8481528360208201526001600160a01b03831660408201526080606082015260006117fd6080830184611e63565b7f4e487b7100000000000000000000000000000000000000000000000000000000600052601160045260246000fd5b818103818111156112a2576112a2611ef5565b600060208284031215611f4957600080fd5b813561148081611c82565b80516dffffffffffffffffffffffffffff81168114611ca557600080fd5b600080600060608486031215611f8757600080fd5b611f9084611f54565b9250611f9e60208501611f54565b9150604084015163ffffffff81168114611fb757600080fd5b809150509250925092565b600060208284031215611fd457600080fd5b8151801515811461148057600080fd5b600060e08284031215611ff657600080fd5b60405160e0810181811067ffffffffffffffff82111715612040577f4e487b7100000000000000000000000000000000000000000000000000000000600052604160045260246000fd5b604052823561204e81611c82565b8152602083013561205e81611c82565b6020820152604083013561207181611c82565b6040820152606083013561208481611c82565b806060830152506080830135608082015260a083013560a08201526120ab60c08401611c9a565b60c08201529392505050565b808201808211156112a2576112a2611ef5565b60006101208201905082516001600160a01b038082511684528060208301511660208501525060408101516040840152606081015160608401526080810151608084015250602083015161212960a08401826001600160a01b03169052565b50604083015160c0830152606083015160e08301526080909201516001600160a01b03166101009091015290565b6001600160a01b038416815282602082015260606040820152600061217f6060830184611e63565b95945050505050565b80820281158282048414176112a2576112a2611ef5565b7f4e487b7100000000000000000000000000000000000000000000000000000000600052601260045260246000fd5b600082612204577f4e487b7100000000000000000000000000000000000000000000000000000000600052601260045260246000fd5b50049056fea2646970667358221220e05e48131181550d3161721de8aa81064ea29b9b592dfd0d1a4f8e0542ab7da764736f6c63430008110033",
    "linkReferences": {}
  },
  "methodIdentifiers": {
    "MintCallback(uint256,bytes)": "019e868b",
    "burn((address,address,uint256,uint256,uint256,uint256,uint256,uint256,address,uint256))": "10aa6982",
    "factory()": "c45a0155",
    "mint((address,address,uint256,uint256,uint256,uint256,uint256,uint256,uint256,address,uint256))": "b3140bdc",
    "uniFactory()": "76771d4b",
    "uniswapV2Call(address,uint256,uint256,bytes)": "10d1e85c"
  },
  "id": 36
}