{
  "abi": [
    {
      "inputs": [],
      "stateMutability": "nonpayable",
      "type": "constructor"
    },
    {
      "inputs": [],
      "name": "BalanceReturnError",
      "type": "error"
    },
    {
      "inputs": [],
      "name": "CompleteUtilizationError",
      "type": "error"
    },
    {
      "inputs": [],
      "name": "InsufficientInputError",
      "type": "error"
    },
    {
      "inputs": [],
      "name": "InsufficientOutputError",
      "type": "error"
    },
    {
      "inputs": [],
      "name": "InsufficientPositionError",
      "type": "error"
    },
    {
      "inputs": [],
      "name": "NoLiquidityError",
      "type": "error"
    },
    {
      "inputs": [],
      "name": "ReentrancyError",
      "type": "error"
    },
    {
      "inputs": [],
      "name": "UnutilizedAccrueError",
      "type": "error"
    },
    {
      "anonymous": false,
      "inputs": [],
      "name": "AccrueInterest",
      "type": "event"
    },
    {
      "anonymous": false,
      "inputs": [],
      "name": "AccrueMakerInterest",
      "type": "event"
    },
    {
      "anonymous": false,
      "inputs": [
        {
          "indexed": true,
          "internalType": "address",
          "name": "owner",
          "type": "address"
        },
        {
          "indexed": true,
          "internalType": "address",
          "name": "spender",
          "type": "address"
        },
        {
          "indexed": false,
          "internalType": "uint256",
          "name": "amount",
          "type": "uint256"
        }
      ],
      "name": "Approval",
      "type": "event"
    },
    {
      "anonymous": false,
      "inputs": [
        {
          "indexed": true,
          "internalType": "address",
          "name": "sender",
          "type": "address"
        },
        {
          "indexed": true,
          "internalType": "address",
          "name": "to",
          "type": "address"
        },
        {
          "indexed": false,
          "internalType": "uint256",
          "name": "amountShares",
          "type": "uint256"
        },
        {
          "indexed": false,
          "internalType": "uint256",
          "name": "amountSpeculative",
          "type": "uint256"
        }
      ],
      "name": "Burn",
      "type": "event"
    },
    {
      "anonymous": false,
      "inputs": [
        {
          "indexed": true,
          "internalType": "address",
          "name": "sender",
          "type": "address"
        },
        {
          "indexed": true,
          "internalType": "address",
          "name": "to",
          "type": "address"
        },
        {
          "indexed": false,
          "internalType": "uint256",
          "name": "amountLP",
          "type": "uint256"
        }
      ],
      "name": "BurnMaker",
      "type": "event"
    },
    {
      "anonymous": false,
      "inputs": [
        {
          "indexed": true,
          "internalType": "address",
          "name": "owner",
          "type": "address"
        },
        {
          "indexed": true,
          "internalType": "address",
          "name": "to",
          "type": "address"
        },
        {
          "indexed": false,
          "internalType": "uint256",
          "name": "amountBase",
          "type": "uint256"
        }
      ],
      "name": "Collect",
      "type": "event"
    },
    {
      "anonymous": false,
      "inputs": [
        {
          "indexed": true,
          "internalType": "address",
          "name": "sender",
          "type": "address"
        },
        {
          "indexed": true,
          "internalType": "address",
          "name": "to",
          "type": "address"
        },
        {
          "indexed": false,
          "internalType": "uint256",
          "name": "amountSpeculative",
          "type": "uint256"
        },
        {
          "indexed": false,
          "internalType": "uint256",
          "name": "amountShares",
          "type": "uint256"
        }
      ],
      "name": "Mint",
      "type": "event"
    },
    {
      "anonymous": false,
      "inputs": [
        {
          "indexed": true,
          "internalType": "address",
          "name": "sender",
          "type": "address"
        },
        {
          "indexed": true,
          "internalType": "address",
          "name": "to",
          "type": "address"
        },
        {
          "indexed": false,
          "internalType": "uint256",
          "name": "amountLP",
          "type": "uint256"
        }
      ],
      "name": "MintMaker",
      "type": "event"
    },
    {
      "anonymous": false,
      "inputs": [
        {
          "indexed": true,
          "internalType": "address",
          "name": "from",
          "type": "address"
        },
        {
          "indexed": true,
          "internalType": "address",
          "name": "to",
          "type": "address"
        },
        {
          "indexed": false,
          "internalType": "uint256",
          "name": "amount",
          "type": "uint256"
        }
      ],
      "name": "Transfer",
      "type": "event"
    },
    {
      "inputs": [],
      "name": "DOMAIN_SEPARATOR",
      "outputs": [
        {
          "internalType": "bytes32",
          "name": "",
          "type": "bytes32"
        }
      ],
      "stateMutability": "view",
      "type": "function"
    },
    {
      "inputs": [],
      "name": "RATE",
      "outputs": [
        {
          "internalType": "uint8",
          "name": "",
          "type": "uint8"
        }
      ],
      "stateMutability": "view",
      "type": "function"
    },
    {
      "inputs": [],
      "name": "accrueInterest",
      "outputs": [],
      "stateMutability": "nonpayable",
      "type": "function"
    },
    {
      "inputs": [
        {
          "internalType": "bytes32",
          "name": "id",
          "type": "bytes32"
        }
      ],
      "name": "accrueMakerInterest",
      "outputs": [],
      "stateMutability": "nonpayable",
      "type": "function"
    },
    {
      "inputs": [
        {
          "internalType": "address",
          "name": "",
          "type": "address"
        },
        {
          "internalType": "address",
          "name": "",
          "type": "address"
        }
      ],
      "name": "allowance",
      "outputs": [
        {
          "internalType": "uint256",
          "name": "",
          "type": "uint256"
        }
      ],
      "stateMutability": "view",
      "type": "function"
    },
    {
      "inputs": [
        {
          "internalType": "address",
          "name": "spender",
          "type": "address"
        },
        {
          "internalType": "uint256",
          "name": "amount",
          "type": "uint256"
        }
      ],
      "name": "approve",
      "outputs": [
        {
          "internalType": "bool",
          "name": "",
          "type": "bool"
        }
      ],
      "stateMutability": "nonpayable",
      "type": "function"
    },
    {
      "inputs": [],
      "name": "balanceLP",
      "outputs": [
        {
          "internalType": "uint256",
          "name": "",
          "type": "uint256"
        }
      ],
      "stateMutability": "view",
      "type": "function"
    },
    {
      "inputs": [
        {
          "internalType": "address",
          "name": "",
          "type": "address"
        }
      ],
      "name": "balanceOf",
      "outputs": [
        {
          "internalType": "uint256",
          "name": "",
          "type": "uint256"
        }
      ],
      "stateMutability": "view",
      "type": "function"
    },
    {
      "inputs": [],
      "name": "balanceSpeculative",
      "outputs": [
        {
          "internalType": "uint256",
          "name": "",
          "type": "uint256"
        }
      ],
      "stateMutability": "view",
      "type": "function"
    },
    {
      "inputs": [
        {
          "internalType": "address",
          "name": "recipient",
          "type": "address"
        },
        {
          "internalType": "bytes",
          "name": "data",
          "type": "bytes"
        }
      ],
      "name": "burn",
      "outputs": [],
      "stateMutability": "nonpayable",
      "type": "function"
    },
    {
      "inputs": [
        {
          "internalType": "address",
          "name": "recipient",
          "type": "address"
        },
        {
          "internalType": "uint256",
          "name": "amountLP",
          "type": "uint256"
        }
      ],
      "name": "burnMaker",
      "outputs": [],
      "stateMutability": "nonpayable",
      "type": "function"
    },
    {
      "inputs": [
        {
          "internalType": "address",
          "name": "recipient",
          "type": "address"
        }
      ],
      "name": "collectMaker",
      "outputs": [
        {
          "internalType": "uint256",
          "name": "collectedTokens",
          "type": "uint256"
        }
      ],
      "stateMutability": "nonpayable",
      "type": "function"
    },
    {
      "inputs": [],
      "name": "currentLiquidity",
      "outputs": [
        {
          "internalType": "uint256",
          "name": "",
          "type": "uint256"
        }
      ],
      "stateMutability": "view",
      "type": "function"
    },
    {
      "inputs": [],
      "name": "currentPosition",
      "outputs": [
        {
          "internalType": "bytes32",
          "name": "",
          "type": "bytes32"
        }
      ],
      "stateMutability": "view",
      "type": "function"
    },
    {
      "inputs": [],
      "name": "decimals",
      "outputs": [
        {
          "internalType": "uint8",
          "name": "",
          "type": "uint8"
        }
      ],
      "stateMutability": "view",
      "type": "function"
    },
    {
      "inputs": [],
      "name": "factory",
      "outputs": [
        {
          "internalType": "address",
          "name": "",
          "type": "address"
        }
      ],
      "stateMutability": "view",
      "type": "function"
    },
    {
      "inputs": [],
      "name": "lastPosition",
      "outputs": [
        {
          "internalType": "bytes32",
          "name": "",
          "type": "bytes32"
        }
      ],
      "stateMutability": "view",
      "type": "function"
    },
    {
      "inputs": [],
      "name": "lastUpdate",
      "outputs": [
        {
          "internalType": "uint40",
          "name": "",
          "type": "uint40"
        }
      ],
      "stateMutability": "view",
      "type": "function"
    },
    {
      "inputs": [
        {
          "internalType": "uint256",
          "name": "_speculativeAmount",
          "type": "uint256"
        }
      ],
      "name": "lpForSpeculative",
      "outputs": [
        {
          "internalType": "uint256",
          "name": "",
          "type": "uint256"
        }
      ],
      "stateMutability": "view",
      "type": "function"
    },
    {
      "inputs": [
        {
          "internalType": "address",
          "name": "recipient",
          "type": "address"
        },
        {
          "internalType": "uint256",
          "name": "amountSpeculative",
          "type": "uint256"
        },
        {
          "internalType": "bytes",
          "name": "data",
          "type": "bytes"
        }
      ],
      "name": "mint",
      "outputs": [
        {
          "internalType": "uint256",
          "name": "",
          "type": "uint256"
        }
      ],
      "stateMutability": "nonpayable",
      "type": "function"
    },
    {
      "inputs": [
        {
          "internalType": "address",
          "name": "recipient",
          "type": "address"
        },
        {
          "internalType": "uint256",
          "name": "amountLP",
          "type": "uint256"
        },
        {
          "internalType": "bytes",
          "name": "data",
          "type": "bytes"
        }
      ],
      "name": "mintMaker",
      "outputs": [],
      "stateMutability": "nonpayable",
      "type": "function"
    },
    {
      "inputs": [],
      "name": "name",
      "outputs": [
        {
          "internalType": "string",
          "name": "",
          "type": "string"
        }
      ],
      "stateMutability": "view",
      "type": "function"
    },
    {
      "inputs": [
        {
          "internalType": "address",
          "name": "",
          "type": "address"
        }
      ],
      "name": "nonces",
      "outputs": [
        {
          "internalType": "uint256",
          "name": "",
          "type": "uint256"
        }
      ],
      "stateMutability": "view",
      "type": "function"
    },
    {
      "inputs": [],
      "name": "pair",
      "outputs": [
        {
          "internalType": "address",
          "name": "",
          "type": "address"
        }
      ],
      "stateMutability": "view",
      "type": "function"
    },
    {
      "inputs": [
        {
          "internalType": "address",
          "name": "owner",
          "type": "address"
        },
        {
          "internalType": "address",
          "name": "spender",
          "type": "address"
        },
        {
          "internalType": "uint256",
          "name": "value",
          "type": "uint256"
        },
        {
          "internalType": "uint256",
          "name": "deadline",
          "type": "uint256"
        },
        {
          "internalType": "uint8",
          "name": "v",
          "type": "uint8"
        },
        {
          "internalType": "bytes32",
          "name": "r",
          "type": "bytes32"
        },
        {
          "internalType": "bytes32",
          "name": "s",
          "type": "bytes32"
        }
      ],
      "name": "permit",
      "outputs": [],
      "stateMutability": "nonpayable",
      "type": "function"
    },
    {
      "inputs": [
        {
          "internalType": "bytes32",
          "name": "",
          "type": "bytes32"
        }
      ],
      "name": "positions",
      "outputs": [
        {
          "internalType": "bytes32",
          "name": "next",
          "type": "bytes32"
        },
        {
          "internalType": "bytes32",
          "name": "previous",
          "type": "bytes32"
        },
        {
          "internalType": "uint256",
          "name": "liquidity",
          "type": "uint256"
        },
        {
          "internalType": "uint256",
          "name": "tokensOwed",
          "type": "uint256"
        },
        {
          "internalType": "uint256",
          "name": "rewardPerTokenPaid",
          "type": "uint256"
        },
        {
          "internalType": "bool",
          "name": "utilized",
          "type": "bool"
        }
      ],
      "stateMutability": "view",
      "type": "function"
    },
    {
      "inputs": [],
      "name": "rewardPerTokenStored",
      "outputs": [
        {
          "internalType": "uint256",
          "name": "",
          "type": "uint256"
        }
      ],
      "stateMutability": "view",
      "type": "function"
    },
    {
      "inputs": [
        {
          "internalType": "uint256",
          "name": "_lpAmount",
          "type": "uint256"
        }
      ],
      "name": "speculativeForLP",
      "outputs": [
        {
          "internalType": "uint256",
          "name": "",
          "type": "uint256"
        }
      ],
      "stateMutability": "view",
      "type": "function"
    },
    {
      "inputs": [],
      "name": "symbol",
      "outputs": [
        {
          "internalType": "string",
          "name": "",
          "type": "string"
        }
      ],
      "stateMutability": "view",
      "type": "function"
    },
    {
      "inputs": [],
      "name": "totalLPUtilized",
      "outputs": [
        {
          "internalType": "uint256",
          "name": "",
          "type": "uint256"
        }
      ],
      "stateMutability": "view",
      "type": "function"
    },
    {
      "inputs": [],
      "name": "totalSupply",
      "outputs": [
        {
          "internalType": "uint256",
          "name": "",
          "type": "uint256"
        }
      ],
      "stateMutability": "view",
      "type": "function"
    },
    {
      "inputs": [
        {
          "internalType": "address",
          "name": "to",
          "type": "address"
        },
        {
          "internalType": "uint256",
          "name": "amount",
          "type": "uint256"
        }
      ],
      "name": "transfer",
      "outputs": [
        {
          "internalType": "bool",
          "name": "",
          "type": "bool"
        }
      ],
      "stateMutability": "nonpayable",
      "type": "function"
    },
    {
      "inputs": [
        {
          "internalType": "address",
          "name": "from",
          "type": "address"
        },
        {
          "internalType": "address",
          "name": "to",
          "type": "address"
        },
        {
          "internalType": "uint256",
          "name": "amount",
          "type": "uint256"
        }
      ],
      "name": "transferFrom",
      "outputs": [
        {
          "internalType": "bool",
          "name": "",
          "type": "bool"
        }
      ],
      "stateMutability": "nonpayable",
      "type": "function"
    }
  ],
  "bytecode": {
    "object": "0x6101206040526001600d553480156200001757600080fd5b506040518060400160405280600f81526020016e4e756d6f656e204c656e6467696e6560881b815250604051806040016040528060048152602001634e4c444760e01b8152506012826000908162000070919062000258565b5060016200007f838262000258565b5060ff81166080524660a0526200009562000117565b60c05250503360e08190526040805163a8aa1b3160e01b8152905191925063a8aa1b319160048083019260209291908290030181865afa158015620000de573d6000803e3d6000fd5b505050506040513d601f19601f8201168201806040525081019062000104919062000324565b6001600160a01b031661010052620003d4565b60007f8b73c3c69bb8fe3d512ecc4cf759cc79239f7b179b0ffacaa9a75d522b39400f60006040516200014b919062000356565b6040805191829003822060208301939093528101919091527fc89efdaa54c0f20c7adf612882df0950f5a951637e0307cdcb4c672f298b8bc660608201524660808201523060a082015260c00160405160208183030381529060405280519060200120905090565b634e487b7160e01b600052604160045260246000fd5b600181811c90821680620001de57607f821691505b602082108103620001ff57634e487b7160e01b600052602260045260246000fd5b50919050565b601f8211156200025357600081815260208120601f850160051c810160208610156200022e5750805b601f850160051c820191505b818110156200024f578281556001016200023a565b5050505b505050565b81516001600160401b03811115620002745762000274620001b3565b6200028c81620002858454620001c9565b8462000205565b602080601f831160018114620002c45760008415620002ab5750858301515b600019600386901b1c1916600185901b1785556200024f565b600085815260208120601f198616915b82811015620002f557888601518255948401946001909101908401620002d4565b5085821015620003145787850151600019600388901b60f8161c191681555b5050505050600190811b01905550565b6000602082840312156200033757600080fd5b81516001600160a01b03811681146200034f57600080fd5b9392505050565b60008083546200036681620001c9565b600182811680156200038157600181146200039757620003c8565b60ff1984168752821515830287019450620003c8565b8760005260208060002060005b85811015620003bf5781548a820152908401908201620003a4565b50505082870194505b50929695505050505050565b60805160a05160c05160e051610100516132306200045860003960008181610411015281816107ff015281816108f001528181610a7f01528181610bcb01528181610fc7015281816110b70152818161113e0152818161137301526119c201526000610497015260006107d00152600061079b0152600061028901526132306000f3fe608060405234801561001057600080fd5b506004361061020b5760003560e01c80637a52b9371161012a578063c45a0155116100bd578063d62412181161008c578063df136d6511610071578063df136d651461051c578063e5364eae14610525578063ec48f0fb1461053857600080fd5b8063d6241218146104de578063dd62ed3e146104f157600080fd5b8063c45a015514610492578063cfcc5bf1146104b9578063d505accf146104c2578063d534d636146104d557600080fd5b8063a6afed95116100f9578063a6afed9514610404578063a8aa1b311461040c578063a9059cbb14610458578063c04637111461046b57600080fd5b80637a52b937146103c15780637ecebe00146103c957806394d008ef146103e957806395d89b41146103fc57600080fd5b80633fd59465116101a2578063514ea4bf11610171578063514ea4bf1461030f578063664e97041461038457806370a082311461038c57806376816f4a146103ac57600080fd5b80633fd59465146102d85780634075f00e146102e057806346caf2ae146102f35780634a8117d5146102fc57600080fd5b806325fced97116101de57806325fced971461027b578063313ce567146102845780633644e515146102bd5780633bbb8b7a146102c557600080fd5b806306fdde0314610210578063095ea7b31461022e57806318160ddd1461025157806323b872dd14610268575b600080fd5b61021861054b565b6040516102259190612c81565b60405180910390f35b61024161023c366004612cf7565b6105d9565b6040519015158152602001610225565b61025a60025481565b604051908152602001610225565b610241610276366004612d23565b610653565b61025a60075481565b6102ab7f000000000000000000000000000000000000000000000000000000000000000081565b60405160ff9091168152602001610225565b61025a610797565b61025a6102d3366004612d64565b6107f2565b61025a6108ab565b61025a6102ee366004612d64565b610a7b565b61025a60095481565b61025a61030a366004612d7d565b610b29565b61035561031d366004612d64565b600660205260009081526040902080546001820154600283015460038401546004850154600590950154939492939192909160ff1686565b6040805196875260208701959095529385019290925260608401526080830152151560a082015260c001610225565b6102ab600481565b61025a61039a366004612d7d565b60036020526000908152604090205481565b6103bf6103ba366004612cf7565b610cb7565b005b61025a611137565b61025a6103d7366004612d7d565b60056020526000908152604090205481565b61025a6103f7366004612de3565b61124a565b6102186114cd565b6103bf6114da565b6104337f000000000000000000000000000000000000000000000000000000000000000081565b60405173ffffffffffffffffffffffffffffffffffffffff9091168152602001610225565b610241610466366004612cf7565b61152a565b600c5461047c9064ffffffffff1681565b60405164ffffffffff9091168152602001610225565b6104337f000000000000000000000000000000000000000000000000000000000000000081565b61025a600a5481565b6103bf6104d0366004612e3f565b6115af565b61025a60085481565b6103bf6104ec366004612eb6565b6118d3565b61025a6104ff366004612f0b565b600460209081526000928352604080842090915290825290205481565b61025a600b5481565b6103bf610533366004612d64565b611b86565b6103bf610546366004612de3565b611be0565b6000805461055890612f44565b80601f016020809104026020016040519081016040528092919081815260200182805461058490612f44565b80156105d15780601f106105a6576101008083540402835291602001916105d1565b820191906000526020600020905b8154815290600101906020018083116105b457829003601f168201915b505050505081565b33600081815260046020908152604080832073ffffffffffffffffffffffffffffffffffffffff8716808552925280832085905551919290917f8c5be1e5ebec7d5bd14f71427d1e84f3dd0314c0f7b2291e5b200ac8c7c3b925906106419086815260200190565b60405180910390a35060015b92915050565b73ffffffffffffffffffffffffffffffffffffffff831660009081526004602090815260408083203384529091528120547fffffffffffffffffffffffffffffffffffffffffffffffffffffffffffffffff81146106e7576106b58382612fc6565b73ffffffffffffffffffffffffffffffffffffffff861660009081526004602090815260408083203384529091529020555b73ffffffffffffffffffffffffffffffffffffffff85166000908152600360205260408120805485929061071c908490612fc6565b909155505073ffffffffffffffffffffffffffffffffffffffff808516600081815260036020526040908190208054870190555190918716907fddf252ad1be2c89b69c2b068fc378daa952ba7f163c4a11628f55a4df523b3ef906107849087815260200190565b60405180910390a3506001949350505050565b60007f000000000000000000000000000000000000000000000000000000000000000046146107cd576107c8611f45565b905090565b507f000000000000000000000000000000000000000000000000000000000000000090565b6000670de0b6b3a76400007f000000000000000000000000000000000000000000000000000000000000000073ffffffffffffffffffffffffffffffffffffffff1663b09ad8a06040518163ffffffff1660e01b8152600401602060405180830381865afa158015610868573d6000803e3d6000fd5b505050506040513d601f19601f8201168201806040525081019061088c9190612fd9565b610897846002612ff2565b6108a19190612ff2565b61064d919061302f565b604080518082018252601281527f62616c616e63654f6628616464726573732900000000000000000000000000006020909101525130602482015260009081906060907f000000000000000000000000000000000000000000000000000000000000000073ffffffffffffffffffffffffffffffffffffffff16907f70a08231b98ef4ca268c9cc3f6b4590e4bfec28280db06bb5d45e689f2a360be906044015b604080517fffffffffffffffffffffffffffffffffffffffffffffffffffffffffffffffe08184030181529181526020820180517bffffffffffffffffffffffffffffffffffffffffffffffffffffffff167fffffffff000000000000000000000000000000000000000000000000000000009094169390931790925290516109d5919061306a565b600060405180830381855afa9150503d8060008114610a10576040519150601f19603f3d011682016040523d82523d6000602084013e610a15565b606091505b509092509050811580610a29575060208151105b15610a60576040517f7613bc8900000000000000000000000000000000000000000000000000000000815260040160405180910390fd5b80806020019051810190610a749190612fd9565b9250505090565b60007f000000000000000000000000000000000000000000000000000000000000000073ffffffffffffffffffffffffffffffffffffffff1663b09ad8a06040518163ffffffff1660e01b8152600401602060405180830381865afa158015610ae8573d6000803e3d6000fd5b505050506040513d601f19601f82011682018060405250810190610b0c9190612fd9565b610b17906002612ff2565b6108a183670de0b6b3a7640000612ff2565b6000600d54600114610b67576040517f29f745a700000000000000000000000000000000000000000000000000000000815260040160405180910390fd5b6002600d556000610b79600633611fdf565b90508060030154915081600003610bbc576040517fd5ab59fe00000000000000000000000000000000000000000000000000000000815260040160405180910390fd5b60008160030181905550610c5f7f000000000000000000000000000000000000000000000000000000000000000073ffffffffffffffffffffffffffffffffffffffff16630dfe16816040518163ffffffff1660e01b8152600401602060405180830381865afa158015610c34573d6000803e3d6000fd5b505050506040513d601f19601f82011682018060405250810190610c589190613086565b8484612050565b60405182815273ffffffffffffffffffffffffffffffffffffffff84169033907f1314fd112a381beea61539dbd21ec04afcff2662ac7d1b83273aade1f53d1b979060200160405180910390a3506001600d55919050565b600d54600114610cf3576040517f29f745a700000000000000000000000000000000000000000000000000000000815260040160405180910390fd5b6002600d556000610d05600633611fdf565b6040805160c0810182528254815260018301546020820152600283015491810191909152600382015460608201526004820154608082015260059091015460ff16151560a082015290506000610da7846040517fffffffffffffffffffffffffffffffffffffffff000000000000000000000000606083901b166020820152600090603401604051602081830303815290604052805190602001209050919050565b9050600081600854148015610dbe57506000600954115b80610dd757508260a001518015610dd757508160085414155b90508015610df057610de761210f565b610df082612278565b83600003610e2a576040517fd5ab59fe00000000000000000000000000000000000000000000000000000000815260040160405180910390fd5b60008260085403610e9957848460400151610e459190612fc6565b6009541115610e6e57848460400151610e5e9190612fc6565b600954610e6b9190612fc6565b90505b83604001518503610e945760006009819055600880548252600660205260409091205490555b610ea6565b8360a0015115610ea65750835b84600003610ee0576040517fd5ab59fe00000000000000000000000000000000000000000000000000000000815260040160405180910390fd5b8360400151851015610f485782600854148015610f0d5750848460400151610f089190612fc6565b600954115b15610f2657848460400151610f229190612fc6565b6009555b610f43610f32866130a3565b610f3d600633611fdf565b90612364565b6110a3565b8360400151850361107157600080610fb7610faf896040517fffffffffffffffffffffffffffffffffffffffff000000000000000000000000606083901b166020820152600090603401604051602081830303815290604052805190602001209050919050565b600690612401565b9092509050811561105b5761105b7f000000000000000000000000000000000000000000000000000000000000000073ffffffffffffffffffffffffffffffffffffffff16630dfe16816040518163ffffffff1660e01b8152600401602060405180830381865afa158015611030573d6000803e3d6000fd5b505050506040513d601f19601f820116820180604052508101906110549190613086565b8984612050565b846007540361106a5760078190555b50506110a3565b6040517fe8ffb44c00000000000000000000000000000000000000000000000000000000815260040160405180910390fd5b80156110b2576110b2816124e6565b6110dd7f00000000000000000000000000000000000000000000000000000000000000008787612050565b60405185815273ffffffffffffffffffffffffffffffffffffffff87169033907faccc16e1ff01591e621aaed049a26d9e161b18cf2f8270c119c10982a5961b469060200160405180910390a350506001600d5550505050565b60008060607f000000000000000000000000000000000000000000000000000000000000000073ffffffffffffffffffffffffffffffffffffffff16630dfe16816040518163ffffffff1660e01b8152600401602060405180830381865afa1580156111a7573d6000803e3d6000fd5b505050506040513d601f19601f820116820180604052508101906111cb9190613086565b604080518082018252601281527f62616c616e63654f6628616464726573732900000000000000000000000000006020909101525130602482015273ffffffffffffffffffffffffffffffffffffffff91909116907f70a08231b98ef4ca268c9cc3f6b4590e4bfec28280db06bb5d45e689f2a360be9060440161094c565b6000600d54600114611288576040517f29f745a700000000000000000000000000000000000000000000000000000000815260040160405180910390fd5b6002600d5561129561210f565b6008546112ce576040517f088c327000000000000000000000000000000000000000000000000000000000815260040160405180910390fd5b60006112d985610a7b565b600a546002549192509060008281036112f25783611307565b826112fd8386612ff2565b611307919061302f565b905080600003611343576040517fd5ab59fe00000000000000000000000000000000000000000000000000000000815260040160405180910390fd5b61134c846124e6565b83600a600082825461135e91906130db565b9091555061136e90508982612670565b6113997f00000000000000000000000000000000000000000000000000000000000000008a86612050565b60006113a3611137565b6040517f019e868b000000000000000000000000000000000000000000000000000000008152909150339063019e868b906113e6908c908c908c906004016130ee565b600060405180830381600087803b15801561140057600080fd5b505af1158015611414573d6000803e3d6000fd5b505050506000611422611137565b905061142e8a836130db565b811015611467576040517fee30a99300000000000000000000000000000000000000000000000000000000815260040160405180910390fd5b604080518b81526020810185905273ffffffffffffffffffffffffffffffffffffffff8d169133917f2f00e3cdd69a77be7ed215ec7b2a36784dd158f921fca79ac29deffa353fe6ee910160405180910390a350506001600d5598975050505050505050565b6001805461055890612f44565b600d54600114611516576040517f29f745a700000000000000000000000000000000000000000000000000000000815260040160405180910390fd5b6002600d5561152361210f565b6001600d55565b3360009081526003602052604081208054839190839061154b908490612fc6565b909155505073ffffffffffffffffffffffffffffffffffffffff8316600081815260036020526040908190208054850190555133907fddf252ad1be2c89b69c2b068fc378daa952ba7f163c4a11628f55a4df523b3ef906106419086815260200190565b4284101561161e576040517f08c379a000000000000000000000000000000000000000000000000000000000815260206004820152601760248201527f5045524d49545f444541444c494e455f4558504952454400000000000000000060448201526064015b60405180910390fd5b6000600161162a610797565b73ffffffffffffffffffffffffffffffffffffffff8a811660008181526005602090815260409182902080546001810190915582517f6e71edae12b1b97f4d1f60370fef10105fa2faae0126114a169c64845d6126c98184015280840194909452938d166060840152608083018c905260a083019390935260c08083018b90528151808403909101815260e0830190915280519201919091207f190100000000000000000000000000000000000000000000000000000000000061010083015261010282019290925261012281019190915261014201604080517fffffffffffffffffffffffffffffffffffffffffffffffffffffffffffffffe08184030181528282528051602091820120600084529083018083525260ff871690820152606081018590526080810184905260a0016020604051602081039080840390855afa15801561177c573d6000803e3d6000fd5b50506040517fffffffffffffffffffffffffffffffffffffffffffffffffffffffffffffffe0015191505073ffffffffffffffffffffffffffffffffffffffff8116158015906117f757508773ffffffffffffffffffffffffffffffffffffffff168173ffffffffffffffffffffffffffffffffffffffff16145b61185d576040517f08c379a000000000000000000000000000000000000000000000000000000000815260206004820152600e60248201527f494e56414c49445f5349474e45520000000000000000000000000000000000006044820152606401611615565b73ffffffffffffffffffffffffffffffffffffffff90811660009081526004602090815260408083208a8516808552908352928190208990555188815291928a16917f8c5be1e5ebec7d5bd14f71427d1e84f3dd0314c0f7b2291e5b200ac8c7c3b925910160405180910390a350505050505050565b600d5460011461190f576040517f29f745a700000000000000000000000000000000000000000000000000000000815260040160405180910390fd5b6002600d5561191c61210f565b30600090815260036020526040812054600254600a5491929161193f9084612ff2565b611949919061302f565b905080600003611985576040517fd5ab59fe00000000000000000000000000000000000000000000000000000000815260040160405180910390fd5b6000611990826107f2565b905061199b826126e9565b81600a60008282546119ad9190612fc6565b909155506119bd9050308461281d565b611a567f000000000000000000000000000000000000000000000000000000000000000073ffffffffffffffffffffffffffffffffffffffff16630dfe16816040518163ffffffff1660e01b8152600401602060405180830381865afa158015611a2b573d6000803e3d6000fd5b505050506040513d601f19601f82011682018060405250810190611a4f9190613086565b8783612050565b6000611a606108ab565b6040517f071ebbea000000000000000000000000000000000000000000000000000000008152909150339063071ebbea90611aa39086908a908a906004016130ee565b600060405180830381600087803b158015611abd57600080fd5b505af1158015611ad1573d6000803e3d6000fd5b505050506000611adf6108ab565b9050611aeb84836130db565b811015611b24576040517fee30a99300000000000000000000000000000000000000000000000000000000815260040160405180910390fd5b604080518681526020810185905273ffffffffffffffffffffffffffffffffffffffff8a169133917f5d624aa9c148153ab3446c1b154f660ee7701e549fe9b62dab7171b1c80e6fa2910160405180910390a350506001600d55505050505050565b600d54600114611bc2576040517f29f745a700000000000000000000000000000000000000000000000000000000815260040160405180910390fd5b6002600d55611bcf61210f565b611bd881612278565b506001600d55565b600d54600114611c1c576040517f29f745a700000000000000000000000000000000000000000000000000000000815260040160405180910390fd5b6002600d556000611c2e600686611fdf565b6040805160c0810182528254815260018301546020820152600283015491810191909152600382015460608201526004820154608082015260059091015460ff16151560a082015290506000611cd0866040517fffffffffffffffffffffffffffffffffffffffff000000000000000000000000606083901b166020820152600090603401604051602081830303815290604052805190602001209050919050565b905084600003611d0c576040517fd5ab59fe00000000000000000000000000000000000000000000000000000000815260040160405180910390fd5b600081600854148015611d2157506000600954115b80611d3a57508260a001518015611d3a57508160085414155b90508015611d5357611d4a61210f565b611d5382612278565b5060008160085403611d835750600980546000918290556008805483526006602052604090922054909155611d94565b8260a0015115611d94575060408201515b611d9f600683612401565b5050611df9826007546040518060c001604052806000801b81526020016000801b81526020018a8860400151611dd591906130db565b81526060808901516020830152600b546040830152600091015260069291906128ab565b8015611e0857611e08816124e6565b600854611e155760088290555b6000611e1f6108ab565b6040517f071ebbea000000000000000000000000000000000000000000000000000000008152909150339063071ebbea90611e62908a908a908a906004016130ee565b600060405180830381600087803b158015611e7c57600080fd5b505af1158015611e90573d6000803e3d6000fd5b505050506000611e9e6108ab565b9050611eaa88836130db565b811015611ee3576040517fee30a99300000000000000000000000000000000000000000000000000000000815260040160405180910390fd5b600784905560405188815273ffffffffffffffffffffffffffffffffffffffff8a169033907f880ba63815d14e269b4e46291f4ee391d81c80da0197fa4bb25c7140ebbf22c89060200160405180910390a350506001600d5550505050505050565b60007f8b73c3c69bb8fe3d512ecc4cf759cc79239f7b179b0ffacaa9a75d522b39400f6000604051611f779190613142565b6040805191829003822060208301939093528101919091527fc89efdaa54c0f20c7adf612882df0950f5a951637e0307cdcb4c672f298b8bc660608201524660808201523060a082015260c00160405160208183030381529060405280519060200120905090565b600082600061203a846040517fffffffffffffffffffffffffffffffffffffffff000000000000000000000000606083901b166020820152600090603401604051602081830303815290604052805190602001209050919050565b8152602001908152602001600020905092915050565b60006040517fa9059cbb000000000000000000000000000000000000000000000000000000008152836004820152826024820152602060006044836000895af13d15601f3d1160016000511416171691505080612109576040517f08c379a000000000000000000000000000000000000000000000000000000000815260206004820152600f60248201527f5452414e534645525f4641494c454400000000000000000000000000000000006044820152606401611615565b50505050565b60025460000361214c57600c80547fffffffffffffffffffffffffffffffffffffffffffffffffffffff0000000000164264ffffffffff16179055565b600c546000906121639064ffffffffff1642612fc6565b90508015806121725750600a54155b1561217a5750565b600063337f980082600460ff16600a546121949190612ff2565b61219e9190612ff2565b6121a8919061302f565b905060006121b5826107f2565b600a549091506121cd82670de0b6b3a7640000612ff2565b6121d7919061302f565b600b60008282546121e891906130db565b90915550506008546121f990612278565b612202826126e9565b81600a60008282546122149190612fc6565b9091555050600c80547fffffffffffffffffffffffffffffffffffffffffffffffffffffff0000000000164264ffffffffff161790556040517f758837fe7daa1fdeb4f11284bff3ce46e535b8e382ca58cad5fcda09a259c30a90600090a1505050565b600081815260066020908152604091829020825160c081018452815481526001820154928101929092526002810154928201929092526003820154606082015260048201546080820152600582015460ff16151560a08201819052612309576040517f60924f8a00000000000000000000000000000000000000000000000000000000815260040160405180910390fd5b60006123158285612af9565b600b54600485015560608301519091506123309082906130db565b60038401556040517f2e6b328e9598b1292d5bd3e9fc08a13a477d1592981f5569569ae795f6a2990190600090a150505050565b6040805160c08101825283548152600184015460208201526002840154918101919091526003830154606082015260048301546080820152600583015460ff16151560a082015260008290036123e6576040517f351c1cda00000000000000000000000000000000000000000000000000000000815260040160405180910390fd5b6123f4816040015183612b5a565b8360020181905550505050565b600081815260208381526040808320815160c08101835281548152600182015493810184905260028201549281019290925260038101546060830152600481015460808301526005015460ff16151560a082015282911561247357805160208083015160009081529087905260409020555b8051156124955760208082015182516000908152918790526040909120600101555b6060810151600085815260208781526040822082815560018101839055600281018390556003810183905560048101929092556005909101805460ff191690559091015190925090505b9250929050565b6008546000818152600660209081526040808320815160c08101835281548152600182015493810193909352600281015491830182905260038101546060840152600481015460808401526005015460ff16151560a083015260095491929161254e91612fc6565b9050835b8082101561262f578260a00151612580576000848152600660205260409020600501805460ff191660011790555b82519350836125bb576040517f088c327000000000000000000000000000000000000000000000000000000000815260040160405180910390fd5b600084815260066020908152604091829020825160c08101845281548152600182015492810192909252600281015492820192909252600382015460608201526004820154608082015260059091015460ff16151560a082015292506126218282612fc6565b905082604001519150612552565b8260a0015115801561264057508015155b15612662576000848152600660205260409020600501805460ff191660011790555b600893909355505060095550565b806002600082825461268291906130db565b909155505073ffffffffffffffffffffffffffffffffffffffff82166000818152600360209081526040808320805486019055518481527fddf252ad1be2c89b69c2b068fc378daa952ba7f163c4a11628f55a4df523b3ef91015b60405180910390a35050565b600854600081815260066020908152604091829020825160c08101845281548152600182015492810192909252600281015492820192909252600382015460608201526004820154608082015260059091015460ff16151560a0820152600954835b808210156127e35760009384526006602090815260408086206005908101805460ff191690559482015180875295819020815160c0810183528154815260018201549381019390935260028101549183019190915260038101546060830152600481015460808301529093015460ff16151560a08401526127cc8282612fc6565b9050826040015191506127de84612278565b61274b565b808203612804576000848152600660205260409020600501805460ff191690555b60088490556128138183612fc6565b6009555050505050565b73ffffffffffffffffffffffffffffffffffffffff821660009081526003602052604081208054839290612852908490612fc6565b909155505060028054829003905560405181815260009073ffffffffffffffffffffffffffffffffffffffff8416907fddf252ad1be2c89b69c2b068fc378daa952ba7f163c4a11628f55a4df523b3ef906020016126dd565b6040805160c081018252600080825260208201819052918101829052606081018290526080810182905260a08101919091528261296857506040805160c081018252600080825260208083018281528585015184860190815260608088015190860190815260808089015190870190815260a087018681528b8752948c9052969094209451855590516001850155516002840155905160038301559151600482015590516005909101805460ff1916911515919091179055612109565b60008560008581526020019081526020016000206040518060c001604052908160008201548152602001600182015481526020016002820154815260200160038201548152602001600482015481526020016005820160009054906101000a900460ff16151515158152505090508481600001818152505080866000868152602001908152602001600020600082015181600001556020820151816001015560408201518160020155606082015181600301556080820151816004015560a08201518160050160006101000a81548160ff0219169083151502179055509050506040518060c001604052806000801b815260200185815260200184604001518152602001846060015181526020018460800151815260200160001515815250915081866000878152602001908152602001600020600082015181600001556020820151816001015560408201518160020155606082015181600301556080820151816004015560a08201518160050160006101000a81548160ff021916908315150217905550905050505050505050565b60008260a00151612b0c5750600061064d565b6040830151600854839003612b2057506009545b6000670de0b6b3a76400008560800151600b54612b3d9190612fc6565b612b479084612ff2565b612b51919061302f565b95945050505050565b600080821215612be75782612b6e836130a3565b612b789085612fc6565b91508110612be2576040517f08c379a000000000000000000000000000000000000000000000000000000000815260206004820152600260248201527f4c530000000000000000000000000000000000000000000000000000000000006044820152606401611615565b61064d565b82612bf283826130db565b915081101561064d576040517f08c379a000000000000000000000000000000000000000000000000000000000815260206004820152600260248201527f4c410000000000000000000000000000000000000000000000000000000000006044820152606401611615565b60005b83811015612c78578181015183820152602001612c60565b50506000910152565b6020815260008251806020840152612ca0816040850160208701612c5d565b601f017fffffffffffffffffffffffffffffffffffffffffffffffffffffffffffffffe0169190910160400192915050565b73ffffffffffffffffffffffffffffffffffffffff81168114612cf457600080fd5b50565b60008060408385031215612d0a57600080fd5b8235612d1581612cd2565b946020939093013593505050565b600080600060608486031215612d3857600080fd5b8335612d4381612cd2565b92506020840135612d5381612cd2565b929592945050506040919091013590565b600060208284031215612d7657600080fd5b5035919050565b600060208284031215612d8f57600080fd5b8135612d9a81612cd2565b9392505050565b60008083601f840112612db357600080fd5b50813567ffffffffffffffff811115612dcb57600080fd5b6020830191508360208285010111156124df57600080fd5b60008060008060608587031215612df957600080fd5b8435612e0481612cd2565b935060208501359250604085013567ffffffffffffffff811115612e2757600080fd5b612e3387828801612da1565b95989497509550505050565b600080600080600080600060e0888a031215612e5a57600080fd5b8735612e6581612cd2565b96506020880135612e7581612cd2565b95506040880135945060608801359350608088013560ff81168114612e9957600080fd5b9699959850939692959460a0840135945060c09093013592915050565b600080600060408486031215612ecb57600080fd5b8335612ed681612cd2565b9250602084013567ffffffffffffffff811115612ef257600080fd5b612efe86828701612da1565b9497909650939450505050565b60008060408385031215612f1e57600080fd5b8235612f2981612cd2565b91506020830135612f3981612cd2565b809150509250929050565b600181811c90821680612f5857607f821691505b602082108103612f91577f4e487b7100000000000000000000000000000000000000000000000000000000600052602260045260246000fd5b50919050565b7f4e487b7100000000000000000000000000000000000000000000000000000000600052601160045260246000fd5b8181038181111561064d5761064d612f97565b600060208284031215612feb57600080fd5b5051919050565b6000817fffffffffffffffffffffffffffffffffffffffffffffffffffffffffffffffff048311821515161561302a5761302a612f97565b500290565b600082613065577f4e487b7100000000000000000000000000000000000000000000000000000000600052601260045260246000fd5b500490565b6000825161307c818460208701612c5d565b9190910192915050565b60006020828403121561309857600080fd5b8151612d9a81612cd2565b60007f800000000000000000000000000000000000000000000000000000000000000082036130d4576130d4612f97565b5060000390565b8082018082111561064d5761064d612f97565b83815260406020820152816040820152818360608301376000818301606090810191909152601f9092017fffffffffffffffffffffffffffffffffffffffffffffffffffffffffffffffe016010192915050565b600080835481600182811c91508083168061315e57607f831692505b60208084108203613196577f4e487b710000000000000000000000000000000000000000000000000000000086526022600452602486fd5b8180156131aa57600181146131bf576131ec565b60ff19861689528415158502890196506131ec565b60008a81526020902060005b868110156131e45781548b8201529085019083016131cb565b505084890196505b50949897505050505050505056fea2646970667358221220871f8cc543f76c9e7d2841e95453543917441044d060e9a7dd368e6e53a8388b64736f6c63430008100033",
    "linkReferences": {}
  },
  "methodIdentifiers": {
    "DOMAIN_SEPARATOR()": "3644e515",
    "RATE()": "664e9704",
    "accrueInterest()": "a6afed95",
    "accrueMakerInterest(bytes32)": "e5364eae",
    "allowance(address,address)": "dd62ed3e",
    "approve(address,uint256)": "095ea7b3",
    "balanceLP()": "3fd59465",
    "balanceOf(address)": "70a08231",
    "balanceSpeculative()": "7a52b937",
    "burn(address,bytes)": "d6241218",
    "burnMaker(address,uint256)": "76816f4a",
    "collectMaker(address)": "4a8117d5",
    "currentLiquidity()": "46caf2ae",
    "currentPosition()": "d534d636",
    "decimals()": "313ce567",
    "factory()": "c45a0155",
    "lastPosition()": "25fced97",
    "lastUpdate()": "c0463711",
    "lpForSpeculative(uint256)": "4075f00e",
    "mint(address,uint256,bytes)": "94d008ef",
    "mintMaker(address,uint256,bytes)": "ec48f0fb",
    "name()": "06fdde03",
    "nonces(address)": "7ecebe00",
    "pair()": "a8aa1b31",
    "permit(address,address,uint256,uint256,uint8,bytes32,bytes32)": "d505accf",
    "positions(bytes32)": "514ea4bf",
    "rewardPerTokenStored()": "df136d65",
    "speculativeForLP(uint256)": "3bbb8b7a",
    "symbol()": "95d89b41",
    "totalLPUtilized()": "cfcc5bf1",
    "totalSupply()": "18160ddd",
    "transfer(address,uint256)": "a9059cbb",
    "transferFrom(address,address,uint256)": "23b872dd"
  },
  "id": 15
}