{
  "abi": [
    {
      "inputs": [
        {
          "internalType": "address",
          "name": "_factory",
          "type": "address"
        }
      ],
      "stateMutability": "nonpayable",
      "type": "constructor"
    },
    {
      "inputs": [],
      "name": "FailedTransferFrom",
      "type": "error"
    },
    {
      "inputs": [],
      "name": "LivelinessError",
      "type": "error"
    },
    {
      "inputs": [
        {
          "internalType": "uint256",
          "name": "prod1",
          "type": "uint256"
        }
      ],
      "name": "PRBMath__MulDivFixedPointOverflow",
      "type": "error"
    },
    {
      "inputs": [],
      "name": "SlippageError",
      "type": "error"
    },
    {
      "inputs": [],
      "name": "UnauthorizedError",
      "type": "error"
    },
    {
      "inputs": [],
      "name": "VerifyError",
      "type": "error"
    },
    {
      "anonymous": false,
      "inputs": [
        {
          "indexed": true,
          "internalType": "address",
          "name": "payer",
          "type": "address"
        },
        {
          "indexed": true,
          "internalType": "address",
          "name": "lendgine",
          "type": "address"
        },
        {
          "indexed": false,
          "internalType": "uint256",
          "name": "shares",
          "type": "uint256"
        },
        {
          "indexed": false,
          "internalType": "uint256",
          "name": "amountB",
          "type": "uint256"
        },
        {
          "indexed": false,
          "internalType": "uint256",
          "name": "amountS",
          "type": "uint256"
        },
        {
          "indexed": false,
          "internalType": "uint256",
          "name": "liquidity",
          "type": "uint256"
        }
      ],
      "name": "Burn",
      "type": "event"
    },
    {
      "anonymous": false,
      "inputs": [
        {
          "indexed": true,
          "internalType": "address",
          "name": "recipient",
          "type": "address"
        },
        {
          "indexed": true,
          "internalType": "address",
          "name": "lendgine",
          "type": "address"
        },
        {
          "indexed": false,
          "internalType": "uint256",
          "name": "shares",
          "type": "uint256"
        },
        {
          "indexed": false,
          "internalType": "uint256",
          "name": "amountB",
          "type": "uint256"
        },
        {
          "indexed": false,
          "internalType": "uint256",
          "name": "amountS",
          "type": "uint256"
        },
        {
          "indexed": false,
          "internalType": "uint256",
          "name": "liquidity",
          "type": "uint256"
        }
      ],
      "name": "Mint",
      "type": "event"
    },
    {
      "inputs": [
        {
          "internalType": "uint256",
          "name": "amountS",
          "type": "uint256"
        },
        {
          "internalType": "bytes",
          "name": "data",
          "type": "bytes"
        }
      ],
      "name": "MintCallback",
      "outputs": [],
      "stateMutability": "nonpayable",
      "type": "function"
    },
    {
      "inputs": [
        {
          "components": [
            {
              "internalType": "address",
              "name": "base",
              "type": "address"
            },
            {
              "internalType": "address",
              "name": "speculative",
              "type": "address"
            },
            {
              "internalType": "uint256",
              "name": "baseScaleFactor",
              "type": "uint256"
            },
            {
              "internalType": "uint256",
              "name": "speculativeScaleFactor",
              "type": "uint256"
            },
            {
              "internalType": "uint256",
              "name": "upperBound",
              "type": "uint256"
            },
            {
              "internalType": "uint256",
              "name": "shares",
              "type": "uint256"
            },
            {
              "internalType": "uint256",
              "name": "liquidityMax",
              "type": "uint256"
            },
            {
              "internalType": "uint256",
              "name": "price",
              "type": "uint256"
            },
            {
              "internalType": "address",
              "name": "recipient",
              "type": "address"
            },
            {
              "internalType": "uint256",
              "name": "deadline",
              "type": "uint256"
            }
          ],
          "internalType": "struct LendgineRouter.BurnParams",
          "name": "params",
          "type": "tuple"
        }
      ],
      "name": "burn",
      "outputs": [
        {
          "internalType": "address",
          "name": "lendgine",
          "type": "address"
        },
        {
          "internalType": "uint256",
          "name": "amountBIn",
          "type": "uint256"
        },
        {
          "internalType": "uint256",
          "name": "amountSIn",
          "type": "uint256"
        }
      ],
      "stateMutability": "nonpayable",
      "type": "function"
    },
    {
      "inputs": [],
      "name": "factory",
      "outputs": [
        {
          "internalType": "address",
          "name": "",
          "type": "address"
        }
      ],
      "stateMutability": "view",
      "type": "function"
    },
    {
      "inputs": [
        {
          "components": [
            {
              "internalType": "address",
              "name": "base",
              "type": "address"
            },
            {
              "internalType": "address",
              "name": "speculative",
              "type": "address"
            },
            {
              "internalType": "uint256",
              "name": "baseScaleFactor",
              "type": "uint256"
            },
            {
              "internalType": "uint256",
              "name": "speculativeScaleFactor",
              "type": "uint256"
            },
            {
              "internalType": "uint256",
              "name": "upperBound",
              "type": "uint256"
            },
            {
              "internalType": "uint256",
              "name": "liquidity",
              "type": "uint256"
            },
            {
              "internalType": "uint256",
              "name": "price",
              "type": "uint256"
            },
            {
              "internalType": "uint256",
              "name": "sharesMin",
              "type": "uint256"
            },
            {
              "internalType": "address",
              "name": "recipient",
              "type": "address"
            },
            {
              "internalType": "uint256",
              "name": "deadline",
              "type": "uint256"
            }
          ],
          "internalType": "struct LendgineRouter.MintParams",
          "name": "params",
          "type": "tuple"
        }
      ],
      "name": "mint",
      "outputs": [
        {
          "internalType": "address",
          "name": "lendgine",
          "type": "address"
        },
        {
          "internalType": "uint256",
          "name": "shares",
          "type": "uint256"
        }
      ],
      "stateMutability": "nonpayable",
      "type": "function"
    }
  ],
  "bytecode": {
    "object": "0x60a060405234801561001057600080fd5b506040516159b13803806159b183398101604081905261002f91610040565b6001600160a01b0316608052610070565b60006020828403121561005257600080fd5b81516001600160a01b038116811461006957600080fd5b9392505050565b6080516159036100ae6000396000818161010701528181610220015281816102850152818161065d015281816106fb015261073301526159036000f3fe60806040523480156200001157600080fd5b5060043610620000515760003560e01c8062ee087a1462000056578063019e868b146200009e57806310aa698214620000b7578063c45a01551462000101575b600080fd5b6200006d62000067366004620010ab565b6200014f565b6040805173ffffffffffffffffffffffffffffffffffffffff90931683526020830191909152015b60405180910390f35b620000b5620000af366004620010cb565b62000645565b005b620000ce620000c8366004620010ab565b620006af565b6040805173ffffffffffffffffffffffffffffffffffffffff909416845260208401929092529082015260600162000095565b620001297f000000000000000000000000000000000000000000000000000000000000000081565b60405173ffffffffffffffffffffffffffffffffffffffff909116815260200162000095565b6000808261012001354281101562000193576040517f0756982f00000000000000000000000000000000000000000000000000000000815260040160405180910390fd5b6040805160a0810190915260009080620001b1602088018862001176565b73ffffffffffffffffffffffffffffffffffffffff168152602001866020016020810190620001e1919062001176565b73ffffffffffffffffffffffffffffffffffffffff1681526020018660400135815260200186606001358152602001866080013581525090506200027b7f000000000000000000000000000000000000000000000000000000000000000086600001602081019062000254919062001176565b620002666040890160208a0162001176565b886040013589606001358a6080013562000b59565b93506000620002da7f0000000000000000000000000000000000000000000000000000000000000000620002b3602089018962001176565b620002c560408a0160208b0162001176565b89604001358a606001358b6080013562000c98565b905073ffffffffffffffffffffffffffffffffffffffff85166394d008ef6200030c61012089016101008a0162001176565b6040517f12fb162d00000000000000000000000000000000000000000000000000000000815260a08a0135600482015273ffffffffffffffffffffffffffffffffffffffff8916906312fb162d90602401602060405180830381865afa1580156200037b573d6000803e3d6000fd5b505050506040513d601f19601f82011682018060405250810190620003a1919062001194565b6040805180820182528781523360209182019081528251895173ffffffffffffffffffffffffffffffffffffffff90811682850152928a01518316818501529289015160608085019190915289015160808085019190915289015160a0840152511660c082015260e0016040516020818303038152906040526040518463ffffffff1660e01b81526004016200043a93929190620011ae565b6020604051808303816000875af11580156200045a573d6000803e3d6000fd5b505050506040513d601f19601f8201168201806040525081019062000480919062001194565b93508560e00135841015620004c1576040517f1a840b4200000000000000000000000000000000000000000000000000000000815260040160405180910390fd5b600080620004dd8860c001358960a001358a6080013562000d09565b909250905073ffffffffffffffffffffffffffffffffffffffff831663de7bf0a2620005126101208b016101008c0162001176565b6040517fffffffff0000000000000000000000000000000000000000000000000000000060e084901b16815273ffffffffffffffffffffffffffffffffffffffff9091166004820152602481018590526044810184905260a08b01356064820152608401600060405180830381600087803b1580156200059157600080fd5b505af1158015620005a6573d6000803e3d6000fd5b50505073ffffffffffffffffffffffffffffffffffffffff88169050620005d66101208a016101008b0162001176565b604080518981526020810186905290810184905260a08b0135606082015273ffffffffffffffffffffffffffffffffffffffff91909116907fa55115a2f9ae57c699b769e23a7f54ce6ba307a078c5b5378368e3ec086b69bb9060800160405180910390a35050505050915091565b6000620006558284018462001292565b9050620006877f0000000000000000000000000000000000000000000000000000000000000000826000015162000d60565b508315620006a957620006a98160000151602001518260200151338762000dde565b50505050565b600080600083610120013542811015620006f5576040517f0756982f00000000000000000000000000000000000000000000000000000000815260040160405180910390fd5b620007297f000000000000000000000000000000000000000000000000000000000000000062000254602088018862001176565b93506000620007617f0000000000000000000000000000000000000000000000000000000000000000620002b3602089018962001176565b6040517f3b7cf69900000000000000000000000000000000000000000000000000000000815260a0880135600482015290915060009073ffffffffffffffffffffffffffffffffffffffff871690633b7cf69990602401602060405180830381865afa158015620007d6573d6000803e3d6000fd5b505050506040513d601f19601f82011682018060405250810190620007fc919062001194565b90508660c001358111156200083d576040517f1a840b4200000000000000000000000000000000000000000000000000000000815260040160405180910390fd5b620008bf8760e00135828473ffffffffffffffffffffffffffffffffffffffff1663b09ad8a06040518163ffffffff1660e01b8152600401602060405180830381865afa15801562000893573d6000803e3d6000fd5b505050506040513d601f19601f82011682018060405250810190620008b9919062001194565b62000d09565b9095509350620008e0620008d7602089018962001176565b33848862000dde565b620008ff620008f66040890160208a0162001176565b33848762000dde565b6040517fa0712d680000000000000000000000000000000000000000000000000000000081526004810182905273ffffffffffffffffffffffffffffffffffffffff83169063a0712d6890602401600060405180830381600087803b1580156200096857600080fd5b505af11580156200097d573d6000803e3d6000fd5b50506040517f23b872dd00000000000000000000000000000000000000000000000000000000815233600482015273ffffffffffffffffffffffffffffffffffffffff89166024820181905260a08b0135604483015292506323b872dd91506064016020604051808303816000875af1158015620009ff573d6000803e3d6000fd5b505050506040513d601f19601f8201168201806040525081019062000a2591906200136b565b5073ffffffffffffffffffffffffffffffffffffffff86166389afcb4462000a566101208a016101008b0162001176565b6040517fffffffff0000000000000000000000000000000000000000000000000000000060e084901b16815273ffffffffffffffffffffffffffffffffffffffff90911660048201526024016020604051808303816000875af115801562000ac2573d6000803e3d6000fd5b505050506040513d601f19601f8201168201806040525081019062000ae8919062001194565b506040805160a08901358152602081018790529081018590526060810182905273ffffffffffffffffffffffffffffffffffffffff87169033907f661f25a08ee5c15fc997f7288c9cd798e1905052f21d761925800799791f130b9060800160405180910390a35050509193909250565b6040805173ffffffffffffffffffffffffffffffffffffffff8088166020830152861691810191909152606081018490526080810183905260a081018290526000908190889060c001604051602081830303815290604052805190602001206040518060200162000bca906200107b565b6020820181038252601f19601f820116604052508051906020012060405160200162000c56939291907fff00000000000000000000000000000000000000000000000000000000000000815260609390931b7fffffffffffffffffffffffffffffffffffffffff0000000000000000000000001660018401526015830191909152603582015260550190565b604080518083037fffffffffffffffffffffffffffffffffffffffffffffffffffffffffffffffe0018152919052805160209091012098975050505050505050565b6040805173ffffffffffffffffffffffffffffffffffffffff8088166020830152861691810191909152606081018490526080810183905260a081018290526000908190889060c001604051602081830303815290604052805190602001206040518060200162000bca9062001089565b600080600062000d1b86600262000e9b565b9050600062000d2b8786620013be565b62000d38906002620013d4565b905062000d46828762000efe565b62000d52828862000efe565b935093505050935093915050565b600062000d86838360000151846020015185604001518660600151876080015162000b59565b90503373ffffffffffffffffffffffffffffffffffffffff82161462000dd8576040517f4fbee53800000000000000000000000000000000000000000000000000000000815260040160405180910390fd5b92915050565b60006040517f23b872dd00000000000000000000000000000000000000000000000000000000815273ffffffffffffffffffffffffffffffffffffffff8516600482015273ffffffffffffffffffffffffffffffffffffffff8416602482015282604482015260008060648360008a5af191505062000e5d8162000f13565b62000e94576040517fa83c475400000000000000000000000000000000000000000000000000000000815260040160405180910390fd5b5050505050565b600080826001161162000eb757670de0b6b3a764000062000eb9565b825b9050600182901c91505b811562000dd85762000ed6838462000f5d565b9250600182161562000ef15762000eee818462000f5d565b90505b600182901c915062000ec3565b600062000f0c838362000f5d565b9392505050565b60008162000f25573d6000803e3d6000fd5b3d6020811462000f4057801562000f52576000915062000f57565b3d6000803e6000511515915062000f57565b600191505b50919050565b600080807fffffffffffffffffffffffffffffffffffffffffffffffffffffffffffffffff848609848602925082811083820303915050670de0b6b3a7640000811062000fdd576040517fd31b34020000000000000000000000000000000000000000000000000000000081526004810182905260240160405180910390fd5b600080670de0b6b3a764000086880991506706f05b59d3b1ffff82119050826000036200101d5780670de0b6b3a764000085040194505050505062000dd8565b6204000082850304939091119091037d40000000000000000000000000000000000000000000000000000000000002919091177faccb18165bd6fe31ae1cf318dc5b51eee0e1ba569b88cd74c1773b91fac106690201905092915050565b612dfc80620013ef83390190565b6116e380620041eb83390190565b6000610140828403121562000f5757600080fd5b60006101408284031215620010bf57600080fd5b62000f0c838362001097565b600080600060408486031215620010e157600080fd5b83359250602084013567ffffffffffffffff808211156200110157600080fd5b818601915086601f8301126200111657600080fd5b8135818111156200112657600080fd5b8760208285010111156200113957600080fd5b6020830194508093505050509250925092565b803573ffffffffffffffffffffffffffffffffffffffff811681146200117157600080fd5b919050565b6000602082840312156200118957600080fd5b62000f0c826200114c565b600060208284031215620011a757600080fd5b5051919050565b73ffffffffffffffffffffffffffffffffffffffff8416815260006020848184015260606040840152835180606085015260005b818110156200120057858101830151858201608001528201620011e2565b5060006080828601015260807fffffffffffffffffffffffffffffffffffffffffffffffffffffffffffffffe0601f83011685010192505050949350505050565b60405160a0810167ffffffffffffffff811182821017156200128c577f4e487b7100000000000000000000000000000000000000000000000000000000600052604160045260246000fd5b60405290565b600081830360c0811215620012a657600080fd5b6040516040810181811067ffffffffffffffff82111715620012f1577f4e487b7100000000000000000000000000000000000000000000000000000000600052604160045260246000fd5b60405260a08212156200130357600080fd5b6200130d62001241565b91506200131a846200114c565b82526200132a602085016200114c565b60208301526040840135604083015260608401356060830152608084013560808301528181526200135e60a085016200114c565b6020820152949350505050565b6000602082840312156200137e57600080fd5b8151801515811462000f0c57600080fd5b7f4e487b7100000000000000000000000000000000000000000000000000000000600052601160045260246000fd5b8181038181111562000dd85762000dd86200138f565b808202811582820484141762000dd85762000dd86200138f56fe6101006040526008805460ff60401b1916680100000000000000001790553480156200002a57600080fd5b504660805262000103604080518082018252601d81527f4e756d6f656e205265706c69636174696e67204465726976617469766500000060209182015281517f8b73c3c69bb8fe3d512ecc4cf759cc79239f7b179b0ffacaa9a75d522b39400f818301527fe0aacc3a18ef84f81cc6ccd9ffda212f4a39a80cf42fda9f7c775397b63887b6818401527fc89efdaa54c0f20c7adf612882df0950f5a951637e0307cdcb4c672f298b8bc660608201524660808201523060a0808301919091528351808303909101815260c0909101909252815191012090565b60a0523360c08190526040805163a8aa1b3160e01b8152905163a8aa1b31916004808201926020929091908290030181865afa15801562000148573d6000803e3d6000fd5b505050506040513d601f19601f820116820180604052508101906200016e919062000180565b6001600160a01b031660e052620001b2565b6000602082840312156200019357600080fd5b81516001600160a01b0381168114620001ab57600080fd5b9392505050565b60805160a05160c05160e051612bca62000232600039600081816104ed0152818161068f01528181610a7801528181610de501528181610ef1015281816112050152818161127b01528181611532015281816116fc01528181611cf30152611e150152600061057901526000610c6101526000610b680152612bca6000f3fe608060405234801561001057600080fd5b506004361061025c5760003560e01c80637a52b93711610145578063a9059cbb116100bd578063d98026f11161008c578063dd62ed3e11610071578063dd62ed3e146105c0578063f340fa01146105eb578063fd2da339146105fe57600080fd5b8063d98026f1146105ae578063d9832154146105b757600080fd5b8063a9059cbb14610534578063c046371114610547578063c45a015514610574578063d505accf1461059b57600080fd5b806395d89b4111610114578063a5cdfa94116100f9578063a5cdfa94146104cd578063a6afed95146104e0578063a8aa1b31146104e857600080fd5b806395d89b411461047e5780639ff47dc3146104ba57600080fd5b80637a52b937146104305780637ecebe001461043857806389afcb441461045857806394d008ef1461046b57600080fd5b80632e5e549e116101d85780633b7cf699116101a757806355f575101161018c57806355f57510146103b35780636b8357ac146103fd57806370a082311461041057600080fd5b80633b7cf699146103985780634fd9b90a146103ab57600080fd5b80632e5e549e14610353578063313ce567146103665780633644e51514610380578063375259281461038857600080fd5b806318160ddd1161022f57806323b872dd1161021457806323b872dd146103185780632a11a8a01461032b5780632e1a7d4d1461033e57600080fd5b806318160ddd146103005780631b3ed7221461030957600080fd5b806306fdde0314610261578063095ea7b3146102b357806312fb162d146102d657806315770f92146102f7575b600080fd5b61029d6040518060400160405280601d81526020017f4e756d6f656e205265706c69636174696e67204465726976617469766500000081525081565b6040516102aa919061276c565b60405180910390f35b6102c66102c13660046127e2565b61060d565b60405190151581526020016102aa565b6102e96102e436600461280e565b610687565b6040519081526020016102aa565b6102e960055481565b6102e960005481565b6102e9671314fb370629800081565b6102c6610326366004612827565b61072c565b6102e9610339366004612868565b610872565b61035161034c36600461280e565b6108b5565b005b6102e961036136600461280e565b610b3f565b61036e601281565b60405160ff90911681526020016102aa565b6102e9610b64565b6102e96802698fc23a98e2000081565b6102e96103a636600461280e565b610c83565b610351610c94565b6103e26103c136600461288a565b60046020526000908152604090208054600182015460029092015490919083565b604080519384526020840192909252908201526060016102aa565b6102e961040b3660046127e2565b610d2c565b6102e961041e36600461288a565b60016020526000908152604090205481565b6102e9610eea565b6102e961044636600461288a565b60036020526000908152604090205481565b6102e961046636600461288a565b6110e2565b6102e96104793660046128a7565b61138e565b61029d6040518060400160405280600381526020017f4e5244000000000000000000000000000000000000000000000000000000000081525081565b6102e96104c836600461280e565b6116f4565b6102e96104db366004612868565b611799565b610351611866565b61050f7f000000000000000000000000000000000000000000000000000000000000000081565b60405173ffffffffffffffffffffffffffffffffffffffff90911681526020016102aa565b6102c66105423660046127e2565b6118d6565b60085461055b9067ffffffffffffffff1681565b60405167ffffffffffffffff90911681526020016102aa565b61050f7f000000000000000000000000000000000000000000000000000000000000000081565b6103516105a9366004612930565b61195b565b6102e960075481565b6102e960065481565b6102e96105ce3660046129a7565b600260209081526000928352604080842090915290825290205481565b6103516105f936600461288a565b611c7f565b6102e9670b1a2bc2ec50000081565b33600081815260026020908152604080832073ffffffffffffffffffffffffffffffffffffffff8716808552925280832085905551919290917f8c5be1e5ebec7d5bd14f71427d1e84f3dd0314c0f7b2291e5b200ac8c7c3b925906106759086815260200190565b60405180910390a35060015b92915050565b6000610681827f000000000000000000000000000000000000000000000000000000000000000073ffffffffffffffffffffffffffffffffffffffff1663b09ad8a06040518163ffffffff1660e01b8152600401602060405180830381865afa1580156106f8573d6000803e3d6000fd5b505050506040513d601f19601f8201168201806040525081019061071c91906129e0565b610727906002612a28565b611ef4565b73ffffffffffffffffffffffffffffffffffffffff831660009081526002602090815260408083203384529091528120547fffffffffffffffffffffffffffffffffffffffffffffffffffffffffffffffff81146107c05761078e8382612a3f565b73ffffffffffffffffffffffffffffffffffffffff861660009081526002602090815260408083203384529091529020555b73ffffffffffffffffffffffffffffffffffffffff8516600090815260016020526040812080548592906107f5908490612a3f565b909155505073ffffffffffffffffffffffffffffffffffffffff808516600081815260016020526040908190208054870190555190918716907fddf252ad1be2c89b69c2b068fc378daa952ba7f163c4a11628f55a4df523b3ef9061085d9087815260200190565b60405180910390a360019150505b9392505050565b60008061087f8484611f00565b9050600061088d8585611799565b9050670de0b6b3a76400006108a28383612a28565b6108ac9190612a81565b95945050505050565b60085468010000000000000000900460ff16600114610900576040517f29f745a700000000000000000000000000000000000000000000000000000000815260040160405180910390fd5b6008805468ff0000000000000000191668020000000000000000179055610925611f2f565b8060000361095f576040517fd5ab59fe00000000000000000000000000000000000000000000000000000000815260040160405180910390fd5b336000908152600460205260408120604080516060810182528254808252600184015460208301526002909301549181019190915291508211156109cf576040517fe8ffb44c00000000000000000000000000000000000000000000000000000000815260040160405180910390fd5b816005546109dd9190612a3f565b6006541115610a18576040517f088c327000000000000000000000000000000000000000000000000000000000815260040160405180910390fd5b610a3233610a2584612abc565b60075460049291906120b5565b8160056000828254610a449190612a3f565b90915550506040517f22cf1989000000000000000000000000000000000000000000000000000000008152600481018390527f000000000000000000000000000000000000000000000000000000000000000073ffffffffffffffffffffffffffffffffffffffff16906322cf198990602401600060405180830381600087803b158015610ad157600080fd5b505af1158015610ae5573d6000803e3d6000fd5b50506040518481523392507f884edad9ce6fa2440d8a54cc123490eb96d2768479d49ff9c7366125a9424364915060200160405180910390a250506008805468ff0000000000000000191668010000000000000000179055565b6006546000908015610b5d57610b5883600054836121a8565b61086b565b5090919050565b60007f00000000000000000000000000000000000000000000000000000000000000004614610c5e5750604080518082018252601d81527f4e756d6f656e205265706c69636174696e67204465726976617469766500000060209182015281517f8b73c3c69bb8fe3d512ecc4cf759cc79239f7b179b0ffacaa9a75d522b39400f818301527fe0aacc3a18ef84f81cc6ccd9ffda212f4a39a80cf42fda9f7c775397b63887b6818401527fc89efdaa54c0f20c7adf612882df0950f5a951637e0307cdcb4c672f298b8bc660608201524660808201523060a0808301919091528351808303909101815260c0909101909252815191012090565b507f000000000000000000000000000000000000000000000000000000000000000090565b6000610681600654836000546121a8565b60085468010000000000000000900460ff16600114610cdf576040517f29f745a700000000000000000000000000000000000000000000000000000000815260040160405180910390fd5b6008805468ff0000000000000000191668020000000000000000179055610d04611f2f565b610d0d336122ac565b6008805468ff0000000000000000191668010000000000000000179055565b600060088054906101000a900460ff1660ff16600114610d78576040517f29f745a700000000000000000000000000000000000000000000000000000000815260040160405180910390fd5b6008805468ff0000000000000000191668020000000000000000179055336000908152600460205260408120905080600201548311610db75782610dbd565b80600201545b91508115610e795781816002016000828254610dd99190612a3f565b92505081905550610e797f000000000000000000000000000000000000000000000000000000000000000073ffffffffffffffffffffffffffffffffffffffff1663ee1f21d86040518163ffffffff1660e01b8152600401602060405180830381865afa158015610e4e573d6000803e3d6000fd5b505050506040513d601f19601f82011682018060405250810190610e729190612af4565b8584612311565b60405182815273ffffffffffffffffffffffffffffffffffffffff85169033907f1314fd112a381beea61539dbd21ec04afcff2662ac7d1b83273aade1f53d1b979060200160405180910390a3506008805468ff000000000000000019166801000000000000000017905592915050565b60008060607f000000000000000000000000000000000000000000000000000000000000000073ffffffffffffffffffffffffffffffffffffffff1663ee1f21d86040518163ffffffff1660e01b8152600401602060405180830381865afa158015610f5a573d6000803e3d6000fd5b505050506040513d601f19601f82011682018060405250810190610f7e9190612af4565b604080518082018252601281527f62616c616e63654f662861646472657373290000000000000000000000000000602091820152815130602480830191909152835180830390910181526044909101835290810180517bffffffffffffffffffffffffffffffffffffffffffffffffffffffff167f70a0823100000000000000000000000000000000000000000000000000000000179052905173ffffffffffffffffffffffffffffffffffffffff929092169161103c9190612b11565b600060405180830381855afa9150503d8060008114611077576040519150601f19603f3d011682016040523d82523d6000602084013e61107c565b606091505b509092509050811580611090575060208151105b156110c7576040517f7613bc8900000000000000000000000000000000000000000000000000000000815260040160405180910390fd5b808060200190518101906110db91906129e0565b9250505090565b600060088054906101000a900460ff1660ff1660011461112e576040517f29f745a700000000000000000000000000000000000000000000000000000000815260040160405180910390fd5b6008805468ff0000000000000000191668020000000000000000179055611153611f2f565b306000908152600160205260408120549061116d82610c83565b905061117881610687565b9250806000036111b4576040517fd5ab59fe00000000000000000000000000000000000000000000000000000000815260040160405180910390fd5b80600660008282546111c69190612a3f565b909155506111d6905030836123ae565b6040517fbb9a5908000000000000000000000000000000000000000000000000000000008152600481018290527f000000000000000000000000000000000000000000000000000000000000000073ffffffffffffffffffffffffffffffffffffffff169063bb9a590890602401600060405180830381600087803b15801561125e57600080fd5b505af1158015611272573d6000803e3d6000fd5b5050505061130f7f000000000000000000000000000000000000000000000000000000000000000073ffffffffffffffffffffffffffffffffffffffff1663ee1f21d86040518163ffffffff1660e01b8152600401602060405180830381865afa1580156112e4573d6000803e3d6000fd5b505050506040513d601f19601f820116820180604052508101906113089190612af4565b8585612311565b604080518481526020810184905290810182905273ffffffffffffffffffffffffffffffffffffffff85169033907fd175a80c109434bb89948928ab2475a6647c94244cb70002197896423c8833639060600160405180910390a350506008805468ff0000000000000000191668010000000000000000179055919050565b600060088054906101000a900460ff1660ff166001146113da576040517f29f745a700000000000000000000000000000000000000000000000000000000815260040160405180910390fd5b6008805468ff00000000000000001916680200000000000000001790556113ff611f2f565b600061140a856116f4565b905061141581610b3f565b915081600003611451576040517fd5ab59fe00000000000000000000000000000000000000000000000000000000815260040160405180910390fd5b6005546006546114619083612b2d565b1115611499576040517f088c327000000000000000000000000000000000000000000000000000000000815260040160405180910390fd5b600080541180156114aa5750600654155b156114e1576040517f088c327000000000000000000000000000000000000000000000000000000000815260040160405180910390fd5b80600660008282546114f39190612b2d565b9091555061150390508683612441565b6040517f22cf1989000000000000000000000000000000000000000000000000000000008152600481018290527f000000000000000000000000000000000000000000000000000000000000000073ffffffffffffffffffffffffffffffffffffffff16906322cf198990602401600060405180830381600087803b15801561158b57600080fd5b505af115801561159f573d6000803e3d6000fd5b5050505060006115ad610eea565b6040517f019e868b000000000000000000000000000000000000000000000000000000008152909150339063019e868b906115f090899089908990600401612b40565b600060405180830381600087803b15801561160a57600080fd5b505af115801561161e573d6000803e3d6000fd5b50505050600061162c610eea565b90506116388783612b2d565b811015611671576040517fee30a99300000000000000000000000000000000000000000000000000000000815260040160405180910390fd5b604080518881526020810186905290810184905273ffffffffffffffffffffffffffffffffffffffff89169033907fa8137fff86647d8a402117b9c5dbda627f721d3773338fb9678c83e54ed390809060600160405180910390a350506008805468ff000000000000000019166801000000000000000017905550949350505050565b6000610681827f000000000000000000000000000000000000000000000000000000000000000073ffffffffffffffffffffffffffffffffffffffff1663b09ad8a06040518163ffffffff1660e01b8152600401602060405180830381865afa158015611765573d6000803e3d6000fd5b505050506040513d601f19601f8201168201806040525081019061178991906129e0565b611794906002612a28565b6124b1565b6000806117a68484611f00565b9050670b1a2bc2ec50000081116117e457670de0b6b3a76400006117d2671314fb370629800083612a28565b6117dc9190612a81565b915050610681565b6000670de0b6b3a7640000611809671314fb3706298000670b1a2bc2ec500000612a28565b6118139190612a81565b90506000611829670b1a2bc2ec50000084612a3f565b905081670de0b6b3a76400006118486802698fc23a98e2000084612a28565b6118529190612a81565b61185c9190612b2d565b9350505050610681565b60085468010000000000000000900460ff166001146118b1576040517f29f745a700000000000000000000000000000000000000000000000000000000815260040160405180910390fd5b6008805468ff0000000000000000191668020000000000000000179055610d0d611f2f565b336000908152600160205260408120805483919083906118f7908490612a3f565b909155505073ffffffffffffffffffffffffffffffffffffffff8316600081815260016020526040908190208054850190555133907fddf252ad1be2c89b69c2b068fc378daa952ba7f163c4a11628f55a4df523b3ef906106759086815260200190565b428410156119ca576040517f08c379a000000000000000000000000000000000000000000000000000000000815260206004820152601760248201527f5045524d49545f444541444c494e455f4558504952454400000000000000000060448201526064015b60405180910390fd5b600060016119d6610b64565b73ffffffffffffffffffffffffffffffffffffffff8a811660008181526003602090815260409182902080546001810190915582517f6e71edae12b1b97f4d1f60370fef10105fa2faae0126114a169c64845d6126c98184015280840194909452938d166060840152608083018c905260a083019390935260c08083018b90528151808403909101815260e0830190915280519201919091207f190100000000000000000000000000000000000000000000000000000000000061010083015261010282019290925261012281019190915261014201604080517fffffffffffffffffffffffffffffffffffffffffffffffffffffffffffffffe08184030181528282528051602091820120600084529083018083525260ff871690820152606081018590526080810184905260a0016020604051602081039080840390855afa158015611b28573d6000803e3d6000fd5b50506040517fffffffffffffffffffffffffffffffffffffffffffffffffffffffffffffffe0015191505073ffffffffffffffffffffffffffffffffffffffff811615801590611ba357508773ffffffffffffffffffffffffffffffffffffffff168173ffffffffffffffffffffffffffffffffffffffff16145b611c09576040517f08c379a000000000000000000000000000000000000000000000000000000000815260206004820152600e60248201527f494e56414c49445f5349474e455200000000000000000000000000000000000060448201526064016119c1565b73ffffffffffffffffffffffffffffffffffffffff90811660009081526002602090815260408083208a8516808552908352928190208990555188815291928a16917f8c5be1e5ebec7d5bd14f71427d1e84f3dd0314c0f7b2291e5b200ac8c7c3b925910160405180910390a350505050505050565b60085468010000000000000000900460ff16600114611cca576040517f29f745a700000000000000000000000000000000000000000000000000000000815260040160405180910390fd5b6008805468ff0000000000000000191668020000000000000000179055611cef611f2f565b60007f000000000000000000000000000000000000000000000000000000000000000073ffffffffffffffffffffffffffffffffffffffff1663edaafe206040518163ffffffff1660e01b8152600401602060405180830381865afa158015611d5c573d6000803e3d6000fd5b505050506040513d601f19601f82011682018060405250810190611d8091906129e0565b905080600003611dbc576040517fd5ab59fe00000000000000000000000000000000000000000000000000000000815260040160405180910390fd5b600754611dcf90600490849084906120b5565b8060056000828254611de19190612b2d565b90915550506040517fbb9a5908000000000000000000000000000000000000000000000000000000008152600481018290527f000000000000000000000000000000000000000000000000000000000000000073ffffffffffffffffffffffffffffffffffffffff169063bb9a590890602401600060405180830381600087803b158015611e6e57600080fd5b505af1158015611e82573d6000803e3d6000fd5b505060405183815273ffffffffffffffffffffffffffffffffffffffff851692503391507fe31c7b8d08ee7db0afa68782e1028ef92305caeea8626633ad44d413e30f6b2f9060200160405180910390a350506008805468ff0000000000000000191668010000000000000000179055565b600061086b83836124c6565b600081600003611f1257506000610681565b81611f2584670de0b6b3a7640000612a28565b61086b9190612a81565b6000541580611f3e5750600654155b15611f7957600880547fffffffffffffffffffffffffffffffffffffffffffffffff0000000000000000164267ffffffffffffffff16179055565b600654600554600854600090611f999067ffffffffffffffff1642612a3f565b905080600003611fa857505050565b6000611fb48484611799565b905060006301e1338083611fc88488611ef4565b611fd29190612a28565b611fdc9190612a81565b90506000858211611fed5781611fef565b855b90506000611ffc82610687565b905061200881876124b1565b600760008282546120199190612b2d565b9091555061202990508288612a3f565b600655600880547fffffffffffffffffffffffffffffffffffffffffffffffff0000000000000000164267ffffffffffffffff16179055600754604080518781526020810184905290810184905260608101919091527f4dec04e750ca11537cabcd8a9eab06494de08da3735bc8871cd41250e190bc049060800160405180910390a150505050505050565b73ffffffffffffffffffffffffffffffffffffffff831660009081526020858152604080832081516060810183528154808252600183015494820194909452600282015492810192909252929091156121155761211282856125dd565b90505b60008560000361216257825160000361215a576040517f351c1cda00000000000000000000000000000000000000000000000000000000815260040160405180910390fd5b508151612171565b825161216e9087612600565b90505b851561217b578084555b60018401859055811561219e578183604001516121989190612b2d565b60028501555b5050505050505050565b600080807fffffffffffffffffffffffffffffffffffffffffffffffffffffffffffffffff85870985870292508281108382030391505080600003612200578382816121f6576121f6612a52565b049250505061086b565b838110612243576040517f773cc18c00000000000000000000000000000000000000000000000000000000815260048101829052602481018590526044016119c1565b60008486880960026001871981018816978890046003810283188082028403028082028403028082028403028082028403028082028403029081029092039091026000889003889004909101858311909403939093029303949094049190911702949350505050565b6007546122bd6004836000846120b5565b8173ffffffffffffffffffffffffffffffffffffffff167f79f93060adb031972743fb83706d3b89328ac521188de43641a8709999fef7ff8260405161230591815260200190565b60405180910390a25050565b60006040517fa9059cbb00000000000000000000000000000000000000000000000000000000815273ffffffffffffffffffffffffffffffffffffffff841660048201528260248201526000806044836000895af191505061237281612703565b6123a8576040517fbfa871c500000000000000000000000000000000000000000000000000000000815260040160405180910390fd5b50505050565b73ffffffffffffffffffffffffffffffffffffffff8216600090815260016020526040812080548392906123e3908490612a3f565b909155505060008054829003815560405182815273ffffffffffffffffffffffffffffffffffffffff8416907fddf252ad1be2c89b69c2b068fc378daa952ba7f163c4a11628f55a4df523b3ef906020015b60405180910390a35050565b806000808282546124529190612b2d565b909155505073ffffffffffffffffffffffffffffffffffffffff82166000818152600160209081526040808320805486019055518481527fddf252ad1be2c89b69c2b068fc378daa952ba7f163c4a11628f55a4df523b3ef9101612435565b600061086b83670de0b6b3a7640000846121a8565b600080807fffffffffffffffffffffffffffffffffffffffffffffffffffffffffffffffff848609848602925082811083820303915050670de0b6b3a76400008110612541576040517fd31b3402000000000000000000000000000000000000000000000000000000008152600481018290526024016119c1565b600080670de0b6b3a764000086880991506706f05b59d3b1ffff821190508260000361257f5780670de0b6b3a7640000850401945050505050610681565b6204000082850304939091119091037d40000000000000000000000000000000000000000000000000000000000002919091177faccb18165bd6fe31ae1cf318dc5b51eee0e1ba569b88cd74c1773b91fac106690201905092915050565b81516020830151600091906125f89082906107279086612a3f565b949350505050565b60008082121561268d578261261483612abc565b61261e9085612a3f565b91508110612688576040517f08c379a000000000000000000000000000000000000000000000000000000000815260206004820152600260248201527f4c5300000000000000000000000000000000000000000000000000000000000060448201526064016119c1565b610681565b826126988382612b2d565b9150811015610681576040517f08c379a000000000000000000000000000000000000000000000000000000000815260206004820152600260248201527f4c4100000000000000000000000000000000000000000000000000000000000060448201526064016119c1565b600081612714573d6000803e3d6000fd5b3d6020811461272c57801561273d5760009150612742565b3d6000803e60005115159150612742565b600191505b50919050565b60005b8381101561276357818101518382015260200161274b565b50506000910152565b602081526000825180602084015261278b816040850160208701612748565b601f017fffffffffffffffffffffffffffffffffffffffffffffffffffffffffffffffe0169190910160400192915050565b73ffffffffffffffffffffffffffffffffffffffff811681146127df57600080fd5b50565b600080604083850312156127f557600080fd5b8235612800816127bd565b946020939093013593505050565b60006020828403121561282057600080fd5b5035919050565b60008060006060848603121561283c57600080fd5b8335612847816127bd565b92506020840135612857816127bd565b929592945050506040919091013590565b6000806040838503121561287b57600080fd5b50508035926020909101359150565b60006020828403121561289c57600080fd5b813561086b816127bd565b600080600080606085870312156128bd57600080fd5b84356128c8816127bd565b935060208501359250604085013567ffffffffffffffff808211156128ec57600080fd5b818701915087601f83011261290057600080fd5b81358181111561290f57600080fd5b88602082850101111561292157600080fd5b95989497505060200194505050565b600080600080600080600060e0888a03121561294b57600080fd5b8735612956816127bd565b96506020880135612966816127bd565b95506040880135945060608801359350608088013560ff8116811461298a57600080fd5b9699959850939692959460a0840135945060c09093013592915050565b600080604083850312156129ba57600080fd5b82356129c5816127bd565b915060208301356129d5816127bd565b809150509250929050565b6000602082840312156129f257600080fd5b5051919050565b7f4e487b7100000000000000000000000000000000000000000000000000000000600052601160045260246000fd5b8082028115828204841417610681576106816129f9565b81810381811115610681576106816129f9565b7f4e487b7100000000000000000000000000000000000000000000000000000000600052601260045260246000fd5b600082612ab7577f4e487b7100000000000000000000000000000000000000000000000000000000600052601260045260246000fd5b500490565b60007f80000000000000000000000000000000000000000000000000000000000000008203612aed57612aed6129f9565b5060000390565b600060208284031215612b0657600080fd5b815161086b816127bd565b60008251612b23818460208701612748565b9190910192915050565b80820180821115610681576106816129f9565b83815260406020820152816040820152818360608301376000818301606090810191909152601f9092017fffffffffffffffffffffffffffffffffffffffffffffffffffffffffffffffe01601019291505056fea26469706673582212203d96b5219c84dc33742e7f09b49e8099343454b4afd0f2e2633fcf6012864b5664736f6c634300081100336101606040526002805460ff191660011790553480156200001f57600080fd5b50336001600160a01b03166080816001600160a01b031681525050600080336001600160a01b0316636d9877ab6040518163ffffffff1660e01b815260040160c060405180830381865afa1580156200007c573d6000803e3d6000fd5b505050506040513d601f19601f82011682018060405250810190620000a2919062000150565b610100526001600160a01b0392831660e05292821660c052921660a05290925090506012821180620000d45750600682105b15620000f357604051636819ba0560e01b815260040160405180910390fd5b6012811180620001035750600681105b156200012257604051636819ba0560e01b815260040160405180910390fd5b6101209190915261014052620001b6565b80516001600160a01b03811681146200014b57600080fd5b919050565b60008060008060008060c087890312156200016a57600080fd5b620001758762000133565b9550620001856020880162000133565b9450620001956040880162000133565b9350606087015192506080870151915060a087015190509295509295509295565b60805160a05160c05160e0516101005161012051610140516114776200026c600039600081816101cb015261073801526000818161013b01526106f701526000818161026201528181610769015281816107b101526107de0152600081816102df015281816105f70152818161092c0152610cc20152600081816101620152818161048d015281816108fb0152610c9701526000818161023b015281816103190152610b510152600061029c01526114776000f3fe608060405234801561001057600080fd5b50600436106101005760003560e01c8063a0712d6811610097578063c45a015511610066578063c45a015514610297578063de7bf0a2146102be578063edaafe20146102d1578063ee1f21d8146102da57600080fd5b8063a0712d6814610223578063a39bfd1314610236578063b09ad8a01461025d578063bb9a59081461028457600080fd5b80637bb98a68116100d35780637bb98a68146101a957806387557ff7146101c65780639a4d5e21146101ed5780639f1d0f591461021057600080fd5b806318160ddd1461010557806322cf1989146101215780632faf67d6146101365780635001f3b51461015d575b600080fd5b61010e60005481565b6040519081526020015b60405180910390f35b61013461012f36600461111d565b610301565b005b61010e7f000000000000000000000000000000000000000000000000000000000000000081565b6101847f000000000000000000000000000000000000000000000000000000000000000081565b60405173ffffffffffffffffffffffffffffffffffffffff9091168152602001610118565b6101b16103d2565b60408051928352602083019190915201610118565b61010e7f000000000000000000000000000000000000000000000000000000000000000081565b6102006101fb366004611136565b6106e2565b6040519015158152602001610118565b61013461021e36600461118b565b610862565b61013461023136600461111d565b610a0b565b6101847f000000000000000000000000000000000000000000000000000000000000000081565b61010e7f000000000000000000000000000000000000000000000000000000000000000081565b61013461029236600461111d565b610b39565b6101847f000000000000000000000000000000000000000000000000000000000000000081565b6101346102cc3660046111be565b610bba565b61010e60015481565b6101847f000000000000000000000000000000000000000000000000000000000000000081565b3373ffffffffffffffffffffffffffffffffffffffff7f00000000000000000000000000000000000000000000000000000000000000001614610370576040517fb3491a6e00000000000000000000000000000000000000000000000000000000815260040160405180910390fd5b6000546001546103809083611226565b11156103b8576040517feecc2bbd00000000000000000000000000000000000000000000000000000000815260040160405180910390fd5b80600160008282546103ca9190611226565b909155505050565b604080518082018252601281527f62616c616e63654f662861646472657373290000000000000000000000000000602091820152815130602480830191909152835180830390910181526044909101835290810180517bffffffffffffffffffffffffffffffffffffffffffffffffffffffff167f70a082310000000000000000000000000000000000000000000000000000000017905290516000918291829160609173ffffffffffffffffffffffffffffffffffffffff7f000000000000000000000000000000000000000000000000000000000000000016916104b791611239565b600060405180830381855afa9150503d80600081146104f2576040519150601f19603f3d011682016040523d82523d6000602084013e6104f7565b606091505b50909250905081158061050b575060208151105b15610542576040517f7613bc8900000000000000000000000000000000000000000000000000000000815260040160405180910390fd5b6000818060200190518101906105589190611268565b604080518082018252601281527f62616c616e63654f662861646472657373290000000000000000000000000000602091820152815130602480830191909152835180830390910181526044909101835290810180517bffffffffffffffffffffffffffffffffffffffffffffffffffffffff167f70a082310000000000000000000000000000000000000000000000000000000017905290519192507f000000000000000000000000000000000000000000000000000000000000000073ffffffffffffffffffffffffffffffffffffffff16916106379190611239565b600060405180830381855afa9150503d8060008114610672576040519150601f19603f3d011682016040523d82523d6000602084013e610677565b606091505b50909350915082158061068b575060208251105b156106c2576040517f7613bc8900000000000000000000000000000000000000000000000000000000815260040160405180910390fd5b80828060200190518101906106d79190611268565b945094505050509091565b6000806107226106f28685610d56565b61071d7f0000000000000000000000000000000000000000000000000000000000000000600a6113a1565b610d56565b9050600061075e6107338686610d56565b61071d7f0000000000000000000000000000000000000000000000000000000000000000600a6113a1565b905081600061078d837f0000000000000000000000000000000000000000000000000000000000000000610d6b565b90506000600461079e856002610d77565b6107a891906113dc565b905060006107d77f00000000000000000000000000000000000000000000000000000000000000006002610d77565b90506108047f00000000000000000000000000000000000000000000000000000000000000006002611417565b85111561083d576040517ff80926d800000000000000000000000000000000000000000000000000000000815260040160405180910390fd5b6108478183611226565b6108518486611226565b1496505050505050505b9392505050565b60025460ff166001146108a1576040517f29f745a700000000000000000000000000000000000000000000000000000000815260040160405180910390fd5b6002805460ff191681179055811580156108b9575080155b156108f0576040517fd5ab59fe00000000000000000000000000000000000000000000000000000000815260040160405180910390fd5b8115610921576109217f00000000000000000000000000000000000000000000000000000000000000008484610dd7565b8015610952576109527f00000000000000000000000000000000000000000000000000000000000000008483610dd7565b60008061095d6103d2565b9150915061096e82826000546106e2565b6109a4576040517f6819ba0500000000000000000000000000000000000000000000000000000000815260040160405180910390fd5b604080518581526020810185905273ffffffffffffffffffffffffffffffffffffffff87169133917f2a9237ff5aa599ef4c5ee4b1142b53429d5755e2685fe6288b2e3320202115f5910160405180910390a350506002805460ff19166001179055505050565b60025460ff16600114610a4a576040517f29f745a700000000000000000000000000000000000000000000000000000000815260040160405180910390fd5b6002805460ff1916811790556000819003610a91576040517fd5ab59fe00000000000000000000000000000000000000000000000000000000815260040160405180910390fd5b600080610a9c6103d2565b91509150610ab38282600054866101fb9190611226565b610ae9576040517f6819ba0500000000000000000000000000000000000000000000000000000000815260040160405180910390fd5b610af283610e74565b60405183815233907f0f6798a560793a54c3bcfe86a93cde1e73087d944c0ea20544137d41213968859060200160405180910390a250506002805460ff1916600117905550565b3373ffffffffffffffffffffffffffffffffffffffff7f00000000000000000000000000000000000000000000000000000000000000001614610ba8576040517fb3491a6e00000000000000000000000000000000000000000000000000000000815260040160405180910390fd5b80600160008282546103ca919061142e565b60025460ff16600114610bf9576040517f29f745a700000000000000000000000000000000000000000000000000000000815260040160405180910390fd5b6002805460ff191681179055610c108383836106e2565b610c46576040517f6819ba0500000000000000000000000000000000000000000000000000000000815260040160405180910390fd5b82158015610c52575081155b15610c89576040517fd5ab59fe00000000000000000000000000000000000000000000000000000000815260040160405180910390fd5b610c9281610e95565b610cbd7f00000000000000000000000000000000000000000000000000000000000000008585610dd7565b610ce87f00000000000000000000000000000000000000000000000000000000000000008584610dd7565b604080518481526020810184905290810182905273ffffffffffffffffffffffffffffffffffffffff85169033907fd175a80c109434bb89948928ab2475a6647c94244cb70002197896423c8833639060600160405180910390a350506002805460ff191660011790555050565b600061085b83670de0b6b3a764000084610eb8565b600061085b8383610fc1565b6000808260011611610d9157670de0b6b3a7640000610d93565b825b9050600182901c91505b8115610dd157610dad8384610fc1565b92506001821615610dc557610dc28184610fc1565b90505b600182901c9150610d9d565b92915050565b60006040517fa9059cbb00000000000000000000000000000000000000000000000000000000815273ffffffffffffffffffffffffffffffffffffffff841660048201528260248201526000806044836000895af1915050610e38816110d8565b610e6e576040517fbfa871c500000000000000000000000000000000000000000000000000000000815260040160405180910390fd5b50505050565b80600080828254610e859190611226565b9091555050600180549091019055565b8060016000828254610ea7919061142e565b909155505060008054919091039055565b600080807fffffffffffffffffffffffffffffffffffffffffffffffffffffffffffffffff85870985870292508281108382030391505080600003610f1057838281610f0657610f066113ad565b049250505061085b565b838110610f58576040517f773cc18c00000000000000000000000000000000000000000000000000000000815260048101829052602481018590526044015b60405180910390fd5b60008486880960026001871981018816978890046003810283188082028403028082028403028082028403028082028403028082028403029081029092039091026000889003889004909101858311909403939093029303949094049190911702949350505050565b600080807fffffffffffffffffffffffffffffffffffffffffffffffffffffffffffffffff848609848602925082811083820303915050670de0b6b3a7640000811061103c576040517fd31b340200000000000000000000000000000000000000000000000000000000815260048101829052602401610f4f565b600080670de0b6b3a764000086880991506706f05b59d3b1ffff821190508260000361107a5780670de0b6b3a7640000850401945050505050610dd1565b6204000082850304939091119091037d40000000000000000000000000000000000000000000000000000000000002919091177faccb18165bd6fe31ae1cf318dc5b51eee0e1ba569b88cd74c1773b91fac106690201905092915050565b6000816110e9573d6000803e3d6000fd5b3d602081146111015780156111125760009150611117565b3d6000803e60005115159150611117565b600191505b50919050565b60006020828403121561112f57600080fd5b5035919050565b60008060006060848603121561114b57600080fd5b505081359360208301359350604090920135919050565b803573ffffffffffffffffffffffffffffffffffffffff8116811461118657600080fd5b919050565b6000806000606084860312156111a057600080fd5b6111a984611162565b95602085013595506040909401359392505050565b600080600080608085870312156111d457600080fd5b6111dd85611162565b966020860135965060408601359560600135945092505050565b7f4e487b7100000000000000000000000000000000000000000000000000000000600052601160045260246000fd5b80820180821115610dd157610dd16111f7565b6000825160005b8181101561125a5760208186018101518583015201611240565b506000920191825250919050565b60006020828403121561127a57600080fd5b5051919050565b600181815b808511156112da57817fffffffffffffffffffffffffffffffffffffffffffffffffffffffffffffffff048211156112c0576112c06111f7565b808516156112cd57918102915b93841c9390800290611286565b509250929050565b6000826112f157506001610dd1565b816112fe57506000610dd1565b8160018114611314576002811461131e5761133a565b6001915050610dd1565b60ff84111561132f5761132f6111f7565b50506001821b610dd1565b5060208310610133831016604e8410600b841016171561135d575081810a610dd1565b6113678383611281565b807fffffffffffffffffffffffffffffffffffffffffffffffffffffffffffffffff04821115611399576113996111f7565b029392505050565b600061085b83836112e2565b7f4e487b7100000000000000000000000000000000000000000000000000000000600052601260045260246000fd5b600082611412577f4e487b7100000000000000000000000000000000000000000000000000000000600052601260045260246000fd5b500490565b8082028115828204841417610dd157610dd16111f7565b81810381811115610dd157610dd16111f756fea26469706673582212201b0737553eddbabbfedeeff37cce1100c550035e8584c419e4441a4d90f18ce864736f6c63430008110033a264697066735822122060e6c56f18ff4f0e5c4d9d71bf5ca2d479d1fbac1f11b42246a7511d2004d30564736f6c63430008110033",
    "linkReferences": {}
  },
  "methodIdentifiers": {
    "MintCallback(uint256,bytes)": "019e868b",
    "burn((address,address,uint256,uint256,uint256,uint256,uint256,uint256,address,uint256))": "10aa6982",
    "factory()": "c45a0155",
    "mint((address,address,uint256,uint256,uint256,uint256,uint256,uint256,address,uint256))": "00ee087a"
  },
  "id": 24
}