{
  "abi": [
    {
      "inputs": [
        {
          "internalType": "address",
          "name": "_factory",
          "type": "address"
        }
      ],
      "stateMutability": "nonpayable",
      "type": "constructor"
    },
    {
      "inputs": [],
      "name": "CollectError",
      "type": "error"
    },
    {
      "inputs": [],
      "name": "FailedTransferFrom",
      "type": "error"
    },
    {
      "inputs": [],
      "name": "LivelinessError",
      "type": "error"
    },
    {
      "inputs": [
        {
          "internalType": "uint256",
          "name": "prod1",
          "type": "uint256"
        }
      ],
      "name": "PRBMath__MulDivFixedPointOverflow",
      "type": "error"
    },
    {
      "inputs": [],
      "name": "PositionInvalidError",
      "type": "error"
    },
    {
      "inputs": [],
      "name": "SlippageError",
      "type": "error"
    },
    {
      "inputs": [],
      "name": "UnauthorizedError",
      "type": "error"
    },
    {
      "anonymous": false,
      "inputs": [
        {
          "indexed": true,
          "internalType": "uint256",
          "name": "tokenID",
          "type": "uint256"
        },
        {
          "indexed": false,
          "internalType": "uint256",
          "name": "amount",
          "type": "uint256"
        }
      ],
      "name": "Collect",
      "type": "event"
    },
    {
      "anonymous": false,
      "inputs": [
        {
          "indexed": true,
          "internalType": "uint256",
          "name": "tokenID",
          "type": "uint256"
        },
        {
          "indexed": false,
          "internalType": "uint256",
          "name": "liquidity",
          "type": "uint256"
        },
        {
          "indexed": false,
          "internalType": "uint256",
          "name": "amount0",
          "type": "uint256"
        },
        {
          "indexed": false,
          "internalType": "uint256",
          "name": "amount1",
          "type": "uint256"
        }
      ],
      "name": "DecreaseLiquidity",
      "type": "event"
    },
    {
      "anonymous": false,
      "inputs": [
        {
          "indexed": true,
          "internalType": "uint256",
          "name": "tokenID",
          "type": "uint256"
        },
        {
          "indexed": false,
          "internalType": "uint256",
          "name": "liquidity",
          "type": "uint256"
        },
        {
          "indexed": false,
          "internalType": "uint256",
          "name": "amount0",
          "type": "uint256"
        },
        {
          "indexed": false,
          "internalType": "uint256",
          "name": "amount1",
          "type": "uint256"
        }
      ],
      "name": "IncreaseLiquidity",
      "type": "event"
    },
    {
      "anonymous": false,
      "inputs": [
        {
          "indexed": true,
          "internalType": "address",
          "name": "operator",
          "type": "address"
        },
        {
          "indexed": true,
          "internalType": "uint256",
          "name": "tokenID",
          "type": "uint256"
        },
        {
          "indexed": false,
          "internalType": "uint256",
          "name": "liquidity",
          "type": "uint256"
        },
        {
          "indexed": false,
          "internalType": "uint256",
          "name": "amount0",
          "type": "uint256"
        },
        {
          "indexed": false,
          "internalType": "uint256",
          "name": "amount1",
          "type": "uint256"
        }
      ],
      "name": "Mint",
      "type": "event"
    },
    {
      "inputs": [
        {
          "components": [
            {
              "internalType": "uint256",
              "name": "tokenID",
              "type": "uint256"
            },
            {
              "internalType": "address",
              "name": "recipient",
              "type": "address"
            },
            {
              "internalType": "uint256",
              "name": "amountRequested",
              "type": "uint256"
            }
          ],
          "internalType": "struct LiquidityManager.CollectParams",
          "name": "params",
          "type": "tuple"
        }
      ],
      "name": "collect",
      "outputs": [
        {
          "internalType": "uint256",
          "name": "amount",
          "type": "uint256"
        }
      ],
      "stateMutability": "nonpayable",
      "type": "function"
    },
    {
      "inputs": [
        {
          "components": [
            {
              "internalType": "uint256",
              "name": "tokenID",
              "type": "uint256"
            },
            {
              "internalType": "uint256",
              "name": "amount0",
              "type": "uint256"
            },
            {
              "internalType": "uint256",
              "name": "amount1",
              "type": "uint256"
            },
            {
              "internalType": "uint256",
              "name": "liquidity",
              "type": "uint256"
            },
            {
              "internalType": "address",
              "name": "recipient",
              "type": "address"
            },
            {
              "internalType": "uint256",
              "name": "deadline",
              "type": "uint256"
            }
          ],
          "internalType": "struct LiquidityManager.DecreaseLiquidityParams",
          "name": "params",
          "type": "tuple"
        }
      ],
      "name": "decreaseLiquidity",
      "outputs": [],
      "stateMutability": "nonpayable",
      "type": "function"
    },
    {
      "inputs": [],
      "name": "factory",
      "outputs": [
        {
          "internalType": "address",
          "name": "",
          "type": "address"
        }
      ],
      "stateMutability": "view",
      "type": "function"
    },
    {
      "inputs": [
        {
          "internalType": "uint256",
          "name": "tokenID",
          "type": "uint256"
        }
      ],
      "name": "getPosition",
      "outputs": [
        {
          "internalType": "address",
          "name": "operator",
          "type": "address"
        },
        {
          "internalType": "address",
          "name": "base",
          "type": "address"
        },
        {
          "internalType": "address",
          "name": "speculative",
          "type": "address"
        },
        {
          "internalType": "uint256",
          "name": "baseScaleFactor",
          "type": "uint256"
        },
        {
          "internalType": "uint256",
          "name": "speculativeScaleFactor",
          "type": "uint256"
        },
        {
          "internalType": "uint256",
          "name": "upperBound",
          "type": "uint256"
        },
        {
          "internalType": "uint256",
          "name": "liquidity",
          "type": "uint256"
        },
        {
          "internalType": "uint256",
          "name": "rewardPerLiquidityPaid",
          "type": "uint256"
        },
        {
          "internalType": "uint256",
          "name": "tokensOwed",
          "type": "uint256"
        }
      ],
      "stateMutability": "view",
      "type": "function"
    },
    {
      "inputs": [
        {
          "components": [
            {
              "internalType": "uint256",
              "name": "tokenID",
              "type": "uint256"
            },
            {
              "internalType": "uint256",
              "name": "amount0",
              "type": "uint256"
            },
            {
              "internalType": "uint256",
              "name": "amount1",
              "type": "uint256"
            },
            {
              "internalType": "uint256",
              "name": "liquidity",
              "type": "uint256"
            },
            {
              "internalType": "uint256",
              "name": "deadline",
              "type": "uint256"
            }
          ],
          "internalType": "struct LiquidityManager.IncreaseLiquidityParams",
          "name": "params",
          "type": "tuple"
        }
      ],
      "name": "increaseLiquidity",
      "outputs": [],
      "stateMutability": "nonpayable",
      "type": "function"
    },
    {
      "inputs": [
        {
          "components": [
            {
              "internalType": "address",
              "name": "base",
              "type": "address"
            },
            {
              "internalType": "address",
              "name": "speculative",
              "type": "address"
            },
            {
              "internalType": "uint256",
              "name": "baseScaleFactor",
              "type": "uint256"
            },
            {
              "internalType": "uint256",
              "name": "speculativeScaleFactor",
              "type": "uint256"
            },
            {
              "internalType": "uint256",
              "name": "upperBound",
              "type": "uint256"
            },
            {
              "internalType": "uint256",
              "name": "amount0",
              "type": "uint256"
            },
            {
              "internalType": "uint256",
              "name": "amount1",
              "type": "uint256"
            },
            {
              "internalType": "uint256",
              "name": "liquidity",
              "type": "uint256"
            },
            {
              "internalType": "address",
              "name": "recipient",
              "type": "address"
            },
            {
              "internalType": "uint256",
              "name": "deadline",
              "type": "uint256"
            }
          ],
          "internalType": "struct LiquidityManager.MintParams",
          "name": "params",
          "type": "tuple"
        }
      ],
      "name": "mint",
      "outputs": [
        {
          "internalType": "uint256",
          "name": "tokenID",
          "type": "uint256"
        }
      ],
      "stateMutability": "nonpayable",
      "type": "function"
    }
  ],
  "bytecode": {
    "object": "0x60a060405276010000000000000000000000000000000000000000000160035534801561002b57600080fd5b50604051620063593803806200635983398101604081905261004c9161005d565b6001600160a01b031660805261008d565b60006020828403121561006f57600080fd5b81516001600160a01b038116811461008657600080fd5b9392505050565b608051616280620000d96000396000818160df01528181610314015281816103790152818161087201528181610cdb01528181610d1101528181611169015261119f01526162806000f3fe60806040523480156200001157600080fd5b50600436106200007a5760003560e01c8063c45a01551162000056578063c45a015514620000d9578063dbd198481462000127578063eb02c301146200013e57600080fd5b8062ee087a146200007f5780637cbf88aa14620000a95780638b874f7614620000c0575b600080fd5b620000966200009036600462001bce565b620001b8565b6040519081526020015b60405180910390f35b62000096620000ba36600462001be2565b62000738565b620000d7620000d136600462001bf5565b62000b61565b005b620001017f000000000000000000000000000000000000000000000000000000000000000081565b60405173ffffffffffffffffffffffffffffffffffffffff9091168152602001620000a0565b620000d76200013836600462001c08565b62000fef565b620001556200014f36600462001c1b565b62001451565b6040805173ffffffffffffffffffffffffffffffffffffffff9a8b168152988a1660208a015296909816958701959095526060860193909352608085019190915260a084015260c083015260e082015261010081019190915261012001620000a0565b600081610120013542811015620001fb576040517f0756982f00000000000000000000000000000000000000000000000000000000815260040160405180910390fd5b6003805475ffffffffffffffffffffffffffffffffffffffffffff16906000620002258362001c64565b91906101000a81548175ffffffffffffffffffffffffffffffffffffffffffff021916908375ffffffffffffffffffffffffffffffffffffffffffff16021790555075ffffffffffffffffffffffffffffffffffffffffffff16915060006040518060a00160405280856000016020810190620002a3919062001c9c565b73ffffffffffffffffffffffffffffffffffffffff168152602001856020016020810190620002d3919062001c9c565b73ffffffffffffffffffffffffffffffffffffffff16815260200185604001358152602001856060013581526020018560800135815250905060006200036f7f000000000000000000000000000000000000000000000000000000000000000086600001602081019062000348919062001c9c565b6200035a6040890160208a0162001c9c565b886040013589606001358a6080013562001665565b90506000620003ce7f0000000000000000000000000000000000000000000000000000000000000000620003a7602089018962001c9c565b620003b960408a0160208b0162001c9c565b89604001358a606001358b60800135620017a4565b9050620003f0620003e3602088018862001c9c565b33838960a0013562001815565b6200041362000406604088016020890162001c9c565b33838960c0013562001815565b6040517fa0712d6800000000000000000000000000000000000000000000000000000000815260e0870135600482015273ffffffffffffffffffffffffffffffffffffffff82169063a0712d6890602401600060405180830381600087803b1580156200047f57600080fd5b505af115801562000494573d6000803e3d6000fd5b50506040517ff340fa0100000000000000000000000000000000000000000000000000000000815230600482015273ffffffffffffffffffffffffffffffffffffffff8516925063f340fa019150602401600060405180830381600087803b1580156200050057600080fd5b505af115801562000515573d6000803e3d6000fd5b505050506000620005278385620018d2565b6040517f55f5751000000000000000000000000000000000000000000000000000000000815230600482015290915060009073ffffffffffffffffffffffffffffffffffffffff8516906355f5751090602401606060405180830381865afa15801562000598573d6000803e3d6000fd5b505050506040513d601f19601f82011682018060405250810190620005be919062001cd4565b509150506040518060a001604052808960e001358152602001828152602001600081526020018369ffffffffffffffffffff168152602001896101000160208101906200060c919062001c9c565b73ffffffffffffffffffffffffffffffffffffffff9081169091526000898152600260208181526040928390208551815590850151600182015591840151908201556060830151600390910180546080909401519092166a0100000000000000000000027fffff00000000000000000000000000000000000000000000000000000000000090931669ffffffffffffffffffff9091161791909117905586620006be6101208a016101008b0162001c9c565b73ffffffffffffffffffffffffffffffffffffffff167f94c792774c59479f7bd68442f3af3691c02123a5aabee8b6f9116d8af8aa66698a60e001358b60a001358c60c0013560405162000725939291909283526020830191909152604082015260600190565b60405180910390a3505050505050919050565b8035600090815260026020526040812060038101546a0100000000000000000000900473ffffffffffffffffffffffffffffffffffffffff163314620007aa576040517f8b5701f700000000000000000000000000000000000000000000000000000000815260040160405180910390fd5b600381015469ffffffffffffffffffff16600003620007f5576040517f6a4de01900000000000000000000000000000000000000000000000000000000815260040160405180910390fd5b60038082015469ffffffffffffffffffff166000908152600160208181526040808420815160a081018352815473ffffffffffffffffffffffffffffffffffffffff908116808352958301541693810184905260028201549281018390529581015460608701819052600490910154608087018190526200089e947f00000000000000000000000000000000000000000000000000000000000000009490939092909162001665565b90508073ffffffffffffffffffffffffffffffffffffffff16634fd9b90a6040518163ffffffff1660e01b8152600401600060405180830381600087803b158015620008e957600080fd5b505af1158015620008fe573d6000803e3d6000fd5b50506040517f55f575100000000000000000000000000000000000000000000000000000000081523060048201526000925073ffffffffffffffffffffffffffffffffffffffff841691506355f5751090602401606060405180830381865afa15801562000970573d6000803e3d6000fd5b505050506040513d601f19601f8201168201806040525081019062000996919062001cd4565b50915050620009bb8460000154856001015483620009b5919062001d03565b62001a35565b846002016000828254620009d0919062001d19565b9091555050600184018190556002840154604087013511620009f7578560400135620009fd565b83600201545b94508484600201600082825462000a15919062001d03565b909155506000905073ffffffffffffffffffffffffffffffffffffffff8316636b8357ac62000a4b60408a0160208b0162001c9c565b6040517fffffffff0000000000000000000000000000000000000000000000000000000060e084901b16815273ffffffffffffffffffffffffffffffffffffffff9091166004820152602481018990526044016020604051808303816000875af115801562000abe573d6000803e3d6000fd5b505050506040513d601f19601f8201168201806040525081019062000ae4919062001d2f565b90508581101562000b21576040517f8ad721cb00000000000000000000000000000000000000000000000000000000815260040160405180910390fd5b6040518681528735907f44ac423abde78f781d0bdf82a76bbe38aa71b9fa09289d4269e8e053bc532a899060200160405180910390a25050505050919050565b8060a001354281101562000ba1576040517f0756982f00000000000000000000000000000000000000000000000000000000815260040160405180910390fd5b8135600090815260026020526040902060038101546a0100000000000000000000900473ffffffffffffffffffffffffffffffffffffffff16331462000c13576040517f8b5701f700000000000000000000000000000000000000000000000000000000815260040160405180910390fd5b600381015469ffffffffffffffffffff1660000362000c5e576040517f6a4de01900000000000000000000000000000000000000000000000000000000815260040160405180910390fd5b60038082015469ffffffffffffffffffff166000908152600160208181526040808420815160a081018352815473ffffffffffffffffffffffffffffffffffffffff9081168083529583015416938101849052600282015492810183905295810154606087018190526004909101546080870181905262000d07947f00000000000000000000000000000000000000000000000000000000000000009490939092909162001665565b9050600062000d4f7f000000000000000000000000000000000000000000000000000000000000000084600001518560200151866040015187606001518860800151620017a4565b6040517f2e1a7d4d0000000000000000000000000000000000000000000000000000000081526060880135600482015290915073ffffffffffffffffffffffffffffffffffffffff831690632e1a7d4d90602401600060405180830381600087803b15801562000dbe57600080fd5b505af115801562000dd3573d6000803e3d6000fd5b50505073ffffffffffffffffffffffffffffffffffffffff8216905063de7bf0a262000e0660a0890160808a0162001c9c565b604080517fffffffff0000000000000000000000000000000000000000000000000000000060e085901b16815273ffffffffffffffffffffffffffffffffffffffff909216600483015260208a01356024830152890135604482015260608901356064820152608401600060405180830381600087803b15801562000e8a57600080fd5b505af115801562000e9f573d6000803e3d6000fd5b50506040517f55f575100000000000000000000000000000000000000000000000000000000081523060048201526000925073ffffffffffffffffffffffffffffffffffffffff851691506355f5751090602401606060405180830381865afa15801562000f11573d6000803e3d6000fd5b505050506040513d601f19601f8201168201806040525081019062000f37919062001cd4565b5091505062000f568560000154866001015483620009b5919062001d03565b85600201600082825462000f6b919062001d19565b9091555050600185018190558454606088013590869060009062000f9190849062001d03565b9091555050604080516060808a013582526020808b01359083015289830135928201929092528835917ffc660cbbb86e6da3385bc138d3013e174610477f4f3c21f7ccbf48ec8a11c44891015b60405180910390a250505050505050565b8060800135428110156200102f576040517f0756982f00000000000000000000000000000000000000000000000000000000815260040160405180910390fd5b8135600090815260026020526040902060038101546a0100000000000000000000900473ffffffffffffffffffffffffffffffffffffffff163314620010a1576040517f8b5701f700000000000000000000000000000000000000000000000000000000815260040160405180910390fd5b600381015469ffffffffffffffffffff16600003620010ec576040517f6a4de01900000000000000000000000000000000000000000000000000000000815260040160405180910390fd5b60038082015469ffffffffffffffffffff166000908152600160208181526040808420815160a081018352815473ffffffffffffffffffffffffffffffffffffffff9081168083529583015416938101849052600282015492810183905295810154606087018190526004909101546080870181905262001195947f00000000000000000000000000000000000000000000000000000000000000009490939092909162001665565b90506000620011dd7f000000000000000000000000000000000000000000000000000000000000000084600001518560200151866040015187606001518860800151620017a4565b9050620011f583600001513383896020013562001815565b6200120b83602001513383896040013562001815565b6040517fa0712d680000000000000000000000000000000000000000000000000000000081526060870135600482015273ffffffffffffffffffffffffffffffffffffffff82169063a0712d6890602401600060405180830381600087803b1580156200127757600080fd5b505af11580156200128c573d6000803e3d6000fd5b50506040517ff340fa0100000000000000000000000000000000000000000000000000000000815230600482015273ffffffffffffffffffffffffffffffffffffffff8516925063f340fa019150602401600060405180830381600087803b158015620012f857600080fd5b505af11580156200130d573d6000803e3d6000fd5b50506040517f55f575100000000000000000000000000000000000000000000000000000000081523060048201526000925073ffffffffffffffffffffffffffffffffffffffff851691506355f5751090602401606060405180830381865afa1580156200137f573d6000803e3d6000fd5b505050506040513d601f19601f82011682018060405250810190620013a5919062001cd4565b50915050620013c48560000154866001015483620009b5919062001d03565b856002016000828254620013d9919062001d19565b90915550506001850181905584546060880135908690600090620013ff90849062001d19565b9091555050604080516060808a013582526020808b01359083015289830135928201929092528835917f2e7dc27fb130f4de8353da093b20c59786d52d4dc125134574eb8ddf23c033c5910162000fde565b6000818152600260208181526040808420815160a08101835281548152600182015493810193909352928301549082015260039091015469ffffffffffffffffffff8116606083018190526a010000000000000000000090910473ffffffffffffffffffffffffffffffffffffffff1660808301528291829182918291829182918291829182036200150f576040517f6a4de01900000000000000000000000000000000000000000000000000000000815260040160405180910390fd5b600060016000836060015169ffffffffffffffffffff1669ffffffffffffffffffff1681526020019081526020016000206040518060a00160405290816000820160009054906101000a900473ffffffffffffffffffffffffffffffffffffffff1673ffffffffffffffffffffffffffffffffffffffff1673ffffffffffffffffffffffffffffffffffffffff1681526020016001820160009054906101000a900473ffffffffffffffffffffffffffffffffffffffff1673ffffffffffffffffffffffffffffffffffffffff1673ffffffffffffffffffffffffffffffffffffffff168152602001600282015481526020016003820154815260200160048201548152505090508160800151816000015182602001518360400151846060015185608001518760000151886020015189604001519a509a509a509a509a509a509a509a509a5050509193959799909294969850565b6040805173ffffffffffffffffffffffffffffffffffffffff8088166020830152861691810191909152606081018490526080810183905260a081018290526000908190889060c0016040516020818303038152906040528051906020012060405180602001620016d69062001bb2565b6020820181038252601f19601f820116604052508051906020012060405160200162001762939291907fff00000000000000000000000000000000000000000000000000000000000000815260609390931b7fffffffffffffffffffffffffffffffffffffffff0000000000000000000000001660018401526015830191909152603582015260550190565b604080518083037fffffffffffffffffffffffffffffffffffffffffffffffffffffffffffffffe0018152919052805160209091012098975050505050505050565b6040805173ffffffffffffffffffffffffffffffffffffffff8088166020830152861691810191909152606081018490526080810183905260a081018290526000908190889060c0016040516020818303038152906040528051906020012060405180602001620016d69062001bc0565b60006040517f23b872dd00000000000000000000000000000000000000000000000000000000815273ffffffffffffffffffffffffffffffffffffffff8516600482015273ffffffffffffffffffffffffffffffffffffffff8416602482015282604482015260008060648360008a5af1915050620018948162001a4a565b620018cb576040517fa83c475400000000000000000000000000000000000000000000000000000000815260040160405180910390fd5b5050505050565b73ffffffffffffffffffffffffffffffffffffffff821660009081526020819052604081205469ffffffffffffffffffff169081900362001a2f5760038054760100000000000000000000000000000000000000000000900469ffffffffffffffffffff16906016620019458362001d49565b82546101009290920a69ffffffffffffffffffff81810219909316918316021790915573ffffffffffffffffffffffffffffffffffffffff85811660009081526020818152604080832080547fffffffffffffffffffffffffffffffffffffffffffff00000000000000000000169587169586179055938252600180825291849020875181547fffffffffffffffffffffffff00000000000000000000000000000000000000009081169186169190911782559188015192810180549092169290931691909117905590840151600282015560608401516003820155608084015160049091015590505b92915050565b600062001a43838362001a94565b9392505050565b60008162001a5c573d6000803e3d6000fd5b3d6020811462001a7757801562001a89576000915062001a8e565b3d6000803e6000511515915062001a8e565b600191505b50919050565b600080807fffffffffffffffffffffffffffffffffffffffffffffffffffffffffffffffff848609848602925082811083820303915050670de0b6b3a7640000811062001b14576040517fd31b34020000000000000000000000000000000000000000000000000000000081526004810182905260240160405180910390fd5b600080670de0b6b3a764000086880991506706f05b59d3b1ffff821190508260000362001b545780670de0b6b3a764000085040194505050505062001a2f565b6204000082850304939091119091037d40000000000000000000000000000000000000000000000000000000000002919091177faccb18165bd6fe31ae1cf318dc5b51eee0e1ba569b88cd74c1773b91fac106690201905092915050565b612dfc8062001d6c83390190565b6116e38062004b6883390190565b6000610140828403121562001a8e57600080fd5b60006060828403121562001a8e57600080fd5b600060c0828403121562001a8e57600080fd5b600060a0828403121562001a8e57600080fd5b60006020828403121562001c2e57600080fd5b5035919050565b7f4e487b7100000000000000000000000000000000000000000000000000000000600052601160045260246000fd5b600075ffffffffffffffffffffffffffffffffffffffffffff80831681810362001c925762001c9262001c35565b6001019392505050565b60006020828403121562001caf57600080fd5b813573ffffffffffffffffffffffffffffffffffffffff8116811462001a4357600080fd5b60008060006060848603121562001cea57600080fd5b8351925060208401519150604084015190509250925092565b8181038181111562001a2f5762001a2f62001c35565b8082018082111562001a2f5762001a2f62001c35565b60006020828403121562001d4257600080fd5b5051919050565b600069ffffffffffffffffffff80831681810362001c925762001c9262001c3556fe6101006040526008805460ff60401b1916680100000000000000001790553480156200002a57600080fd5b504660805262000103604080518082018252601d81527f4e756d6f656e205265706c69636174696e67204465726976617469766500000060209182015281517f8b73c3c69bb8fe3d512ecc4cf759cc79239f7b179b0ffacaa9a75d522b39400f818301527fe0aacc3a18ef84f81cc6ccd9ffda212f4a39a80cf42fda9f7c775397b63887b6818401527fc89efdaa54c0f20c7adf612882df0950f5a951637e0307cdcb4c672f298b8bc660608201524660808201523060a0808301919091528351808303909101815260c0909101909252815191012090565b60a0523360c08190526040805163a8aa1b3160e01b8152905163a8aa1b31916004808201926020929091908290030181865afa15801562000148573d6000803e3d6000fd5b505050506040513d601f19601f820116820180604052508101906200016e919062000180565b6001600160a01b031660e052620001b2565b6000602082840312156200019357600080fd5b81516001600160a01b0381168114620001ab57600080fd5b9392505050565b60805160a05160c05160e051612bca62000232600039600081816104ed0152818161068f01528181610a7801528181610de501528181610ef1015281816112050152818161127b01528181611532015281816116fc01528181611cf30152611e150152600061057901526000610c6101526000610b680152612bca6000f3fe608060405234801561001057600080fd5b506004361061025c5760003560e01c80637a52b93711610145578063a9059cbb116100bd578063d98026f11161008c578063dd62ed3e11610071578063dd62ed3e146105c0578063f340fa01146105eb578063fd2da339146105fe57600080fd5b8063d98026f1146105ae578063d9832154146105b757600080fd5b8063a9059cbb14610534578063c046371114610547578063c45a015514610574578063d505accf1461059b57600080fd5b806395d89b4111610114578063a5cdfa94116100f9578063a5cdfa94146104cd578063a6afed95146104e0578063a8aa1b31146104e857600080fd5b806395d89b411461047e5780639ff47dc3146104ba57600080fd5b80637a52b937146104305780637ecebe001461043857806389afcb441461045857806394d008ef1461046b57600080fd5b80632e5e549e116101d85780633b7cf699116101a757806355f575101161018c57806355f57510146103b35780636b8357ac146103fd57806370a082311461041057600080fd5b80633b7cf699146103985780634fd9b90a146103ab57600080fd5b80632e5e549e14610353578063313ce567146103665780633644e51514610380578063375259281461038857600080fd5b806318160ddd1161022f57806323b872dd1161021457806323b872dd146103185780632a11a8a01461032b5780632e1a7d4d1461033e57600080fd5b806318160ddd146103005780631b3ed7221461030957600080fd5b806306fdde0314610261578063095ea7b3146102b357806312fb162d146102d657806315770f92146102f7575b600080fd5b61029d6040518060400160405280601d81526020017f4e756d6f656e205265706c69636174696e67204465726976617469766500000081525081565b6040516102aa919061276c565b60405180910390f35b6102c66102c13660046127e2565b61060d565b60405190151581526020016102aa565b6102e96102e436600461280e565b610687565b6040519081526020016102aa565b6102e960055481565b6102e960005481565b6102e9671314fb370629800081565b6102c6610326366004612827565b61072c565b6102e9610339366004612868565b610872565b61035161034c36600461280e565b6108b5565b005b6102e961036136600461280e565b610b3f565b61036e601281565b60405160ff90911681526020016102aa565b6102e9610b64565b6102e96802698fc23a98e2000081565b6102e96103a636600461280e565b610c83565b610351610c94565b6103e26103c136600461288a565b60046020526000908152604090208054600182015460029092015490919083565b604080519384526020840192909252908201526060016102aa565b6102e961040b3660046127e2565b610d2c565b6102e961041e36600461288a565b60016020526000908152604090205481565b6102e9610eea565b6102e961044636600461288a565b60036020526000908152604090205481565b6102e961046636600461288a565b6110e2565b6102e96104793660046128a7565b61138e565b61029d6040518060400160405280600381526020017f4e5244000000000000000000000000000000000000000000000000000000000081525081565b6102e96104c836600461280e565b6116f4565b6102e96104db366004612868565b611799565b610351611866565b61050f7f000000000000000000000000000000000000000000000000000000000000000081565b60405173ffffffffffffffffffffffffffffffffffffffff90911681526020016102aa565b6102c66105423660046127e2565b6118d6565b60085461055b9067ffffffffffffffff1681565b60405167ffffffffffffffff90911681526020016102aa565b61050f7f000000000000000000000000000000000000000000000000000000000000000081565b6103516105a9366004612930565b61195b565b6102e960075481565b6102e960065481565b6102e96105ce3660046129a7565b600260209081526000928352604080842090915290825290205481565b6103516105f936600461288a565b611c7f565b6102e9670b1a2bc2ec50000081565b33600081815260026020908152604080832073ffffffffffffffffffffffffffffffffffffffff8716808552925280832085905551919290917f8c5be1e5ebec7d5bd14f71427d1e84f3dd0314c0f7b2291e5b200ac8c7c3b925906106759086815260200190565b60405180910390a35060015b92915050565b6000610681827f000000000000000000000000000000000000000000000000000000000000000073ffffffffffffffffffffffffffffffffffffffff1663b09ad8a06040518163ffffffff1660e01b8152600401602060405180830381865afa1580156106f8573d6000803e3d6000fd5b505050506040513d601f19601f8201168201806040525081019061071c91906129e0565b610727906002612a28565b611ef4565b73ffffffffffffffffffffffffffffffffffffffff831660009081526002602090815260408083203384529091528120547fffffffffffffffffffffffffffffffffffffffffffffffffffffffffffffffff81146107c05761078e8382612a3f565b73ffffffffffffffffffffffffffffffffffffffff861660009081526002602090815260408083203384529091529020555b73ffffffffffffffffffffffffffffffffffffffff8516600090815260016020526040812080548592906107f5908490612a3f565b909155505073ffffffffffffffffffffffffffffffffffffffff808516600081815260016020526040908190208054870190555190918716907fddf252ad1be2c89b69c2b068fc378daa952ba7f163c4a11628f55a4df523b3ef9061085d9087815260200190565b60405180910390a360019150505b9392505050565b60008061087f8484611f00565b9050600061088d8585611799565b9050670de0b6b3a76400006108a28383612a28565b6108ac9190612a81565b95945050505050565b60085468010000000000000000900460ff16600114610900576040517f29f745a700000000000000000000000000000000000000000000000000000000815260040160405180910390fd5b6008805468ff0000000000000000191668020000000000000000179055610925611f2f565b8060000361095f576040517fd5ab59fe00000000000000000000000000000000000000000000000000000000815260040160405180910390fd5b336000908152600460205260408120604080516060810182528254808252600184015460208301526002909301549181019190915291508211156109cf576040517fe8ffb44c00000000000000000000000000000000000000000000000000000000815260040160405180910390fd5b816005546109dd9190612a3f565b6006541115610a18576040517f088c327000000000000000000000000000000000000000000000000000000000815260040160405180910390fd5b610a3233610a2584612abc565b60075460049291906120b5565b8160056000828254610a449190612a3f565b90915550506040517f22cf1989000000000000000000000000000000000000000000000000000000008152600481018390527f000000000000000000000000000000000000000000000000000000000000000073ffffffffffffffffffffffffffffffffffffffff16906322cf198990602401600060405180830381600087803b158015610ad157600080fd5b505af1158015610ae5573d6000803e3d6000fd5b50506040518481523392507f884edad9ce6fa2440d8a54cc123490eb96d2768479d49ff9c7366125a9424364915060200160405180910390a250506008805468ff0000000000000000191668010000000000000000179055565b6006546000908015610b5d57610b5883600054836121a8565b61086b565b5090919050565b60007f00000000000000000000000000000000000000000000000000000000000000004614610c5e5750604080518082018252601d81527f4e756d6f656e205265706c69636174696e67204465726976617469766500000060209182015281517f8b73c3c69bb8fe3d512ecc4cf759cc79239f7b179b0ffacaa9a75d522b39400f818301527fe0aacc3a18ef84f81cc6ccd9ffda212f4a39a80cf42fda9f7c775397b63887b6818401527fc89efdaa54c0f20c7adf612882df0950f5a951637e0307cdcb4c672f298b8bc660608201524660808201523060a0808301919091528351808303909101815260c0909101909252815191012090565b507f000000000000000000000000000000000000000000000000000000000000000090565b6000610681600654836000546121a8565b60085468010000000000000000900460ff16600114610cdf576040517f29f745a700000000000000000000000000000000000000000000000000000000815260040160405180910390fd5b6008805468ff0000000000000000191668020000000000000000179055610d04611f2f565b610d0d336122ac565b6008805468ff0000000000000000191668010000000000000000179055565b600060088054906101000a900460ff1660ff16600114610d78576040517f29f745a700000000000000000000000000000000000000000000000000000000815260040160405180910390fd5b6008805468ff0000000000000000191668020000000000000000179055336000908152600460205260408120905080600201548311610db75782610dbd565b80600201545b91508115610e795781816002016000828254610dd99190612a3f565b92505081905550610e797f000000000000000000000000000000000000000000000000000000000000000073ffffffffffffffffffffffffffffffffffffffff1663ee1f21d86040518163ffffffff1660e01b8152600401602060405180830381865afa158015610e4e573d6000803e3d6000fd5b505050506040513d601f19601f82011682018060405250810190610e729190612af4565b8584612311565b60405182815273ffffffffffffffffffffffffffffffffffffffff85169033907f1314fd112a381beea61539dbd21ec04afcff2662ac7d1b83273aade1f53d1b979060200160405180910390a3506008805468ff000000000000000019166801000000000000000017905592915050565b60008060607f000000000000000000000000000000000000000000000000000000000000000073ffffffffffffffffffffffffffffffffffffffff1663ee1f21d86040518163ffffffff1660e01b8152600401602060405180830381865afa158015610f5a573d6000803e3d6000fd5b505050506040513d601f19601f82011682018060405250810190610f7e9190612af4565b604080518082018252601281527f62616c616e63654f662861646472657373290000000000000000000000000000602091820152815130602480830191909152835180830390910181526044909101835290810180517bffffffffffffffffffffffffffffffffffffffffffffffffffffffff167f70a0823100000000000000000000000000000000000000000000000000000000179052905173ffffffffffffffffffffffffffffffffffffffff929092169161103c9190612b11565b600060405180830381855afa9150503d8060008114611077576040519150601f19603f3d011682016040523d82523d6000602084013e61107c565b606091505b509092509050811580611090575060208151105b156110c7576040517f7613bc8900000000000000000000000000000000000000000000000000000000815260040160405180910390fd5b808060200190518101906110db91906129e0565b9250505090565b600060088054906101000a900460ff1660ff1660011461112e576040517f29f745a700000000000000000000000000000000000000000000000000000000815260040160405180910390fd5b6008805468ff0000000000000000191668020000000000000000179055611153611f2f565b306000908152600160205260408120549061116d82610c83565b905061117881610687565b9250806000036111b4576040517fd5ab59fe00000000000000000000000000000000000000000000000000000000815260040160405180910390fd5b80600660008282546111c69190612a3f565b909155506111d6905030836123ae565b6040517fbb9a5908000000000000000000000000000000000000000000000000000000008152600481018290527f000000000000000000000000000000000000000000000000000000000000000073ffffffffffffffffffffffffffffffffffffffff169063bb9a590890602401600060405180830381600087803b15801561125e57600080fd5b505af1158015611272573d6000803e3d6000fd5b5050505061130f7f000000000000000000000000000000000000000000000000000000000000000073ffffffffffffffffffffffffffffffffffffffff1663ee1f21d86040518163ffffffff1660e01b8152600401602060405180830381865afa1580156112e4573d6000803e3d6000fd5b505050506040513d601f19601f820116820180604052508101906113089190612af4565b8585612311565b604080518481526020810184905290810182905273ffffffffffffffffffffffffffffffffffffffff85169033907fd175a80c109434bb89948928ab2475a6647c94244cb70002197896423c8833639060600160405180910390a350506008805468ff0000000000000000191668010000000000000000179055919050565b600060088054906101000a900460ff1660ff166001146113da576040517f29f745a700000000000000000000000000000000000000000000000000000000815260040160405180910390fd5b6008805468ff00000000000000001916680200000000000000001790556113ff611f2f565b600061140a856116f4565b905061141581610b3f565b915081600003611451576040517fd5ab59fe00000000000000000000000000000000000000000000000000000000815260040160405180910390fd5b6005546006546114619083612b2d565b1115611499576040517f088c327000000000000000000000000000000000000000000000000000000000815260040160405180910390fd5b600080541180156114aa5750600654155b156114e1576040517f088c327000000000000000000000000000000000000000000000000000000000815260040160405180910390fd5b80600660008282546114f39190612b2d565b9091555061150390508683612441565b6040517f22cf1989000000000000000000000000000000000000000000000000000000008152600481018290527f000000000000000000000000000000000000000000000000000000000000000073ffffffffffffffffffffffffffffffffffffffff16906322cf198990602401600060405180830381600087803b15801561158b57600080fd5b505af115801561159f573d6000803e3d6000fd5b5050505060006115ad610eea565b6040517f019e868b000000000000000000000000000000000000000000000000000000008152909150339063019e868b906115f090899089908990600401612b40565b600060405180830381600087803b15801561160a57600080fd5b505af115801561161e573d6000803e3d6000fd5b50505050600061162c610eea565b90506116388783612b2d565b811015611671576040517fee30a99300000000000000000000000000000000000000000000000000000000815260040160405180910390fd5b604080518881526020810186905290810184905273ffffffffffffffffffffffffffffffffffffffff89169033907fa8137fff86647d8a402117b9c5dbda627f721d3773338fb9678c83e54ed390809060600160405180910390a350506008805468ff000000000000000019166801000000000000000017905550949350505050565b6000610681827f000000000000000000000000000000000000000000000000000000000000000073ffffffffffffffffffffffffffffffffffffffff1663b09ad8a06040518163ffffffff1660e01b8152600401602060405180830381865afa158015611765573d6000803e3d6000fd5b505050506040513d601f19601f8201168201806040525081019061178991906129e0565b611794906002612a28565b6124b1565b6000806117a68484611f00565b9050670b1a2bc2ec50000081116117e457670de0b6b3a76400006117d2671314fb370629800083612a28565b6117dc9190612a81565b915050610681565b6000670de0b6b3a7640000611809671314fb3706298000670b1a2bc2ec500000612a28565b6118139190612a81565b90506000611829670b1a2bc2ec50000084612a3f565b905081670de0b6b3a76400006118486802698fc23a98e2000084612a28565b6118529190612a81565b61185c9190612b2d565b9350505050610681565b60085468010000000000000000900460ff166001146118b1576040517f29f745a700000000000000000000000000000000000000000000000000000000815260040160405180910390fd5b6008805468ff0000000000000000191668020000000000000000179055610d0d611f2f565b336000908152600160205260408120805483919083906118f7908490612a3f565b909155505073ffffffffffffffffffffffffffffffffffffffff8316600081815260016020526040908190208054850190555133907fddf252ad1be2c89b69c2b068fc378daa952ba7f163c4a11628f55a4df523b3ef906106759086815260200190565b428410156119ca576040517f08c379a000000000000000000000000000000000000000000000000000000000815260206004820152601760248201527f5045524d49545f444541444c494e455f4558504952454400000000000000000060448201526064015b60405180910390fd5b600060016119d6610b64565b73ffffffffffffffffffffffffffffffffffffffff8a811660008181526003602090815260409182902080546001810190915582517f6e71edae12b1b97f4d1f60370fef10105fa2faae0126114a169c64845d6126c98184015280840194909452938d166060840152608083018c905260a083019390935260c08083018b90528151808403909101815260e0830190915280519201919091207f190100000000000000000000000000000000000000000000000000000000000061010083015261010282019290925261012281019190915261014201604080517fffffffffffffffffffffffffffffffffffffffffffffffffffffffffffffffe08184030181528282528051602091820120600084529083018083525260ff871690820152606081018590526080810184905260a0016020604051602081039080840390855afa158015611b28573d6000803e3d6000fd5b50506040517fffffffffffffffffffffffffffffffffffffffffffffffffffffffffffffffe0015191505073ffffffffffffffffffffffffffffffffffffffff811615801590611ba357508773ffffffffffffffffffffffffffffffffffffffff168173ffffffffffffffffffffffffffffffffffffffff16145b611c09576040517f08c379a000000000000000000000000000000000000000000000000000000000815260206004820152600e60248201527f494e56414c49445f5349474e455200000000000000000000000000000000000060448201526064016119c1565b73ffffffffffffffffffffffffffffffffffffffff90811660009081526002602090815260408083208a8516808552908352928190208990555188815291928a16917f8c5be1e5ebec7d5bd14f71427d1e84f3dd0314c0f7b2291e5b200ac8c7c3b925910160405180910390a350505050505050565b60085468010000000000000000900460ff16600114611cca576040517f29f745a700000000000000000000000000000000000000000000000000000000815260040160405180910390fd5b6008805468ff0000000000000000191668020000000000000000179055611cef611f2f565b60007f000000000000000000000000000000000000000000000000000000000000000073ffffffffffffffffffffffffffffffffffffffff1663edaafe206040518163ffffffff1660e01b8152600401602060405180830381865afa158015611d5c573d6000803e3d6000fd5b505050506040513d601f19601f82011682018060405250810190611d8091906129e0565b905080600003611dbc576040517fd5ab59fe00000000000000000000000000000000000000000000000000000000815260040160405180910390fd5b600754611dcf90600490849084906120b5565b8060056000828254611de19190612b2d565b90915550506040517fbb9a5908000000000000000000000000000000000000000000000000000000008152600481018290527f000000000000000000000000000000000000000000000000000000000000000073ffffffffffffffffffffffffffffffffffffffff169063bb9a590890602401600060405180830381600087803b158015611e6e57600080fd5b505af1158015611e82573d6000803e3d6000fd5b505060405183815273ffffffffffffffffffffffffffffffffffffffff851692503391507fe31c7b8d08ee7db0afa68782e1028ef92305caeea8626633ad44d413e30f6b2f9060200160405180910390a350506008805468ff0000000000000000191668010000000000000000179055565b600061086b83836124c6565b600081600003611f1257506000610681565b81611f2584670de0b6b3a7640000612a28565b61086b9190612a81565b6000541580611f3e5750600654155b15611f7957600880547fffffffffffffffffffffffffffffffffffffffffffffffff0000000000000000164267ffffffffffffffff16179055565b600654600554600854600090611f999067ffffffffffffffff1642612a3f565b905080600003611fa857505050565b6000611fb48484611799565b905060006301e1338083611fc88488611ef4565b611fd29190612a28565b611fdc9190612a81565b90506000858211611fed5781611fef565b855b90506000611ffc82610687565b905061200881876124b1565b600760008282546120199190612b2d565b9091555061202990508288612a3f565b600655600880547fffffffffffffffffffffffffffffffffffffffffffffffff0000000000000000164267ffffffffffffffff16179055600754604080518781526020810184905290810184905260608101919091527f4dec04e750ca11537cabcd8a9eab06494de08da3735bc8871cd41250e190bc049060800160405180910390a150505050505050565b73ffffffffffffffffffffffffffffffffffffffff831660009081526020858152604080832081516060810183528154808252600183015494820194909452600282015492810192909252929091156121155761211282856125dd565b90505b60008560000361216257825160000361215a576040517f351c1cda00000000000000000000000000000000000000000000000000000000815260040160405180910390fd5b508151612171565b825161216e9087612600565b90505b851561217b578084555b60018401859055811561219e578183604001516121989190612b2d565b60028501555b5050505050505050565b600080807fffffffffffffffffffffffffffffffffffffffffffffffffffffffffffffffff85870985870292508281108382030391505080600003612200578382816121f6576121f6612a52565b049250505061086b565b838110612243576040517f773cc18c00000000000000000000000000000000000000000000000000000000815260048101829052602481018590526044016119c1565b60008486880960026001871981018816978890046003810283188082028403028082028403028082028403028082028403028082028403029081029092039091026000889003889004909101858311909403939093029303949094049190911702949350505050565b6007546122bd6004836000846120b5565b8173ffffffffffffffffffffffffffffffffffffffff167f79f93060adb031972743fb83706d3b89328ac521188de43641a8709999fef7ff8260405161230591815260200190565b60405180910390a25050565b60006040517fa9059cbb00000000000000000000000000000000000000000000000000000000815273ffffffffffffffffffffffffffffffffffffffff841660048201528260248201526000806044836000895af191505061237281612703565b6123a8576040517fbfa871c500000000000000000000000000000000000000000000000000000000815260040160405180910390fd5b50505050565b73ffffffffffffffffffffffffffffffffffffffff8216600090815260016020526040812080548392906123e3908490612a3f565b909155505060008054829003815560405182815273ffffffffffffffffffffffffffffffffffffffff8416907fddf252ad1be2c89b69c2b068fc378daa952ba7f163c4a11628f55a4df523b3ef906020015b60405180910390a35050565b806000808282546124529190612b2d565b909155505073ffffffffffffffffffffffffffffffffffffffff82166000818152600160209081526040808320805486019055518481527fddf252ad1be2c89b69c2b068fc378daa952ba7f163c4a11628f55a4df523b3ef9101612435565b600061086b83670de0b6b3a7640000846121a8565b600080807fffffffffffffffffffffffffffffffffffffffffffffffffffffffffffffffff848609848602925082811083820303915050670de0b6b3a76400008110612541576040517fd31b3402000000000000000000000000000000000000000000000000000000008152600481018290526024016119c1565b600080670de0b6b3a764000086880991506706f05b59d3b1ffff821190508260000361257f5780670de0b6b3a7640000850401945050505050610681565b6204000082850304939091119091037d40000000000000000000000000000000000000000000000000000000000002919091177faccb18165bd6fe31ae1cf318dc5b51eee0e1ba569b88cd74c1773b91fac106690201905092915050565b81516020830151600091906125f89082906107279086612a3f565b949350505050565b60008082121561268d578261261483612abc565b61261e9085612a3f565b91508110612688576040517f08c379a000000000000000000000000000000000000000000000000000000000815260206004820152600260248201527f4c5300000000000000000000000000000000000000000000000000000000000060448201526064016119c1565b610681565b826126988382612b2d565b9150811015610681576040517f08c379a000000000000000000000000000000000000000000000000000000000815260206004820152600260248201527f4c4100000000000000000000000000000000000000000000000000000000000060448201526064016119c1565b600081612714573d6000803e3d6000fd5b3d6020811461272c57801561273d5760009150612742565b3d6000803e60005115159150612742565b600191505b50919050565b60005b8381101561276357818101518382015260200161274b565b50506000910152565b602081526000825180602084015261278b816040850160208701612748565b601f017fffffffffffffffffffffffffffffffffffffffffffffffffffffffffffffffe0169190910160400192915050565b73ffffffffffffffffffffffffffffffffffffffff811681146127df57600080fd5b50565b600080604083850312156127f557600080fd5b8235612800816127bd565b946020939093013593505050565b60006020828403121561282057600080fd5b5035919050565b60008060006060848603121561283c57600080fd5b8335612847816127bd565b92506020840135612857816127bd565b929592945050506040919091013590565b6000806040838503121561287b57600080fd5b50508035926020909101359150565b60006020828403121561289c57600080fd5b813561086b816127bd565b600080600080606085870312156128bd57600080fd5b84356128c8816127bd565b935060208501359250604085013567ffffffffffffffff808211156128ec57600080fd5b818701915087601f83011261290057600080fd5b81358181111561290f57600080fd5b88602082850101111561292157600080fd5b95989497505060200194505050565b600080600080600080600060e0888a03121561294b57600080fd5b8735612956816127bd565b96506020880135612966816127bd565b95506040880135945060608801359350608088013560ff8116811461298a57600080fd5b9699959850939692959460a0840135945060c09093013592915050565b600080604083850312156129ba57600080fd5b82356129c5816127bd565b915060208301356129d5816127bd565b809150509250929050565b6000602082840312156129f257600080fd5b5051919050565b7f4e487b7100000000000000000000000000000000000000000000000000000000600052601160045260246000fd5b8082028115828204841417610681576106816129f9565b81810381811115610681576106816129f9565b7f4e487b7100000000000000000000000000000000000000000000000000000000600052601260045260246000fd5b600082612ab7577f4e487b7100000000000000000000000000000000000000000000000000000000600052601260045260246000fd5b500490565b60007f80000000000000000000000000000000000000000000000000000000000000008203612aed57612aed6129f9565b5060000390565b600060208284031215612b0657600080fd5b815161086b816127bd565b60008251612b23818460208701612748565b9190910192915050565b80820180821115610681576106816129f9565b83815260406020820152816040820152818360608301376000818301606090810191909152601f9092017fffffffffffffffffffffffffffffffffffffffffffffffffffffffffffffffe01601019291505056fea26469706673582212203d96b5219c84dc33742e7f09b49e8099343454b4afd0f2e2633fcf6012864b5664736f6c634300081100336101606040526002805460ff191660011790553480156200001f57600080fd5b50336001600160a01b03166080816001600160a01b031681525050600080336001600160a01b0316636d9877ab6040518163ffffffff1660e01b815260040160c060405180830381865afa1580156200007c573d6000803e3d6000fd5b505050506040513d601f19601f82011682018060405250810190620000a2919062000150565b610100526001600160a01b0392831660e05292821660c052921660a05290925090506012821180620000d45750600682105b15620000f357604051636819ba0560e01b815260040160405180910390fd5b6012811180620001035750600681105b156200012257604051636819ba0560e01b815260040160405180910390fd5b6101209190915261014052620001b6565b80516001600160a01b03811681146200014b57600080fd5b919050565b60008060008060008060c087890312156200016a57600080fd5b620001758762000133565b9550620001856020880162000133565b9450620001956040880162000133565b9350606087015192506080870151915060a087015190509295509295509295565b60805160a05160c05160e0516101005161012051610140516114776200026c600039600081816101cb015261073801526000818161013b01526106f701526000818161026201528181610769015281816107b101526107de0152600081816102df015281816105f70152818161092c0152610cc20152600081816101620152818161048d015281816108fb0152610c9701526000818161023b015281816103190152610b510152600061029c01526114776000f3fe608060405234801561001057600080fd5b50600436106101005760003560e01c8063a0712d6811610097578063c45a015511610066578063c45a015514610297578063de7bf0a2146102be578063edaafe20146102d1578063ee1f21d8146102da57600080fd5b8063a0712d6814610223578063a39bfd1314610236578063b09ad8a01461025d578063bb9a59081461028457600080fd5b80637bb98a68116100d35780637bb98a68146101a957806387557ff7146101c65780639a4d5e21146101ed5780639f1d0f591461021057600080fd5b806318160ddd1461010557806322cf1989146101215780632faf67d6146101365780635001f3b51461015d575b600080fd5b61010e60005481565b6040519081526020015b60405180910390f35b61013461012f36600461111d565b610301565b005b61010e7f000000000000000000000000000000000000000000000000000000000000000081565b6101847f000000000000000000000000000000000000000000000000000000000000000081565b60405173ffffffffffffffffffffffffffffffffffffffff9091168152602001610118565b6101b16103d2565b60408051928352602083019190915201610118565b61010e7f000000000000000000000000000000000000000000000000000000000000000081565b6102006101fb366004611136565b6106e2565b6040519015158152602001610118565b61013461021e36600461118b565b610862565b61013461023136600461111d565b610a0b565b6101847f000000000000000000000000000000000000000000000000000000000000000081565b61010e7f000000000000000000000000000000000000000000000000000000000000000081565b61013461029236600461111d565b610b39565b6101847f000000000000000000000000000000000000000000000000000000000000000081565b6101346102cc3660046111be565b610bba565b61010e60015481565b6101847f000000000000000000000000000000000000000000000000000000000000000081565b3373ffffffffffffffffffffffffffffffffffffffff7f00000000000000000000000000000000000000000000000000000000000000001614610370576040517fb3491a6e00000000000000000000000000000000000000000000000000000000815260040160405180910390fd5b6000546001546103809083611226565b11156103b8576040517feecc2bbd00000000000000000000000000000000000000000000000000000000815260040160405180910390fd5b80600160008282546103ca9190611226565b909155505050565b604080518082018252601281527f62616c616e63654f662861646472657373290000000000000000000000000000602091820152815130602480830191909152835180830390910181526044909101835290810180517bffffffffffffffffffffffffffffffffffffffffffffffffffffffff167f70a082310000000000000000000000000000000000000000000000000000000017905290516000918291829160609173ffffffffffffffffffffffffffffffffffffffff7f000000000000000000000000000000000000000000000000000000000000000016916104b791611239565b600060405180830381855afa9150503d80600081146104f2576040519150601f19603f3d011682016040523d82523d6000602084013e6104f7565b606091505b50909250905081158061050b575060208151105b15610542576040517f7613bc8900000000000000000000000000000000000000000000000000000000815260040160405180910390fd5b6000818060200190518101906105589190611268565b604080518082018252601281527f62616c616e63654f662861646472657373290000000000000000000000000000602091820152815130602480830191909152835180830390910181526044909101835290810180517bffffffffffffffffffffffffffffffffffffffffffffffffffffffff167f70a082310000000000000000000000000000000000000000000000000000000017905290519192507f000000000000000000000000000000000000000000000000000000000000000073ffffffffffffffffffffffffffffffffffffffff16916106379190611239565b600060405180830381855afa9150503d8060008114610672576040519150601f19603f3d011682016040523d82523d6000602084013e610677565b606091505b50909350915082158061068b575060208251105b156106c2576040517f7613bc8900000000000000000000000000000000000000000000000000000000815260040160405180910390fd5b80828060200190518101906106d79190611268565b945094505050509091565b6000806107226106f28685610d56565b61071d7f0000000000000000000000000000000000000000000000000000000000000000600a6113a1565b610d56565b9050600061075e6107338686610d56565b61071d7f0000000000000000000000000000000000000000000000000000000000000000600a6113a1565b905081600061078d837f0000000000000000000000000000000000000000000000000000000000000000610d6b565b90506000600461079e856002610d77565b6107a891906113dc565b905060006107d77f00000000000000000000000000000000000000000000000000000000000000006002610d77565b90506108047f00000000000000000000000000000000000000000000000000000000000000006002611417565b85111561083d576040517ff80926d800000000000000000000000000000000000000000000000000000000815260040160405180910390fd5b6108478183611226565b6108518486611226565b1496505050505050505b9392505050565b60025460ff166001146108a1576040517f29f745a700000000000000000000000000000000000000000000000000000000815260040160405180910390fd5b6002805460ff191681179055811580156108b9575080155b156108f0576040517fd5ab59fe00000000000000000000000000000000000000000000000000000000815260040160405180910390fd5b8115610921576109217f00000000000000000000000000000000000000000000000000000000000000008484610dd7565b8015610952576109527f00000000000000000000000000000000000000000000000000000000000000008483610dd7565b60008061095d6103d2565b9150915061096e82826000546106e2565b6109a4576040517f6819ba0500000000000000000000000000000000000000000000000000000000815260040160405180910390fd5b604080518581526020810185905273ffffffffffffffffffffffffffffffffffffffff87169133917f2a9237ff5aa599ef4c5ee4b1142b53429d5755e2685fe6288b2e3320202115f5910160405180910390a350506002805460ff19166001179055505050565b60025460ff16600114610a4a576040517f29f745a700000000000000000000000000000000000000000000000000000000815260040160405180910390fd5b6002805460ff1916811790556000819003610a91576040517fd5ab59fe00000000000000000000000000000000000000000000000000000000815260040160405180910390fd5b600080610a9c6103d2565b91509150610ab38282600054866101fb9190611226565b610ae9576040517f6819ba0500000000000000000000000000000000000000000000000000000000815260040160405180910390fd5b610af283610e74565b60405183815233907f0f6798a560793a54c3bcfe86a93cde1e73087d944c0ea20544137d41213968859060200160405180910390a250506002805460ff1916600117905550565b3373ffffffffffffffffffffffffffffffffffffffff7f00000000000000000000000000000000000000000000000000000000000000001614610ba8576040517fb3491a6e00000000000000000000000000000000000000000000000000000000815260040160405180910390fd5b80600160008282546103ca919061142e565b60025460ff16600114610bf9576040517f29f745a700000000000000000000000000000000000000000000000000000000815260040160405180910390fd5b6002805460ff191681179055610c108383836106e2565b610c46576040517f6819ba0500000000000000000000000000000000000000000000000000000000815260040160405180910390fd5b82158015610c52575081155b15610c89576040517fd5ab59fe00000000000000000000000000000000000000000000000000000000815260040160405180910390fd5b610c9281610e95565b610cbd7f00000000000000000000000000000000000000000000000000000000000000008585610dd7565b610ce87f00000000000000000000000000000000000000000000000000000000000000008584610dd7565b604080518481526020810184905290810182905273ffffffffffffffffffffffffffffffffffffffff85169033907fd175a80c109434bb89948928ab2475a6647c94244cb70002197896423c8833639060600160405180910390a350506002805460ff191660011790555050565b600061085b83670de0b6b3a764000084610eb8565b600061085b8383610fc1565b6000808260011611610d9157670de0b6b3a7640000610d93565b825b9050600182901c91505b8115610dd157610dad8384610fc1565b92506001821615610dc557610dc28184610fc1565b90505b600182901c9150610d9d565b92915050565b60006040517fa9059cbb00000000000000000000000000000000000000000000000000000000815273ffffffffffffffffffffffffffffffffffffffff841660048201528260248201526000806044836000895af1915050610e38816110d8565b610e6e576040517fbfa871c500000000000000000000000000000000000000000000000000000000815260040160405180910390fd5b50505050565b80600080828254610e859190611226565b9091555050600180549091019055565b8060016000828254610ea7919061142e565b909155505060008054919091039055565b600080807fffffffffffffffffffffffffffffffffffffffffffffffffffffffffffffffff85870985870292508281108382030391505080600003610f1057838281610f0657610f066113ad565b049250505061085b565b838110610f58576040517f773cc18c00000000000000000000000000000000000000000000000000000000815260048101829052602481018590526044015b60405180910390fd5b60008486880960026001871981018816978890046003810283188082028403028082028403028082028403028082028403028082028403029081029092039091026000889003889004909101858311909403939093029303949094049190911702949350505050565b600080807fffffffffffffffffffffffffffffffffffffffffffffffffffffffffffffffff848609848602925082811083820303915050670de0b6b3a7640000811061103c576040517fd31b340200000000000000000000000000000000000000000000000000000000815260048101829052602401610f4f565b600080670de0b6b3a764000086880991506706f05b59d3b1ffff821190508260000361107a5780670de0b6b3a7640000850401945050505050610dd1565b6204000082850304939091119091037d40000000000000000000000000000000000000000000000000000000000002919091177faccb18165bd6fe31ae1cf318dc5b51eee0e1ba569b88cd74c1773b91fac106690201905092915050565b6000816110e9573d6000803e3d6000fd5b3d602081146111015780156111125760009150611117565b3d6000803e60005115159150611117565b600191505b50919050565b60006020828403121561112f57600080fd5b5035919050565b60008060006060848603121561114b57600080fd5b505081359360208301359350604090920135919050565b803573ffffffffffffffffffffffffffffffffffffffff8116811461118657600080fd5b919050565b6000806000606084860312156111a057600080fd5b6111a984611162565b95602085013595506040909401359392505050565b600080600080608085870312156111d457600080fd5b6111dd85611162565b966020860135965060408601359560600135945092505050565b7f4e487b7100000000000000000000000000000000000000000000000000000000600052601160045260246000fd5b80820180821115610dd157610dd16111f7565b6000825160005b8181101561125a5760208186018101518583015201611240565b506000920191825250919050565b60006020828403121561127a57600080fd5b5051919050565b600181815b808511156112da57817fffffffffffffffffffffffffffffffffffffffffffffffffffffffffffffffff048211156112c0576112c06111f7565b808516156112cd57918102915b93841c9390800290611286565b509250929050565b6000826112f157506001610dd1565b816112fe57506000610dd1565b8160018114611314576002811461131e5761133a565b6001915050610dd1565b60ff84111561132f5761132f6111f7565b50506001821b610dd1565b5060208310610133831016604e8410600b841016171561135d575081810a610dd1565b6113678383611281565b807fffffffffffffffffffffffffffffffffffffffffffffffffffffffffffffffff04821115611399576113996111f7565b029392505050565b600061085b83836112e2565b7f4e487b7100000000000000000000000000000000000000000000000000000000600052601260045260246000fd5b600082611412577f4e487b7100000000000000000000000000000000000000000000000000000000600052601260045260246000fd5b500490565b8082028115828204841417610dd157610dd16111f7565b81810381811115610dd157610dd16111f756fea26469706673582212201b0737553eddbabbfedeeff37cce1100c550035e8584c419e4441a4d90f18ce864736f6c63430008110033a26469706673582212200c9646acd42a8cd1f29c32c0bae23893935ef0d9b54c1a0611c276158b4af72564736f6c63430008110033",
    "linkReferences": {}
  },
  "methodIdentifiers": {
    "collect((uint256,address,uint256))": "7cbf88aa",
    "decreaseLiquidity((uint256,uint256,uint256,uint256,address,uint256))": "8b874f76",
    "factory()": "c45a0155",
    "getPosition(uint256)": "eb02c301",
    "increaseLiquidity((uint256,uint256,uint256,uint256,uint256))": "dbd19848",
    "mint((address,address,uint256,uint256,uint256,uint256,uint256,uint256,address,uint256))": "00ee087a"
  },
  "id": 25
}