{
  "abi": [
    {
      "inputs": [
        {
          "internalType": "address",
          "name": "_factory",
          "type": "address"
        }
      ],
      "stateMutability": "nonpayable",
      "type": "constructor"
    },
    {
      "inputs": [],
      "name": "CollectError",
      "type": "error"
    },
    {
      "inputs": [],
      "name": "FailedTransferFrom",
      "type": "error"
    },
    {
      "inputs": [],
      "name": "LivelinessError",
      "type": "error"
    },
    {
      "inputs": [
        {
          "internalType": "uint256",
          "name": "prod1",
          "type": "uint256"
        }
      ],
      "name": "PRBMath__MulDivFixedPointOverflow",
      "type": "error"
    },
    {
      "inputs": [],
      "name": "PositionInvalidError",
      "type": "error"
    },
    {
      "inputs": [],
      "name": "SlippageError",
      "type": "error"
    },
    {
      "inputs": [],
      "name": "UnauthorizedError",
      "type": "error"
    },
    {
      "anonymous": false,
      "inputs": [
        {
          "indexed": true,
          "internalType": "uint256",
          "name": "tokenID",
          "type": "uint256"
        },
        {
          "indexed": false,
          "internalType": "uint256",
          "name": "amount",
          "type": "uint256"
        }
      ],
      "name": "Collect",
      "type": "event"
    },
    {
      "anonymous": false,
      "inputs": [
        {
          "indexed": true,
          "internalType": "uint256",
          "name": "tokenID",
          "type": "uint256"
        },
        {
          "indexed": false,
          "internalType": "uint256",
          "name": "liquidity",
          "type": "uint256"
        }
      ],
      "name": "DecreaseLiquidity",
      "type": "event"
    },
    {
      "anonymous": false,
      "inputs": [
        {
          "indexed": true,
          "internalType": "uint256",
          "name": "tokenID",
          "type": "uint256"
        },
        {
          "indexed": false,
          "internalType": "uint256",
          "name": "liquidity",
          "type": "uint256"
        },
        {
          "indexed": false,
          "internalType": "uint256",
          "name": "amount0",
          "type": "uint256"
        },
        {
          "indexed": false,
          "internalType": "uint256",
          "name": "amount1",
          "type": "uint256"
        }
      ],
      "name": "IncreaseLiquidity",
      "type": "event"
    },
    {
      "anonymous": false,
      "inputs": [
        {
          "indexed": true,
          "internalType": "address",
          "name": "operator",
          "type": "address"
        },
        {
          "indexed": true,
          "internalType": "uint256",
          "name": "tokenID",
          "type": "uint256"
        },
        {
          "indexed": false,
          "internalType": "uint256",
          "name": "liquidity",
          "type": "uint256"
        },
        {
          "indexed": false,
          "internalType": "uint256",
          "name": "amount0",
          "type": "uint256"
        },
        {
          "indexed": false,
          "internalType": "uint256",
          "name": "amount1",
          "type": "uint256"
        }
      ],
      "name": "Mint",
      "type": "event"
    },
    {
      "inputs": [
        {
          "components": [
            {
              "internalType": "uint256",
              "name": "tokenID",
              "type": "uint256"
            },
            {
              "internalType": "address",
              "name": "recipient",
              "type": "address"
            },
            {
              "internalType": "uint256",
              "name": "amountRequested",
              "type": "uint256"
            }
          ],
          "internalType": "struct LiquidityManager.CollectParams",
          "name": "params",
          "type": "tuple"
        }
      ],
      "name": "collect",
      "outputs": [
        {
          "internalType": "uint256",
          "name": "amount",
          "type": "uint256"
        }
      ],
      "stateMutability": "nonpayable",
      "type": "function"
    },
    {
      "inputs": [
        {
          "components": [
            {
              "internalType": "uint256",
              "name": "tokenID",
              "type": "uint256"
            },
            {
              "internalType": "uint256",
              "name": "liquidity",
              "type": "uint256"
            },
            {
              "internalType": "address",
              "name": "recipient",
              "type": "address"
            },
            {
              "internalType": "uint256",
              "name": "deadline",
              "type": "uint256"
            }
          ],
          "internalType": "struct LiquidityManager.DecreaseLiquidityParams",
          "name": "params",
          "type": "tuple"
        }
      ],
      "name": "decreaseLiquidity",
      "outputs": [],
      "stateMutability": "nonpayable",
      "type": "function"
    },
    {
      "inputs": [],
      "name": "factory",
      "outputs": [
        {
          "internalType": "address",
          "name": "",
          "type": "address"
        }
      ],
      "stateMutability": "view",
      "type": "function"
    },
    {
      "inputs": [
        {
          "internalType": "uint256",
          "name": "tokenID",
          "type": "uint256"
        }
      ],
      "name": "getPosition",
      "outputs": [
        {
          "internalType": "address",
          "name": "operator",
          "type": "address"
        },
        {
          "internalType": "address",
          "name": "base",
          "type": "address"
        },
        {
          "internalType": "address",
          "name": "speculative",
          "type": "address"
        },
        {
          "internalType": "uint256",
          "name": "baseScaleFactor",
          "type": "uint256"
        },
        {
          "internalType": "uint256",
          "name": "speculativeScaleFactor",
          "type": "uint256"
        },
        {
          "internalType": "uint256",
          "name": "upperBound",
          "type": "uint256"
        },
        {
          "internalType": "uint256",
          "name": "liquidity",
          "type": "uint256"
        },
        {
          "internalType": "uint256",
          "name": "rewardPerLiquidityPaid",
          "type": "uint256"
        },
        {
          "internalType": "uint256",
          "name": "tokensOwed",
          "type": "uint256"
        }
      ],
      "stateMutability": "view",
      "type": "function"
    },
    {
      "inputs": [
        {
          "components": [
            {
              "internalType": "uint256",
              "name": "tokenID",
              "type": "uint256"
            },
            {
              "internalType": "uint256",
              "name": "amount0",
              "type": "uint256"
            },
            {
              "internalType": "uint256",
              "name": "amount1",
              "type": "uint256"
            },
            {
              "internalType": "uint256",
              "name": "liquidity",
              "type": "uint256"
            },
            {
              "internalType": "uint256",
              "name": "deadline",
              "type": "uint256"
            }
          ],
          "internalType": "struct LiquidityManager.IncreaseLiquidityParams",
          "name": "params",
          "type": "tuple"
        }
      ],
      "name": "increaseLiquidity",
      "outputs": [],
      "stateMutability": "nonpayable",
      "type": "function"
    },
    {
      "inputs": [
        {
          "components": [
            {
              "internalType": "address",
              "name": "base",
              "type": "address"
            },
            {
              "internalType": "address",
              "name": "speculative",
              "type": "address"
            },
            {
              "internalType": "uint256",
              "name": "baseScaleFactor",
              "type": "uint256"
            },
            {
              "internalType": "uint256",
              "name": "speculativeScaleFactor",
              "type": "uint256"
            },
            {
              "internalType": "uint256",
              "name": "upperBound",
              "type": "uint256"
            },
            {
              "internalType": "uint256",
              "name": "amount0",
              "type": "uint256"
            },
            {
              "internalType": "uint256",
              "name": "amount1",
              "type": "uint256"
            },
            {
              "internalType": "uint256",
              "name": "liquidity",
              "type": "uint256"
            },
            {
              "internalType": "address",
              "name": "recipient",
              "type": "address"
            },
            {
              "internalType": "uint256",
              "name": "deadline",
              "type": "uint256"
            }
          ],
          "internalType": "struct LiquidityManager.MintParams",
          "name": "params",
          "type": "tuple"
        }
      ],
      "name": "mint",
      "outputs": [
        {
          "internalType": "uint256",
          "name": "tokenID",
          "type": "uint256"
        }
      ],
      "stateMutability": "nonpayable",
      "type": "function"
    }
  ],
  "bytecode": {
    "object": "0x60a060405276010000000000000000000000000000000000000000000160035534801561002b57600080fd5b50604051611e5b380380611e5b83398101604081905261004a9161005b565b6001600160a01b031660805261008b565b60006020828403121561006d57600080fd5b81516001600160a01b038116811461008457600080fd5b9392505050565b608051611d856100d66000396000818160c9015281816102ec0152818161034b0152818161082601528181610c7501528181610ca9015281816110d501526111090152611d856000f3fe608060405234801561001057600080fd5b50600436106100715760003560e01c8063c45a015511610050578063c45a0155146100c4578063dbd1984814610110578063eb02c3011461012357600080fd5b8062ee087a146100765780637cbf88aa1461009c5780638c41f8a4146100af575b600080fd5b610089610084366004611ba3565b610198565b6040519081526020015b60405180910390f35b6100896100aa366004611bb6565b6106ef565b6100c26100bd366004611bc8565b610aff565b005b6100eb7f000000000000000000000000000000000000000000000000000000000000000081565b60405173ffffffffffffffffffffffffffffffffffffffff9091168152602001610093565b6100c261011e366004611bda565b610f5f565b610136610131366004611bec565b6113a7565b6040805173ffffffffffffffffffffffffffffffffffffffff9a8b168152988a1660208a015296909816958701959095526060860193909352608085019190915260a084015260c083015260e082015261010081019190915261012001610093565b6000816101200135428110156101da576040517f0756982f00000000000000000000000000000000000000000000000000000000815260040160405180910390fd5b6003805475ffffffffffffffffffffffffffffffffffffffffffff1690600061020283611c34565b91906101000a81548175ffffffffffffffffffffffffffffffffffffffffffff021916908375ffffffffffffffffffffffffffffffffffffffffffff16021790555075ffffffffffffffffffffffffffffffffffffffffffff16915060006040518060a0016040528085600001602081019061027e9190611c69565b73ffffffffffffffffffffffffffffffffffffffff1681526020018560200160208101906102ac9190611c69565b73ffffffffffffffffffffffffffffffffffffffff16815260200185604001358152602001856060013581526020018560800135815250905060006103427f000000000000000000000000000000000000000000000000000000000000000086600001602081019061031e9190611c69565b61032e6040890160208a01611c69565b886040013589606001358a608001356115ba565b9050600061039b7f00000000000000000000000000000000000000000000000000000000000000006103776020890189611c69565b61038760408a0160208b01611c69565b89604001358a606001358b60800135611709565b90506103b96103ad6020880188611c69565b33838960a00135611816565b6103d86103cc6040880160208901611c69565b33838960c00135611816565b6040517fa0712d6800000000000000000000000000000000000000000000000000000000815260e0870135600482015273ffffffffffffffffffffffffffffffffffffffff82169063a0712d6890602401600060405180830381600087803b15801561044357600080fd5b505af1158015610457573d6000803e3d6000fd5b50506040517ff340fa0100000000000000000000000000000000000000000000000000000000815230600482015273ffffffffffffffffffffffffffffffffffffffff8516925063f340fa019150602401600060405180830381600087803b1580156104c257600080fd5b505af11580156104d6573d6000803e3d6000fd5b5050505060006104e683856118d0565b6040517f55f5751000000000000000000000000000000000000000000000000000000000815230600482015290915060009073ffffffffffffffffffffffffffffffffffffffff8516906355f5751090602401606060405180830381865afa158015610556573d6000803e3d6000fd5b505050506040513d601f19601f8201168201806040525081019061057a9190611c9f565b509150506040518060a001604052808960e001358152602001828152602001600081526020018369ffffffffffffffffffff168152602001896101000160208101906105c69190611c69565b73ffffffffffffffffffffffffffffffffffffffff9081169091526000898152600260208181526040928390208551815590850151600182015591840151908201556060830151600390910180546080909401519092166a0100000000000000000000027fffff00000000000000000000000000000000000000000000000000000000000090931669ffffffffffffffffffff90911617919091179055866106766101208a016101008b01611c69565b73ffffffffffffffffffffffffffffffffffffffff167f94c792774c59479f7bd68442f3af3691c02123a5aabee8b6f9116d8af8aa66698a60e001358b60a001358c60c001356040516106dc939291909283526020830191909152604082015260600190565b60405180910390a3505050505050919050565b8035600090815260026020526040812060038101546a0100000000000000000000900473ffffffffffffffffffffffffffffffffffffffff163314610760576040517f8b5701f700000000000000000000000000000000000000000000000000000000815260040160405180910390fd5b600381015469ffffffffffffffffffff166000036107aa576040517f6a4de01900000000000000000000000000000000000000000000000000000000815260040160405180910390fd5b60038082015469ffffffffffffffffffff166000908152600160208181526040808420815160a081018352815473ffffffffffffffffffffffffffffffffffffffff90811680835295830154169381018490526002820154928101839052958101546060870181905260049091015460808701819052610851947f0000000000000000000000000000000000000000000000000000000000000000949093909290916115ba565b90508073ffffffffffffffffffffffffffffffffffffffff16634fd9b90a6040518163ffffffff1660e01b8152600401600060405180830381600087803b15801561089b57600080fd5b505af11580156108af573d6000803e3d6000fd5b50506040517f55f575100000000000000000000000000000000000000000000000000000000081523060048201526000925073ffffffffffffffffffffffffffffffffffffffff841691506355f5751090602401606060405180830381865afa158015610920573d6000803e3d6000fd5b505050506040513d601f19601f820116820180604052508101906109449190611c9f565b5091505061096584600001548560010154836109609190611ccd565b611a30565b8460020160008282546109789190611ce0565b909155505060018401819055600284015460408701351161099d5785604001356109a3565b83600201545b9450848460020160008282546109b99190611ccd565b909155506000905073ffffffffffffffffffffffffffffffffffffffff8316636b8357ac6109ed60408a0160208b01611c69565b6040517fffffffff0000000000000000000000000000000000000000000000000000000060e084901b16815273ffffffffffffffffffffffffffffffffffffffff9091166004820152602481018990526044016020604051808303816000875af1158015610a5f573d6000803e3d6000fd5b505050506040513d601f19601f82011682018060405250810190610a839190611cf3565b905085811015610abf576040517f8ad721cb00000000000000000000000000000000000000000000000000000000815260040160405180910390fd5b6040518681528735907f44ac423abde78f781d0bdf82a76bbe38aa71b9fa09289d4269e8e053bc532a899060200160405180910390a25050505050919050565b806060013542811015610b3e576040517f0756982f00000000000000000000000000000000000000000000000000000000815260040160405180910390fd5b8135600090815260026020526040902060038101546a0100000000000000000000900473ffffffffffffffffffffffffffffffffffffffff163314610baf576040517f8b5701f700000000000000000000000000000000000000000000000000000000815260040160405180910390fd5b600381015469ffffffffffffffffffff16600003610bf9576040517f6a4de01900000000000000000000000000000000000000000000000000000000815260040160405180910390fd5b60038082015469ffffffffffffffffffff166000908152600160208181526040808420815160a081018352815473ffffffffffffffffffffffffffffffffffffffff90811680835295830154169381018490526002820154928101839052958101546060870181905260049091015460808701819052610ca0947f0000000000000000000000000000000000000000000000000000000000000000949093909290916115ba565b90506000610ce67f000000000000000000000000000000000000000000000000000000000000000084600001518560200151866040015187606001518860800151611709565b6040517f2e1a7d4d0000000000000000000000000000000000000000000000000000000081526020880135600482015290915073ffffffffffffffffffffffffffffffffffffffff831690632e1a7d4d90602401600060405180830381600087803b158015610d5457600080fd5b505af1158015610d68573d6000803e3d6000fd5b50505073ffffffffffffffffffffffffffffffffffffffff82169050639dc29fac610d996060890160408a01611c69565b6040517fffffffff0000000000000000000000000000000000000000000000000000000060e084901b16815273ffffffffffffffffffffffffffffffffffffffff90911660048201526020890135602482015260440160408051808303816000875af1158015610e0d573d6000803e3d6000fd5b505050506040513d601f19601f82011682018060405250810190610e319190611d0c565b50506040517f55f5751000000000000000000000000000000000000000000000000000000000815230600482015260009073ffffffffffffffffffffffffffffffffffffffff8416906355f5751090602401606060405180830381865afa158015610ea0573d6000803e3d6000fd5b505050506040513d601f19601f82011682018060405250810190610ec49190611c9f565b50915050610ee085600001548660010154836109609190611ccd565b856002016000828254610ef39190611ce0565b90915550506001850181905584546020880135908690600090610f17908490611ccd565b909155505060405160208089013582528835917fdef4f5c5c7516369cb5aaa162fdf3f2c750a1c81c0fe3dfd9a47a97393cdafcf91015b60405180910390a250505050505050565b806080013542811015610f9e576040517f0756982f00000000000000000000000000000000000000000000000000000000815260040160405180910390fd5b8135600090815260026020526040902060038101546a0100000000000000000000900473ffffffffffffffffffffffffffffffffffffffff16331461100f576040517f8b5701f700000000000000000000000000000000000000000000000000000000815260040160405180910390fd5b600381015469ffffffffffffffffffff16600003611059576040517f6a4de01900000000000000000000000000000000000000000000000000000000815260040160405180910390fd5b60038082015469ffffffffffffffffffff166000908152600160208181526040808420815160a081018352815473ffffffffffffffffffffffffffffffffffffffff90811680835295830154169381018490526002820154928101839052958101546060870181905260049091015460808701819052611100947f0000000000000000000000000000000000000000000000000000000000000000949093909290916115ba565b905060006111467f000000000000000000000000000000000000000000000000000000000000000084600001518560200151866040015187606001518860800151611709565b905061115c836000015133838960200135611816565b611170836020015133838960400135611816565b6040517fa0712d680000000000000000000000000000000000000000000000000000000081526060870135600482015273ffffffffffffffffffffffffffffffffffffffff82169063a0712d6890602401600060405180830381600087803b1580156111db57600080fd5b505af11580156111ef573d6000803e3d6000fd5b50506040517ff340fa0100000000000000000000000000000000000000000000000000000000815230600482015273ffffffffffffffffffffffffffffffffffffffff8516925063f340fa019150602401600060405180830381600087803b15801561125a57600080fd5b505af115801561126e573d6000803e3d6000fd5b50506040517f55f575100000000000000000000000000000000000000000000000000000000081523060048201526000925073ffffffffffffffffffffffffffffffffffffffff851691506355f5751090602401606060405180830381865afa1580156112df573d6000803e3d6000fd5b505050506040513d601f19601f820116820180604052508101906113039190611c9f565b5091505061131f85600001548660010154836109609190611ccd565b8560020160008282546113329190611ce0565b90915550506001850181905584546060880135908690600090611356908490611ce0565b9091555050604080516060808a013582526020808b01359083015289830135928201929092528835917f2e7dc27fb130f4de8353da093b20c59786d52d4dc125134574eb8ddf23c033c59101610f4e565b6000818152600260208181526040808420815160a08101835281548152600182015493810193909352928301549082015260039091015469ffffffffffffffffffff8116606083018190526a010000000000000000000090910473ffffffffffffffffffffffffffffffffffffffff166080830152829182918291829182918291829182918203611464576040517f6a4de01900000000000000000000000000000000000000000000000000000000815260040160405180910390fd5b600060016000836060015169ffffffffffffffffffff1669ffffffffffffffffffff1681526020019081526020016000206040518060a00160405290816000820160009054906101000a900473ffffffffffffffffffffffffffffffffffffffff1673ffffffffffffffffffffffffffffffffffffffff1673ffffffffffffffffffffffffffffffffffffffff1681526020016001820160009054906101000a900473ffffffffffffffffffffffffffffffffffffffff1673ffffffffffffffffffffffffffffffffffffffff1673ffffffffffffffffffffffffffffffffffffffff168152602001600282015481526020016003820154815260200160048201548152505090508160800151816000015182602001518360400151846060015185608001518760000151886020015189604001519a509a509a509a509a509a509a509a509a5050509193959799909294969850565b6040805173ffffffffffffffffffffffffffffffffffffffff8088166020830152861691810191909152606081018490526080810183905260a081018290526000908190889060c001604080517fffffffffffffffffffffffffffffffffffffffffffffffffffffffffffffffe08184030181529082905280516020918201206116c7939290917f20482d30d0481ce8a2db125dd546dd094e31af1d4dceaeb9ccb058a5a0f45d0891017fff00000000000000000000000000000000000000000000000000000000000000815260609390931b7fffffffffffffffffffffffffffffffffffffffff0000000000000000000000001660018401526015830191909152603582015260550190565b604080518083037fffffffffffffffffffffffffffffffffffffffffffffffffffffffffffffffe0018152919052805160209091012098975050505050505050565b6040805173ffffffffffffffffffffffffffffffffffffffff8088166020830152861691810191909152606081018490526080810183905260a081018290526000908190889060c001604080517fffffffffffffffffffffffffffffffffffffffffffffffffffffffffffffffe08184030181529082905280516020918201206116c7939290917fb68193047bce8acf96fafc85916e609af4f0c5fba41c0f1bdcaff0d3ec8eb4fe91017fff00000000000000000000000000000000000000000000000000000000000000815260609390931b7fffffffffffffffffffffffffffffffffffffffff0000000000000000000000001660018401526015830191909152603582015260550190565b60006040517f23b872dd00000000000000000000000000000000000000000000000000000000815273ffffffffffffffffffffffffffffffffffffffff8516600482015273ffffffffffffffffffffffffffffffffffffffff8416602482015282604482015260008060648360008a5af191505061189381611a43565b6118c9576040517fa83c475400000000000000000000000000000000000000000000000000000000815260040160405180910390fd5b5050505050565b73ffffffffffffffffffffffffffffffffffffffff821660009081526020819052604081205469ffffffffffffffffffff1690819003611a2a5760038054760100000000000000000000000000000000000000000000900469ffffffffffffffffffff1690601661194083611d30565b82546101009290920a69ffffffffffffffffffff81810219909316918316021790915573ffffffffffffffffffffffffffffffffffffffff85811660009081526020818152604080832080547fffffffffffffffffffffffffffffffffffffffffffff00000000000000000000169587169586179055938252600180825291849020875181547fffffffffffffffffffffffff00000000000000000000000000000000000000009081169186169190911782559188015192810180549092169290931691909117905590840151600282015560608401516003820155608084015160049091015590505b92915050565b6000611a3c8383611a88565b9392505050565b600081611a54573d6000803e3d6000fd5b3d60208114611a6c578015611a7d5760009150611a82565b3d6000803e60005115159150611a82565b600191505b50919050565b600080807fffffffffffffffffffffffffffffffffffffffffffffffffffffffffffffffff848609848602925082811083820303915050670de0b6b3a76400008110611b07576040517fd31b34020000000000000000000000000000000000000000000000000000000081526004810182905260240160405180910390fd5b600080670de0b6b3a764000086880991506706f05b59d3b1ffff8211905082600003611b455780670de0b6b3a7640000850401945050505050611a2a565b6204000082850304939091119091037d40000000000000000000000000000000000000000000000000000000000002919091177faccb18165bd6fe31ae1cf318dc5b51eee0e1ba569b88cd74c1773b91fac106690201905092915050565b60006101408284031215611a8257600080fd5b600060608284031215611a8257600080fd5b600060808284031215611a8257600080fd5b600060a08284031215611a8257600080fd5b600060208284031215611bfe57600080fd5b5035919050565b7f4e487b7100000000000000000000000000000000000000000000000000000000600052601160045260246000fd5b600075ffffffffffffffffffffffffffffffffffffffffffff808316818103611c5f57611c5f611c05565b6001019392505050565b600060208284031215611c7b57600080fd5b813573ffffffffffffffffffffffffffffffffffffffff81168114611a3c57600080fd5b600080600060608486031215611cb457600080fd5b8351925060208401519150604084015190509250925092565b81810381811115611a2a57611a2a611c05565b80820180821115611a2a57611a2a611c05565b600060208284031215611d0557600080fd5b5051919050565b60008060408385031215611d1f57600080fd5b505080516020909101519092909150565b600069ffffffffffffffffffff808316818103611c5f57611c5f611c0556fea26469706673582212204230654d52193dcfd6ac9822c87fe684c5d0b6d1f6f6c4b20e88d0c65ccfebe964736f6c63430008110033",
    "linkReferences": {}
  },
  "methodIdentifiers": {
    "collect((uint256,address,uint256))": "7cbf88aa",
    "decreaseLiquidity((uint256,uint256,address,uint256))": "8c41f8a4",
    "factory()": "c45a0155",
    "getPosition(uint256)": "eb02c301",
    "increaseLiquidity((uint256,uint256,uint256,uint256,uint256))": "dbd19848",
    "mint((address,address,uint256,uint256,uint256,uint256,uint256,uint256,address,uint256))": "00ee087a"
  },
  "id": 39
}