{
  "abi": [
    {
      "inputs": [
        {
          "internalType": "address",
          "name": "_factory",
          "type": "address"
        }
      ],
      "stateMutability": "nonpayable",
      "type": "constructor"
    },
    {
      "inputs": [],
      "name": "LivelinessError",
      "type": "error"
    },
    {
      "inputs": [],
      "name": "PositionInvalidError",
      "type": "error"
    },
    {
      "inputs": [],
      "name": "SlippageError",
      "type": "error"
    },
    {
      "inputs": [],
      "name": "UnauthorizedError",
      "type": "error"
    },
    {
      "inputs": [],
      "name": "VerifyError",
      "type": "error"
    },
    {
      "anonymous": false,
      "inputs": [
        {
          "indexed": true,
          "internalType": "uint256",
          "name": "tokenID",
          "type": "uint256"
        },
        {
          "indexed": false,
          "internalType": "uint256",
          "name": "amount",
          "type": "uint256"
        }
      ],
      "name": "Collect",
      "type": "event"
    },
    {
      "anonymous": false,
      "inputs": [
        {
          "indexed": true,
          "internalType": "uint256",
          "name": "tokenID",
          "type": "uint256"
        },
        {
          "indexed": false,
          "internalType": "uint256",
          "name": "liquidity",
          "type": "uint256"
        },
        {
          "indexed": false,
          "internalType": "uint256",
          "name": "amount0",
          "type": "uint256"
        },
        {
          "indexed": false,
          "internalType": "uint256",
          "name": "amount1",
          "type": "uint256"
        }
      ],
      "name": "DecreaseLiquidity",
      "type": "event"
    },
    {
      "anonymous": false,
      "inputs": [
        {
          "indexed": true,
          "internalType": "uint256",
          "name": "tokenID",
          "type": "uint256"
        },
        {
          "indexed": false,
          "internalType": "uint256",
          "name": "liquidity",
          "type": "uint256"
        },
        {
          "indexed": false,
          "internalType": "uint256",
          "name": "amount0",
          "type": "uint256"
        },
        {
          "indexed": false,
          "internalType": "uint256",
          "name": "amount1",
          "type": "uint256"
        }
      ],
      "name": "IncreaseLiquidity",
      "type": "event"
    },
    {
      "anonymous": false,
      "inputs": [
        {
          "indexed": true,
          "internalType": "address",
          "name": "operator",
          "type": "address"
        },
        {
          "indexed": true,
          "internalType": "uint256",
          "name": "tokenID",
          "type": "uint256"
        },
        {
          "indexed": false,
          "internalType": "uint256",
          "name": "liquidity",
          "type": "uint256"
        },
        {
          "indexed": false,
          "internalType": "uint256",
          "name": "amount0",
          "type": "uint256"
        },
        {
          "indexed": false,
          "internalType": "uint256",
          "name": "amount1",
          "type": "uint256"
        }
      ],
      "name": "Mint",
      "type": "event"
    },
    {
      "inputs": [
        {
          "internalType": "uint256",
          "name": "amount0",
          "type": "uint256"
        },
        {
          "internalType": "uint256",
          "name": "amount1",
          "type": "uint256"
        },
        {
          "internalType": "bytes",
          "name": "data",
          "type": "bytes"
        }
      ],
      "name": "PairMintCallback",
      "outputs": [],
      "stateMutability": "nonpayable",
      "type": "function"
    },
    {
      "inputs": [
        {
          "components": [
            {
              "internalType": "uint256",
              "name": "tokenID",
              "type": "uint256"
            },
            {
              "internalType": "address",
              "name": "recipient",
              "type": "address"
            },
            {
              "internalType": "uint256",
              "name": "amountMax",
              "type": "uint256"
            }
          ],
          "internalType": "struct LiquidityManager.CollectParams",
          "name": "params",
          "type": "tuple"
        }
      ],
      "name": "collect",
      "outputs": [
        {
          "internalType": "uint256",
          "name": "amount",
          "type": "uint256"
        }
      ],
      "stateMutability": "nonpayable",
      "type": "function"
    },
    {
      "inputs": [
        {
          "components": [
            {
              "internalType": "uint256",
              "name": "tokenID",
              "type": "uint256"
            },
            {
              "internalType": "uint256",
              "name": "amount0",
              "type": "uint256"
            },
            {
              "internalType": "uint256",
              "name": "amount1",
              "type": "uint256"
            },
            {
              "internalType": "uint256",
              "name": "liquidityMax",
              "type": "uint256"
            },
            {
              "internalType": "address",
              "name": "recipient",
              "type": "address"
            },
            {
              "internalType": "uint256",
              "name": "deadline",
              "type": "uint256"
            }
          ],
          "internalType": "struct LiquidityManager.DecreaseLiquidityParams",
          "name": "params",
          "type": "tuple"
        }
      ],
      "name": "decreaseLiquidity",
      "outputs": [
        {
          "internalType": "uint256",
          "name": "liquidity",
          "type": "uint256"
        }
      ],
      "stateMutability": "nonpayable",
      "type": "function"
    },
    {
      "inputs": [],
      "name": "factory",
      "outputs": [
        {
          "internalType": "address",
          "name": "",
          "type": "address"
        }
      ],
      "stateMutability": "view",
      "type": "function"
    },
    {
      "inputs": [
        {
          "internalType": "uint256",
          "name": "tokenID",
          "type": "uint256"
        }
      ],
      "name": "getPosition",
      "outputs": [
        {
          "internalType": "address",
          "name": "operator",
          "type": "address"
        },
        {
          "internalType": "address",
          "name": "base",
          "type": "address"
        },
        {
          "internalType": "address",
          "name": "speculative",
          "type": "address"
        },
        {
          "internalType": "uint256",
          "name": "upperBound",
          "type": "uint256"
        },
        {
          "internalType": "uint24",
          "name": "tick",
          "type": "uint24"
        },
        {
          "internalType": "uint256",
          "name": "liquidity",
          "type": "uint256"
        },
        {
          "internalType": "uint256",
          "name": "rewardPerLiquidityPaid",
          "type": "uint256"
        },
        {
          "internalType": "uint256",
          "name": "tokensOwed",
          "type": "uint256"
        }
      ],
      "stateMutability": "view",
      "type": "function"
    },
    {
      "inputs": [
        {
          "components": [
            {
              "internalType": "uint256",
              "name": "tokenID",
              "type": "uint256"
            },
            {
              "internalType": "uint256",
              "name": "amount0",
              "type": "uint256"
            },
            {
              "internalType": "uint256",
              "name": "amount1",
              "type": "uint256"
            },
            {
              "internalType": "uint256",
              "name": "liquidityMin",
              "type": "uint256"
            },
            {
              "internalType": "uint256",
              "name": "deadline",
              "type": "uint256"
            }
          ],
          "internalType": "struct LiquidityManager.IncreaseLiquidityParams",
          "name": "params",
          "type": "tuple"
        }
      ],
      "name": "increaseLiquidity",
      "outputs": [
        {
          "internalType": "uint256",
          "name": "liquidity",
          "type": "uint256"
        }
      ],
      "stateMutability": "nonpayable",
      "type": "function"
    },
    {
      "inputs": [
        {
          "components": [
            {
              "internalType": "address",
              "name": "base",
              "type": "address"
            },
            {
              "internalType": "address",
              "name": "speculative",
              "type": "address"
            },
            {
              "internalType": "uint256",
              "name": "upperBound",
              "type": "uint256"
            },
            {
              "internalType": "uint24",
              "name": "tick",
              "type": "uint24"
            },
            {
              "internalType": "uint256",
              "name": "amount0",
              "type": "uint256"
            },
            {
              "internalType": "uint256",
              "name": "amount1",
              "type": "uint256"
            },
            {
              "internalType": "uint256",
              "name": "liquidityMin",
              "type": "uint256"
            },
            {
              "internalType": "address",
              "name": "recipient",
              "type": "address"
            },
            {
              "internalType": "uint256",
              "name": "deadline",
              "type": "uint256"
            }
          ],
          "internalType": "struct LiquidityManager.MintParams",
          "name": "params",
          "type": "tuple"
        }
      ],
      "name": "mint",
      "outputs": [
        {
          "internalType": "uint256",
          "name": "tokenID",
          "type": "uint256"
        },
        {
          "internalType": "uint256",
          "name": "liquidity",
          "type": "uint256"
        }
      ],
      "stateMutability": "nonpayable",
      "type": "function"
    }
  ],
  "bytecode": {
    "object": "0x60a060405276010000000000000000000000000000000000000000000160035534801561002b57600080fd5b5060405162006d4c38038062006d4c83398101604081905261004c9161005d565b6001600160a01b031660805261008d565b60006020828403121561006f57600080fd5b81516001600160a01b038116811461008657600080fd5b9392505050565b608051616c81620000cb6000396000818160ec015281816102cb0152818161071d01528181610bc401528181610d6501526112af0152616c816000f3fe60806040523480156200001157600080fd5b5060043610620000875760003560e01c8063c45a01551162000062578063c45a015514620000e6578063dbd198481462000134578063e384fe1f146200014b578063eb02c301146200017857600080fd5b80637cbf88aa146200008c5780638b874f7614620000b6578063916b762c14620000cd575b600080fd5b620000a36200009d36600462001e91565b620001ee565b6040519081526020015b60405180910390f35b620000a3620000c736600462001eaa565b620005fe565b620000e4620000de36600462001ebd565b62000bac565b005b6200010e7f000000000000000000000000000000000000000000000000000000000000000081565b60405173ffffffffffffffffffffffffffffffffffffffff9091168152602001620000ad565b620000a36200014536600462001f42565b62000c9d565b620001626200015c36600462001f55565b62001163565b60408051928352602083019190915201620000ad565b6200018f6200018936600462001f69565b62001840565b6040805173ffffffffffffffffffffffffffffffffffffffff998a16815297891660208901529590971694860194909452606085019290925262ffffff16608084015260a083015260c082015260e081019190915261010001620000ad565b80356000908152600260205260408120805473ffffffffffffffffffffffffffffffffffffffff1633146200024f576040517f8b5701f700000000000000000000000000000000000000000000000000000000815260040160405180910390fd5b805474010000000000000000000000000000000000000000900469ffffffffffffffffffff1660009081526001602081815260408084208151606081018352815473ffffffffffffffffffffffffffffffffffffffff90811680835295830154169381018490526002909101549181018290529392620002f1927f000000000000000000000000000000000000000000000000000000000000000092620019ab565b60018401546040805130602082015262ffffff9092169082015290915060009060600160408051808303601f1901815290829052805160209091012060018601547f923c43480000000000000000000000000000000000000000000000000000000083526004830182905262ffffff166024830152915073ffffffffffffffffffffffffffffffffffffffff83169063923c434890604401600060405180830381600087803b158015620003a457600080fd5b505af1158015620003b9573d6000803e3d6000fd5b50506040517f514ea4bf000000000000000000000000000000000000000000000000000000008152600481018490526000925073ffffffffffffffffffffffffffffffffffffffff8516915063514ea4bf90602401606060405180830381865afa1580156200042c573d6000803e3d6000fd5b505050506040513d601f19601f8201168201806040525081019062000452919062001f83565b509150506ec097ce7bc90715b34b9f100000000085600301548262000478919062001fe1565b866002015462000489919062001ff7565b62000495919062002011565b856004016000828254620004aa91906200204d565b90915550506003850181905560018501546040517f9e337f5400000000000000000000000000000000000000000000000000000000815230600482015262ffffff909116602482015273ffffffffffffffffffffffffffffffffffffffff841690639e337f54906044016020604051808303816000875af115801562000534573d6000803e3d6000fd5b505050506040513d601f19601f820116820180604052508101906200055a919062002063565b508660400135856004015411620005765784600401546200057c565b86604001355b9550620005a384602001518860200160208101906200059c9190620020a3565b8862001abc565b85856004016000828254620005b9919062001fe1565b90915550506040518681528735907f44ac423abde78f781d0bdf82a76bbe38aa71b9fa09289d4269e8e053bc532a899060200160405180910390a25050505050919050565b60008160a001354281101562000640576040517f0756982f00000000000000000000000000000000000000000000000000000000815260040160405180910390fd5b82356000908152600260205260409020805473ffffffffffffffffffffffffffffffffffffffff163314620006a1576040517f8b5701f700000000000000000000000000000000000000000000000000000000815260040160405180910390fd5b805474010000000000000000000000000000000000000000900469ffffffffffffffffffff1660009081526001602081815260408084208151606081018352815473ffffffffffffffffffffffffffffffffffffffff9081168083529583015416938101849052600290910154918101829052939262000743927f000000000000000000000000000000000000000000000000000000000000000092620019ab565b905060008173ffffffffffffffffffffffffffffffffffffffff1663a8aa1b316040518163ffffffff1660e01b8152600401602060405180830381865afa15801562000793573d6000803e3d6000fd5b505050506040513d601f19601f82011682018060405250810190620007b99190620020ca565b604080517fa989360c00000000000000000000000000000000000000000000000000000000815260208a0135600482015290890135602482015290915073ffffffffffffffffffffffffffffffffffffffff82169063a989360c90604401602060405180830381865afa15801562000835573d6000803e3d6000fd5b505050506040513d601f19601f820116820180604052508101906200085b919062002063565b955086606001358611156200089c576040517f1a840b4200000000000000000000000000000000000000000000000000000000815260040160405180910390fd5b60018401546040517f6af27bf400000000000000000000000000000000000000000000000000000000815262ffffff90911660048201526024810187905273ffffffffffffffffffffffffffffffffffffffff831690636af27bf490604401600060405180830381600087803b1580156200091657600080fd5b505af11580156200092b573d6000803e3d6000fd5b50505073ffffffffffffffffffffffffffffffffffffffff8216905063f5298aca6200095e60a08a0160808b01620020a3565b604080517fffffffff0000000000000000000000000000000000000000000000000000000060e085901b16815273ffffffffffffffffffffffffffffffffffffffff909216600483015260208b013560248301528a013560448201526064016020604051808303816000875af1158015620009dd573d6000803e3d6000fd5b505050506040513d601f19601f8201168201806040525081019062000a03919062002063565b5060018401546040805130602082015262ffffff9092169082015260009060600160408051601f198184030181529082905280516020909101207f514ea4bf00000000000000000000000000000000000000000000000000000000825260048201819052915060009073ffffffffffffffffffffffffffffffffffffffff85169063514ea4bf90602401606060405180830381865afa15801562000aab573d6000803e3d6000fd5b505050506040513d601f19601f8201168201806040525081019062000ad1919062001f83565b509150506ec097ce7bc90715b34b9f100000000086600301548262000af7919062001fe1565b876002015462000b08919062001ff7565b62000b14919062002011565b86600401600082825462000b2991906200204d565b90915550506003860181905560028601805489919060009062000b4e90849062001fe1565b9091555050604080518981526020808c0135908201528a820135918101919091528935907ffc660cbbb86e6da3385bc138d3013e174610477f4f3c21f7ccbf48ec8a11c448906060015b60405180910390a250505050505050919050565b600062000bbc828401846200213b565b905062000bee7f0000000000000000000000000000000000000000000000000000000000000000826000015162001b81565b3073ffffffffffffffffffffffffffffffffffffffff16816020015173ffffffffffffffffffffffffffffffffffffffff160362000c58576040517f8b5701f700000000000000000000000000000000000000000000000000000000815260040160405180910390fd5b841562000c7557805151602082015162000c759190338862001c65565b831562000c965762000c968160000151602001518260200151338762001c65565b5050505050565b600081608001354281101562000cdf576040517f0756982f00000000000000000000000000000000000000000000000000000000815260040160405180910390fd5b82356000908152600260208181526040808420805474010000000000000000000000000000000000000000900469ffffffffffffffffffff16855260018084528286208351606081018552815473ffffffffffffffffffffffffffffffffffffffff908116808352938301541695810186905295015492850183905290949262000d8d927f0000000000000000000000000000000000000000000000000000000000000000929190620019ab565b905060008173ffffffffffffffffffffffffffffffffffffffff1663a8aa1b316040518163ffffffff1660e01b8152600401602060405180830381865afa15801562000ddd573d6000803e3d6000fd5b505050506040513d601f19601f8201168201806040525081019062000e039190620020ca565b6040805180820182528581523360209182019081528251875173ffffffffffffffffffffffffffffffffffffffff9081168285015283890151811682860152888501516060830152915182166080808301919091528451808303909101815260a082018086527f08dc9f42000000000000000000000000000000000000000000000000000000009052949550908516936308dc9f429362000eb1938d013592908d0135919060a40162002209565b6020604051808303816000875af115801562000ed1573d6000803e3d6000fd5b505050506040513d601f19601f8201168201806040525081019062000ef7919062002063565b9550866060013586101562000f38576040517f1a840b4200000000000000000000000000000000000000000000000000000000815260040160405180910390fd5b60018401546040517f20a59c5700000000000000000000000000000000000000000000000000000000815230600482015262ffffff909116602482015273ffffffffffffffffffffffffffffffffffffffff8316906320a59c5790604401600060405180830381600087803b15801562000fb157600080fd5b505af115801562000fc6573d6000803e3d6000fd5b5050505060018401546040805130602082015262ffffff9092169082015260009060600160408051601f198184030181529082905280516020909101207f514ea4bf00000000000000000000000000000000000000000000000000000000825260048201819052915060009073ffffffffffffffffffffffffffffffffffffffff85169063514ea4bf90602401606060405180830381865afa15801562001071573d6000803e3d6000fd5b505050506040513d601f19601f8201168201806040525081019062001097919062001f83565b509150506ec097ce7bc90715b34b9f1000000000866003015482620010bd919062001fe1565b8760020154620010ce919062001ff7565b620010da919062002011565b866004016000828254620010ef91906200204d565b909155505060038601819055600286018054899190600090620011149084906200204d565b9091555050604080518981526020808c0135908201528a820135918101919091528935907f2e7dc27fb130f4de8353da093b20c59786d52d4dc125134574eb8ddf23c033c59060600162000b98565b60008082610100013542811015620011a7576040517f0756982f00000000000000000000000000000000000000000000000000000000815260040160405180910390fd5b6003805475ffffffffffffffffffffffffffffffffffffffffffff16906000620011d18362002268565b91906101000a81548175ffffffffffffffffffffffffffffffffffffffffffff021916908375ffffffffffffffffffffffffffffffffffffffffffff16021790555075ffffffffffffffffffffffffffffffffffffffffffff169250600060405180606001604052808660000160208101906200124f9190620020a3565b73ffffffffffffffffffffffffffffffffffffffff1681526020018660200160208101906200127f9190620020a3565b73ffffffffffffffffffffffffffffffffffffffff1681526040870135602091820152909150600090620012fa907f000000000000000000000000000000000000000000000000000000000000000090620012dd90890189620020a3565b620012ef60408a0160208b01620020a3565b8960400135620019ab565b905060008173ffffffffffffffffffffffffffffffffffffffff1663a8aa1b316040518163ffffffff1660e01b8152600401602060405180830381865afa1580156200134a573d6000803e3d6000fd5b505050506040513d601f19601f82011682018060405250810190620013709190620020ca565b6040805180820182528581523360209182019081528251875173ffffffffffffffffffffffffffffffffffffffff90811682850152928801518316818501528784015160608201529051821660808083019190915283518083038201815260a0808401958690527f08dc9f4200000000000000000000000000000000000000000000000000000000909552949550918516936308dc9f429362001420938d013592908d0135919060a40162002209565b6020604051808303816000875af115801562001440573d6000803e3d6000fd5b505050506040513d601f19601f8201168201806040525081019062001466919062002063565b94508660c00135851015620014a7576040517f1a840b4200000000000000000000000000000000000000000000000000000000815260040160405180910390fd5b73ffffffffffffffffffffffffffffffffffffffff82166320a59c5730620014d660808b0160608c01620022a0565b6040517fffffffff0000000000000000000000000000000000000000000000000000000060e085901b16815273ffffffffffffffffffffffffffffffffffffffff909216600483015262ffffff166024820152604401600060405180830381600087803b1580156200154757600080fd5b505af11580156200155c573d6000803e3d6000fd5b5050505060006200156e838562001c73565b90506000306200158560808b0160608c01620022a0565b6040805173ffffffffffffffffffffffffffffffffffffffff909316602084015262ffffff9091169082015260600160408051601f198184030181529082905280516020909101207f514ea4bf00000000000000000000000000000000000000000000000000000000825260048201819052915060009073ffffffffffffffffffffffffffffffffffffffff86169063514ea4bf90602401606060405180830381865afa1580156200163b573d6000803e3d6000fd5b505050506040513d601f19601f8201168201806040525081019062001661919062001f83565b509150506040518060c001604052808b60e0016020810190620016859190620020a3565b73ffffffffffffffffffffffffffffffffffffffff16815269ffffffffffffffffffff85166020820152604001620016c460808d0160608e01620022a0565b62ffffff908116825260208083018c90526040808401869052600060609485018190528e8152600280845290829020865181549488015169ffffffffffffffffffff1674010000000000000000000000000000000000000000027fffff00000000000000000000000000000000000000000000000000000000000090951673ffffffffffffffffffffffffffffffffffffffff9091161793909317835590850151600183018054919094167fffffffffffffffffffffffffffffffffffffffffffffffffffffffffff0000009091161790925591830151908201556080820151600382015560a09091015160049091015588620017c96101008c0160e08d01620020a3565b73ffffffffffffffffffffffffffffffffffffffff167f94c792774c59479f7bd68442f3af3691c02123a5aabee8b6f9116d8af8aa66698a8d608001358e60a001356040516200182c939291909283526020830191909152604082015260600190565b60405180910390a350505050505050915091565b6000818152600260208181526040808420815160c081018352815473ffffffffffffffffffffffffffffffffffffffff8116825274010000000000000000000000000000000000000000900469ffffffffffffffffffff16938101849052600182015462ffffff16928101929092529283015460608201526003830154608082015260049092015460a0830152829182918291829182918291829190820362001915576040517f6a4de01900000000000000000000000000000000000000000000000000000000815260040160405180910390fd5b60208082015169ffffffffffffffffffff1660009081526001808352604091829020825160608082018552825473ffffffffffffffffffffffffffffffffffffffff908116808452948401541695820186905260029092015490840181905285519386015191860151608087015160a090970151949e50929c50939a509298509196509094509092509050919395975091939597565b6040805173ffffffffffffffffffffffffffffffffffffffff80861660208301528416918101919091526060810182905260009081908690608001604051602081830303815290604052805190602001206040518060200162001a0e9062001e83565b6020820181038252601f19601f820116604052508051906020012060405160200162001a9a939291907fff00000000000000000000000000000000000000000000000000000000000000815260609390931b7fffffffffffffffffffffffffffffffffffffffff0000000000000000000000001660018401526015830191909152603582015260550190565b60408051808303601f1901815291905280516020909101209695505050505050565b60006040517fa9059cbb000000000000000000000000000000000000000000000000000000008152836004820152826024820152602060006044836000895af13d15601f3d116001600051141617169150508062001b7b576040517f08c379a000000000000000000000000000000000000000000000000000000000815260206004820152600f60248201527f5452414e534645525f4641494c4544000000000000000000000000000000000060448201526064015b60405180910390fd5b50505050565b600062001b9d83836000015184602001518560400151620019ab565b905060008173ffffffffffffffffffffffffffffffffffffffff1663a8aa1b316040518163ffffffff1660e01b8152600401602060405180830381865afa15801562001bed573d6000803e3d6000fd5b505050506040513d601f19601f8201168201806040525081019062001c139190620020ca565b90503373ffffffffffffffffffffffffffffffffffffffff82161462001b7b576040517f4fbee53800000000000000000000000000000000000000000000000000000000815260040160405180910390fd5b62001b7b8484848462001dc2565b73ffffffffffffffffffffffffffffffffffffffff821660009081526020819052604081205469ffffffffffffffffffff169081900362001dbc5760038054760100000000000000000000000000000000000000000000900469ffffffffffffffffffff1690601662001ce683620022c7565b82546101009290920a69ffffffffffffffffffff81810219909316918316021790915573ffffffffffffffffffffffffffffffffffffffff85811660009081526020818152604080832080547fffffffffffffffffffffffffffffffffffffffffffff00000000000000000000169587169586179055938252600180825291849020875181547fffffffffffffffffffffffff0000000000000000000000000000000000000000908116918616919091178255918801519281018054909216929093169190911790559084015160029091015590505b92915050565b60006040517f23b872dd0000000000000000000000000000000000000000000000000000000081528460048201528360248201528260448201526020600060648360008a5af13d15601f3d116001600051141617169150508062000c96576040517f08c379a000000000000000000000000000000000000000000000000000000000815260206004820152601460248201527f5452414e534645525f46524f4d5f4641494c4544000000000000000000000000604482015260640162001b72565b61496280620022ea83390190565b60006060828403121562001ea457600080fd5b50919050565b600060c0828403121562001ea457600080fd5b6000806000806060858703121562001ed457600080fd5b8435935060208501359250604085013567ffffffffffffffff8082111562001efb57600080fd5b818701915087601f83011262001f1057600080fd5b81358181111562001f2057600080fd5b88602082850101111562001f3357600080fd5b95989497505060200194505050565b600060a0828403121562001ea457600080fd5b6000610120828403121562001ea457600080fd5b60006020828403121562001f7c57600080fd5b5035919050565b60008060006060848603121562001f9957600080fd5b8351925060208401519150604084015190509250925092565b7f4e487b7100000000000000000000000000000000000000000000000000000000600052601160045260246000fd5b8181038181111562001dbc5762001dbc62001fb2565b808202811582820484141762001dbc5762001dbc62001fb2565b60008262002048577f4e487b7100000000000000000000000000000000000000000000000000000000600052601260045260246000fd5b500490565b8082018082111562001dbc5762001dbc62001fb2565b6000602082840312156200207657600080fd5b5051919050565b73ffffffffffffffffffffffffffffffffffffffff81168114620020a057600080fd5b50565b600060208284031215620020b657600080fd5b8135620020c3816200207d565b9392505050565b600060208284031215620020dd57600080fd5b8151620020c3816200207d565b6040516060810167ffffffffffffffff8111828210171562002135577f4e487b7100000000000000000000000000000000000000000000000000000000600052604160045260246000fd5b60405290565b600081830360808112156200214f57600080fd5b6040516040810181811067ffffffffffffffff821117156200219a577f4e487b7100000000000000000000000000000000000000000000000000000000600052604160045260246000fd5b6040526060821215620021ac57600080fd5b620021b6620020ea565b91508335620021c5816200207d565b82526020840135620021d7816200207d565b602083015260408481013590830152908152606083013590620021fa826200207d565b60208101919091529392505050565b83815260006020848184015260606040840152835180606085015260005b81811015620022455785810183015185820160800152820162002227565b506000608082860101526080601f19601f83011685010192505050949350505050565b600075ffffffffffffffffffffffffffffffffffffffffffff80831681810362002296576200229662001fb2565b6001019392505050565b600060208284031215620022b357600080fd5b813562ffffff81168114620020c357600080fd5b600069ffffffffffffffffffff80831681810362002296576200229662001fb256fe6101206040526001600e553480156200001757600080fd5b506040518060400160405280600f81526020016e4e756d6f656e204c656e6467696e6560881b815250604051806040016040528060048152602001634e4c444760e01b8152506012826000908162000070919062000263565b5060016200007f838262000263565b5060ff81166080524660a0526200009562000114565b60c05250503360e0525060408051306020820152016040516020818303038152906040528051906020012033604051620000cf90620001b0565b6001600160a01b0390911681526020018190604051809103906000f590508015801562000100573d6000803e3d6000fd5b506001600160a01b031661010052620003ad565b60007f8b73c3c69bb8fe3d512ecc4cf759cc79239f7b179b0ffacaa9a75d522b39400f60006040516200014891906200032f565b6040805191829003822060208301939093528101919091527fc89efdaa54c0f20c7adf612882df0950f5a951637e0307cdcb4c672f298b8bc660608201524660808201523060a082015260c00160405160208183030381529060405280519060200120905090565b611448806200351a83390190565b634e487b7160e01b600052604160045260246000fd5b600181811c90821680620001e957607f821691505b6020821081036200020a57634e487b7160e01b600052602260045260246000fd5b50919050565b601f8211156200025e57600081815260208120601f850160051c81016020861015620002395750805b601f850160051c820191505b818110156200025a5782815560010162000245565b5050505b505050565b81516001600160401b038111156200027f576200027f620001be565b6200029781620002908454620001d4565b8462000210565b602080601f831160018114620002cf5760008415620002b65750858301515b600019600386901b1c1916600185901b1785556200025a565b600085815260208120601f198616915b828110156200030057888601518255948401946001909101908401620002df565b50858210156200031f5787850151600019600388901b60f8161c191681555b5050505050600190811b01905550565b60008083546200033f81620001d4565b600182811680156200035a57600181146200037057620003a1565b60ff1984168752821515830287019450620003a1565b8760005260208060002060005b85811015620003985781548a8201529084019082016200037d565b50505082870194505b50929695505050505050565b60805160a05160c05160e051610100516130e26200043860003960008181610466015281816106b80152818161094801528181610bc601528181610c760152818161104e0152818161110801528181611405015281816114c8015281816117b60152611a78015260006104ff01526000610b9001526000610b5b015260006102c601526130e26000f3fe608060405234801561001057600080fd5b506004361061020b5760003560e01c80637a52b9371161012a578063a6afed95116100bd578063c04637111161008c578063d505accf11610071578063d505accf14610521578063d983215414610534578063dd62ed3e1461053d57600080fd5b8063c0463711146104d3578063c45a0155146104fa57600080fd5b8063a6afed9514610459578063a8aa1b3114610461578063a9059cbb146104ad578063b7f6ad16146104c057600080fd5b8063923c4348116100f9578063923c43481461041857806394d008ef1461042b57806395d89b411461043e5780639e337f541461044657600080fd5b80637a52b937146103ae5780637ecebe00146103b65780637f40742a146103d657806389afcb441461040557600080fd5b8063313ce567116101a257806346caf2ae1161017157806346caf2ae14610328578063514ea4bf146103315780636af27bf41461037b57806370a082311461038e57600080fd5b8063313ce567146102c15780633644e515146102fa5780633bbb8b7a146103025780634075f00e1461031557600080fd5b806312a3eb5e116101de57806312a3eb5e1461028757806318160ddd1461029057806320a59c571461029957806323b872dd146102ae57600080fd5b8063039ba49f14610210578063065e53601461022c57806306fdde031461024f578063095ea7b314610264575b600080fd5b610219600a5481565b6040519081526020015b60405180910390f35b60085461023b9062ffffff1681565b60405162ffffff9091168152602001610223565b610257610568565b6040516102239190612abf565b610277610272366004612b35565b6105f6565b6040519015158152602001610223565b610219600c5481565b61021960025481565b6102ac6102a7366004612b79565b610670565b005b6102776102bc366004612bae565b610a13565b6102e87f000000000000000000000000000000000000000000000000000000000000000081565b60405160ff9091168152602001610223565b610219610b57565b610219610310366004612bef565b610bb2565b610219610323366004612bef565b610c72565b61021960095481565b61036061033f366004612bef565b60066020526000908152604090208054600182015460029092015490919083565b60408051938452602084019290925290820152606001610223565b6102ac610389366004612c08565b610d32565b61021961039c366004612c24565b60036020526000908152604090205481565b610219611101565b6102196103c4366004612c24565b60056020526000908152604090205481565b6103606103e4366004612c48565b60076020526000908152604090208054600182015460029092015490919083565b6102ac610413366004612c24565b6112f9565b6102ac610426366004612c63565b611589565b610219610439366004612c86565b61163e565b61025761195c565b610219610454366004612b79565b611969565b6102ac611b65565b6104887f000000000000000000000000000000000000000000000000000000000000000081565b60405173ffffffffffffffffffffffffffffffffffffffff9091168152602001610223565b6102776104bb366004612b35565b611bb5565b6102ac6104ce366004612c48565b611c3a565b600d546104e49064ffffffffff1681565b60405164ffffffffff9091168152602001610223565b6104887f000000000000000000000000000000000000000000000000000000000000000081565b6102ac61052f366004612d0f565b611ce4565b610219600b5481565b61021961054b366004612d86565b600460209081526000928352604080842090915290825290205481565b6000805461057590612dbf565b80601f01602080910402602001604051908101604052809291908181526020018280546105a190612dbf565b80156105ee5780601f106105c3576101008083540402835291602001916105ee565b820191906000526020600020905b8154815290600101906020018083116105d157829003601f168201915b505050505081565b33600081815260046020908152604080832073ffffffffffffffffffffffffffffffffffffffff8716808552925280832085905551919290917f8c5be1e5ebec7d5bd14f71427d1e84f3dd0314c0f7b2291e5b200ac8c7c3b9259061065e9086815260200190565b60405180910390a35060015b92915050565b600e546001146106ac576040517f29f745a700000000000000000000000000000000000000000000000000000000815260040160405180910390fd5b6002600e8190555060007f000000000000000000000000000000000000000000000000000000000000000073ffffffffffffffffffffffffffffffffffffffff1663edaafe206040518163ffffffff1660e01b8152600401602060405180830381865afa158015610721573d6000803e3d6000fd5b505050506040513d601f19601f820116820180604052508101906107459190612e12565b6040805173ffffffffffffffffffffffffffffffffffffffff8616602080830182905262ffffff8716838501819052845180850386018152606085018652805190830120600090815260068352858120608086019490945260a0808601929092528551808603909201825260c090940190945283519301929092209293509091908390036107ff576040517fd5ab59fe00000000000000000000000000000000000000000000000000000000815260040160405180910390fd5b8362ffffff1660000361083e576040517fce8ef7fc00000000000000000000000000000000000000000000000000000000815260040160405180910390fd5b60085460009062ffffff868116911614801561085c57506000600954115b80610871575060085462ffffff908116908616105b905080156108a557610881612008565b60085462ffffff86811691161461089b5761089b8561217e565b6108a58286612275565b506108b26007858561233b565b6108bc828461239c565b60085462ffffff90811690851610156108da576108d88361240e565b505b60085462ffffff1660000361091957600880547fffffffffffffffffffffffffffffffffffffffffffffffffffffffffff0000001662ffffff86161790555b6040517fbb9a5908000000000000000000000000000000000000000000000000000000008152600481018490527f000000000000000000000000000000000000000000000000000000000000000073ffffffffffffffffffffffffffffffffffffffff169063bb9a590890602401600060405180830381600087803b1580156109a157600080fd5b505af11580156109b5573d6000803e3d6000fd5b505060405185815273ffffffffffffffffffffffffffffffffffffffff881692503391507f880ba63815d14e269b4e46291f4ee391d81c80da0197fa4bb25c7140ebbf22c8906020015b60405180910390a350506001600e55505050565b73ffffffffffffffffffffffffffffffffffffffff831660009081526004602090815260408083203384529091528120547fffffffffffffffffffffffffffffffffffffffffffffffffffffffffffffffff8114610aa757610a758382612e5a565b73ffffffffffffffffffffffffffffffffffffffff861660009081526004602090815260408083203384529091529020555b73ffffffffffffffffffffffffffffffffffffffff851660009081526003602052604081208054859290610adc908490612e5a565b909155505073ffffffffffffffffffffffffffffffffffffffff808516600081815260036020526040908190208054870190555190918716907fddf252ad1be2c89b69c2b068fc378daa952ba7f163c4a11628f55a4df523b3ef90610b449087815260200190565b60405180910390a3506001949350505050565b60007f00000000000000000000000000000000000000000000000000000000000000004614610b8d57610b8861253c565b905090565b507f000000000000000000000000000000000000000000000000000000000000000090565b60006ec097ce7bc90715b34b9f10000000007f000000000000000000000000000000000000000000000000000000000000000073ffffffffffffffffffffffffffffffffffffffff1663b09ad8a06040518163ffffffff1660e01b8152600401602060405180830381865afa158015610c2f573d6000803e3d6000fd5b505050506040513d601f19601f82011682018060405250810190610c539190612e12565b610c5e846002612e6d565b610c689190612e6d565b61066a9190612e84565b60007f000000000000000000000000000000000000000000000000000000000000000073ffffffffffffffffffffffffffffffffffffffff1663b09ad8a06040518163ffffffff1660e01b8152600401602060405180830381865afa158015610cdf573d6000803e3d6000fd5b505050506040513d601f19601f82011682018060405250810190610d039190612e12565b610d0e906002612e6d565b610d2083670de0b6b3a7640000612e6d565b610c6890670de0b6b3a7640000612e6d565b600e54600114610d6e576040517f29f745a700000000000000000000000000000000000000000000000000000000815260040160405180910390fd5b6002600e5562ffffff8216600003610db2576040517fce8ef7fc00000000000000000000000000000000000000000000000000000000815260040160405180910390fd5b6040805133602080830182905262ffffff868116848601819052855180860387018152606086018752805190840120600090815260068452868120608087019590955260a08087018390528751808803909101815260c09096019096528451949092019390932060085492949093909216148015610e3257506000600954115b80610e47575060085462ffffff908116908616105b90508015610e7b57610e57612008565b60085462ffffff868116911614610e7157610e718561217e565b610e7b8286612275565b83600003610eb5576040517fd5ab59fe00000000000000000000000000000000000000000000000000000000815260040160405180910390fd5b60085460009062ffffff90811690871603610f10578354610ed7908690612e5a565b6009541115610efd578354610eed908690612e5a565b600954610efa9190612e5a565b90505b83548503610f0b5760006009555b610f26565b60085462ffffff9081169087161015610f265750835b84600003610f60576040517fd5ab59fe00000000000000000000000000000000000000000000000000000000815260040160405180910390fd5b8354851015610faa5760085462ffffff8781169116148015610f8f57508354610f8a908690612e5a565b600954115b15610fa5578354610fa1908690612e5a565b6009555b610fe5565b8354851115610fe5576040517fe8ffb44c00000000000000000000000000000000000000000000000000000000815260040160405180910390fd5b610ffb86610ff287612ebf565b6007919061233b565b61100e61100786612ebf565b859061239c565b801561101f5761101d816125d6565b505b6040517f22cf1989000000000000000000000000000000000000000000000000000000008152600481018690527f000000000000000000000000000000000000000000000000000000000000000073ffffffffffffffffffffffffffffffffffffffff16906322cf198990602401600060405180830381600087803b1580156110a757600080fd5b505af11580156110bb573d6000803e3d6000fd5b50506040518781523392507fe6b7891769e68fa8192032eaffcc0a1583a9f922c73cdd188514a4cd9a8bf4fe915060200160405180910390a250506001600e5550505050565b60008060607f000000000000000000000000000000000000000000000000000000000000000073ffffffffffffffffffffffffffffffffffffffff1663ee1f21d86040518163ffffffff1660e01b8152600401602060405180830381865afa158015611171573d6000803e3d6000fd5b505050506040513d601f19601f820116820180604052508101906111959190612ef7565b604080518082018252601281527f62616c616e63654f662861646472657373290000000000000000000000000000602091820152815130602480830191909152835180830390910181526044909101835290810180517bffffffffffffffffffffffffffffffffffffffffffffffffffffffff167f70a0823100000000000000000000000000000000000000000000000000000000179052905173ffffffffffffffffffffffffffffffffffffffff92909216916112539190612f14565b600060405180830381855afa9150503d806000811461128e576040519150601f19603f3d011682016040523d82523d6000602084013e611293565b606091505b5090925090508115806112a7575060208151105b156112de576040517f7613bc8900000000000000000000000000000000000000000000000000000000815260040160405180910390fd5b808060200190518101906112f29190612e12565b9250505090565b600e54600114611335576040517f29f745a700000000000000000000000000000000000000000000000000000000815260040160405180910390fd5b6002600e55611342612008565b30600090815260036020526040812054600254600b549192916113659084612e6d565b61136f9190612e84565b9050806000036113ab576040517fd5ab59fe00000000000000000000000000000000000000000000000000000000815260040160405180910390fd5b60006113b682610bb2565b905060006113c38361240e565b905080600a60008282546113d79190612e5a565b9250508190555082600b60008282546113f09190612e5a565b909155506114009050308561271d565b6114997f000000000000000000000000000000000000000000000000000000000000000073ffffffffffffffffffffffffffffffffffffffff1663ee1f21d86040518163ffffffff1660e01b8152600401602060405180830381865afa15801561146e573d6000803e3d6000fd5b505050506040513d601f19601f820116820180604052508101906114929190612ef7565b86846127b3565b6040517fbb9a5908000000000000000000000000000000000000000000000000000000008152600481018490527f000000000000000000000000000000000000000000000000000000000000000073ffffffffffffffffffffffffffffffffffffffff169063bb9a590890602401600060405180830381600087803b15801561152157600080fd5b505af1158015611535573d6000803e3d6000fd5b5050604080518781526020810186905273ffffffffffffffffffffffffffffffffffffffff891693503392507f5d624aa9c148153ab3446c1b154f660ee7701e549fe9b62dab7171b1c80e6fa291016109ff565b600e546001146115c5576040517f29f745a700000000000000000000000000000000000000000000000000000000815260040160405180910390fd5b6002600e5562ffffff8116600003611609576040517fce8ef7fc00000000000000000000000000000000000000000000000000000000815260040160405180910390fd5b611611612008565b60085462ffffff82811691161461162b5761162b8161217e565b6116358282612275565b50506001600e55565b6000600e5460011461167c576040517f29f745a700000000000000000000000000000000000000000000000000000000815260040160405180910390fd5b6002600e55611689612008565b60085462ffffff166000036116ca576040517f088c327000000000000000000000000000000000000000000000000000000000815260040160405180910390fd5b60006116d585610c72565b600b546002549192509060008181036116ee5783611703565b826116f98386612e6d565b6117039190612e84565b90508060000361173f576040517fd5ab59fe00000000000000000000000000000000000000000000000000000000815260040160405180910390fd5b600061174a856125d6565b905080600a600082825461175e9190612f30565b9250508190555084600b60008282546117779190612f30565b9091555061178790508a83612872565b6040517f22cf1989000000000000000000000000000000000000000000000000000000008152600481018690527f000000000000000000000000000000000000000000000000000000000000000073ffffffffffffffffffffffffffffffffffffffff16906322cf198990602401600060405180830381600087803b15801561180f57600080fd5b505af1158015611823573d6000803e3d6000fd5b505050506000611831611101565b6040517f019e868b000000000000000000000000000000000000000000000000000000008152909150339063019e868b90611874908d908d908d90600401612f43565b600060405180830381600087803b15801561188e57600080fd5b505af11580156118a2573d6000803e3d6000fd5b5050505060006118b0611101565b90506118bc8b83612f30565b8110156118f5576040517fee30a99300000000000000000000000000000000000000000000000000000000815260040160405180910390fd5b604080518c81526020810186905273ffffffffffffffffffffffffffffffffffffffff8e169133917f2f00e3cdd69a77be7ed215ec7b2a36784dd158f921fca79ac29deffa353fe6ee910160405180910390a350506001600e555098975050505050505050565b6001805461057590612dbf565b6000600e546001146119a7576040517f29f745a700000000000000000000000000000000000000000000000000000000815260040160405180910390fd5b6002600e5562ffffff82166000036119eb576040517fce8ef7fc00000000000000000000000000000000000000000000000000000000815260040160405180910390fd5b50604080513360208083019190915262ffffff8416828401528251808303840181526060909201835281519181019190912060009081526006909152908120600281015491829003611a69576040517fd5ab59fe00000000000000000000000000000000000000000000000000000000815260040160405180910390fd5b60008160020181905550611b0c7f000000000000000000000000000000000000000000000000000000000000000073ffffffffffffffffffffffffffffffffffffffff1663ee1f21d86040518163ffffffff1660e01b8152600401602060405180830381865afa158015611ae1573d6000803e3d6000fd5b505050506040513d601f19601f82011682018060405250810190611b059190612ef7565b85846127b3565b60405182815273ffffffffffffffffffffffffffffffffffffffff85169033907f1314fd112a381beea61539dbd21ec04afcff2662ac7d1b83273aade1f53d1b979060200160405180910390a3506001600e5592915050565b600e54600114611ba1576040517f29f745a700000000000000000000000000000000000000000000000000000000815260040160405180910390fd5b6002600e55611bae612008565b6001600e55565b33600090815260036020526040812080548391908390611bd6908490612e5a565b909155505073ffffffffffffffffffffffffffffffffffffffff8316600081815260036020526040908190208054850190555133907fddf252ad1be2c89b69c2b068fc378daa952ba7f163c4a11628f55a4df523b3ef9061065e9086815260200190565b600e54600114611c76576040517f29f745a700000000000000000000000000000000000000000000000000000000815260040160405180910390fd5b6002600e5562ffffff8116600003611cba576040517fce8ef7fc00000000000000000000000000000000000000000000000000000000815260040160405180910390fd5b611cc2612008565b60085462ffffff828116911614611cdc57611cdc8161217e565b506001600e55565b42841015611d53576040517f08c379a000000000000000000000000000000000000000000000000000000000815260206004820152601760248201527f5045524d49545f444541444c494e455f4558504952454400000000000000000060448201526064015b60405180910390fd5b60006001611d5f610b57565b73ffffffffffffffffffffffffffffffffffffffff8a811660008181526005602090815260409182902080546001810190915582517f6e71edae12b1b97f4d1f60370fef10105fa2faae0126114a169c64845d6126c98184015280840194909452938d166060840152608083018c905260a083019390935260c08083018b90528151808403909101815260e0830190915280519201919091207f190100000000000000000000000000000000000000000000000000000000000061010083015261010282019290925261012281019190915261014201604080517fffffffffffffffffffffffffffffffffffffffffffffffffffffffffffffffe08184030181528282528051602091820120600084529083018083525260ff871690820152606081018590526080810184905260a0016020604051602081039080840390855afa158015611eb1573d6000803e3d6000fd5b50506040517fffffffffffffffffffffffffffffffffffffffffffffffffffffffffffffffe0015191505073ffffffffffffffffffffffffffffffffffffffff811615801590611f2c57508773ffffffffffffffffffffffffffffffffffffffff168173ffffffffffffffffffffffffffffffffffffffff16145b611f92576040517f08c379a000000000000000000000000000000000000000000000000000000000815260206004820152600e60248201527f494e56414c49445f5349474e45520000000000000000000000000000000000006044820152606401611d4a565b73ffffffffffffffffffffffffffffffffffffffff90811660009081526004602090815260408083208a8516808552908352928190208990555188815291928a16917f8c5be1e5ebec7d5bd14f71427d1e84f3dd0314c0f7b2291e5b200ac8c7c3b925910160405180910390a350505050505050565b60025460000361204557600d80547fffffffffffffffffffffffffffffffffffffffffffffffffffffff0000000000164264ffffffffff16179055565b600d5460009061205c9064ffffffffff1642612e5a565b905080158061206b5750600a54155b156120735750565b600063337f980082600a546120889190612e6d565b6120929190612e84565b9050600061209f82610bb2565b600a549091506120b782670de0b6b3a7640000612e6d565b6120c990670de0b6b3a7640000612e6d565b6120d39190612e84565b600c60008282546120e49190612f30565b90915550506008546120fa9062ffffff1661217e565b60006121058361240e565b905080600a60008282546121199190612e5a565b9091555050600d80547fffffffffffffffffffffffffffffffffffffffffffffffffffffff0000000000164264ffffffffff161790556040517f758837fe7daa1fdeb4f11284bff3ce46e535b8e382ca58cad5fcda09a259c30a90600090a150505050565b60085462ffffff90811690821611156121c3576040517f60924f8a00000000000000000000000000000000000000000000000000000000815260040160405180910390fd5b62ffffff811660009081526007602090815260408083208151606081018352815481526001820154938101939093526002810154918301919091529161220982856128e3565b600c546001850155825190915061222882670de0b6b3a7640000612e6d565b6122329190612e84565b82604001516122419190612f30565b60028401556040517f2e6b328e9598b1292d5bd3e9fc08a13a477d1592981f5569569ae795f6a2990190600090a150505050565b600082815260066020908152604080832081516060808201845282548252600180840154838701526002808501548487015262ffffff89168852600787528588208651938401875280548452918201549683019690965294850154938101939093529093909291906122e78483612962565b600284015460018701556040850151909150612304908290612f30565b60028601556040517f2e6b328e9598b1292d5bd3e9fc08a13a477d1592981f5569569ae795f6a2990190600090a150505050505050565b62ffffff8216600090815260208490526040812090829003612389576040517f351c1cda00000000000000000000000000000000000000000000000000000000815260040160405180910390fd5b80546123959083612998565b9055505050565b60408051606081018252835481526001840154602082015260028401549181019190915260008290036123fb576040517f351c1cda00000000000000000000000000000000000000000000000000000000815260040160405180910390fd5b80516124079083612998565b9092555050565b60085462ffffff1660008181526007602090815260408083208151606081018352815481526001820154938101939093526002015490820152600954919291845b808210156124db576124668262ffffff8616612e6d565b6124709086612f30565b945061247d600185612f97565b62ffffff8116600090815260076020908152604091829020825160608101845281548152600182015492810192909252600201549181019190915290945092506124c78282612e5a565b8351925090506124d68461217e565b61244f565b6124ea8162ffffff8616612e6d565b6124f49086612f30565b600880547fffffffffffffffffffffffffffffffffffffffffffffffffffffffffff0000001662ffffff8716179055945061252f8183612e5a565b6009555092949350505050565b60007f8b73c3c69bb8fe3d512ecc4cf759cc79239f7b179b0ffacaa9a75d522b39400f600060405161256e9190612fba565b6040805191829003822060208301939093528101919091527fc89efdaa54c0f20c7adf612882df0950f5a951637e0307cdcb4c672f298b8bc660608201524660808201523060a082015260c00160405160208183030381529060405280519060200120905090565b60085462ffffff16600081815260076020908152604080832081516060810183528154808252600183015494820194909452600290910154918101919091526009549293929091849161262891612e5a565b9050845b808210156126af576126438262ffffff8616612e6d565b61264d9086612f30565b945061265a846001613090565b62ffffff8116600090815260076020908152604091829020825160608101845281548152600182015492810192909252600201549181019190915290945092506126a48282612e5a565b83519250905061262c565b6126be8162ffffff8616612e6d565b6126c89086612f30565b600880547fffffffffffffffffffffffffffffffffffffffffffffffffffffffffff0000001662ffffff871617905560098054919650829160009061270e908490612f30565b90915550949695505050505050565b73ffffffffffffffffffffffffffffffffffffffff821660009081526003602052604081208054839290612752908490612e5a565b909155505060028054829003905560405181815260009073ffffffffffffffffffffffffffffffffffffffff8416907fddf252ad1be2c89b69c2b068fc378daa952ba7f163c4a11628f55a4df523b3ef906020015b60405180910390a35050565b60006040517fa9059cbb000000000000000000000000000000000000000000000000000000008152836004820152826024820152602060006044836000895af13d15601f3d116001600051141617169150508061286c576040517f08c379a000000000000000000000000000000000000000000000000000000000815260206004820152600f60248201527f5452414e534645525f4641494c454400000000000000000000000000000000006044820152606401611d4a565b50505050565b80600260008282546128849190612f30565b909155505073ffffffffffffffffffffffffffffffffffffffff82166000818152600360209081526040808320805486019055518481527fddf252ad1be2c89b69c2b068fc378daa952ba7f163c4a11628f55a4df523b3ef91016127a7565b60085460009062ffffff90811690831611156129015750600061066a565b825160085462ffffff80851691160361291957506009545b6000670de0b6b3a76400008560200151600c546129369190612e5a565b61294562ffffff871685612e6d565b61294f9190612e6d565b6129599190612e84565b95945050505050565b8151602083015160408301516000929183916ec097ce7bc90715b34b9f10000000009161298e91612e5a565b61294f9084612e6d565b600080821215612a2557826129ac83612ebf565b6129b69085612e5a565b91508110612a20576040517f08c379a000000000000000000000000000000000000000000000000000000000815260206004820152600260248201527f4c530000000000000000000000000000000000000000000000000000000000006044820152606401611d4a565b61066a565b82612a308382612f30565b915081101561066a576040517f08c379a000000000000000000000000000000000000000000000000000000000815260206004820152600260248201527f4c410000000000000000000000000000000000000000000000000000000000006044820152606401611d4a565b60005b83811015612ab6578181015183820152602001612a9e565b50506000910152565b6020815260008251806020840152612ade816040850160208701612a9b565b601f017fffffffffffffffffffffffffffffffffffffffffffffffffffffffffffffffe0169190910160400192915050565b73ffffffffffffffffffffffffffffffffffffffff81168114612b3257600080fd5b50565b60008060408385031215612b4857600080fd5b8235612b5381612b10565b946020939093013593505050565b803562ffffff81168114612b7457600080fd5b919050565b60008060408385031215612b8c57600080fd5b8235612b9781612b10565b9150612ba560208401612b61565b90509250929050565b600080600060608486031215612bc357600080fd5b8335612bce81612b10565b92506020840135612bde81612b10565b929592945050506040919091013590565b600060208284031215612c0157600080fd5b5035919050565b60008060408385031215612c1b57600080fd5b612b5383612b61565b600060208284031215612c3657600080fd5b8135612c4181612b10565b9392505050565b600060208284031215612c5a57600080fd5b612c4182612b61565b60008060408385031215612c7657600080fd5b82359150612ba560208401612b61565b60008060008060608587031215612c9c57600080fd5b8435612ca781612b10565b935060208501359250604085013567ffffffffffffffff80821115612ccb57600080fd5b818701915087601f830112612cdf57600080fd5b813581811115612cee57600080fd5b886020828501011115612d0057600080fd5b95989497505060200194505050565b600080600080600080600060e0888a031215612d2a57600080fd5b8735612d3581612b10565b96506020880135612d4581612b10565b95506040880135945060608801359350608088013560ff81168114612d6957600080fd5b9699959850939692959460a0840135945060c09093013592915050565b60008060408385031215612d9957600080fd5b8235612da481612b10565b91506020830135612db481612b10565b809150509250929050565b600181811c90821680612dd357607f821691505b602082108103612e0c577f4e487b7100000000000000000000000000000000000000000000000000000000600052602260045260246000fd5b50919050565b600060208284031215612e2457600080fd5b5051919050565b7f4e487b7100000000000000000000000000000000000000000000000000000000600052601160045260246000fd5b8181038181111561066a5761066a612e2b565b808202811582820484141761066a5761066a612e2b565b600082612eba577f4e487b7100000000000000000000000000000000000000000000000000000000600052601260045260246000fd5b500490565b60007f80000000000000000000000000000000000000000000000000000000000000008203612ef057612ef0612e2b565b5060000390565b600060208284031215612f0957600080fd5b8151612c4181612b10565b60008251612f26818460208701612a9b565b9190910192915050565b8082018082111561066a5761066a612e2b565b83815260406020820152816040820152818360608301376000818301606090810191909152601f9092017fffffffffffffffffffffffffffffffffffffffffffffffffffffffffffffffe016010192915050565b62ffffff828116828216039080821115612fb357612fb3612e2b565b5092915050565b600080835481600182811c915080831680612fd657607f831692505b6020808410820361300e577f4e487b710000000000000000000000000000000000000000000000000000000086526022600452602486fd5b818015613022576001811461305557613082565b7fffffffffffffffffffffffffffffffffffffffffffffffffffffffffffffff0086168952841515850289019650613082565b60008a81526020902060005b8681101561307a5781548b820152908501908301613061565b505084890196505b509498975050505050505050565b62ffffff818116838216019080821115612fb357612fb3612e2b56fea264697066735822122055e9423ff4340bf5b484909a775644ba50b8dc0ee006e1411146121a09f22aad64736f6c6343000811003361012060405260016002553480156200001757600080fd5b5060405162001448380380620014488339810160408190526200003a91620000e9565b3360a0526001600160a01b038116608081905260408051630890357360e41b815290516389035730916004808201926060929091908290030181865afa15801562000089573d6000803e3d6000fd5b505050506040513d601f19601f82011682018060405250810190620000af91906200010e565b610100526001600160a01b0390811660e0521660c052506200014f565b80516001600160a01b0381168114620000e457600080fd5b919050565b600060208284031215620000fc57600080fd5b6200010782620000cc565b9392505050565b6000806000606084860312156200012457600080fd5b6200012f84620000cc565b92506200013f60208501620000cc565b9150604084015190509250925092565b60805160a05160c05160e05161010051611275620001d3600039600081816101e6015261085701526000818161026b0152818161074d015281816109870152610c91015260008181610143015281816105e3015281816109560152610c660152600081816101ac015281816104b70152610b380152600061023301526112756000f3fe608060405234801561001057600080fd5b50600436106100f55760003560e01c8063b09ad8a011610097578063e012586011610066578063e012586014610255578063edaafe201461025d578063ee1f21d814610266578063f5298aca1461028d57600080fd5b8063b09ad8a0146101e1578063b691d78c14610208578063bb9a59081461021b578063c45a01551461022e57600080fd5b80635001f3b5116100d35780635001f3b51461013e5780637bb98a681461018a578063a39bfd13146101a7578063a989360c146101ce57600080fd5b806308dc9f42146100fa57806318160ddd1461012057806322cf198914610129575b600080fd5b61010d610108366004610e6e565b6102a0565b6040519081526020015b60405180910390f35b61010d60005481565b61013c610137366004610ec1565b61049f565b005b6101657f000000000000000000000000000000000000000000000000000000000000000081565b60405173ffffffffffffffffffffffffffffffffffffffff9091168152602001610117565b610192610528565b60408051928352602083019190915201610117565b6101657f000000000000000000000000000000000000000000000000000000000000000081565b61010d6101dc366004610eda565b610838565b61010d7f000000000000000000000000000000000000000000000000000000000000000081565b610192610216366004610f25565b6108a8565b61013c610229366004610ec1565b610b20565b6101657f000000000000000000000000000000000000000000000000000000000000000081565b61010d610ba1565b61010d60015481565b6101657f000000000000000000000000000000000000000000000000000000000000000081565b61010d61029b366004610f8d565b610bc7565b60006002546001146102de576040517f29f745a700000000000000000000000000000000000000000000000000000000815260040160405180910390fd5b600280556000806102ed610528565b915091506102fb8787610838565b925082600003610337576040517fd5ab59fe00000000000000000000000000000000000000000000000000000000815260040160405180910390fd5b61034083610d1e565b6040517f916b762c000000000000000000000000000000000000000000000000000000008152339063916b762c90610382908a908a908a908a90600401610fc0565b600060405180830381600087803b15801561039c57600080fd5b505af11580156103b0573d6000803e3d6000fd5b505050506000806103bf610528565b9092509050886103cf858461104a565b1015610407576040517fee30a99300000000000000000000000000000000000000000000000000000000815260040160405180910390fd5b87610412848361104a565b101561044a576040517fee30a99300000000000000000000000000000000000000000000000000000000815260040160405180910390fd5b604080518a8152602081018a905290810186905233907fb4c03061fb5b7fed76389d5af8f2e0ddb09f8c70d1333abbb62582835e10accb9060600160405180910390a250506001600255509095945050505050565b3373ffffffffffffffffffffffffffffffffffffffff7f0000000000000000000000000000000000000000000000000000000000000000161461050e576040517fb3491a6e00000000000000000000000000000000000000000000000000000000815260040160405180910390fd5b80600160008282546105209190611063565b909155505050565b604080518082018252601281527f62616c616e63654f662861646472657373290000000000000000000000000000602091820152815130602480830191909152835180830390910181526044909101835290810180517bffffffffffffffffffffffffffffffffffffffffffffffffffffffff167f70a082310000000000000000000000000000000000000000000000000000000017905290516000918291829160609173ffffffffffffffffffffffffffffffffffffffff7f0000000000000000000000000000000000000000000000000000000000000000169161060d91611076565b600060405180830381855afa9150503d8060008114610648576040519150601f19603f3d011682016040523d82523d6000602084013e61064d565b606091505b509092509050811580610661575060208151105b15610698576040517f7613bc8900000000000000000000000000000000000000000000000000000000815260040160405180910390fd5b6000818060200190518101906106ae91906110a5565b604080518082018252601281527f62616c616e63654f662861646472657373290000000000000000000000000000602091820152815130602480830191909152835180830390910181526044909101835290810180517bffffffffffffffffffffffffffffffffffffffffffffffffffffffff167f70a082310000000000000000000000000000000000000000000000000000000017905290519192507f000000000000000000000000000000000000000000000000000000000000000073ffffffffffffffffffffffffffffffffffffffff169161078d9190611076565b600060405180830381855afa9150503d80600081146107c8576040519150601f19603f3d011682016040523d82523d6000602084013e6107cd565b606091505b5090935091508215806107e1575060208251105b15610818576040517f7613bc8900000000000000000000000000000000000000000000000000000000815260040160405180910390fd5b808280602001905181019061082d91906110a5565b945094505050509091565b600060046108476002846111de565b61085191906111ed565b61087b837f0000000000000000000000000000000000000000000000000000000000000000611228565b61088d85670de0b6b3a7640000611228565b6108979190611063565b6108a1919061104a565b9392505050565b6000806002546001146108e7576040517f29f745a700000000000000000000000000000000000000000000000000000000815260040160405180910390fd5b60028055851580156108f7575084155b1561092e576040517fd5ab59fe00000000000000000000000000000000000000000000000000000000815260040160405180910390fd5b600080610939610528565b9150915060006109498383610838565b9050881561097c5761097c7f00000000000000000000000000000000000000000000000000000000000000008b8b610d3f565b87156109ad576109ad7f00000000000000000000000000000000000000000000000000000000000000008b8a610d3f565b6040517f2783e3610000000000000000000000000000000000000000000000000000000081523390632783e361906109ef908c908c908c908c90600401610fc0565b600060405180830381600087803b158015610a0957600080fd5b505af1158015610a1d573d6000803e3d6000fd5b50505050600080610a2c610528565b909250905084610a3c8c84611063565b610a46919061104a565b965083610a538b83611063565b610a5d919061104a565b95506000610a6b8383610838565b905080841115610aa7576040517fee30a99300000000000000000000000000000000000000000000000000000000815260040160405180910390fd5b505060408051878152602081018790529081018b9052606081018a905273ffffffffffffffffffffffffffffffffffffffff8c16915033907fd78ad95fa46c994b6551d0da85fc275fe613ce37657fb8d5e3d130840159d8229060800160405180910390a3505060016002555090969095509350505050565b3373ffffffffffffffffffffffffffffffffffffffff7f00000000000000000000000000000000000000000000000000000000000000001614610b8f576040517fb3491a6e00000000000000000000000000000000000000000000000000000000815260040160405180910390fd5b8060016000828254610520919061104a565b60008054808203610bb457600091505090565b600154610bc1908261104a565b91505090565b6000600254600114610c05576040517f29f745a700000000000000000000000000000000000000000000000000000000815260040160405180910390fd5b6002805582158015610c15575081155b15610c4c576040517fd5ab59fe00000000000000000000000000000000000000000000000000000000815260040160405180910390fd5b610c568383610838565b9050610c6181610e02565b610c8c7f00000000000000000000000000000000000000000000000000000000000000008585610d3f565b610cb77f00000000000000000000000000000000000000000000000000000000000000008584610d3f565b604080518481526020810184905290810182905273ffffffffffffffffffffffffffffffffffffffff85169033907fd175a80c109434bb89948928ab2475a6647c94244cb70002197896423c8833639060600160405180910390a360016002559392505050565b80600080828254610d2f9190611063565b9091555050600180549091019055565b60006040517fa9059cbb000000000000000000000000000000000000000000000000000000008152836004820152826024820152602060006044836000895af13d15601f3d1160016000511416171691505080610dfc576040517f08c379a000000000000000000000000000000000000000000000000000000000815260206004820152600f60248201527f5452414e534645525f4641494c45440000000000000000000000000000000000604482015260640160405180910390fd5b50505050565b8060016000828254610e14919061104a565b909155505060008054919091039055565b60008083601f840112610e3757600080fd5b50813567ffffffffffffffff811115610e4f57600080fd5b602083019150836020828501011115610e6757600080fd5b9250929050565b60008060008060608587031215610e8457600080fd5b8435935060208501359250604085013567ffffffffffffffff811115610ea957600080fd5b610eb587828801610e25565b95989497509550505050565b600060208284031215610ed357600080fd5b5035919050565b60008060408385031215610eed57600080fd5b50508035926020909101359150565b803573ffffffffffffffffffffffffffffffffffffffff81168114610f2057600080fd5b919050565b600080600080600060808688031215610f3d57600080fd5b610f4686610efc565b94506020860135935060408601359250606086013567ffffffffffffffff811115610f7057600080fd5b610f7c88828901610e25565b969995985093965092949392505050565b600080600060608486031215610fa257600080fd5b610fab84610efc565b95602085013595506040909401359392505050565b84815283602082015260606040820152816060820152818360808301376000818301608090810191909152601f9092017fffffffffffffffffffffffffffffffffffffffffffffffffffffffffffffffe01601019392505050565b7f4e487b7100000000000000000000000000000000000000000000000000000000600052601160045260246000fd5b8181038181111561105d5761105d61101b565b92915050565b8082018082111561105d5761105d61101b565b6000825160005b81811015611097576020818601810151858301520161107d565b506000920191825250919050565b6000602082840312156110b757600080fd5b5051919050565b600181815b8085111561111757817fffffffffffffffffffffffffffffffffffffffffffffffffffffffffffffffff048211156110fd576110fd61101b565b8085161561110a57918102915b93841c93908002906110c3565b509250929050565b60008261112e5750600161105d565b8161113b5750600061105d565b8160018114611151576002811461115b57611177565b600191505061105d565b60ff84111561116c5761116c61101b565b50506001821b61105d565b5060208310610133831016604e8410600b841016171561119a575081810a61105d565b6111a483836110be565b807fffffffffffffffffffffffffffffffffffffffffffffffffffffffffffffffff048211156111d6576111d661101b565b029392505050565b60006108a160ff84168361111f565b600082611223577f4e487b7100000000000000000000000000000000000000000000000000000000600052601260045260246000fd5b500490565b808202811582820484141761105d5761105d61101b56fea26469706673582212200c2cfc6a1cbf2957ad8d0659117adc788c42e2fba9ea9a5a8bbcc5dd5e5727db64736f6c63430008110033a26469706673582212201173047a21415ebb60918c0f003b60dff9ad4028a4ae61782c9ed1c6f59d02e964736f6c63430008110033",
    "linkReferences": {}
  },
  "methodIdentifiers": {
    "PairMintCallback(uint256,uint256,bytes)": "916b762c",
    "collect((uint256,address,uint256))": "7cbf88aa",
    "decreaseLiquidity((uint256,uint256,uint256,uint256,address,uint256))": "8b874f76",
    "factory()": "c45a0155",
    "getPosition(uint256)": "eb02c301",
    "increaseLiquidity((uint256,uint256,uint256,uint256,uint256))": "dbd19848",
    "mint((address,address,uint256,uint24,uint256,uint256,uint256,address,uint256))": "e384fe1f"
  },
  "id": 21
}