{
  "abi": [
    {
      "inputs": [
        {
          "internalType": "address",
          "name": "_factory",
          "type": "address"
        }
      ],
      "stateMutability": "nonpayable",
      "type": "constructor"
    },
    {
      "inputs": [
        {
          "internalType": "uint256",
          "name": "amountLP",
          "type": "uint256"
        },
        {
          "internalType": "bytes",
          "name": "data",
          "type": "bytes"
        }
      ],
      "name": "LPCallback",
      "outputs": [],
      "stateMutability": "nonpayable",
      "type": "function"
    },
    {
      "inputs": [
        {
          "internalType": "uint256",
          "name": "amount0",
          "type": "uint256"
        },
        {
          "internalType": "uint256",
          "name": "amount1",
          "type": "uint256"
        },
        {
          "internalType": "bytes",
          "name": "data",
          "type": "bytes"
        }
      ],
      "name": "PairMintCallback",
      "outputs": [],
      "stateMutability": "nonpayable",
      "type": "function"
    },
    {
      "inputs": [
        {
          "internalType": "uint256",
          "name": "amountSpec",
          "type": "uint256"
        },
        {
          "internalType": "uint256",
          "name": "amountBase",
          "type": "uint256"
        },
        {
          "internalType": "address",
          "name": "speculative",
          "type": "address"
        },
        {
          "internalType": "address",
          "name": "base",
          "type": "address"
        },
        {
          "internalType": "uint256",
          "name": "upperBound",
          "type": "uint256"
        }
      ],
      "name": "mintMaker",
      "outputs": [],
      "stateMutability": "nonpayable",
      "type": "function"
    }
  ],
  "bytecode": {
    "object": "0x60a060405234801561001057600080fd5b50604051610aba380380610aba83398101604081905261002f91610040565b6001600160a01b0316608052610070565b60006020828403121561005257600080fd5b81516001600160a01b038116811461006957600080fd5b9392505050565b608051610a2f61008b60003960006101c00152610a2f6000f3fe608060405234801561001057600080fd5b50600436106100415760003560e01c8063071ebbea14610046578063916b762c1461005b578063a3d47e8c1461006e575b600080fd5b6100596100543660046106ac565b610081565b005b6100596100693660046106f8565b610121565b61005961007c366004610770565b610169565b600061008f82840184610812565b905060003373ffffffffffffffffffffffffffffffffffffffff1663a8aa1b316040518163ffffffff1660e01b8152600401602060405180830381865afa1580156100de573d6000803e3d6000fd5b505050506040513d601f19601f8201168201806040525081019061010291906108d5565b9050841561011a5761011a81836020015133886104a7565b5050505050565b600061012f82840184610812565b9050841561014b57805151602082015161014b919033886104a7565b831561011a5761011a816000015160200151826020015133876104a7565b6040517f623bb0f400000000000000000000000000000000000000000000000000000000815273ffffffffffffffffffffffffffffffffffffffff84811660048301528381166024830152604482018390526000917f00000000000000000000000000000000000000000000000000000000000000009091169063623bb0f490606401602060405180830381865afa158015610209573d6000803e3d6000fd5b505050506040513d601f19601f8201168201806040525081019061022d91906108d5565b905060008173ffffffffffffffffffffffffffffffffffffffff1663a8aa1b316040518163ffffffff1660e01b8152600401602060405180830381865afa15801561027c573d6000803e3d6000fd5b505050506040513d601f19601f820116820180604052508101906102a091906108d5565b6040805160608082018352600080835260208084018290529284018190528351808301855273ffffffffffffffffffffffffffffffffffffffff8b811682528a81168286019081528287018b815287518089018952848152339088019081528851855185169881019890985291518316878901525194860194909452925183166080808601919091528551808603909101815260a08501958690527f5ca5933a000000000000000000000000000000000000000000000000000000009095529495509290851691635ca5933a91610380918d918d9130919060a40161095d565b6020604051808303816000875af115801561039f573d6000803e3d6000fd5b505050506040513d601f19601f820116820180604052508101906103c391906109a2565b6040805180820182528481523060209182019081528251865173ffffffffffffffffffffffffffffffffffffffff9081168285015292870151831681850152868401516060820152905182166080808301919091528351808303909101815260a08201938490527fec48f0fb0000000000000000000000000000000000000000000000000000000090935292935086169163ec48f0fb9161046a913391869160a4016109bb565b600060405180830381600087803b15801561048457600080fd5b505af1158015610498573d6000803e3d6000fd5b50505050505050505050505050565b3073ffffffffffffffffffffffffffffffffffffffff8416036104d4576104cf8483836104e6565b6104e0565b6104e0848484846105a4565b50505050565b60006040517fa9059cbb000000000000000000000000000000000000000000000000000000008152836004820152826024820152602060006044836000895af13d15601f3d11600160005114161716915050806104e0576040517f08c379a000000000000000000000000000000000000000000000000000000000815260206004820152600f60248201527f5452414e534645525f4641494c4544000000000000000000000000000000000060448201526064015b60405180910390fd5b60006040517f23b872dd0000000000000000000000000000000000000000000000000000000081528460048201528360248201528260448201526020600060648360008a5af13d15601f3d116001600051141617169150508061011a576040517f08c379a000000000000000000000000000000000000000000000000000000000815260206004820152601460248201527f5452414e534645525f46524f4d5f4641494c4544000000000000000000000000604482015260640161059b565b60008083601f84011261067557600080fd5b50813567ffffffffffffffff81111561068d57600080fd5b6020830191508360208285010111156106a557600080fd5b9250929050565b6000806000604084860312156106c157600080fd5b83359250602084013567ffffffffffffffff8111156106df57600080fd5b6106eb86828701610663565b9497909650939450505050565b6000806000806060858703121561070e57600080fd5b8435935060208501359250604085013567ffffffffffffffff81111561073357600080fd5b61073f87828801610663565b95989497509550505050565b73ffffffffffffffffffffffffffffffffffffffff8116811461076d57600080fd5b50565b600080600080600060a0868803121561078857600080fd5b853594506020860135935060408601356107a18161074b565b925060608601356107b18161074b565b949793965091946080013592915050565b6040516060810167ffffffffffffffff8111828210171561080c577f4e487b7100000000000000000000000000000000000000000000000000000000600052604160045260246000fd5b60405290565b6000818303608081121561082557600080fd5b6040516040810181811067ffffffffffffffff8211171561086f577f4e487b7100000000000000000000000000000000000000000000000000000000600052604160045260246000fd5b604052606082121561088057600080fd5b6108886107c2565b915083356108958161074b565b825260208401356108a58161074b565b6020830152604084810135908301529081526060830135906108c68261074b565b60208101919091529392505050565b6000602082840312156108e757600080fd5b81516108f28161074b565b9392505050565b6000815180845260005b8181101561091f57602081850181015186830182015201610903565b5060006020828601015260207fffffffffffffffffffffffffffffffffffffffffffffffffffffffffffffffe0601f83011685010191505092915050565b84815283602082015273ffffffffffffffffffffffffffffffffffffffff8316604082015260806060820152600061099860808301846108f9565b9695505050505050565b6000602082840312156109b457600080fd5b5051919050565b73ffffffffffffffffffffffffffffffffffffffff841681528260208201526060604082015260006109f060608301846108f9565b9594505050505056fea26469706673582212206633014967cb295b107cbff2e51b9efd852e86084239fc298104d99ab3599f1364736f6c63430008100033",
    "linkReferences": {}
  },
  "methodIdentifiers": {
    "LPCallback(uint256,bytes)": "071ebbea",
    "PairMintCallback(uint256,uint256,bytes)": "916b762c",
    "mintMaker(uint256,uint256,address,address,uint256)": "a3d47e8c"
  },
  "id": 27
}