{
  "abi": [
    {
      "inputs": [],
      "stateMutability": "nonpayable",
      "type": "constructor"
    },
    {
      "inputs": [],
      "name": "BalanceReturnError",
      "type": "error"
    },
    {
      "inputs": [],
      "name": "BufferError",
      "type": "error"
    },
    {
      "inputs": [],
      "name": "FailedTransfer",
      "type": "error"
    },
    {
      "inputs": [],
      "name": "InsufficientInputError",
      "type": "error"
    },
    {
      "inputs": [],
      "name": "InsufficientOutputError",
      "type": "error"
    },
    {
      "inputs": [],
      "name": "InvariantError",
      "type": "error"
    },
    {
      "inputs": [],
      "name": "LendgineError",
      "type": "error"
    },
    {
      "inputs": [
        {
          "internalType": "uint256",
          "name": "prod1",
          "type": "uint256"
        }
      ],
      "name": "PRBMath__MulDivFixedPointOverflow",
      "type": "error"
    },
    {
      "inputs": [
        {
          "internalType": "uint256",
          "name": "prod1",
          "type": "uint256"
        },
        {
          "internalType": "uint256",
          "name": "denominator",
          "type": "uint256"
        }
      ],
      "name": "PRBMath__MulDivOverflow",
      "type": "error"
    },
    {
      "inputs": [],
      "name": "ReentrancyError",
      "type": "error"
    },
    {
      "inputs": [],
      "name": "SpeculativeInvariantError",
      "type": "error"
    },
    {
      "anonymous": false,
      "inputs": [
        {
          "indexed": true,
          "internalType": "address",
          "name": "sender",
          "type": "address"
        },
        {
          "indexed": false,
          "internalType": "uint256",
          "name": "amount0",
          "type": "uint256"
        },
        {
          "indexed": false,
          "internalType": "uint256",
          "name": "amount1",
          "type": "uint256"
        },
        {
          "indexed": false,
          "internalType": "uint256",
          "name": "liquidity",
          "type": "uint256"
        },
        {
          "indexed": true,
          "internalType": "address",
          "name": "to",
          "type": "address"
        }
      ],
      "name": "Burn",
      "type": "event"
    },
    {
      "anonymous": false,
      "inputs": [
        {
          "indexed": true,
          "internalType": "address",
          "name": "sender",
          "type": "address"
        },
        {
          "indexed": false,
          "internalType": "uint256",
          "name": "liquidity",
          "type": "uint256"
        }
      ],
      "name": "Mint",
      "type": "event"
    },
    {
      "anonymous": false,
      "inputs": [
        {
          "indexed": true,
          "internalType": "address",
          "name": "sender",
          "type": "address"
        },
        {
          "indexed": false,
          "internalType": "uint256",
          "name": "amount0Out",
          "type": "uint256"
        },
        {
          "indexed": false,
          "internalType": "uint256",
          "name": "amount1Out",
          "type": "uint256"
        },
        {
          "indexed": true,
          "internalType": "address",
          "name": "to",
          "type": "address"
        }
      ],
      "name": "Swap",
      "type": "event"
    },
    {
      "inputs": [
        {
          "internalType": "uint256",
          "name": "amount",
          "type": "uint256"
        }
      ],
      "name": "addBuffer",
      "outputs": [],
      "stateMutability": "nonpayable",
      "type": "function"
    },
    {
      "inputs": [],
      "name": "balances",
      "outputs": [
        {
          "internalType": "uint256",
          "name": "",
          "type": "uint256"
        },
        {
          "internalType": "uint256",
          "name": "",
          "type": "uint256"
        }
      ],
      "stateMutability": "view",
      "type": "function"
    },
    {
      "inputs": [],
      "name": "base",
      "outputs": [
        {
          "internalType": "address",
          "name": "",
          "type": "address"
        }
      ],
      "stateMutability": "view",
      "type": "function"
    },
    {
      "inputs": [],
      "name": "baseScaleFactor",
      "outputs": [
        {
          "internalType": "uint256",
          "name": "",
          "type": "uint256"
        }
      ],
      "stateMutability": "view",
      "type": "function"
    },
    {
      "inputs": [],
      "name": "buffer",
      "outputs": [
        {
          "internalType": "uint256",
          "name": "",
          "type": "uint256"
        }
      ],
      "stateMutability": "view",
      "type": "function"
    },
    {
      "inputs": [
        {
          "internalType": "address",
          "name": "to",
          "type": "address"
        },
        {
          "internalType": "uint256",
          "name": "liquidity",
          "type": "uint256"
        }
      ],
      "name": "burn",
      "outputs": [
        {
          "internalType": "uint256",
          "name": "",
          "type": "uint256"
        },
        {
          "internalType": "uint256",
          "name": "",
          "type": "uint256"
        }
      ],
      "stateMutability": "nonpayable",
      "type": "function"
    },
    {
      "inputs": [],
      "name": "factory",
      "outputs": [
        {
          "internalType": "address",
          "name": "",
          "type": "address"
        }
      ],
      "stateMutability": "view",
      "type": "function"
    },
    {
      "inputs": [],
      "name": "lendgine",
      "outputs": [
        {
          "internalType": "address",
          "name": "",
          "type": "address"
        }
      ],
      "stateMutability": "view",
      "type": "function"
    },
    {
      "inputs": [
        {
          "internalType": "uint256",
          "name": "liquidity",
          "type": "uint256"
        }
      ],
      "name": "mint",
      "outputs": [],
      "stateMutability": "nonpayable",
      "type": "function"
    },
    {
      "inputs": [
        {
          "internalType": "uint256",
          "name": "amount",
          "type": "uint256"
        }
      ],
      "name": "removeBuffer",
      "outputs": [],
      "stateMutability": "nonpayable",
      "type": "function"
    },
    {
      "inputs": [],
      "name": "speculative",
      "outputs": [
        {
          "internalType": "address",
          "name": "",
          "type": "address"
        }
      ],
      "stateMutability": "view",
      "type": "function"
    },
    {
      "inputs": [],
      "name": "speculativeScaleFactor",
      "outputs": [
        {
          "internalType": "uint256",
          "name": "",
          "type": "uint256"
        }
      ],
      "stateMutability": "view",
      "type": "function"
    },
    {
      "inputs": [
        {
          "internalType": "address",
          "name": "to",
          "type": "address"
        },
        {
          "internalType": "uint256",
          "name": "amount0Out",
          "type": "uint256"
        },
        {
          "internalType": "uint256",
          "name": "amount1Out",
          "type": "uint256"
        }
      ],
      "name": "swap",
      "outputs": [],
      "stateMutability": "nonpayable",
      "type": "function"
    },
    {
      "inputs": [],
      "name": "totalSupply",
      "outputs": [
        {
          "internalType": "uint256",
          "name": "",
          "type": "uint256"
        }
      ],
      "stateMutability": "view",
      "type": "function"
    },
    {
      "inputs": [],
      "name": "upperBound",
      "outputs": [
        {
          "internalType": "uint256",
          "name": "",
          "type": "uint256"
        }
      ],
      "stateMutability": "view",
      "type": "function"
    },
    {
      "inputs": [
        {
          "internalType": "uint256",
          "name": "r0",
          "type": "uint256"
        },
        {
          "internalType": "uint256",
          "name": "r1",
          "type": "uint256"
        },
        {
          "internalType": "uint256",
          "name": "shares",
          "type": "uint256"
        }
      ],
      "name": "verifyInvariant",
      "outputs": [
        {
          "internalType": "bool",
          "name": "valid",
          "type": "bool"
        }
      ],
      "stateMutability": "view",
      "type": "function"
    }
  ],
  "bytecode": {
    "object": "0x6101606040526002805460ff191660011790553480156200001f57600080fd5b50336001600160a01b03166080816001600160a01b031681525050600080336001600160a01b0316636d9877ab6040518163ffffffff1660e01b815260040160c060405180830381865afa1580156200007c573d6000803e3d6000fd5b505050506040513d601f19601f82011682018060405250810190620000a2919062000150565b610100526001600160a01b0392831660e05292821660c052921660a05290925090506012821180620000d45750600682105b15620000f357604051636819ba0560e01b815260040160405180910390fd5b6012811180620001035750600681105b156200012257604051636819ba0560e01b815260040160405180910390fd5b6101209190915261014052620001b6565b80516001600160a01b03811681146200014b57600080fd5b919050565b60008060008060008060c087890312156200016a57600080fd5b620001758762000133565b9550620001856020880162000133565b9450620001956040880162000133565b9350606087015192506080870151915060a087015190509295509295509295565b60805160a05160c05160e0516101005161012051610140516114ba6200026c600039600081816101cb015261073801526000818161013b01526106f701526000818161027501528181610769015281816107b101526107de0152600081816102df015281816105f7015281816109b40152610b1a0152600081816101620152818161048d015281816109890152610ae901526000818161024e015281816103190152610d3f015260006102af01526114ba6000f3fe608060405234801561001057600080fd5b50600436106101005760003560e01c80639f1d0f5911610097578063bb9a590811610066578063bb9a590814610297578063c45a0155146102aa578063edaafe20146102d1578063ee1f21d8146102da57600080fd5b80639f1d0f5914610223578063a0712d6814610236578063a39bfd1314610249578063b09ad8a01461027057600080fd5b80637bb98a68116100d35780637bb98a68146101a957806387557ff7146101c65780639a4d5e21146101ed5780639dc29fac1461021057600080fd5b806318160ddd1461010557806322cf1989146101215780632faf67d6146101365780635001f3b51461015d575b600080fd5b61010e60005481565b6040519081526020015b60405180910390f35b61013461012f36600461116f565b610301565b005b61010e7f000000000000000000000000000000000000000000000000000000000000000081565b6101847f000000000000000000000000000000000000000000000000000000000000000081565b60405173ffffffffffffffffffffffffffffffffffffffff9091168152602001610118565b6101b16103d2565b60408051928352602083019190915201610118565b61010e7f000000000000000000000000000000000000000000000000000000000000000081565b6102006101fb366004611188565b6106e2565b6040519015158152602001610118565b6101b161021e3660046111dd565b610862565b610134610231366004611207565b610a50565b61013461024436600461116f565b610bf9565b6101847f000000000000000000000000000000000000000000000000000000000000000081565b61010e7f000000000000000000000000000000000000000000000000000000000000000081565b6101346102a536600461116f565b610d27565b6101847f000000000000000000000000000000000000000000000000000000000000000081565b61010e60015481565b6101847f000000000000000000000000000000000000000000000000000000000000000081565b3373ffffffffffffffffffffffffffffffffffffffff7f00000000000000000000000000000000000000000000000000000000000000001614610370576040517fb3491a6e00000000000000000000000000000000000000000000000000000000815260040160405180910390fd5b6000546001546103809083611269565b11156103b8576040517feecc2bbd00000000000000000000000000000000000000000000000000000000815260040160405180910390fd5b80600160008282546103ca9190611269565b909155505050565b604080518082018252601281527f62616c616e63654f662861646472657373290000000000000000000000000000602091820152815130602480830191909152835180830390910181526044909101835290810180517bffffffffffffffffffffffffffffffffffffffffffffffffffffffff167f70a082310000000000000000000000000000000000000000000000000000000017905290516000918291829160609173ffffffffffffffffffffffffffffffffffffffff7f000000000000000000000000000000000000000000000000000000000000000016916104b79161127c565b600060405180830381855afa9150503d80600081146104f2576040519150601f19603f3d011682016040523d82523d6000602084013e6104f7565b606091505b50909250905081158061050b575060208151105b15610542576040517f7613bc8900000000000000000000000000000000000000000000000000000000815260040160405180910390fd5b60008180602001905181019061055891906112ab565b604080518082018252601281527f62616c616e63654f662861646472657373290000000000000000000000000000602091820152815130602480830191909152835180830390910181526044909101835290810180517bffffffffffffffffffffffffffffffffffffffffffffffffffffffff167f70a082310000000000000000000000000000000000000000000000000000000017905290519192507f000000000000000000000000000000000000000000000000000000000000000073ffffffffffffffffffffffffffffffffffffffff1691610637919061127c565b600060405180830381855afa9150503d8060008114610672576040519150601f19603f3d011682016040523d82523d6000602084013e610677565b606091505b50909350915082158061068b575060208251105b156106c2576040517f7613bc8900000000000000000000000000000000000000000000000000000000815260040160405180910390fd5b80828060200190518101906106d791906112ab565b945094505050509091565b6000806107226106f28685610da8565b61071d7f0000000000000000000000000000000000000000000000000000000000000000600a6113e4565b610da8565b9050600061075e6107338686610da8565b61071d7f0000000000000000000000000000000000000000000000000000000000000000600a6113e4565b905081600061078d837f0000000000000000000000000000000000000000000000000000000000000000610dbd565b90506000600461079e856002610dc9565b6107a8919061141f565b905060006107d77f00000000000000000000000000000000000000000000000000000000000000006002610dc9565b90506108047f0000000000000000000000000000000000000000000000000000000000000000600261145a565b85111561083d576040517ff80926d800000000000000000000000000000000000000000000000000000000815260040160405180910390fd5b6108478183611269565b6108518486611269565b1496505050505050505b9392505050565b600254600090819060ff166001146108a6576040517f29f745a700000000000000000000000000000000000000000000000000000000815260040160405180910390fd5b6002805460ff1916811790556000806108bd6103d2565b60005491935091506108d08383836106e2565b610906576040517f6819ba0500000000000000000000000000000000000000000000000000000000815260040160405180910390fd5b600081610913888661145a565b61091d919061141f565b905060008261092c898661145a565b610936919061141f565b905081158015610944575080155b1561097b576040517fd5ab59fe00000000000000000000000000000000000000000000000000000000815260040160405180910390fd5b61098488610e29565b6109af7f00000000000000000000000000000000000000000000000000000000000000008a84610e4c565b6109da7f00000000000000000000000000000000000000000000000000000000000000008a83610e4c565b604080518381526020810183905290810189905273ffffffffffffffffffffffffffffffffffffffff8a169033907fd175a80c109434bb89948928ab2475a6647c94244cb70002197896423c8833639060600160405180910390a36002805460ff19166001179055909890975095505050505050565b60025460ff16600114610a8f576040517f29f745a700000000000000000000000000000000000000000000000000000000815260040160405180910390fd5b6002805460ff19168117905581158015610aa7575080155b15610ade576040517fd5ab59fe00000000000000000000000000000000000000000000000000000000815260040160405180910390fd5b8115610b0f57610b0f7f00000000000000000000000000000000000000000000000000000000000000008484610e4c565b8015610b4057610b407f00000000000000000000000000000000000000000000000000000000000000008483610e4c565b600080610b4b6103d2565b91509150610b5c82826000546106e2565b610b92576040517f6819ba0500000000000000000000000000000000000000000000000000000000815260040160405180910390fd5b604080518581526020810185905273ffffffffffffffffffffffffffffffffffffffff87169133917f2a9237ff5aa599ef4c5ee4b1142b53429d5755e2685fe6288b2e3320202115f5910160405180910390a350506002805460ff19166001179055505050565b60025460ff16600114610c38576040517f29f745a700000000000000000000000000000000000000000000000000000000815260040160405180910390fd5b6002805460ff1916811790556000819003610c7f576040517fd5ab59fe00000000000000000000000000000000000000000000000000000000815260040160405180910390fd5b600080610c8a6103d2565b91509150610ca18282600054866101fb9190611269565b610cd7576040517f6819ba0500000000000000000000000000000000000000000000000000000000815260040160405180910390fd5b610ce083610ee9565b60405183815233907f0f6798a560793a54c3bcfe86a93cde1e73087d944c0ea20544137d41213968859060200160405180910390a250506002805460ff1916600117905550565b3373ffffffffffffffffffffffffffffffffffffffff7f00000000000000000000000000000000000000000000000000000000000000001614610d96576040517fb3491a6e00000000000000000000000000000000000000000000000000000000815260040160405180910390fd5b80600160008282546103ca9190611471565b600061085b83670de0b6b3a764000084610f0a565b600061085b8383611013565b6000808260011611610de357670de0b6b3a7640000610de5565b825b9050600182901c91505b8115610e2357610dff8384611013565b92506001821615610e1757610e148184611013565b90505b600182901c9150610def565b92915050565b8060016000828254610e3b9190611471565b909155505060008054919091039055565b60006040517fa9059cbb00000000000000000000000000000000000000000000000000000000815273ffffffffffffffffffffffffffffffffffffffff841660048201528260248201526000806044836000895af1915050610ead8161112a565b610ee3576040517fbfa871c500000000000000000000000000000000000000000000000000000000815260040160405180910390fd5b50505050565b80600080828254610efa9190611269565b9091555050600180549091019055565b600080807fffffffffffffffffffffffffffffffffffffffffffffffffffffffffffffffff85870985870292508281108382030391505080600003610f6257838281610f5857610f586113f0565b049250505061085b565b838110610faa576040517f773cc18c00000000000000000000000000000000000000000000000000000000815260048101829052602481018590526044015b60405180910390fd5b60008486880960026001871981018816978890046003810283188082028403028082028403028082028403028082028403028082028403029081029092039091026000889003889004909101858311909403939093029303949094049190911702949350505050565b600080807fffffffffffffffffffffffffffffffffffffffffffffffffffffffffffffffff848609848602925082811083820303915050670de0b6b3a7640000811061108e576040517fd31b340200000000000000000000000000000000000000000000000000000000815260048101829052602401610fa1565b600080670de0b6b3a764000086880991506706f05b59d3b1ffff82119050826000036110cc5780670de0b6b3a7640000850401945050505050610e23565b6204000082850304939091119091037d40000000000000000000000000000000000000000000000000000000000002919091177faccb18165bd6fe31ae1cf318dc5b51eee0e1ba569b88cd74c1773b91fac106690201905092915050565b60008161113b573d6000803e3d6000fd5b3d602081146111535780156111645760009150611169565b3d6000803e60005115159150611169565b600191505b50919050565b60006020828403121561118157600080fd5b5035919050565b60008060006060848603121561119d57600080fd5b505081359360208301359350604090920135919050565b803573ffffffffffffffffffffffffffffffffffffffff811681146111d857600080fd5b919050565b600080604083850312156111f057600080fd5b6111f9836111b4565b946020939093013593505050565b60008060006060848603121561121c57600080fd5b611225846111b4565b95602085013595506040909401359392505050565b7f4e487b7100000000000000000000000000000000000000000000000000000000600052601160045260246000fd5b80820180821115610e2357610e2361123a565b6000825160005b8181101561129d5760208186018101518583015201611283565b506000920191825250919050565b6000602082840312156112bd57600080fd5b5051919050565b600181815b8085111561131d57817fffffffffffffffffffffffffffffffffffffffffffffffffffffffffffffffff048211156113035761130361123a565b8085161561131057918102915b93841c93908002906112c9565b509250929050565b60008261133457506001610e23565b8161134157506000610e23565b816001811461135757600281146113615761137d565b6001915050610e23565b60ff8411156113725761137261123a565b50506001821b610e23565b5060208310610133831016604e8410600b84101617156113a0575081810a610e23565b6113aa83836112c4565b807fffffffffffffffffffffffffffffffffffffffffffffffffffffffffffffffff048211156113dc576113dc61123a565b029392505050565b600061085b8383611325565b7f4e487b7100000000000000000000000000000000000000000000000000000000600052601260045260246000fd5b600082611455577f4e487b7100000000000000000000000000000000000000000000000000000000600052601260045260246000fd5b500490565b8082028115828204841417610e2357610e2361123a565b81810381811115610e2357610e2361123a56fea264697066735822122088a53a2d8cbf64cb89d0f345efbf89024665c6b0e2fac111d6181973515098c364736f6c63430008110033",
    "linkReferences": {}
  },
  "methodIdentifiers": {
    "addBuffer(uint256)": "22cf1989",
    "balances()": "7bb98a68",
    "base()": "5001f3b5",
    "baseScaleFactor()": "2faf67d6",
    "buffer()": "edaafe20",
    "burn(address,uint256)": "9dc29fac",
    "factory()": "c45a0155",
    "lendgine()": "a39bfd13",
    "mint(uint256)": "a0712d68",
    "removeBuffer(uint256)": "bb9a5908",
    "speculative()": "ee1f21d8",
    "speculativeScaleFactor()": "87557ff7",
    "swap(address,uint256,uint256)": "9f1d0f59",
    "totalSupply()": "18160ddd",
    "upperBound()": "b09ad8a0",
    "verifyInvariant(uint256,uint256,uint256)": "9a4d5e21"
  },
  "id": 15
}