{
  "abi": [
    {
      "inputs": [
        {
          "internalType": "address",
          "name": "_factory",
          "type": "address"
        }
      ],
      "stateMutability": "nonpayable",
      "type": "constructor"
    },
    {
      "inputs": [],
      "name": "BalanceReturnError",
      "type": "error"
    },
    {
      "inputs": [],
      "name": "InsufficientInputError",
      "type": "error"
    },
    {
      "inputs": [],
      "name": "InsufficientOutputError",
      "type": "error"
    },
    {
      "inputs": [],
      "name": "LendgineError",
      "type": "error"
    },
    {
      "inputs": [],
      "name": "MaxSpeculativeError",
      "type": "error"
    },
    {
      "inputs": [],
      "name": "ReentrancyError",
      "type": "error"
    },
    {
      "anonymous": false,
      "inputs": [
        {
          "indexed": true,
          "internalType": "address",
          "name": "sender",
          "type": "address"
        },
        {
          "indexed": false,
          "internalType": "uint256",
          "name": "amount0",
          "type": "uint256"
        },
        {
          "indexed": false,
          "internalType": "uint256",
          "name": "amount1",
          "type": "uint256"
        },
        {
          "indexed": false,
          "internalType": "uint256",
          "name": "liquidity",
          "type": "uint256"
        },
        {
          "indexed": true,
          "internalType": "address",
          "name": "to",
          "type": "address"
        }
      ],
      "name": "Burn",
      "type": "event"
    },
    {
      "anonymous": false,
      "inputs": [
        {
          "indexed": true,
          "internalType": "address",
          "name": "sender",
          "type": "address"
        },
        {
          "indexed": false,
          "internalType": "uint256",
          "name": "amount0",
          "type": "uint256"
        },
        {
          "indexed": false,
          "internalType": "uint256",
          "name": "amount1",
          "type": "uint256"
        },
        {
          "indexed": false,
          "internalType": "uint256",
          "name": "liquidity",
          "type": "uint256"
        }
      ],
      "name": "Mint",
      "type": "event"
    },
    {
      "anonymous": false,
      "inputs": [
        {
          "indexed": true,
          "internalType": "address",
          "name": "sender",
          "type": "address"
        },
        {
          "indexed": false,
          "internalType": "uint256",
          "name": "amount0In",
          "type": "uint256"
        },
        {
          "indexed": false,
          "internalType": "uint256",
          "name": "amount1In",
          "type": "uint256"
        },
        {
          "indexed": false,
          "internalType": "uint256",
          "name": "amount0Out",
          "type": "uint256"
        },
        {
          "indexed": false,
          "internalType": "uint256",
          "name": "amount1Out",
          "type": "uint256"
        },
        {
          "indexed": true,
          "internalType": "address",
          "name": "to",
          "type": "address"
        }
      ],
      "name": "Swap",
      "type": "event"
    },
    {
      "inputs": [
        {
          "internalType": "uint256",
          "name": "amount",
          "type": "uint256"
        }
      ],
      "name": "addBuffer",
      "outputs": [],
      "stateMutability": "nonpayable",
      "type": "function"
    },
    {
      "inputs": [],
      "name": "balances",
      "outputs": [
        {
          "internalType": "uint256",
          "name": "",
          "type": "uint256"
        },
        {
          "internalType": "uint256",
          "name": "",
          "type": "uint256"
        }
      ],
      "stateMutability": "view",
      "type": "function"
    },
    {
      "inputs": [],
      "name": "base",
      "outputs": [
        {
          "internalType": "address",
          "name": "",
          "type": "address"
        }
      ],
      "stateMutability": "view",
      "type": "function"
    },
    {
      "inputs": [],
      "name": "buffer",
      "outputs": [
        {
          "internalType": "uint256",
          "name": "",
          "type": "uint256"
        }
      ],
      "stateMutability": "view",
      "type": "function"
    },
    {
      "inputs": [
        {
          "internalType": "address",
          "name": "to",
          "type": "address"
        },
        {
          "internalType": "uint256",
          "name": "amount0",
          "type": "uint256"
        },
        {
          "internalType": "uint256",
          "name": "amount1",
          "type": "uint256"
        }
      ],
      "name": "burn",
      "outputs": [
        {
          "internalType": "uint256",
          "name": "k",
          "type": "uint256"
        }
      ],
      "stateMutability": "nonpayable",
      "type": "function"
    },
    {
      "inputs": [
        {
          "internalType": "uint256",
          "name": "r0",
          "type": "uint256"
        },
        {
          "internalType": "uint256",
          "name": "r1",
          "type": "uint256"
        }
      ],
      "name": "calcInvariant",
      "outputs": [
        {
          "internalType": "uint256",
          "name": "invariant",
          "type": "uint256"
        }
      ],
      "stateMutability": "view",
      "type": "function"
    },
    {
      "inputs": [],
      "name": "factory",
      "outputs": [
        {
          "internalType": "address",
          "name": "",
          "type": "address"
        }
      ],
      "stateMutability": "view",
      "type": "function"
    },
    {
      "inputs": [],
      "name": "lendgine",
      "outputs": [
        {
          "internalType": "address",
          "name": "",
          "type": "address"
        }
      ],
      "stateMutability": "view",
      "type": "function"
    },
    {
      "inputs": [],
      "name": "lendgineBalance",
      "outputs": [
        {
          "internalType": "uint256",
          "name": "",
          "type": "uint256"
        }
      ],
      "stateMutability": "view",
      "type": "function"
    },
    {
      "inputs": [
        {
          "internalType": "uint256",
          "name": "amount0",
          "type": "uint256"
        },
        {
          "internalType": "uint256",
          "name": "amount1",
          "type": "uint256"
        },
        {
          "internalType": "bytes",
          "name": "data",
          "type": "bytes"
        }
      ],
      "name": "mint",
      "outputs": [
        {
          "internalType": "uint256",
          "name": "liquidity",
          "type": "uint256"
        }
      ],
      "stateMutability": "nonpayable",
      "type": "function"
    },
    {
      "inputs": [
        {
          "internalType": "uint256",
          "name": "amount",
          "type": "uint256"
        }
      ],
      "name": "removeBuffer",
      "outputs": [],
      "stateMutability": "nonpayable",
      "type": "function"
    },
    {
      "inputs": [],
      "name": "speculative",
      "outputs": [
        {
          "internalType": "address",
          "name": "",
          "type": "address"
        }
      ],
      "stateMutability": "view",
      "type": "function"
    },
    {
      "inputs": [
        {
          "internalType": "address",
          "name": "to",
          "type": "address"
        },
        {
          "internalType": "uint256",
          "name": "amount0Out",
          "type": "uint256"
        },
        {
          "internalType": "uint256",
          "name": "amount1Out",
          "type": "uint256"
        },
        {
          "internalType": "bytes",
          "name": "data",
          "type": "bytes"
        }
      ],
      "name": "swap",
      "outputs": [
        {
          "internalType": "uint256",
          "name": "amount0In",
          "type": "uint256"
        },
        {
          "internalType": "uint256",
          "name": "amount1In",
          "type": "uint256"
        }
      ],
      "stateMutability": "nonpayable",
      "type": "function"
    },
    {
      "inputs": [],
      "name": "totalSupply",
      "outputs": [
        {
          "internalType": "uint256",
          "name": "",
          "type": "uint256"
        }
      ],
      "stateMutability": "view",
      "type": "function"
    },
    {
      "inputs": [],
      "name": "upperBound",
      "outputs": [
        {
          "internalType": "uint256",
          "name": "",
          "type": "uint256"
        }
      ],
      "stateMutability": "view",
      "type": "function"
    }
  ],
  "bytecode": {
    "object": "0x61012060405260016002553480156200001757600080fd5b50604051620014b3380380620014b38339810160408190526200003a91620000e9565b3360a0526001600160a01b038116608081905260408051630890357360e41b815290516389035730916004808201926060929091908290030181865afa15801562000089573d6000803e3d6000fd5b505050506040513d601f19601f82011682018060405250810190620000af91906200010e565b610100526001600160a01b0390811660e0521660c052506200014f565b80516001600160a01b0381168114620000e457600080fd5b919050565b600060208284031215620000fc57600080fd5b6200010782620000cc565b9392505050565b6000806000606084860312156200012457600080fd5b6200012f84620000cc565b92506200013f60208501620000cc565b9150604084015190509250925092565b60805160a05160c05160e051610100516112d9620001da600039600081816101e60152818161083f01526108bb01526000818161026b0152818161074d015281816109eb0152610cf5015260008181610143015281816105e3015281816109ba0152610cca0152600081816101ac015281816104b70152610b9c0152600061023301526112d96000f3fe608060405234801561001057600080fd5b50600436106100f55760003560e01c8063b09ad8a011610097578063e012586011610066578063e012586014610255578063edaafe201461025d578063ee1f21d814610266578063f5298aca1461028d57600080fd5b8063b09ad8a0146101e1578063b691d78c14610208578063bb9a59081461021b578063c45a01551461022e57600080fd5b80635001f3b5116100d35780635001f3b51461013e5780637bb98a681461018a578063a39bfd13146101a7578063a989360c146101ce57600080fd5b806308dc9f42146100fa57806318160ddd1461012057806322cf198914610129575b600080fd5b61010d610108366004610ed2565b6102a0565b6040519081526020015b60405180910390f35b61010d60005481565b61013c610137366004610f25565b61049f565b005b6101657f000000000000000000000000000000000000000000000000000000000000000081565b60405173ffffffffffffffffffffffffffffffffffffffff9091168152602001610117565b610192610528565b60408051928352602083019190915201610117565b6101657f000000000000000000000000000000000000000000000000000000000000000081565b61010d6101dc366004610f3e565b610838565b61010d7f000000000000000000000000000000000000000000000000000000000000000081565b610192610216366004610f89565b61090c565b61013c610229366004610f25565b610b84565b6101657f000000000000000000000000000000000000000000000000000000000000000081565b61010d610c05565b61010d60015481565b6101657f000000000000000000000000000000000000000000000000000000000000000081565b61010d61029b366004610ff1565b610c2b565b60006002546001146102de576040517f29f745a700000000000000000000000000000000000000000000000000000000815260040160405180910390fd5b600280556000806102ed610528565b915091506102fb8787610838565b925082600003610337576040517fd5ab59fe00000000000000000000000000000000000000000000000000000000815260040160405180910390fd5b61034083610d82565b6040517f916b762c000000000000000000000000000000000000000000000000000000008152339063916b762c90610382908a908a908a908a90600401611024565b600060405180830381600087803b15801561039c57600080fd5b505af11580156103b0573d6000803e3d6000fd5b505050506000806103bf610528565b9092509050886103cf85846110ae565b1015610407576040517fee30a99300000000000000000000000000000000000000000000000000000000815260040160405180910390fd5b8761041284836110ae565b101561044a576040517fee30a99300000000000000000000000000000000000000000000000000000000815260040160405180910390fd5b604080518a8152602081018a905290810186905233907fb4c03061fb5b7fed76389d5af8f2e0ddb09f8c70d1333abbb62582835e10accb9060600160405180910390a250506001600255509095945050505050565b3373ffffffffffffffffffffffffffffffffffffffff7f0000000000000000000000000000000000000000000000000000000000000000161461050e576040517fb3491a6e00000000000000000000000000000000000000000000000000000000815260040160405180910390fd5b806001600082825461052091906110c7565b909155505050565b604080518082018252601281527f62616c616e63654f662861646472657373290000000000000000000000000000602091820152815130602480830191909152835180830390910181526044909101835290810180517bffffffffffffffffffffffffffffffffffffffffffffffffffffffff167f70a082310000000000000000000000000000000000000000000000000000000017905290516000918291829160609173ffffffffffffffffffffffffffffffffffffffff7f0000000000000000000000000000000000000000000000000000000000000000169161060d916110da565b600060405180830381855afa9150503d8060008114610648576040519150601f19603f3d011682016040523d82523d6000602084013e61064d565b606091505b509092509050811580610661575060208151105b15610698576040517f7613bc8900000000000000000000000000000000000000000000000000000000815260040160405180910390fd5b6000818060200190518101906106ae9190611109565b604080518082018252601281527f62616c616e63654f662861646472657373290000000000000000000000000000602091820152815130602480830191909152835180830390910181526044909101835290810180517bffffffffffffffffffffffffffffffffffffffffffffffffffffffff167f70a082310000000000000000000000000000000000000000000000000000000017905290519192507f000000000000000000000000000000000000000000000000000000000000000073ffffffffffffffffffffffffffffffffffffffff169161078d91906110da565b600060405180830381855afa9150503d80600081146107c8576040519150601f19603f3d011682016040523d82523d6000602084013e6107cd565b606091505b5090935091508215806107e1575060208251105b15610818576040517f7613bc8900000000000000000000000000000000000000000000000000000000815260040160405180910390fd5b808280602001905181019061082d9190611109565b945094505050509091565b60006108657f00000000000000000000000000000000000000000000000000000000000000006002611122565b82111561089e576040517ff24eac3800000000000000000000000000000000000000000000000000000000815260040160405180910390fd5b60046108ab600284611259565b6108b59190611268565b6108df837f0000000000000000000000000000000000000000000000000000000000000000611122565b6108f185670de0b6b3a7640000611122565b6108fb91906110c7565b61090591906110ae565b9392505050565b60008060025460011461094b576040517f29f745a700000000000000000000000000000000000000000000000000000000815260040160405180910390fd5b600280558515801561095b575084155b15610992576040517fd5ab59fe00000000000000000000000000000000000000000000000000000000815260040160405180910390fd5b60008061099d610528565b9150915060006109ad8383610838565b905088156109e0576109e07f00000000000000000000000000000000000000000000000000000000000000008b8b610da3565b8715610a1157610a117f00000000000000000000000000000000000000000000000000000000000000008b8a610da3565b6040517f2783e3610000000000000000000000000000000000000000000000000000000081523390632783e36190610a53908c908c908c908c90600401611024565b600060405180830381600087803b158015610a6d57600080fd5b505af1158015610a81573d6000803e3d6000fd5b50505050600080610a90610528565b909250905084610aa08c846110c7565b610aaa91906110ae565b965083610ab78b836110c7565b610ac191906110ae565b95506000610acf8383610838565b905080841115610b0b576040517fee30a99300000000000000000000000000000000000000000000000000000000815260040160405180910390fd5b505060408051878152602081018790529081018b9052606081018a905273ffffffffffffffffffffffffffffffffffffffff8c16915033907fd78ad95fa46c994b6551d0da85fc275fe613ce37657fb8d5e3d130840159d8229060800160405180910390a3505060016002555090969095509350505050565b3373ffffffffffffffffffffffffffffffffffffffff7f00000000000000000000000000000000000000000000000000000000000000001614610bf3576040517fb3491a6e00000000000000000000000000000000000000000000000000000000815260040160405180910390fd5b806001600082825461052091906110ae565b60008054808203610c1857600091505090565b600154610c2590826110ae565b91505090565b6000600254600114610c69576040517f29f745a700000000000000000000000000000000000000000000000000000000815260040160405180910390fd5b6002805582158015610c79575081155b15610cb0576040517fd5ab59fe00000000000000000000000000000000000000000000000000000000815260040160405180910390fd5b610cba8383610838565b9050610cc581610e66565b610cf07f00000000000000000000000000000000000000000000000000000000000000008585610da3565b610d1b7f00000000000000000000000000000000000000000000000000000000000000008584610da3565b604080518481526020810184905290810182905273ffffffffffffffffffffffffffffffffffffffff85169033907fd175a80c109434bb89948928ab2475a6647c94244cb70002197896423c8833639060600160405180910390a360016002559392505050565b80600080828254610d9391906110c7565b9091555050600180549091019055565b60006040517fa9059cbb000000000000000000000000000000000000000000000000000000008152836004820152826024820152602060006044836000895af13d15601f3d1160016000511416171691505080610e60576040517f08c379a000000000000000000000000000000000000000000000000000000000815260206004820152600f60248201527f5452414e534645525f4641494c45440000000000000000000000000000000000604482015260640160405180910390fd5b50505050565b8060016000828254610e7891906110ae565b909155505060008054919091039055565b60008083601f840112610e9b57600080fd5b50813567ffffffffffffffff811115610eb357600080fd5b602083019150836020828501011115610ecb57600080fd5b9250929050565b60008060008060608587031215610ee857600080fd5b8435935060208501359250604085013567ffffffffffffffff811115610f0d57600080fd5b610f1987828801610e89565b95989497509550505050565b600060208284031215610f3757600080fd5b5035919050565b60008060408385031215610f5157600080fd5b50508035926020909101359150565b803573ffffffffffffffffffffffffffffffffffffffff81168114610f8457600080fd5b919050565b600080600080600060808688031215610fa157600080fd5b610faa86610f60565b94506020860135935060408601359250606086013567ffffffffffffffff811115610fd457600080fd5b610fe088828901610e89565b969995985093965092949392505050565b60008060006060848603121561100657600080fd5b61100f84610f60565b95602085013595506040909401359392505050565b84815283602082015260606040820152816060820152818360808301376000818301608090810191909152601f9092017fffffffffffffffffffffffffffffffffffffffffffffffffffffffffffffffe01601019392505050565b7f4e487b7100000000000000000000000000000000000000000000000000000000600052601160045260246000fd5b818103818111156110c1576110c161107f565b92915050565b808201808211156110c1576110c161107f565b6000825160005b818110156110fb57602081860181015185830152016110e1565b506000920191825250919050565b60006020828403121561111b57600080fd5b5051919050565b80820281158282048414176110c1576110c161107f565b600181815b8085111561119257817fffffffffffffffffffffffffffffffffffffffffffffffffffffffffffffffff048211156111785761117861107f565b8085161561118557918102915b93841c939080029061113e565b509250929050565b6000826111a9575060016110c1565b816111b6575060006110c1565b81600181146111cc57600281146111d6576111f2565b60019150506110c1565b60ff8411156111e7576111e761107f565b50506001821b6110c1565b5060208310610133831016604e8410600b8410161715611215575081810a6110c1565b61121f8383611139565b807fffffffffffffffffffffffffffffffffffffffffffffffffffffffffffffffff048211156112515761125161107f565b029392505050565b600061090560ff84168361119a565b60008261129e577f4e487b7100000000000000000000000000000000000000000000000000000000600052601260045260246000fd5b50049056fea2646970667358221220e9b000ccc42b9094307ec0e55e97097517c7ec39468860a2c74736f40d458e4d64736f6c63430008110033",
    "linkReferences": {}
  },
  "methodIdentifiers": {
    "addBuffer(uint256)": "22cf1989",
    "balances()": "7bb98a68",
    "base()": "5001f3b5",
    "buffer()": "edaafe20",
    "burn(address,uint256,uint256)": "f5298aca",
    "calcInvariant(uint256,uint256)": "a989360c",
    "factory()": "c45a0155",
    "lendgine()": "a39bfd13",
    "lendgineBalance()": "e0125860",
    "mint(uint256,uint256,bytes)": "08dc9f42",
    "removeBuffer(uint256)": "bb9a5908",
    "speculative()": "ee1f21d8",
    "swap(address,uint256,uint256,bytes)": "b691d78c",
    "totalSupply()": "18160ddd",
    "upperBound()": "b09ad8a0"
  },
  "id": 12
}