{
  "abi": [
    {
      "inputs": [],
      "stateMutability": "nonpayable",
      "type": "constructor"
    },
    {
      "inputs": [],
      "name": "BalanceReturnError",
      "type": "error"
    },
    {
      "inputs": [],
      "name": "BufferError",
      "type": "error"
    },
    {
      "inputs": [],
      "name": "FailedTransfer",
      "type": "error"
    },
    {
      "inputs": [],
      "name": "InsufficientInputError",
      "type": "error"
    },
    {
      "inputs": [],
      "name": "InsufficientOutputError",
      "type": "error"
    },
    {
      "inputs": [],
      "name": "InvariantError",
      "type": "error"
    },
    {
      "inputs": [],
      "name": "LendgineError",
      "type": "error"
    },
    {
      "inputs": [
        {
          "internalType": "uint256",
          "name": "prod1",
          "type": "uint256"
        }
      ],
      "name": "PRBMath__MulDivFixedPointOverflow",
      "type": "error"
    },
    {
      "inputs": [
        {
          "internalType": "uint256",
          "name": "prod1",
          "type": "uint256"
        },
        {
          "internalType": "uint256",
          "name": "denominator",
          "type": "uint256"
        }
      ],
      "name": "PRBMath__MulDivOverflow",
      "type": "error"
    },
    {
      "inputs": [],
      "name": "ReentrancyError",
      "type": "error"
    },
    {
      "inputs": [],
      "name": "SpeculativeInvariantError",
      "type": "error"
    },
    {
      "anonymous": false,
      "inputs": [
        {
          "indexed": true,
          "internalType": "address",
          "name": "sender",
          "type": "address"
        },
        {
          "indexed": false,
          "internalType": "uint256",
          "name": "amount0",
          "type": "uint256"
        },
        {
          "indexed": false,
          "internalType": "uint256",
          "name": "amount1",
          "type": "uint256"
        },
        {
          "indexed": false,
          "internalType": "uint256",
          "name": "liquidity",
          "type": "uint256"
        },
        {
          "indexed": true,
          "internalType": "address",
          "name": "to",
          "type": "address"
        }
      ],
      "name": "Burn",
      "type": "event"
    },
    {
      "anonymous": false,
      "inputs": [
        {
          "indexed": true,
          "internalType": "address",
          "name": "sender",
          "type": "address"
        },
        {
          "indexed": false,
          "internalType": "uint256",
          "name": "liquidity",
          "type": "uint256"
        }
      ],
      "name": "Mint",
      "type": "event"
    },
    {
      "anonymous": false,
      "inputs": [
        {
          "indexed": true,
          "internalType": "address",
          "name": "sender",
          "type": "address"
        },
        {
          "indexed": false,
          "internalType": "uint256",
          "name": "amount0Out",
          "type": "uint256"
        },
        {
          "indexed": false,
          "internalType": "uint256",
          "name": "amount1Out",
          "type": "uint256"
        },
        {
          "indexed": true,
          "internalType": "address",
          "name": "to",
          "type": "address"
        }
      ],
      "name": "Swap",
      "type": "event"
    },
    {
      "inputs": [
        {
          "internalType": "uint256",
          "name": "amount",
          "type": "uint256"
        }
      ],
      "name": "addBuffer",
      "outputs": [],
      "stateMutability": "nonpayable",
      "type": "function"
    },
    {
      "inputs": [],
      "name": "balances",
      "outputs": [
        {
          "internalType": "uint256",
          "name": "",
          "type": "uint256"
        },
        {
          "internalType": "uint256",
          "name": "",
          "type": "uint256"
        }
      ],
      "stateMutability": "view",
      "type": "function"
    },
    {
      "inputs": [],
      "name": "base",
      "outputs": [
        {
          "internalType": "address",
          "name": "",
          "type": "address"
        }
      ],
      "stateMutability": "view",
      "type": "function"
    },
    {
      "inputs": [],
      "name": "baseScaleFactor",
      "outputs": [
        {
          "internalType": "uint256",
          "name": "",
          "type": "uint256"
        }
      ],
      "stateMutability": "view",
      "type": "function"
    },
    {
      "inputs": [],
      "name": "buffer",
      "outputs": [
        {
          "internalType": "uint256",
          "name": "",
          "type": "uint256"
        }
      ],
      "stateMutability": "view",
      "type": "function"
    },
    {
      "inputs": [
        {
          "internalType": "address",
          "name": "to",
          "type": "address"
        },
        {
          "internalType": "uint256",
          "name": "amount0",
          "type": "uint256"
        },
        {
          "internalType": "uint256",
          "name": "amount1",
          "type": "uint256"
        },
        {
          "internalType": "uint256",
          "name": "liquidity",
          "type": "uint256"
        }
      ],
      "name": "burn",
      "outputs": [],
      "stateMutability": "nonpayable",
      "type": "function"
    },
    {
      "inputs": [],
      "name": "factory",
      "outputs": [
        {
          "internalType": "address",
          "name": "",
          "type": "address"
        }
      ],
      "stateMutability": "view",
      "type": "function"
    },
    {
      "inputs": [],
      "name": "lendgine",
      "outputs": [
        {
          "internalType": "address",
          "name": "",
          "type": "address"
        }
      ],
      "stateMutability": "view",
      "type": "function"
    },
    {
      "inputs": [
        {
          "internalType": "uint256",
          "name": "liquidity",
          "type": "uint256"
        }
      ],
      "name": "mint",
      "outputs": [],
      "stateMutability": "nonpayable",
      "type": "function"
    },
    {
      "inputs": [
        {
          "internalType": "uint256",
          "name": "amount",
          "type": "uint256"
        }
      ],
      "name": "removeBuffer",
      "outputs": [],
      "stateMutability": "nonpayable",
      "type": "function"
    },
    {
      "inputs": [],
      "name": "speculative",
      "outputs": [
        {
          "internalType": "address",
          "name": "",
          "type": "address"
        }
      ],
      "stateMutability": "view",
      "type": "function"
    },
    {
      "inputs": [],
      "name": "speculativeScaleFactor",
      "outputs": [
        {
          "internalType": "uint256",
          "name": "",
          "type": "uint256"
        }
      ],
      "stateMutability": "view",
      "type": "function"
    },
    {
      "inputs": [
        {
          "internalType": "address",
          "name": "to",
          "type": "address"
        },
        {
          "internalType": "uint256",
          "name": "amount0Out",
          "type": "uint256"
        },
        {
          "internalType": "uint256",
          "name": "amount1Out",
          "type": "uint256"
        }
      ],
      "name": "swap",
      "outputs": [],
      "stateMutability": "nonpayable",
      "type": "function"
    },
    {
      "inputs": [],
      "name": "totalSupply",
      "outputs": [
        {
          "internalType": "uint256",
          "name": "",
          "type": "uint256"
        }
      ],
      "stateMutability": "view",
      "type": "function"
    },
    {
      "inputs": [],
      "name": "upperBound",
      "outputs": [
        {
          "internalType": "uint256",
          "name": "",
          "type": "uint256"
        }
      ],
      "stateMutability": "view",
      "type": "function"
    },
    {
      "inputs": [
        {
          "internalType": "uint256",
          "name": "r0",
          "type": "uint256"
        },
        {
          "internalType": "uint256",
          "name": "r1",
          "type": "uint256"
        },
        {
          "internalType": "uint256",
          "name": "shares",
          "type": "uint256"
        }
      ],
      "name": "verifyInvariant",
      "outputs": [
        {
          "internalType": "bool",
          "name": "valid",
          "type": "bool"
        }
      ],
      "stateMutability": "view",
      "type": "function"
    }
  ],
  "bytecode": {
    "object": "0x6101606040526002805460ff191660011790553480156200001f57600080fd5b50336001600160a01b03166080816001600160a01b031681525050600080336001600160a01b0316636d9877ab6040518163ffffffff1660e01b815260040160c060405180830381865afa1580156200007c573d6000803e3d6000fd5b505050506040513d601f19601f82011682018060405250810190620000a2919062000150565b610100526001600160a01b0392831660e05292821660c052921660a05290925090506012821180620000d45750600682105b15620000f357604051636819ba0560e01b815260040160405180910390fd5b6012811180620001035750600681105b156200012257604051636819ba0560e01b815260040160405180910390fd5b6101209190915261014052620001b6565b80516001600160a01b03811681146200014b57600080fd5b919050565b60008060008060008060c087890312156200016a57600080fd5b620001758762000133565b9550620001856020880162000133565b9450620001956040880162000133565b9350606087015192506080870151915060a087015190509295509295509295565b60805160a05160c05160e0516101005161012051610140516114776200026c600039600081816101cb015261073801526000818161013b01526106f701526000818161026201528181610769015281816107b101526107de0152600081816102df015281816105f70152818161092c0152610cc20152600081816101620152818161048d015281816108fb0152610c9701526000818161023b015281816103190152610b510152600061029c01526114776000f3fe608060405234801561001057600080fd5b50600436106101005760003560e01c8063a0712d6811610097578063c45a015511610066578063c45a015514610297578063de7bf0a2146102be578063edaafe20146102d1578063ee1f21d8146102da57600080fd5b8063a0712d6814610223578063a39bfd1314610236578063b09ad8a01461025d578063bb9a59081461028457600080fd5b80637bb98a68116100d35780637bb98a68146101a957806387557ff7146101c65780639a4d5e21146101ed5780639f1d0f591461021057600080fd5b806318160ddd1461010557806322cf1989146101215780632faf67d6146101365780635001f3b51461015d575b600080fd5b61010e60005481565b6040519081526020015b60405180910390f35b61013461012f36600461111d565b610301565b005b61010e7f000000000000000000000000000000000000000000000000000000000000000081565b6101847f000000000000000000000000000000000000000000000000000000000000000081565b60405173ffffffffffffffffffffffffffffffffffffffff9091168152602001610118565b6101b16103d2565b60408051928352602083019190915201610118565b61010e7f000000000000000000000000000000000000000000000000000000000000000081565b6102006101fb366004611136565b6106e2565b6040519015158152602001610118565b61013461021e36600461118b565b610862565b61013461023136600461111d565b610a0b565b6101847f000000000000000000000000000000000000000000000000000000000000000081565b61010e7f000000000000000000000000000000000000000000000000000000000000000081565b61013461029236600461111d565b610b39565b6101847f000000000000000000000000000000000000000000000000000000000000000081565b6101346102cc3660046111be565b610bba565b61010e60015481565b6101847f000000000000000000000000000000000000000000000000000000000000000081565b3373ffffffffffffffffffffffffffffffffffffffff7f00000000000000000000000000000000000000000000000000000000000000001614610370576040517fb3491a6e00000000000000000000000000000000000000000000000000000000815260040160405180910390fd5b6000546001546103809083611226565b11156103b8576040517feecc2bbd00000000000000000000000000000000000000000000000000000000815260040160405180910390fd5b80600160008282546103ca9190611226565b909155505050565b604080518082018252601281527f62616c616e63654f662861646472657373290000000000000000000000000000602091820152815130602480830191909152835180830390910181526044909101835290810180517bffffffffffffffffffffffffffffffffffffffffffffffffffffffff167f70a082310000000000000000000000000000000000000000000000000000000017905290516000918291829160609173ffffffffffffffffffffffffffffffffffffffff7f000000000000000000000000000000000000000000000000000000000000000016916104b791611239565b600060405180830381855afa9150503d80600081146104f2576040519150601f19603f3d011682016040523d82523d6000602084013e6104f7565b606091505b50909250905081158061050b575060208151105b15610542576040517f7613bc8900000000000000000000000000000000000000000000000000000000815260040160405180910390fd5b6000818060200190518101906105589190611268565b604080518082018252601281527f62616c616e63654f662861646472657373290000000000000000000000000000602091820152815130602480830191909152835180830390910181526044909101835290810180517bffffffffffffffffffffffffffffffffffffffffffffffffffffffff167f70a082310000000000000000000000000000000000000000000000000000000017905290519192507f000000000000000000000000000000000000000000000000000000000000000073ffffffffffffffffffffffffffffffffffffffff16916106379190611239565b600060405180830381855afa9150503d8060008114610672576040519150601f19603f3d011682016040523d82523d6000602084013e610677565b606091505b50909350915082158061068b575060208251105b156106c2576040517f7613bc8900000000000000000000000000000000000000000000000000000000815260040160405180910390fd5b80828060200190518101906106d79190611268565b945094505050509091565b6000806107226106f28685610d56565b61071d7f0000000000000000000000000000000000000000000000000000000000000000600a6113a1565b610d56565b9050600061075e6107338686610d56565b61071d7f0000000000000000000000000000000000000000000000000000000000000000600a6113a1565b905081600061078d837f0000000000000000000000000000000000000000000000000000000000000000610d6b565b90506000600461079e856002610d77565b6107a891906113dc565b905060006107d77f00000000000000000000000000000000000000000000000000000000000000006002610d77565b90506108047f00000000000000000000000000000000000000000000000000000000000000006002611417565b85111561083d576040517ff80926d800000000000000000000000000000000000000000000000000000000815260040160405180910390fd5b6108478183611226565b6108518486611226565b1496505050505050505b9392505050565b60025460ff166001146108a1576040517f29f745a700000000000000000000000000000000000000000000000000000000815260040160405180910390fd5b6002805460ff191681179055811580156108b9575080155b156108f0576040517fd5ab59fe00000000000000000000000000000000000000000000000000000000815260040160405180910390fd5b8115610921576109217f00000000000000000000000000000000000000000000000000000000000000008484610dd7565b8015610952576109527f00000000000000000000000000000000000000000000000000000000000000008483610dd7565b60008061095d6103d2565b9150915061096e82826000546106e2565b6109a4576040517f6819ba0500000000000000000000000000000000000000000000000000000000815260040160405180910390fd5b604080518581526020810185905273ffffffffffffffffffffffffffffffffffffffff87169133917f2a9237ff5aa599ef4c5ee4b1142b53429d5755e2685fe6288b2e3320202115f5910160405180910390a350506002805460ff19166001179055505050565b60025460ff16600114610a4a576040517f29f745a700000000000000000000000000000000000000000000000000000000815260040160405180910390fd5b6002805460ff1916811790556000819003610a91576040517fd5ab59fe00000000000000000000000000000000000000000000000000000000815260040160405180910390fd5b600080610a9c6103d2565b91509150610ab38282600054866101fb9190611226565b610ae9576040517f6819ba0500000000000000000000000000000000000000000000000000000000815260040160405180910390fd5b610af283610e74565b60405183815233907f0f6798a560793a54c3bcfe86a93cde1e73087d944c0ea20544137d41213968859060200160405180910390a250506002805460ff1916600117905550565b3373ffffffffffffffffffffffffffffffffffffffff7f00000000000000000000000000000000000000000000000000000000000000001614610ba8576040517fb3491a6e00000000000000000000000000000000000000000000000000000000815260040160405180910390fd5b80600160008282546103ca919061142e565b60025460ff16600114610bf9576040517f29f745a700000000000000000000000000000000000000000000000000000000815260040160405180910390fd5b6002805460ff191681179055610c108383836106e2565b610c46576040517f6819ba0500000000000000000000000000000000000000000000000000000000815260040160405180910390fd5b82158015610c52575081155b15610c89576040517fd5ab59fe00000000000000000000000000000000000000000000000000000000815260040160405180910390fd5b610c9281610e95565b610cbd7f00000000000000000000000000000000000000000000000000000000000000008585610dd7565b610ce87f00000000000000000000000000000000000000000000000000000000000000008584610dd7565b604080518481526020810184905290810182905273ffffffffffffffffffffffffffffffffffffffff85169033907fd175a80c109434bb89948928ab2475a6647c94244cb70002197896423c8833639060600160405180910390a350506002805460ff191660011790555050565b600061085b83670de0b6b3a764000084610eb8565b600061085b8383610fc1565b6000808260011611610d9157670de0b6b3a7640000610d93565b825b9050600182901c91505b8115610dd157610dad8384610fc1565b92506001821615610dc557610dc28184610fc1565b90505b600182901c9150610d9d565b92915050565b60006040517fa9059cbb00000000000000000000000000000000000000000000000000000000815273ffffffffffffffffffffffffffffffffffffffff841660048201528260248201526000806044836000895af1915050610e38816110d8565b610e6e576040517fbfa871c500000000000000000000000000000000000000000000000000000000815260040160405180910390fd5b50505050565b80600080828254610e859190611226565b9091555050600180549091019055565b8060016000828254610ea7919061142e565b909155505060008054919091039055565b600080807fffffffffffffffffffffffffffffffffffffffffffffffffffffffffffffffff85870985870292508281108382030391505080600003610f1057838281610f0657610f066113ad565b049250505061085b565b838110610f58576040517f773cc18c00000000000000000000000000000000000000000000000000000000815260048101829052602481018590526044015b60405180910390fd5b60008486880960026001871981018816978890046003810283188082028403028082028403028082028403028082028403028082028403029081029092039091026000889003889004909101858311909403939093029303949094049190911702949350505050565b600080807fffffffffffffffffffffffffffffffffffffffffffffffffffffffffffffffff848609848602925082811083820303915050670de0b6b3a7640000811061103c576040517fd31b340200000000000000000000000000000000000000000000000000000000815260048101829052602401610f4f565b600080670de0b6b3a764000086880991506706f05b59d3b1ffff821190508260000361107a5780670de0b6b3a7640000850401945050505050610dd1565b6204000082850304939091119091037d40000000000000000000000000000000000000000000000000000000000002919091177faccb18165bd6fe31ae1cf318dc5b51eee0e1ba569b88cd74c1773b91fac106690201905092915050565b6000816110e9573d6000803e3d6000fd5b3d602081146111015780156111125760009150611117565b3d6000803e60005115159150611117565b600191505b50919050565b60006020828403121561112f57600080fd5b5035919050565b60008060006060848603121561114b57600080fd5b505081359360208301359350604090920135919050565b803573ffffffffffffffffffffffffffffffffffffffff8116811461118657600080fd5b919050565b6000806000606084860312156111a057600080fd5b6111a984611162565b95602085013595506040909401359392505050565b600080600080608085870312156111d457600080fd5b6111dd85611162565b966020860135965060408601359560600135945092505050565b7f4e487b7100000000000000000000000000000000000000000000000000000000600052601160045260246000fd5b80820180821115610dd157610dd16111f7565b6000825160005b8181101561125a5760208186018101518583015201611240565b506000920191825250919050565b60006020828403121561127a57600080fd5b5051919050565b600181815b808511156112da57817fffffffffffffffffffffffffffffffffffffffffffffffffffffffffffffffff048211156112c0576112c06111f7565b808516156112cd57918102915b93841c9390800290611286565b509250929050565b6000826112f157506001610dd1565b816112fe57506000610dd1565b8160018114611314576002811461131e5761133a565b6001915050610dd1565b60ff84111561132f5761132f6111f7565b50506001821b610dd1565b5060208310610133831016604e8410600b841016171561135d575081810a610dd1565b6113678383611281565b807fffffffffffffffffffffffffffffffffffffffffffffffffffffffffffffffff04821115611399576113996111f7565b029392505050565b600061085b83836112e2565b7f4e487b7100000000000000000000000000000000000000000000000000000000600052601260045260246000fd5b600082611412577f4e487b7100000000000000000000000000000000000000000000000000000000600052601260045260246000fd5b500490565b8082028115828204841417610dd157610dd16111f7565b81810381811115610dd157610dd16111f756fea264697066735822122089ed72c677137347505c1e5e9f677a444c07e702e8989edae7b5d037415d849264736f6c63430008110033",
    "linkReferences": {}
  },
  "methodIdentifiers": {
    "addBuffer(uint256)": "22cf1989",
    "balances()": "7bb98a68",
    "base()": "5001f3b5",
    "baseScaleFactor()": "2faf67d6",
    "buffer()": "edaafe20",
    "burn(address,uint256,uint256,uint256)": "de7bf0a2",
    "factory()": "c45a0155",
    "lendgine()": "a39bfd13",
    "mint(uint256)": "a0712d68",
    "removeBuffer(uint256)": "bb9a5908",
    "speculative()": "ee1f21d8",
    "speculativeScaleFactor()": "87557ff7",
    "swap(address,uint256,uint256)": "9f1d0f59",
    "totalSupply()": "18160ddd",
    "upperBound()": "b09ad8a0",
    "verifyInvariant(uint256,uint256,uint256)": "9a4d5e21"
  },
  "id": 15
}