{
  "abi": [
    {
      "inputs": [],
      "stateMutability": "nonpayable",
      "type": "constructor"
    },
    {
      "inputs": [],
      "name": "BalanceReturnError",
      "type": "error"
    },
    {
      "inputs": [],
      "name": "BufferError",
      "type": "error"
    },
    {
      "inputs": [],
      "name": "FailedTransfer",
      "type": "error"
    },
    {
      "inputs": [],
      "name": "InsufficientInputError",
      "type": "error"
    },
    {
      "inputs": [],
      "name": "InsufficientOutputError",
      "type": "error"
    },
    {
      "inputs": [],
      "name": "InvariantError",
      "type": "error"
    },
    {
      "inputs": [],
      "name": "LendgineError",
      "type": "error"
    },
    {
      "inputs": [
        {
          "internalType": "uint256",
          "name": "prod1",
          "type": "uint256"
        }
      ],
      "name": "PRBMath__MulDivFixedPointOverflow",
      "type": "error"
    },
    {
      "inputs": [
        {
          "internalType": "uint256",
          "name": "prod1",
          "type": "uint256"
        },
        {
          "internalType": "uint256",
          "name": "denominator",
          "type": "uint256"
        }
      ],
      "name": "PRBMath__MulDivOverflow",
      "type": "error"
    },
    {
      "inputs": [],
      "name": "ReentrancyError",
      "type": "error"
    },
    {
      "inputs": [],
      "name": "SpeculativeInvariantError",
      "type": "error"
    },
    {
      "anonymous": false,
      "inputs": [
        {
          "indexed": true,
          "internalType": "address",
          "name": "sender",
          "type": "address"
        },
        {
          "indexed": false,
          "internalType": "uint256",
          "name": "amount0",
          "type": "uint256"
        },
        {
          "indexed": false,
          "internalType": "uint256",
          "name": "amount1",
          "type": "uint256"
        },
        {
          "indexed": false,
          "internalType": "uint256",
          "name": "liquidity",
          "type": "uint256"
        },
        {
          "indexed": true,
          "internalType": "address",
          "name": "to",
          "type": "address"
        }
      ],
      "name": "Burn",
      "type": "event"
    },
    {
      "anonymous": false,
      "inputs": [
        {
          "indexed": true,
          "internalType": "address",
          "name": "sender",
          "type": "address"
        },
        {
          "indexed": false,
          "internalType": "uint256",
          "name": "liquidity",
          "type": "uint256"
        }
      ],
      "name": "Mint",
      "type": "event"
    },
    {
      "anonymous": false,
      "inputs": [
        {
          "indexed": true,
          "internalType": "address",
          "name": "sender",
          "type": "address"
        },
        {
          "indexed": false,
          "internalType": "uint256",
          "name": "amount0Out",
          "type": "uint256"
        },
        {
          "indexed": false,
          "internalType": "uint256",
          "name": "amount1Out",
          "type": "uint256"
        },
        {
          "indexed": true,
          "internalType": "address",
          "name": "to",
          "type": "address"
        }
      ],
      "name": "Swap",
      "type": "event"
    },
    {
      "inputs": [
        {
          "internalType": "uint256",
          "name": "amount",
          "type": "uint256"
        }
      ],
      "name": "addBuffer",
      "outputs": [],
      "stateMutability": "nonpayable",
      "type": "function"
    },
    {
      "inputs": [],
      "name": "base",
      "outputs": [
        {
          "internalType": "address",
          "name": "",
          "type": "address"
        }
      ],
      "stateMutability": "view",
      "type": "function"
    },
    {
      "inputs": [],
      "name": "baseScaleFactor",
      "outputs": [
        {
          "internalType": "uint256",
          "name": "",
          "type": "uint256"
        }
      ],
      "stateMutability": "view",
      "type": "function"
    },
    {
      "inputs": [],
      "name": "buffer",
      "outputs": [
        {
          "internalType": "uint256",
          "name": "",
          "type": "uint256"
        }
      ],
      "stateMutability": "view",
      "type": "function"
    },
    {
      "inputs": [
        {
          "internalType": "address",
          "name": "to",
          "type": "address"
        },
        {
          "internalType": "uint256",
          "name": "liquidity",
          "type": "uint256"
        }
      ],
      "name": "burn",
      "outputs": [
        {
          "internalType": "uint256",
          "name": "",
          "type": "uint256"
        },
        {
          "internalType": "uint256",
          "name": "",
          "type": "uint256"
        }
      ],
      "stateMutability": "nonpayable",
      "type": "function"
    },
    {
      "inputs": [],
      "name": "factory",
      "outputs": [
        {
          "internalType": "address",
          "name": "",
          "type": "address"
        }
      ],
      "stateMutability": "view",
      "type": "function"
    },
    {
      "inputs": [],
      "name": "lendgine",
      "outputs": [
        {
          "internalType": "address",
          "name": "",
          "type": "address"
        }
      ],
      "stateMutability": "view",
      "type": "function"
    },
    {
      "inputs": [
        {
          "internalType": "uint256",
          "name": "liquidity",
          "type": "uint256"
        }
      ],
      "name": "mint",
      "outputs": [],
      "stateMutability": "nonpayable",
      "type": "function"
    },
    {
      "inputs": [
        {
          "internalType": "uint256",
          "name": "amount",
          "type": "uint256"
        }
      ],
      "name": "removeBuffer",
      "outputs": [],
      "stateMutability": "nonpayable",
      "type": "function"
    },
    {
      "inputs": [],
      "name": "reserve0",
      "outputs": [
        {
          "internalType": "uint120",
          "name": "",
          "type": "uint120"
        }
      ],
      "stateMutability": "view",
      "type": "function"
    },
    {
      "inputs": [],
      "name": "reserve1",
      "outputs": [
        {
          "internalType": "uint120",
          "name": "",
          "type": "uint120"
        }
      ],
      "stateMutability": "view",
      "type": "function"
    },
    {
      "inputs": [],
      "name": "reserves",
      "outputs": [
        {
          "internalType": "uint256",
          "name": "",
          "type": "uint256"
        },
        {
          "internalType": "uint256",
          "name": "",
          "type": "uint256"
        }
      ],
      "stateMutability": "view",
      "type": "function"
    },
    {
      "inputs": [
        {
          "internalType": "address",
          "name": "to",
          "type": "address"
        }
      ],
      "name": "skim",
      "outputs": [],
      "stateMutability": "nonpayable",
      "type": "function"
    },
    {
      "inputs": [],
      "name": "speculative",
      "outputs": [
        {
          "internalType": "address",
          "name": "",
          "type": "address"
        }
      ],
      "stateMutability": "view",
      "type": "function"
    },
    {
      "inputs": [],
      "name": "speculativeScaleFactor",
      "outputs": [
        {
          "internalType": "uint256",
          "name": "",
          "type": "uint256"
        }
      ],
      "stateMutability": "view",
      "type": "function"
    },
    {
      "inputs": [
        {
          "internalType": "address",
          "name": "to",
          "type": "address"
        },
        {
          "internalType": "uint256",
          "name": "amount0Out",
          "type": "uint256"
        },
        {
          "internalType": "uint256",
          "name": "amount1Out",
          "type": "uint256"
        }
      ],
      "name": "swap",
      "outputs": [],
      "stateMutability": "nonpayable",
      "type": "function"
    },
    {
      "inputs": [],
      "name": "totalSupply",
      "outputs": [
        {
          "internalType": "uint256",
          "name": "",
          "type": "uint256"
        }
      ],
      "stateMutability": "view",
      "type": "function"
    },
    {
      "inputs": [],
      "name": "upperBound",
      "outputs": [
        {
          "internalType": "uint256",
          "name": "",
          "type": "uint256"
        }
      ],
      "stateMutability": "view",
      "type": "function"
    },
    {
      "inputs": [
        {
          "internalType": "uint256",
          "name": "r0",
          "type": "uint256"
        },
        {
          "internalType": "uint256",
          "name": "r1",
          "type": "uint256"
        },
        {
          "internalType": "uint256",
          "name": "shares",
          "type": "uint256"
        }
      ],
      "name": "verifyInvariant",
      "outputs": [
        {
          "internalType": "bool",
          "name": "valid",
          "type": "bool"
        }
      ],
      "stateMutability": "view",
      "type": "function"
    }
  ],
  "bytecode": {
    "object": "0x610160604052600280546001600160f01b0316600160f01b1790553480156200002757600080fd5b50336001600160a01b03166080816001600160a01b031681525050600080336001600160a01b0316636d9877ab6040518163ffffffff1660e01b815260040160c060405180830381865afa15801562000084573d6000803e3d6000fd5b505050506040513d601f19601f82011682018060405250810190620000aa919062000158565b610100526001600160a01b0392831660e05292821660c052921660a05290925090506012821180620000dc5750600682105b15620000fb57604051636819ba0560e01b815260040160405180910390fd5b60128111806200010b5750600681105b156200012a57604051636819ba0560e01b815260040160405180910390fd5b6101209190915261014052620001be565b80516001600160a01b03811681146200015357600080fd5b919050565b60008060008060008060c087890312156200017257600080fd5b6200017d876200013b565b95506200018d602088016200013b565b94506200019d604088016200013b565b9350606087015192506080870151915060a087015190509295509295509295565b60805160a05160c05160e0516101005161012051610140516119bf62000282600039600081816102a9015261051901526000818161018c01526104d80152600081816103530152818161054a0152818161059201526105bf0152600081816103d0015281816107c2015281816109c001528181610e6001526113d30152600081816101ee015281816107970152818161098f01528181610e24015261126901526000818161032c0152818161040a0152610ccb015260006103a001526119bf6000f3fe608060405234801561001057600080fd5b50600436106101515760003560e01c80639dc29fac116100cd578063bb9a590811610081578063c45a015511610066578063c45a01551461039b578063edaafe20146103c2578063ee1f21d8146103cb57600080fd5b8063bb9a590814610375578063bc25cf771461038857600080fd5b8063a0712d68116100b2578063a0712d6814610314578063a39bfd1314610327578063b09ad8a01461034e57600080fd5b80639dc29fac146102ee5780639f1d0f591461030157600080fd5b80635001f3b51161012457806375172a8b1161010957806375172a8b1461026357806387557ff7146102a45780639a4d5e21146102cb57600080fd5b80635001f3b5146101e95780635a76f25e1461023557600080fd5b806318160ddd1461015657806322cf1989146101725780632faf67d614610187578063443cb4bc146101ae575b600080fd5b61015f60005481565b6040519081526020015b60405180910390f35b61018561018036600461165e565b6103f2565b005b61015f7f000000000000000000000000000000000000000000000000000000000000000081565b6002546101c9906effffffffffffffffffffffffffffff1681565b6040516effffffffffffffffffffffffffffff9091168152602001610169565b6102107f000000000000000000000000000000000000000000000000000000000000000081565b60405173ffffffffffffffffffffffffffffffffffffffff9091168152602001610169565b6002546101c9906f0100000000000000000000000000000090046effffffffffffffffffffffffffffff1681565b6002546effffffffffffffffffffffffffffff808216916f010000000000000000000000000000009004165b60408051928352602083019190915201610169565b61015f7f000000000000000000000000000000000000000000000000000000000000000081565b6102de6102d9366004611677565b6104c3565b6040519015158152602001610169565b61028f6102fc3660046116c7565b610643565b61018561030f3660046116f1565b610898565b61018561032236600461165e565b610ae3565b6102107f000000000000000000000000000000000000000000000000000000000000000081565b61015f7f000000000000000000000000000000000000000000000000000000000000000081565b61018561038336600461165e565b610cb3565b610185610396366004611724565b610d34565b6102107f000000000000000000000000000000000000000000000000000000000000000081565b61015f60015481565b6102107f000000000000000000000000000000000000000000000000000000000000000081565b3373ffffffffffffffffffffffffffffffffffffffff7f00000000000000000000000000000000000000000000000000000000000000001614610461576040517fb3491a6e00000000000000000000000000000000000000000000000000000000815260040160405180910390fd5b600054600154610471908361176e565b11156104a9576040517feecc2bbd00000000000000000000000000000000000000000000000000000000815260040160405180910390fd5b80600160008282546104bb919061176e565b909155505050565b6000806105036104d38685610ed8565b6104fe7f0000000000000000000000000000000000000000000000000000000000000000600a6118a1565b610ed8565b9050600061053f6105148686610ed8565b6104fe7f0000000000000000000000000000000000000000000000000000000000000000600a6118a1565b905081600061056e837f0000000000000000000000000000000000000000000000000000000000000000610eed565b90506000600461057f856002610ef9565b61058991906118dc565b905060006105b87f00000000000000000000000000000000000000000000000000000000000000006002610ef9565b90506105e57f00000000000000000000000000000000000000000000000000000000000000006002611917565b85111561061e576040517ff80926d800000000000000000000000000000000000000000000000000000000815260040160405180910390fd5b610628818361176e565b610632848661176e565b1496505050505050505b9392505050565b6000806002601e9054906101000a900461ffff1661ffff16600114610694576040517f29f745a700000000000000000000000000000000000000000000000000000000815260040160405180910390fd5b600280547e020000000000000000000000000000000000000000000000000000000000007dffffffffffffffffffffffffffffffffffffffffffffffffffffffffffff82161791829055600080546effffffffffffffffffffffffffffff928316936f0100000000000000000000000000000090049092169190610719848884610f59565b90506000610728848985610f59565b905081158015610736575080155b1561076d576040517fd5ab59fe00000000000000000000000000000000000000000000000000000000815260040160405180910390fd5b61077688611062565b610792610783838761192e565b61078d838761192e565b611085565b6107bd7f00000000000000000000000000000000000000000000000000000000000000008a84611111565b6107e87f00000000000000000000000000000000000000000000000000000000000000008a83611111565b604080518381526020810183905290810189905273ffffffffffffffffffffffffffffffffffffffff8a169033907fd175a80c109434bb89948928ab2475a6647c94244cb70002197896423c8833639060600160405180910390a3600280547dffffffffffffffffffffffffffffffffffffffffffffffffffffffffffff167e01000000000000000000000000000000000000000000000000000000000000179055909890975095505050505050565b6002547e01000000000000000000000000000000000000000000000000000000000000900461ffff166001146108fa576040517f29f745a700000000000000000000000000000000000000000000000000000000815260040160405180910390fd5b600280547dffffffffffffffffffffffffffffffffffffffffffffffffffffffffffff167e020000000000000000000000000000000000000000000000000000000000001790558115801561094d575080155b15610984576040517fd5ab59fe00000000000000000000000000000000000000000000000000000000815260040160405180910390fd5b81156109b5576109b57f00000000000000000000000000000000000000000000000000000000000000008484611111565b80156109e6576109e67f00000000000000000000000000000000000000000000000000000000000000008483611111565b6000806109f16111ae565b91509150610a0282826000546104c3565b610a38576040517f6819ba0500000000000000000000000000000000000000000000000000000000815260040160405180910390fd5b610a428282611085565b604080518581526020810185905273ffffffffffffffffffffffffffffffffffffffff87169133917f2a9237ff5aa599ef4c5ee4b1142b53429d5755e2685fe6288b2e3320202115f5910160405180910390a35050600280547dffffffffffffffffffffffffffffffffffffffffffffffffffffffffffff167e01000000000000000000000000000000000000000000000000000000000000179055505050565b6002547e01000000000000000000000000000000000000000000000000000000000000900461ffff16600114610b45576040517f29f745a700000000000000000000000000000000000000000000000000000000815260040160405180910390fd5b600280547dffffffffffffffffffffffffffffffffffffffffffffffffffffffffffff167e020000000000000000000000000000000000000000000000000000000000001790556000819003610bc7576040517fd5ab59fe00000000000000000000000000000000000000000000000000000000815260040160405180910390fd5b600080610bd26111ae565b91509150610be98282600054866102d9919061176e565b610c1f576040517f6819ba0500000000000000000000000000000000000000000000000000000000815260040160405180910390fd5b610c28836114be565b610c328282611085565b60405183815233907f0f6798a560793a54c3bcfe86a93cde1e73087d944c0ea20544137d41213968859060200160405180910390a25050600280547dffffffffffffffffffffffffffffffffffffffffffffffffffffffffffff167e0100000000000000000000000000000000000000000000000000000000000017905550565b3373ffffffffffffffffffffffffffffffffffffffff7f00000000000000000000000000000000000000000000000000000000000000001614610d22576040517fb3491a6e00000000000000000000000000000000000000000000000000000000815260040160405180910390fd5b80600160008282546104bb919061192e565b6002547e01000000000000000000000000000000000000000000000000000000000000900461ffff16600114610d96576040517f29f745a700000000000000000000000000000000000000000000000000000000815260040160405180910390fd5b600280547e020000000000000000000000000000000000000000000000000000000000007dffffffffffffffffffffffffffffffffffffffffffffffffffffffffffff821617918290556effffffffffffffffffffffffffffff908116916f01000000000000000000000000000000900416600080610e136111ae565b9150915083821115610e5357610e537f000000000000000000000000000000000000000000000000000000000000000086610e4e878661192e565b611111565b82811115610e8a57610e8a7f000000000000000000000000000000000000000000000000000000000000000086610e4e868561192e565b5050600280547dffffffffffffffffffffffffffffffffffffffffffffffffffffffffffff167e01000000000000000000000000000000000000000000000000000000000000179055505050565b600061063c83670de0b6b3a764000084610f59565b600061063c83836114df565b6000808260011611610f1357670de0b6b3a7640000610f15565b825b9050600182901c91505b8115610f5357610f2f83846114df565b92506001821615610f4757610f4481846114df565b90505b600182901c9150610f1f565b92915050565b600080807fffffffffffffffffffffffffffffffffffffffffffffffffffffffffffffffff85870985870292508281108382030391505080600003610fb157838281610fa757610fa76118ad565b049250505061063c565b838110610ff9576040517f773cc18c00000000000000000000000000000000000000000000000000000000815260048101829052602481018590526044015b60405180910390fd5b60008486880960026001871981018816978890046003810283188082028403028082028403028082028403028082028403028082028403029081029092039091026000889003889004909101858311909403939093029303949094049190911702949350505050565b8060016000828254611074919061192e565b909155505060008054919091039055565b61108e826115f6565b600280547fffffffffffffffffffffffffffffffffff000000000000000000000000000000166effffffffffffffffffffffffffffff929092169190911790556110d7816115f6565b6002600f6101000a8154816effffffffffffffffffffffffffffff02191690836effffffffffffffffffffffffffffff1602179055505050565b60006040517fa9059cbb00000000000000000000000000000000000000000000000000000000815273ffffffffffffffffffffffffffffffffffffffff841660048201528260248201526000806044836000895af191505061117281611619565b6111a8576040517fbfa871c500000000000000000000000000000000000000000000000000000000815260040160405180910390fd5b50505050565b604080518082018252601281527f62616c616e63654f662861646472657373290000000000000000000000000000602091820152815130602480830191909152835180830390910181526044909101835290810180517bffffffffffffffffffffffffffffffffffffffffffffffffffffffff167f70a082310000000000000000000000000000000000000000000000000000000017905290516000918291829160609173ffffffffffffffffffffffffffffffffffffffff7f0000000000000000000000000000000000000000000000000000000000000000169161129391611941565b600060405180830381855afa9150503d80600081146112ce576040519150601f19603f3d011682016040523d82523d6000602084013e6112d3565b606091505b5090925090508115806112e7575060208151105b1561131e576040517f7613bc8900000000000000000000000000000000000000000000000000000000815260040160405180910390fd5b6000818060200190518101906113349190611970565b604080518082018252601281527f62616c616e63654f662861646472657373290000000000000000000000000000602091820152815130602480830191909152835180830390910181526044909101835290810180517bffffffffffffffffffffffffffffffffffffffffffffffffffffffff167f70a082310000000000000000000000000000000000000000000000000000000017905290519192507f000000000000000000000000000000000000000000000000000000000000000073ffffffffffffffffffffffffffffffffffffffff16916114139190611941565b600060405180830381855afa9150503d806000811461144e576040519150601f19603f3d011682016040523d82523d6000602084013e611453565b606091505b509093509150821580611467575060208251105b1561149e576040517f7613bc8900000000000000000000000000000000000000000000000000000000815260040160405180910390fd5b80828060200190518101906114b39190611970565b945094505050509091565b806000808282546114cf919061176e565b9091555050600180549091019055565b600080807fffffffffffffffffffffffffffffffffffffffffffffffffffffffffffffffff848609848602925082811083820303915050670de0b6b3a7640000811061155a576040517fd31b340200000000000000000000000000000000000000000000000000000000815260048101829052602401610ff0565b600080670de0b6b3a764000086880991506706f05b59d3b1ffff82119050826000036115985780670de0b6b3a7640000850401945050505050610f53565b6204000082850304939091119091037d40000000000000000000000000000000000000000000000000000000000002919091177faccb18165bd6fe31ae1cf318dc5b51eee0e1ba569b88cd74c1773b91fac106690201905092915050565b806effffffffffffffffffffffffffffff8116811461161457600080fd5b919050565b60008161162a573d6000803e3d6000fd5b3d602081146116425780156116535760009150611658565b3d6000803e60005115159150611658565b600191505b50919050565b60006020828403121561167057600080fd5b5035919050565b60008060006060848603121561168c57600080fd5b505081359360208301359350604090920135919050565b803573ffffffffffffffffffffffffffffffffffffffff8116811461161457600080fd5b600080604083850312156116da57600080fd5b6116e3836116a3565b946020939093013593505050565b60008060006060848603121561170657600080fd5b61170f846116a3565b95602085013595506040909401359392505050565b60006020828403121561173657600080fd5b61063c826116a3565b7f4e487b7100000000000000000000000000000000000000000000000000000000600052601160045260246000fd5b80820180821115610f5357610f5361173f565b600181815b808511156117da57817fffffffffffffffffffffffffffffffffffffffffffffffffffffffffffffffff048211156117c0576117c061173f565b808516156117cd57918102915b93841c9390800290611786565b509250929050565b6000826117f157506001610f53565b816117fe57506000610f53565b8160018114611814576002811461181e5761183a565b6001915050610f53565b60ff84111561182f5761182f61173f565b50506001821b610f53565b5060208310610133831016604e8410600b841016171561185d575081810a610f53565b6118678383611781565b807fffffffffffffffffffffffffffffffffffffffffffffffffffffffffffffffff048211156118995761189961173f565b029392505050565b600061063c83836117e2565b7f4e487b7100000000000000000000000000000000000000000000000000000000600052601260045260246000fd5b600082611912577f4e487b7100000000000000000000000000000000000000000000000000000000600052601260045260246000fd5b500490565b8082028115828204841417610f5357610f5361173f565b81810381811115610f5357610f5361173f565b6000825160005b818110156119625760208186018101518583015201611948565b506000920191825250919050565b60006020828403121561198257600080fd5b505191905056fea2646970667358221220b17f4929657dd141d0bc8deb06c2fc7bdbaa71058d19daf6068b53a5bfd5c38b64736f6c63430008110033",
    "linkReferences": {}
  },
  "methodIdentifiers": {
    "addBuffer(uint256)": "22cf1989",
    "base()": "5001f3b5",
    "baseScaleFactor()": "2faf67d6",
    "buffer()": "edaafe20",
    "burn(address,uint256)": "9dc29fac",
    "factory()": "c45a0155",
    "lendgine()": "a39bfd13",
    "mint(uint256)": "a0712d68",
    "removeBuffer(uint256)": "bb9a5908",
    "reserve0()": "443cb4bc",
    "reserve1()": "5a76f25e",
    "reserves()": "75172a8b",
    "skim(address)": "bc25cf77",
    "speculative()": "ee1f21d8",
    "speculativeScaleFactor()": "87557ff7",
    "swap(address,uint256,uint256)": "9f1d0f59",
    "totalSupply()": "18160ddd",
    "upperBound()": "b09ad8a0",
    "verifyInvariant(uint256,uint256,uint256)": "9a4d5e21"
  },
  "id": 15
}