{
  "abi": [
    {
      "inputs": [],
      "stateMutability": "nonpayable",
      "type": "constructor"
    },
    {
      "inputs": [],
      "name": "BalanceReturnError",
      "type": "error"
    },
    {
      "inputs": [],
      "name": "InsufficientBurnError",
      "type": "error"
    },
    {
      "inputs": [],
      "name": "InsufficientInputError",
      "type": "error"
    },
    {
      "inputs": [],
      "name": "InsufficientOutputError",
      "type": "error"
    },
    {
      "inputs": [],
      "name": "InvariantError",
      "type": "error"
    },
    {
      "inputs": [],
      "name": "ReentrancyError",
      "type": "error"
    },
    {
      "anonymous": false,
      "inputs": [
        {
          "indexed": true,
          "internalType": "address",
          "name": "owner",
          "type": "address"
        },
        {
          "indexed": true,
          "internalType": "address",
          "name": "spender",
          "type": "address"
        },
        {
          "indexed": false,
          "internalType": "uint256",
          "name": "amount",
          "type": "uint256"
        }
      ],
      "name": "Approval",
      "type": "event"
    },
    {
      "anonymous": false,
      "inputs": [
        {
          "indexed": true,
          "internalType": "address",
          "name": "sender",
          "type": "address"
        },
        {
          "indexed": false,
          "internalType": "uint256",
          "name": "amount0",
          "type": "uint256"
        },
        {
          "indexed": false,
          "internalType": "uint256",
          "name": "amount1",
          "type": "uint256"
        },
        {
          "indexed": false,
          "internalType": "uint256",
          "name": "liquidity",
          "type": "uint256"
        },
        {
          "indexed": true,
          "internalType": "address",
          "name": "to",
          "type": "address"
        }
      ],
      "name": "Burn",
      "type": "event"
    },
    {
      "anonymous": false,
      "inputs": [
        {
          "indexed": true,
          "internalType": "address",
          "name": "sender",
          "type": "address"
        },
        {
          "indexed": false,
          "internalType": "uint256",
          "name": "amount0",
          "type": "uint256"
        },
        {
          "indexed": false,
          "internalType": "uint256",
          "name": "amount1",
          "type": "uint256"
        },
        {
          "indexed": false,
          "internalType": "uint256",
          "name": "liquidity",
          "type": "uint256"
        },
        {
          "indexed": true,
          "internalType": "address",
          "name": "to",
          "type": "address"
        }
      ],
      "name": "Mint",
      "type": "event"
    },
    {
      "anonymous": false,
      "inputs": [
        {
          "indexed": true,
          "internalType": "address",
          "name": "sender",
          "type": "address"
        },
        {
          "indexed": false,
          "internalType": "uint256",
          "name": "amount0In",
          "type": "uint256"
        },
        {
          "indexed": false,
          "internalType": "uint256",
          "name": "amount1In",
          "type": "uint256"
        },
        {
          "indexed": false,
          "internalType": "uint256",
          "name": "amount0Out",
          "type": "uint256"
        },
        {
          "indexed": false,
          "internalType": "uint256",
          "name": "amount1Out",
          "type": "uint256"
        },
        {
          "indexed": true,
          "internalType": "address",
          "name": "to",
          "type": "address"
        }
      ],
      "name": "Swap",
      "type": "event"
    },
    {
      "anonymous": false,
      "inputs": [
        {
          "indexed": true,
          "internalType": "address",
          "name": "from",
          "type": "address"
        },
        {
          "indexed": true,
          "internalType": "address",
          "name": "to",
          "type": "address"
        },
        {
          "indexed": false,
          "internalType": "uint256",
          "name": "amount",
          "type": "uint256"
        }
      ],
      "name": "Transfer",
      "type": "event"
    },
    {
      "inputs": [],
      "name": "DOMAIN_SEPARATOR",
      "outputs": [
        {
          "internalType": "bytes32",
          "name": "",
          "type": "bytes32"
        }
      ],
      "stateMutability": "view",
      "type": "function"
    },
    {
      "inputs": [],
      "name": "MINIMUM_LIQUIDITY",
      "outputs": [
        {
          "internalType": "uint256",
          "name": "",
          "type": "uint256"
        }
      ],
      "stateMutability": "view",
      "type": "function"
    },
    {
      "inputs": [
        {
          "internalType": "address",
          "name": "",
          "type": "address"
        },
        {
          "internalType": "address",
          "name": "",
          "type": "address"
        }
      ],
      "name": "allowance",
      "outputs": [
        {
          "internalType": "uint256",
          "name": "",
          "type": "uint256"
        }
      ],
      "stateMutability": "view",
      "type": "function"
    },
    {
      "inputs": [
        {
          "internalType": "address",
          "name": "spender",
          "type": "address"
        },
        {
          "internalType": "uint256",
          "name": "amount",
          "type": "uint256"
        }
      ],
      "name": "approve",
      "outputs": [
        {
          "internalType": "bool",
          "name": "",
          "type": "bool"
        }
      ],
      "stateMutability": "nonpayable",
      "type": "function"
    },
    {
      "inputs": [
        {
          "internalType": "address",
          "name": "",
          "type": "address"
        }
      ],
      "name": "balanceOf",
      "outputs": [
        {
          "internalType": "uint256",
          "name": "",
          "type": "uint256"
        }
      ],
      "stateMutability": "view",
      "type": "function"
    },
    {
      "inputs": [],
      "name": "balances",
      "outputs": [
        {
          "internalType": "uint256",
          "name": "",
          "type": "uint256"
        },
        {
          "internalType": "uint256",
          "name": "",
          "type": "uint256"
        }
      ],
      "stateMutability": "view",
      "type": "function"
    },
    {
      "inputs": [
        {
          "internalType": "address",
          "name": "to",
          "type": "address"
        }
      ],
      "name": "burn",
      "outputs": [
        {
          "internalType": "uint256",
          "name": "amount0",
          "type": "uint256"
        },
        {
          "internalType": "uint256",
          "name": "amount1",
          "type": "uint256"
        }
      ],
      "stateMutability": "nonpayable",
      "type": "function"
    },
    {
      "inputs": [],
      "name": "decimals",
      "outputs": [
        {
          "internalType": "uint8",
          "name": "",
          "type": "uint8"
        }
      ],
      "stateMutability": "view",
      "type": "function"
    },
    {
      "inputs": [],
      "name": "factory",
      "outputs": [
        {
          "internalType": "address",
          "name": "",
          "type": "address"
        }
      ],
      "stateMutability": "view",
      "type": "function"
    },
    {
      "inputs": [
        {
          "internalType": "uint256",
          "name": "amount0",
          "type": "uint256"
        },
        {
          "internalType": "uint256",
          "name": "amount1",
          "type": "uint256"
        },
        {
          "internalType": "address",
          "name": "to",
          "type": "address"
        },
        {
          "internalType": "bytes",
          "name": "data",
          "type": "bytes"
        }
      ],
      "name": "mint",
      "outputs": [
        {
          "internalType": "uint256",
          "name": "liquidity",
          "type": "uint256"
        }
      ],
      "stateMutability": "nonpayable",
      "type": "function"
    },
    {
      "inputs": [],
      "name": "name",
      "outputs": [
        {
          "internalType": "string",
          "name": "",
          "type": "string"
        }
      ],
      "stateMutability": "view",
      "type": "function"
    },
    {
      "inputs": [
        {
          "internalType": "address",
          "name": "",
          "type": "address"
        }
      ],
      "name": "nonces",
      "outputs": [
        {
          "internalType": "uint256",
          "name": "",
          "type": "uint256"
        }
      ],
      "stateMutability": "view",
      "type": "function"
    },
    {
      "inputs": [
        {
          "internalType": "address",
          "name": "owner",
          "type": "address"
        },
        {
          "internalType": "address",
          "name": "spender",
          "type": "address"
        },
        {
          "internalType": "uint256",
          "name": "value",
          "type": "uint256"
        },
        {
          "internalType": "uint256",
          "name": "deadline",
          "type": "uint256"
        },
        {
          "internalType": "uint8",
          "name": "v",
          "type": "uint8"
        },
        {
          "internalType": "bytes32",
          "name": "r",
          "type": "bytes32"
        },
        {
          "internalType": "bytes32",
          "name": "s",
          "type": "bytes32"
        }
      ],
      "name": "permit",
      "outputs": [],
      "stateMutability": "nonpayable",
      "type": "function"
    },
    {
      "inputs": [
        {
          "internalType": "uint256",
          "name": "amount0Out",
          "type": "uint256"
        },
        {
          "internalType": "uint256",
          "name": "amount1Out",
          "type": "uint256"
        },
        {
          "internalType": "address",
          "name": "to",
          "type": "address"
        },
        {
          "internalType": "bytes",
          "name": "data",
          "type": "bytes"
        }
      ],
      "name": "swap",
      "outputs": [
        {
          "internalType": "uint256",
          "name": "amount0In",
          "type": "uint256"
        },
        {
          "internalType": "uint256",
          "name": "amount1In",
          "type": "uint256"
        }
      ],
      "stateMutability": "nonpayable",
      "type": "function"
    },
    {
      "inputs": [],
      "name": "symbol",
      "outputs": [
        {
          "internalType": "string",
          "name": "",
          "type": "string"
        }
      ],
      "stateMutability": "view",
      "type": "function"
    },
    {
      "inputs": [],
      "name": "token0",
      "outputs": [
        {
          "internalType": "address",
          "name": "",
          "type": "address"
        }
      ],
      "stateMutability": "view",
      "type": "function"
    },
    {
      "inputs": [],
      "name": "token1",
      "outputs": [
        {
          "internalType": "address",
          "name": "",
          "type": "address"
        }
      ],
      "stateMutability": "view",
      "type": "function"
    },
    {
      "inputs": [],
      "name": "totalSupply",
      "outputs": [
        {
          "internalType": "uint256",
          "name": "",
          "type": "uint256"
        }
      ],
      "stateMutability": "view",
      "type": "function"
    },
    {
      "inputs": [
        {
          "internalType": "address",
          "name": "to",
          "type": "address"
        },
        {
          "internalType": "uint256",
          "name": "amount",
          "type": "uint256"
        }
      ],
      "name": "transfer",
      "outputs": [
        {
          "internalType": "bool",
          "name": "",
          "type": "bool"
        }
      ],
      "stateMutability": "nonpayable",
      "type": "function"
    },
    {
      "inputs": [
        {
          "internalType": "address",
          "name": "from",
          "type": "address"
        },
        {
          "internalType": "address",
          "name": "to",
          "type": "address"
        },
        {
          "internalType": "uint256",
          "name": "amount",
          "type": "uint256"
        }
      ],
      "name": "transferFrom",
      "outputs": [
        {
          "internalType": "bool",
          "name": "",
          "type": "bool"
        }
      ],
      "stateMutability": "nonpayable",
      "type": "function"
    },
    {
      "inputs": [],
      "name": "upperBound",
      "outputs": [
        {
          "internalType": "uint256",
          "name": "",
          "type": "uint256"
        }
      ],
      "stateMutability": "view",
      "type": "function"
    }
  ],
  "bytecode": {
    "object": "0x61016060405260016006553480156200001757600080fd5b506040518060400160405280600981526020016804e756d6f656e204c560bc1b8152506040518060400160405280600381526020016204e4c560ec1b815250601282600090816200006991906200025c565b5060016200007883826200025c565b5060ff81166080524660a0526200008e6200011b565b60c05250503360e081905260408051630890357360e41b8152905191925063890357309160048083019260609291908290030181865afa158015620000d7573d6000803e3d6000fd5b505050506040513d601f19601f82011682018060405250810190620000fd919062000345565b610140526001600160a01b0390811661012052166101005262000404565b60007f8b73c3c69bb8fe3d512ecc4cf759cc79239f7b179b0ffacaa9a75d522b39400f60006040516200014f919062000386565b6040805191829003822060208301939093528101919091527fc89efdaa54c0f20c7adf612882df0950f5a951637e0307cdcb4c672f298b8bc660608201524660808201523060a082015260c00160405160208183030381529060405280519060200120905090565b634e487b7160e01b600052604160045260246000fd5b600181811c90821680620001e257607f821691505b6020821081036200020357634e487b7160e01b600052602260045260246000fd5b50919050565b601f8211156200025757600081815260208120601f850160051c81016020861015620002325750805b601f850160051c820191505b8181101562000253578281556001016200023e565b5050505b505050565b81516001600160401b03811115620002785762000278620001b7565b6200029081620002898454620001cd565b8462000209565b602080601f831160018114620002c85760008415620002af5750858301515b600019600386901b1c1916600185901b17855562000253565b600085815260208120601f198616915b82811015620002f957888601518255948401946001909101908401620002d8565b5085821015620003185787850151600019600388901b60f8161c191681555b5050505050600190811b01905550565b80516001600160a01b03811681146200034057600080fd5b919050565b6000806000606084860312156200035b57600080fd5b620003668462000328565b9250620003766020850162000328565b9150604084015190509250925092565b60008083546200039681620001cd565b60018281168015620003b15760018114620003c757620003f8565b60ff1984168752821515830287019450620003f8565b8760005260208060002060005b85811015620003ef5781548a820152908401908201620003d4565b50505082870194505b50929695505050505050565b60805160a05160c05160e051610100516101205161014051611d2362000497600039600081816103260152818161048a01526105ec01526000818161037d0152818161050001528181610e21015261101f0152600081816101e6015281816104cf01528181610cb70152610ff4015260006103560152600061095e015260006109290152600061025c0152611d236000f3fe608060405234801561001057600080fd5b50600436106101775760003560e01c80637bb98a68116100d8578063b09ad8a01161008c578063d21220a711610066578063d21220a714610378578063d505accf1461039f578063dd62ed3e146103b457600080fd5b8063b09ad8a014610321578063ba9a7a5614610348578063c45a01551461035157600080fd5b806389afcb44116100bd57806389afcb44146102f357806395d89b4114610306578063a9059cbb1461030e57600080fd5b80637bb98a68146102cb5780637ecebe00146102d357600080fd5b806323b872dd1161012f5780633644e515116101145780633644e515146102905780635ca5933a1461029857806370a08231146102ab57600080fd5b806323b872dd14610244578063313ce5671461025757600080fd5b8063095ea7b311610160578063095ea7b3146101be5780630dfe1681146101e157806318160ddd1461022d57600080fd5b8063022c0d9f1461017c57806306fdde03146101a9575b600080fd5b61018f61018a366004611708565b6103df565b604080519283526020830191909152015b60405180910390f35b6101b16106d9565b6040516101a091906117c0565b6101d16101cc366004611811565b610767565b60405190151581526020016101a0565b6102087f000000000000000000000000000000000000000000000000000000000000000081565b60405173ffffffffffffffffffffffffffffffffffffffff90911681526020016101a0565b61023660025481565b6040519081526020016101a0565b6101d161025236600461183b565b6107e1565b61027e7f000000000000000000000000000000000000000000000000000000000000000081565b60405160ff90911681526020016101a0565b610236610925565b6102366102a6366004611708565b610980565b6102366102b9366004611877565b60036020526000908152604090205481565b61018f610bfc565b6102366102e1366004611877565b60056020526000908152604090205481565b61018f610301366004611877565b610f0c565b6101b16110b1565b6101d161031c366004611811565b6110be565b6102367f000000000000000000000000000000000000000000000000000000000000000081565b6102366103e881565b6102087f000000000000000000000000000000000000000000000000000000000000000081565b6102087f000000000000000000000000000000000000000000000000000000000000000081565b6103b26103ad366004611892565b611143565b005b6102366103c2366004611905565b600460209081526000928352604080842090915290825290205481565b60008060065460011461041e576040517f29f745a700000000000000000000000000000000000000000000000000000000815260040160405180910390fd5b60026006558615801561042f575085155b15610466576040517fd5ab59fe00000000000000000000000000000000000000000000000000000000815260040160405180910390fd5b600080610471610bfc565b9092509050600060026104848184611967565b6104ae907f00000000000000000000000000000000000000000000000000000000000000006119a2565b6104b89190611ad5565b6104c290846119a2565b905089156104f5576104f57f0000000000000000000000000000000000000000000000000000000000000000898c611467565b8815610526576105267f0000000000000000000000000000000000000000000000000000000000000000898b611467565b6040517f2783e3610000000000000000000000000000000000000000000000000000000081523390632783e36190610568908d908d908c908c90600401611ae4565b600060405180830381600087803b15801561058257600080fd5b505af1158015610596573d6000803e3d6000fd5b505050506000806105a5610bfc565b9092509050846105b58d84611b3f565b6105bf91906119a2565b9650836105cc8c83611b3f565b6105d691906119a2565b9550600060026105e68184611967565b610610907f00000000000000000000000000000000000000000000000000000000000000006119a2565b61061a9190611ad5565b61062490846119a2565b905080841115610660576040517f6819ba0500000000000000000000000000000000000000000000000000000000815260040160405180910390fd5b505060408051878152602081018790529081018c9052606081018b905273ffffffffffffffffffffffffffffffffffffffff8a16915033907fd78ad95fa46c994b6551d0da85fc275fe613ce37657fb8d5e3d130840159d8229060800160405180910390a3505060016006555090969095509350505050565b600080546106e690611b52565b80601f016020809104026020016040519081016040528092919081815260200182805461071290611b52565b801561075f5780601f106107345761010080835404028352916020019161075f565b820191906000526020600020905b81548152906001019060200180831161074257829003601f168201915b505050505081565b33600081815260046020908152604080832073ffffffffffffffffffffffffffffffffffffffff8716808552925280832085905551919290917f8c5be1e5ebec7d5bd14f71427d1e84f3dd0314c0f7b2291e5b200ac8c7c3b925906107cf9086815260200190565b60405180910390a35060015b92915050565b73ffffffffffffffffffffffffffffffffffffffff831660009081526004602090815260408083203384529091528120547fffffffffffffffffffffffffffffffffffffffffffffffffffffffffffffffff81146108755761084383826119a2565b73ffffffffffffffffffffffffffffffffffffffff861660009081526004602090815260408083203384529091529020555b73ffffffffffffffffffffffffffffffffffffffff8516600090815260036020526040812080548592906108aa9084906119a2565b909155505073ffffffffffffffffffffffffffffffffffffffff808516600081815260036020526040908190208054870190555190918716907fddf252ad1be2c89b69c2b068fc378daa952ba7f163c4a11628f55a4df523b3ef906109129087815260200190565b60405180910390a3506001949350505050565b60007f0000000000000000000000000000000000000000000000000000000000000000461461095b57610956611526565b905090565b507f000000000000000000000000000000000000000000000000000000000000000090565b60006006546001146109be576040517f29f745a700000000000000000000000000000000000000000000000000000000815260040160405180910390fd5b60026006556000806109ce610bfc565b60025491935091506000819003610a0a576103e86109ec898b611b3f565b6109f691906119a2565b9350610a0560006103e86115c0565b610a3f565b610a3c83610a18838c611ba5565b610a229190611967565b83610a2d848c611ba5565b610a379190611967565b611639565b93505b83600003610a79576040517fd5ab59fe00000000000000000000000000000000000000000000000000000000815260040160405180910390fd5b610a8387856115c0565b6040517f916b762c000000000000000000000000000000000000000000000000000000008152339063916b762c90610ac5908c908c908b908b90600401611ae4565b600060405180830381600087803b158015610adf57600080fd5b505af1158015610af3573d6000803e3d6000fd5b50505050600080610b02610bfc565b90925090508a610b1286846119a2565b1015610b4a576040517fee30a99300000000000000000000000000000000000000000000000000000000815260040160405180910390fd5b89610b5585836119a2565b1015610b8d576040517fee30a99300000000000000000000000000000000000000000000000000000000815260040160405180910390fd5b604080518c8152602081018c905290810187905273ffffffffffffffffffffffffffffffffffffffff8a169033907fa8137fff86647d8a402117b9c5dbda627f721d3773338fb9678c83e54ed390809060600160405180910390a3505060016006555091979650505050505050565b604080518082018252601281527f62616c616e63654f662861646472657373290000000000000000000000000000602091820152815130602480830191909152835180830390910181526044909101835290810180517bffffffffffffffffffffffffffffffffffffffffffffffffffffffff167f70a082310000000000000000000000000000000000000000000000000000000017905290516000918291829160609173ffffffffffffffffffffffffffffffffffffffff7f00000000000000000000000000000000000000000000000000000000000000001691610ce191611be2565b600060405180830381855afa9150503d8060008114610d1c576040519150601f19603f3d011682016040523d82523d6000602084013e610d21565b606091505b509092509050811580610d35575060208151105b15610d6c576040517f7613bc8900000000000000000000000000000000000000000000000000000000815260040160405180910390fd5b600081806020019051810190610d829190611bfe565b604080518082018252601281527f62616c616e63654f662861646472657373290000000000000000000000000000602091820152815130602480830191909152835180830390910181526044909101835290810180517bffffffffffffffffffffffffffffffffffffffffffffffffffffffff167f70a082310000000000000000000000000000000000000000000000000000000017905290519192507f000000000000000000000000000000000000000000000000000000000000000073ffffffffffffffffffffffffffffffffffffffff1691610e619190611be2565b600060405180830381855afa9150503d8060008114610e9c576040519150601f19603f3d011682016040523d82523d6000602084013e610ea1565b606091505b509093509150821580610eb5575060208251105b15610eec576040517f7613bc8900000000000000000000000000000000000000000000000000000000815260040160405180910390fd5b8082806020019051810190610f019190611bfe565b945094505050509091565b600080600654600114610f4b576040517f29f745a700000000000000000000000000000000000000000000000000000000815260040160405180910390fd5b6002600655600080610f5b610bfc565b306000908152600360205260409020546002549294509092509080610f808584611ba5565b610f8a9190611967565b955080610f978484611ba5565b610fa19190611967565b9450851580610fae575084155b15610fe5576040517f2b2375b700000000000000000000000000000000000000000000000000000000815260040160405180910390fd5b610fef3083611651565b61101a7f00000000000000000000000000000000000000000000000000000000000000008888611467565b6110457f00000000000000000000000000000000000000000000000000000000000000008887611467565b604080518781526020810187905290810183905273ffffffffffffffffffffffffffffffffffffffff88169033907fd175a80c109434bb89948928ab2475a6647c94244cb70002197896423c8833639060600160405180910390a3505050506001600681905550915091565b600180546106e690611b52565b336000908152600360205260408120805483919083906110df9084906119a2565b909155505073ffffffffffffffffffffffffffffffffffffffff8316600081815260036020526040908190208054850190555133907fddf252ad1be2c89b69c2b068fc378daa952ba7f163c4a11628f55a4df523b3ef906107cf9086815260200190565b428410156111b2576040517f08c379a000000000000000000000000000000000000000000000000000000000815260206004820152601760248201527f5045524d49545f444541444c494e455f4558504952454400000000000000000060448201526064015b60405180910390fd5b600060016111be610925565b73ffffffffffffffffffffffffffffffffffffffff8a811660008181526005602090815260409182902080546001810190915582517f6e71edae12b1b97f4d1f60370fef10105fa2faae0126114a169c64845d6126c98184015280840194909452938d166060840152608083018c905260a083019390935260c08083018b90528151808403909101815260e0830190915280519201919091207f190100000000000000000000000000000000000000000000000000000000000061010083015261010282019290925261012281019190915261014201604080517fffffffffffffffffffffffffffffffffffffffffffffffffffffffffffffffe08184030181528282528051602091820120600084529083018083525260ff871690820152606081018590526080810184905260a0016020604051602081039080840390855afa158015611310573d6000803e3d6000fd5b50506040517fffffffffffffffffffffffffffffffffffffffffffffffffffffffffffffffe0015191505073ffffffffffffffffffffffffffffffffffffffff81161580159061138b57508773ffffffffffffffffffffffffffffffffffffffff168173ffffffffffffffffffffffffffffffffffffffff16145b6113f1576040517f08c379a000000000000000000000000000000000000000000000000000000000815260206004820152600e60248201527f494e56414c49445f5349474e455200000000000000000000000000000000000060448201526064016111a9565b73ffffffffffffffffffffffffffffffffffffffff90811660009081526004602090815260408083208a8516808552908352928190208990555188815291928a16917f8c5be1e5ebec7d5bd14f71427d1e84f3dd0314c0f7b2291e5b200ac8c7c3b925910160405180910390a350505050505050565b60006040517fa9059cbb000000000000000000000000000000000000000000000000000000008152836004820152826024820152602060006044836000895af13d15601f3d1160016000511416171691505080611520576040517f08c379a000000000000000000000000000000000000000000000000000000000815260206004820152600f60248201527f5452414e534645525f4641494c4544000000000000000000000000000000000060448201526064016111a9565b50505050565b60007f8b73c3c69bb8fe3d512ecc4cf759cc79239f7b179b0ffacaa9a75d522b39400f60006040516115589190611c17565b6040805191829003822060208301939093528101919091527fc89efdaa54c0f20c7adf612882df0950f5a951637e0307cdcb4c672f298b8bc660608201524660808201523060a082015260c00160405160208183030381529060405280519060200120905090565b80600260008282546115d29190611b3f565b909155505073ffffffffffffffffffffffffffffffffffffffff82166000818152600360209081526040808320805486019055518481527fddf252ad1be2c89b69c2b068fc378daa952ba7f163c4a11628f55a4df523b3ef91015b60405180910390a35050565b6000818310611648578161164a565b825b9392505050565b73ffffffffffffffffffffffffffffffffffffffff8216600090815260036020526040812080548392906116869084906119a2565b909155505060028054829003905560405181815260009073ffffffffffffffffffffffffffffffffffffffff8416907fddf252ad1be2c89b69c2b068fc378daa952ba7f163c4a11628f55a4df523b3ef9060200161162d565b803573ffffffffffffffffffffffffffffffffffffffff8116811461170357600080fd5b919050565b60008060008060006080868803121561172057600080fd5b8535945060208601359350611737604087016116df565b9250606086013567ffffffffffffffff8082111561175457600080fd5b818801915088601f83011261176857600080fd5b81358181111561177757600080fd5b89602082850101111561178957600080fd5b9699959850939650602001949392505050565b60005b838110156117b757818101518382015260200161179f565b50506000910152565b60208152600082518060208401526117df81604085016020870161179c565b601f017fffffffffffffffffffffffffffffffffffffffffffffffffffffffffffffffe0169190910160400192915050565b6000806040838503121561182457600080fd5b61182d836116df565b946020939093013593505050565b60008060006060848603121561185057600080fd5b611859846116df565b9250611867602085016116df565b9150604084013590509250925092565b60006020828403121561188957600080fd5b61164a826116df565b600080600080600080600060e0888a0312156118ad57600080fd5b6118b6886116df565b96506118c4602089016116df565b95506040880135945060608801359350608088013560ff811681146118e857600080fd5b9699959850939692959460a0840135945060c09093013592915050565b6000806040838503121561191857600080fd5b611921836116df565b915061192f602084016116df565b90509250929050565b7f4e487b7100000000000000000000000000000000000000000000000000000000600052601160045260246000fd5b60008261199d577f4e487b7100000000000000000000000000000000000000000000000000000000600052601260045260246000fd5b500490565b818103818111156107db576107db611938565b600181815b80851115611a0e57817fffffffffffffffffffffffffffffffffffffffffffffffffffffffffffffffff048211156119f4576119f4611938565b80851615611a0157918102915b93841c93908002906119ba565b509250929050565b600082611a25575060016107db565b81611a32575060006107db565b8160018114611a485760028114611a5257611a6e565b60019150506107db565b60ff841115611a6357611a63611938565b50506001821b6107db565b5060208310610133831016604e8410600b8410161715611a91575081810a6107db565b611a9b83836119b5565b807fffffffffffffffffffffffffffffffffffffffffffffffffffffffffffffffff04821115611acd57611acd611938565b029392505050565b600061164a60ff841683611a16565b84815283602082015260606040820152816060820152818360808301376000818301608090810191909152601f9092017fffffffffffffffffffffffffffffffffffffffffffffffffffffffffffffffe01601019392505050565b808201808211156107db576107db611938565b600181811c90821680611b6657607f821691505b602082108103611b9f577f4e487b7100000000000000000000000000000000000000000000000000000000600052602260045260246000fd5b50919050565b6000817fffffffffffffffffffffffffffffffffffffffffffffffffffffffffffffffff0483118215151615611bdd57611bdd611938565b500290565b60008251611bf481846020870161179c565b9190910192915050565b600060208284031215611c1057600080fd5b5051919050565b600080835481600182811c915080831680611c3357607f831692505b60208084108203611c6b577f4e487b710000000000000000000000000000000000000000000000000000000086526022600452602486fd5b818015611c7f5760018114611cb257611cdf565b7fffffffffffffffffffffffffffffffffffffffffffffffffffffffffffffff0086168952841515850289019650611cdf565b60008a81526020902060005b86811015611cd75781548b820152908501908301611cbe565b505084890196505b50949897505050505050505056fea2646970667358221220cdf9de6cfe84294a7f7c26aed6cd6a8fd94e36f320ac31ff9c69e26fcfc422dc64736f6c63430008100033",
    "linkReferences": {}
  },
  "methodIdentifiers": {
    "DOMAIN_SEPARATOR()": "3644e515",
    "MINIMUM_LIQUIDITY()": "ba9a7a56",
    "allowance(address,address)": "dd62ed3e",
    "approve(address,uint256)": "095ea7b3",
    "balanceOf(address)": "70a08231",
    "balances()": "7bb98a68",
    "burn(address)": "89afcb44",
    "decimals()": "313ce567",
    "factory()": "c45a0155",
    "mint(uint256,uint256,address,bytes)": "5ca5933a",
    "name()": "06fdde03",
    "nonces(address)": "7ecebe00",
    "permit(address,address,uint256,uint256,uint8,bytes32,bytes32)": "d505accf",
    "swap(uint256,uint256,address,bytes)": "022c0d9f",
    "symbol()": "95d89b41",
    "token0()": "0dfe1681",
    "token1()": "d21220a7",
    "totalSupply()": "18160ddd",
    "transfer(address,uint256)": "a9059cbb",
    "transferFrom(address,address,uint256)": "23b872dd",
    "upperBound()": "b09ad8a0"
  },
  "id": 16
}